:03380000023BD2B6
:0C3BD200787FE4F6D8FD758120023C19D4
:103E7C00123E1A123B3E43BD107B017A00790012B0
:103E8C00381EEF600B24FE600E0470EA7F7980020E
:0C3E9C007F1F123F8180DF123FB180DAEF
:103E1A0075BD5490FEA074FFF0758E5090FE91749B
:103E2A0002F0A37410F090FF017403F090FE80E496
:103E3A00F0F589758DF5758B96D2ABC28E53BBF7AB
:013E4A002255
:103F81005398EF8F99E59830E1FB5398FD439810D2
:013F9100220D
:063F1E008B0E8A0F8910D2
:103F2400E4FEEEC39D5015AB0EAA0FA9108E827548
:0C3F34008300123ABEFF123F810E80E6AF
:013F4000225E
:103F9200E59830E00A5398FEE599123AEBD322C332
:013FA20022FC
:103E4B008B0E8A0F89108F148E138D128C1143BD1C
:103E5B0010781174FF123B10E4FBFAF9F8C3123A15
:103E6B00FD500CAB0EAA0FA910123F9250E322C3C8
:013E7B002224
:103F41000C0301000213122122313291920A030162
:103F510002131221223291920A48433839533030E8
:033F6100334634B0
:053FA300011700C10040
:103C5E00900008AA09A90A023ABEAB08AA09A90A45
:103C6E00900004123ABEFE900005123ABEFDEDFF22
:103C7E00222401FDE433FC900008123ABE7E002996
:103C8E00F9EE3AFAE92409F9E43A8B13F514891599
:103C9E00D20122F9E43509FA7F807E1A7D067C0076
:103CAE0022E92409F9E43AFA22AB08E50A2408F9D4
:053CBE00E43509FA22C3
:103B3E00D28ED2AFC3E517941474809480400312D2
:103B4E003FB12083EFC28EC2AF90FF107483F0900E
:103B5E00FFA07421F0A37403F075CC0675CEFF752B
:103B6E00CDF8759E027598107F79123F817B007D8E
:103B7E00007C00123BC64003123FB1E508647F6033
:103B8E0003123FB17F1F123F81E4F508FBFDFC12CB
:103B9E003BC64003123FB1E508647F6003123FB19C
:103BAE0090FEA474C1F0A37414F075BBA290FEA78E
:083BBE0074FFF07F1F023F813C
:0C3BC6007A0079087FA07E0F123E4B228F
:06381E008B088A09890AEB
:10382400123CA6123E4B40037F0222AB08E50A2459
:1038340001123CA1123E4B40037F0222AB089000D0
:1038440001123C61F4FF123AA5FE6F60037F00226F
:10385400EE24FE603C24EF605B24F270030239170F
:1038640024907003023A39147003023A442491609C
:1038740003023A4F7F79123F817F0A123F817A3FD8
:10388400794F123A8A7A3F794E123A72D2007F0106
:10389400227F79123F81123EF940037F00227F0A82
:1038A400123F817A3F795A123A8A7A3F7959123A09
:1038B400727F01227F79123F81E4F50BC3E50B94FB
:1038C4000274809480500C123A5240037F02220505
:1038D4000B80E9AB08AA09A90A900002123ABEF4C7
:1038E400702E900003123ABE70267DFF7C2FFFFEDF
:1038F400123ED1EF70037F0122123CA6123EA84073
:10390400037F0022123DACEF60037F01227F00227F
:103914007F00227F79123F81E4F50BC3E50B940607
:1039240074809480500C123A5240037F0222050B9B
:1039340080E9AB08E50A2402F9E43509FAC003C0BA
:1039440002C001E50A2406F9E43509123C98D001C5
:10395400D002D0037D047C00123A9D60037F0022D4
:103964007F79123F81AB08E50A2408123CA1123E7C
:103974004B40037F0222E4F50BAB08123C5E2402A9
:10398400FFE433FEC3E50B9FEE6480F87480985027
:103994001A123CAF7E00E9250BF9EE3A123CA5124F
:1039A4003E4B40037F0222050B80CE123CB7C0037E
:1039B400C002C001123C5E123C7FD001D002D00391
:1039C400123A9D60037F0022123CA6123EA84003D7
:1039D4007F002275940FE4F595123C68123CAFC049
:1039E40002C001123C5E751300F514D001D002121E
:1039F4003D61123C68123CAFC002C001123C5E75CE
:103A04001300F514D001D002123DE8123CB7C003F4
:103A1400C002C001123C5E123C7FD001D002D00330
:103A2400123CC3EF64014E6009123C68123F647F8C
:103A340000227F01227F79123F81123FB17F012250
:0D3A44007F79123F81123FBB7F01227F007E
:103A510022AB08E50A2402F9E43509FA7E00E925DA
:103A61000BF9EE3AFA7F807E1A7D067C00123E4BFE
:103A7100227BFF0D7C00123CC38E0C8F0DE50CFFE9
:103A8100123F81AF0D123F81227BFF7D0A123F1E43
:103A9100850813850914850A15C20122123CC3EF5A
:043AA10064014E224C
:103CC3008B0E8A0F891090FEA27401F0ED1DAE04D5
:103CD30070011C4E6010780EE475F001123B2E1239
:103CE3003AA5F5BE80E6300123E5BFFFAB13AA1466
:103CF300A915123AA5B50710900001123ABEAEBE3F
:103D0300B506057E007F0122E4FEFF22AFBEAEBFF3
:013D1300228D
:103EA8008F118E108D0F8C0E43BD10780E74FF127B
:103EB8003B10E4FBFAF9F8C3123AFD500A53BBF77A
:093EC800E5BB540870E522C32299
:03381B00023FCC9D
:033FCC00051732A4
:083FA8000118004200C80000EE
:073FC50075FDF075FC0F22F1
:103ED100E4F514F51543BD10ED1DAA0470011C4A4B
:103EE10060130FEFAA0670010E14F5828A83E49322
:073EF10060E67F01227F0063
:013EF80022A7
:103F6400C3EE9438501675FDF075FC0F8EFA8FF978
:0D3F740075FDD275FC2D75FDE175FC1E225A
:083D14008E0E8F0F8C108D1133
:103D1C0043BD10E4F512F513D3E5139511E5129597
:103D2C00105031C3E50E9438502A7D807C00AF0FC3
:103D3C00AE0E123ED1EF6007AF0FAE0E123F6474A1
:103D4C0080250FF50FE4350EF50E0513E51370C83D
:043D5C00051280C408
:013D60002240
:103DAC007D207C00E4FFFE123D147E10123DDE7E71
:103DBC0020123DDE7D107C007F007E30123D147D94
:103DCC00FF7C2FE4FFFE123ED1EF60037F00227FC9
:0C3DDC0001227D207C007F00123D14229B
:103803008DFB123FC58EFA8FF975FDB475FC4B75B0
:06381300FDE175FC1E2220
:0A3D61008E0E8F0F8B108A1189124D
:103D6B00E4F515F516C3E5169514E51595135030C6
:103D7B00C3E50E94385029AB10AA11A912851682EF
:103D8B00851583123ABEFDAF0FAE0E123803050F29
:103D9B00E50F7002050E0516E51670C9051580C5F1
:013DAB0022F5
:103DE8008B108A118912E5141514AC13700215137F
:103DF8004C601E0FEFAC0670010E14F5828C83E444
:103E080093FD7810E475F001123B2EED123AEB8029
:023E1800D522B1
:0A3FB100123FC575FD8775FC7822EC
:0A3FBB00123FC575FD7875FC8722E2
:103EF90075A2107B017A0079C87513007514017FCA
:103F0900207E01123DE8E4F5A29000C8E064087043
:053F190002D322C322C7
:103BDE00023E7CE493A3F8E493A34003F68001F243
:103BEE0008DFF48029E493A3F85407240CC8C333E8
:103BFE00C4540F4420C8834004F456800146F6DFB7
:103C0E00E4800B0102040810204080903FA3E47E64
:103C1E00019360BCA3FF543F30E509541FFEE493AB
:103C2E00A360010ECF54C025E060A840B8E493A372
:103C3E00FAE493A3F8E493A3C8C582C8CAC583CA9D
:103C4E00F0A3C8C582C8CAC583CADFE9DEE780BE55
:013FB0000010
:103AA500BB010689828A83E0225002E722BBFE021F
:093AB500E32289828A83E4932252
:103ABE00BB010CE58229F582E5833AF583E02250BD
:103ACE0006E92582F8E622BBFE06E92582F8E22207
:0D3ADE00E58229F582E5833AF583E4932221
:103AEB00BB010689828A83F0225002F722BBFE01BA
:023AFB00F322B4
:103AFD00EB9FF5F0EA9E42F0E99D42F0E89C45F01F
:013B0D002295
:103B0E007401FF3395E0FEFDFC080808E6CF2FF6A2
:103B1E0018E6CE3EF618E6CD3DF618E6CC3CF6227B
:103B2E00FAE6FB0808E6F925F0F618E6CA3AF62298
:00000001FF
