:033000000239EDA5
:0C39ED00787FE4F6D8FD758120023A34A2
:103C3100123B9E12388643BD107B017A0079001237
:103C4100301EEF600B24FE600E0470EA7F79800263
:0C3C51007F1F123D4E80DF123D7080DAB4
:103B9E0075BD5490FEA074FFF0758E5090FE91741A
:103BAE0002F0A37410F090FF027436F090FE80E4E1
:103BBE00F0F589758DF5758B96D2ABC28E53BBF72A
:013BCE0022D4
:103D4E005398EF8F99E59830E1FB5398FD43981007
:013D5E002242
:063CD1008B0E8A0F891022
:103CD700E4FEEEC39D5015AB0EAA0FA9108E827598
:0C3CE7008300123957FF123D4E0E80E69C
:013CF30022AE
:103D5F00E59830E00A5398FEE599123984D322C3CF
:013D6F002231
:103BCF008B0E8A0F89108F148E138D128C1143BD9B
:103BDF0010781174FF1239A9E4FBFAF9F8C31239FE
:103BEF0096500CAB0EAA0FA910123D5F50E322C3E3
:013BFF0022A3
:103CF4000C0301000213122122313291920A0301B2
:103D040002131221223291920A4843383953303037
:033D1400334634FF
:103D3400011B00C102C100C101021C003E021900A6
:013D440088F6
:1037A400AB08900002AA09A90A023957AB08AA0972
:1037B400A90A023957AA09A90A900008123957FF21
:1037C4007E002401FDEE33FCE92FF9EE3AFAE924F8
:1037D40009F9E43A8B13F5148915D20322F9E43577
:1037E40009FA7F807E1A7D067C0022900006AA09D1
:1037F400A90A023957AB08AA09A90A900004123988
:1038040057900005FE123957FDEDFF22AB08E50A7B
:103814002402F9E43509FA222402FFE433FEC3E565
:103824000B9FEE6480F874809822FF7E002401FDD3
:10383400EE33FCE92FF9EE3AFAE922AB08E50A2463
:1038440006F9E4350922AB08E50A2408F9E4350948
:10385400FA22AA09A90A90000802395775940FE4BC
:10386400F59522E92409F9E43AFA22D3EF947FEE9C
:10387400940022E92407F9E43AFA2275940F759525
:0238840001221F
:10388600D28ED2AFE51BC394144003123D70208341
:10389600F3C28EC2AF90FF107438F090FFA0742070
:1038A600F0A37404F075CC0675CEFF75CDF8759E41
:1038B600027598107F79123D4E7B007D007C0012C8
:1038C60039324003123D70E508647F6003123D7093
:1038D60075A210851A82851983E493F518E4F5A27A
:1038E600E51860146488601012387F7F807E0012AD
:1038F6003D17123860123D7A7F1F123D4EE4F508DF
:10390600FBFDFC1239324003123D70E508647F600E
:1039160003123D7090FEA474C1F0A37414F075BB3D
:0C392600A290FEA774FFF07F1F023D4E30
:0C3932007A0079087FA07E0F123BCF22A4
:06301E008B088A09890AF3
:103024001237E6123BCF40037F0222AB08E50A24A5
:10303400011237E1123BCF40037F0222AB0890001C
:10304400011237A9F4FF12393EFE6F60037F00229C
:10305400EEB4121875A210851D82851C83E493F5C5
:1030640017E4F5A2E51730E7037F0022AB08AA09AD
:10307400A90A12393E1239C730A10030CD0130EA15
:1030840002331812312113322821350822316C31D0
:10309400340332330291330D920000368E7F79125D
:1030A4003D4E7F0C123D4E7BFF7A3C79F57D0C1230
:1030B4003CD1850813850914850A15C2037A3C7925
:1030C400F4123710C2027F01227F79123D4E7F0A2B
:1030D400123D4E7A3D79021237497A3D7901123711
:1030E40010D2027F01227F79123D4E123CAD400383
:1030F4007F00227F0A123D4E7A3D790D1237497BBB
:10310400FF7A3D790C0D7C00123A798E0C8F0DE517
:103114000CFF123D4EAF0D123D4E7F012212376857
:1031240012369140037F0222050BE50BC394024043
:10313400EF1237A4F4702E90000312395770267DD5
:10314400FF7C2FFFFE123C85EF70037F01221237B4
:10315400E6123C5D40037F0022123C00EF60037FD7
:1031640001227F00227F00227F79123D4E3002032C
:103174007F0322E4F50B12369140037F0222050BF4
:10318400E50BC3940640EF123810C003C002C0011F
:103194001238411237D8D001D002D003123704605C
:1031A400037F0022123768AB08E50A24081236D1DF
:1031B40040037F0222050BE50BC3940340E9123858
:1031C4004AC003C002C001E50A2409F9E435091222
:1031D40037D8D001D002D00312372860037F0022F1
:1031E4007F79123D4E9000041237B0123805E9245D
:1031F4000BF9E43AFAC002C0019000081237F275E4
:103204001300F514D001D002123B67AB08E50A2481
:103214000BF9E43509FAC002C001AA09A90A900011
:10322400080234F71237791236B140037F022205BF
:103234000BE50BC3940640EF123810C003C002C064
:10324400011238411237D8D001D002D0031237040A
:1032540060037F002212378224081237E1123BCF29
:1032640040037F0222E4F50BAB0812385612381CD7
:10327400500FE924091236EB40037F0222050B802C
:10328400E712384AC003C002C0011237B9D001D0D6
:1032940002D00312377160037F00221237E6123C1A
:1032A4005D40037F00221238601237F9123867C07C
:1032B40002C001123856751300F514D001D0021261
:1032C4003B1C1237F9123867C002C0011238567518
:1032D4001300F514D001D002123B6712384AC00320
:1032E400C002C0011237B9D001D002D00312377125
:1032F40060091237F9123D177F00227F01227F797E
:10330400123D4E123D707F01227F79123D4E123DD7
:103314007A7F012212378224021237E1123BCF4016
:10332400037F02221237A4F47041E92403F9E43A3A
:103334001237E5123BCF40037F022290000312377D
:10334400B070257F807E1A7D06FC123C5D40037FB1
:10335400002212373460037F002212378C60037F0F
:1033640000221238607F01227F0022E4F50B12371D
:10337400A412381C500FE924031236EB40037F02D9
:1033840022050B80E9123810C003C002C0011237B5
:10339400A612382E24031237D5D001D002D003123E
:1033A400379C60037F0022E4F50B1237A4FFE50B82
:1033B400C39F5048850B82758300A3A3A31239577A
:1033C40014601604702E1237E6123C5D40037F0031
:1033D4002212373460197F00221237E6123C5D4016
:1033E400037F002212387F12378C60037F00221281
:1033F400386080037F0022050B0233AE7F01221266
:1034040037791236B140037F0222050BE50BC394D2
:103414000440EF1237A4900003123808C3EE94005E
:10342400400512386F4027C3EF9480EE94004009A2
:10343400D3EF94FFEE94004015C3EE9401500302C1
:103444003505D3EF947FEE9401400302350512381D
:1034540010C003C002C001E50A2404F9E4350912CE
:1034640037D8D001D002D00312375C60037F00222A
:103474007F79123D4EE4F50BAB08E50A24061236BB
:10348400D140037F0222050BE50BC3940340E912EC
:10349400383FFAC003C002C001E50A2407F9E43545
:1034A400091237D8D001D002D00312372860037F25
:1034B40000227F79123D4E75A2101237A4FE9000AF
:1034C40003123809123867C002C0011237EF7513AE
:1034D40000F514D001D002123B67E4F5A2AB08E575
:1034E4000A2409F9E43509FAC002C001AA09A90AA3
:1034F400900006123957FDD001D002123CD17F034F
:10350400227F00227F79123D4EE4F50B1238107EA3
:1035140000E9250BF9EE3A1237E5123BCF40037F61
:103524000222050BE50BC3940440E1123810C003DA
:10353400C002C001E50A2404F9E435091237D8D0E1
:1035440001D002D00312375C60037F00221237A43B
:10355400FE900003123809C3EE9400400512386F40
:103564004018C3EF9480EE9400500302368BD3EFDF
:1035740094FFEE9400400302368BC3EE9400400B9C
:1035840012386F5006D200C2018004C200D2017FFB
:1035940079123D4EAB08E50A24061237E1123BCFFF
:1035A40040037F0222E4F50BAB081237EF12381CFC
:1035B400501A1238777E00E9250BF9EE3A1237E5F6
:1035C400123BCF40037F0222050B80DC12383FFA06
:1035D400C003C002C0011237EF12382E240712377D
:1035E400D5D001D002D00312379C60037F00221291
:1035F40037E6123C5D40037F002212387F1237A465
:10360400FE900003123809123877C002C001123745
:10361400EF751300F514D001D002123B1C1237A42D
:10362400FE900003123809123877C002C001123725
:10363400EF751300F514D001D002123B6730000E71
:10364400E4FD7F3EFE1230037DFF0F123003300194
:10365400097D887F887E0012300312386012383F5B
:10366400FAC003C002C0011237EF12382E24071229
:1036740037D5D001D002D003123A79EF64014E60FD
:0C368400037F00227F01227F00227F00D4
:1036900022AB08E50A2402F9E43509FA7E00E9259F
:1036A0000BF9EE3AFA7F807E1A7D067C00123BCF42
:1036B00022AB08E50A2402F9E43509FA7E00E9257F
:1036C0000BF9EE3AFA7F807E1A7D067C00123BCF22
:1036D00022F9E43509FA7E00E9250BF9EE3AFA7F82
:1036E000807E1A7D067C00123BCF22F9E43AFA7EF6
:1036F00000E9250BF9EE3AFA7F807E1A7D067C0000
:10370000123BCF227D047C00123A79EF64014E22F5
:103710007BFF0D7C00123A798E0C8F0DE50CFF12A9
:103720003D4EAF0D123D4E227D017C00123A79EFE5
:1037300064014E2275940F759501E4FFFE123D174A
:103740007D807C00123C85EF227BFF7D0A123CD1FC
:10375000850813850914850A15C203227D027C00A1
:10376000123A79EF64014E227F79123D4EE4F50B57
:1037700022123A79EF64014E227F79123D4EE4F530
:103780000B227F79123D4EAB08E50A227F807E0036
:10379000123D177D807C00123C85EF22123A79EFB2
:0437A00064014E2250
:103A79008B0E8A0F891090FEA27401F0ED1DAE0421
:103A890070011C4E6015AB0E0510E510AA0F7002EF
:103A9900050F14F912393EF5BE80E1300323E5BF65
:103AA900FFAB13AA14A91512393EB50710900001EE
:103AB900123957AEBEB506057E007F0122E4FEFF2E
:063AC90022AFBEAEBF22D9
:103C5D008F118E108D0F8C0E43BD10780E74FF12C8
:103C6D0039A9E4FBFAF9F8C3123996500953BBF799
:083C7D00E5BB20E3E622C322AF
:03301B00023D8BE8
:033D8B00051B32E3
:083D4500011E004200C800004D
:073D840075FDF075FC0F2234
:103C8500E4F514F51543BD10ED1DAA0470011C4A99
:103C950060130FEFAA0670010E14F5828A83E49370
:073CA50060E67F01227F00B1
:013CAC0022F5
:103D1700C3EE9430501675FDF075FC0F8EFA8FF9CF
:0D3D270075FDD275FC2D75FDE175FC1E22A9
:083ACF008E0E8F0F8C108D117B
:103AD70043BD10E4F512F513D3E5139511E51295DF
:103AE700105031C3E50E9430502A7D807C00AF0F13
:103AF700AE0E123C85EF6007AF0FAE0E123D177486
:103B070080250FF50FE4350EF50E0513E51370C884
:043B1700051280C44F
:013B1B002287
:103C00007D207C00E4FFFE123C277E10123C277EC4
:103C100020123ACF7DFF7C2FE4FFFE123C85EF603F
:103C2000037F00227F0122123ACF7D207C007F009B
:013C30002271
:103003008DFB123D848EFA8FF975FDB475FC4B75FB
:06301300FDE175FC1E2228
:0A3B1C008E0E8F0F8B108A11891294
:103B2600E4F515F516C3E5169514E515951350300D
:103B3600C3E50E94305029AB10AA11A9128516823E
:103B4600851583123957FDAF0FAE0E123003050FE0
:103B5600E50F7002050E0516E51670C9051580C538
:013B6600223C
:103B67008B108A118912E5141514AC137002151302
:103B77004C60230FEFAC0670010E14F5828C83E4C2
:103B870093FDAB100512E512AA117002051114F985
:073B9700ED12398480D022F9
:0A3D7000123D8475FD8775FC782272
:0A3D7A00123D8475FD7875FC872268
:103CAD0075A2107B017A0079C87513007514017F18
:103CBD00207E01123B67E4F5A29000C8E0B4080233
:043CCD00D322C32219
:1039F900023C31E493A3F8E493A34003F68001F277
:103A090008DFF48029E493A3F85407240CC8C333CE
:103A1900C4540F4420C8834004F456800146F6DF9D
:103A2900E4800B0102040810204080903D34E47EBC
:103A3900019360BCA3FF543F30E509541FFEE49392
:103A4900A360010ECF54C025E060A840B8E493A359
:103A5900FAE493A3F8E493A3C8C582C8CAC583CA84
:103A6900F0A3C8C582C8CAC583CADFE9DEE780BE3C
:013D4D000075
:10393E00BB010689828A83E0225002E722BBFE0287
:09394E00E32289828A83E49322BA
:10395700BB010CE58229F582E5833AF583E0225025
:1039670006E92582F8E622BBFE06E92582F8E2226F
:0D397700E58229F582E5833AF583E4932289
:10398400BB010689828A83F0225002F722BBFE0122
:02399400F3221C
:10399600EB9FF5F0EA9E42F0E99D42F0E89C45F087
:0139A60022FE
:1039A7007401FF3395E0FEFDFC080808E6CF2FF60B
:1039B70018E6CE3EF618E6CD3DF618E6CC3CF622E4
:1039C700D083D082F8E4937012740193700DA3A38F
:1039D70093F8740193F5828883E4737402936860A3
:0639E700EFA3A3A380DFA3
:00000001FF
