:0300000002201DBE
:0C201D00787FE4F6D8FD7581790220641C
:10186700046C00000000410007004100430C4100E8
:10187700444044003A000000004400180000000003
:1018870044001C0000000044005C0000000044000D
:101897004A000000004400650000000042002B00E1
:1018A70001420016000041000D00410038004200CF
:1018B7006A000042000E0000410001084100460096
:1018C70041006C00410036004100370041006300D1
:1018D700410015004100200141002E0A4100490046
:1018E7004100450A410035004100390042000B0024
:1018F7000041000300420060000042004700004131
:10190700002D00410029004100000041000A00416C
:10191700002800410014004200210000420033006B
:101927000041006200410004004200050000410040
:10193700020041002A0041002F00410042004C00F4
:1019470050000000000000000000000000420008F6
:0219570000008E
:102B55008E098F0A8B0B8A0C890DAF051DEF60213D
:102B6500050AE50AAE097002050914F5828E83E4AB
:102B750093FF780BE475F001120D62EF120ABD8028
:022B8500D92253
:102E1900E4FDFCC3ED9FEC9E50070DBD00010C8045
:012E2900F2B6
:012E2A002285
:102C70008F828E83E4F56FF56EF56DF56CAF82AEE5
:102C800083E4FCFDAB6FAA6EA96DA86CC3120CCADD
:082C9000500543BD1080E6224F
:092D8900E0FF7C2F122C987F64FE
:102D9200E4FDFCC3ED9FEC9E50070DBD00010C80CD
:012DA200F23E
:012DA300220D
:10000300758E5190FE917401F0A37410F075BD5F6D
:0700130090FEA07420F02212
:102D4F00E490FE80F0758901758DFA758BCB43A8E1
:0E2D5F0008438840758CCB758AEB43881022A0
:102BB90090FF10E054F04408F090FF02E054F04414
:102BC90002F0D28490FFA07420F0A37404F075CCB5
:102BD9000675CEFF75CD98759E0275981043A8109D
:012BE90022C9
:102DBE0043B40343B4807F147E00122E1975B501FF
:072DCE0090FE9B744BF02204
:102DA40090FF08E04488F090FF00E0540F4430F0B6
:0A2DB40090FF11E054F04403F022F8
:0B2E66008F99E59830E1FB5398FD22A6
:1028A6008FB543B440E5B430E5FB53B4DF7F647EB7
:1028B60000122E19E4FBFAF943B440E5B430E5FB07
:1028C60053B4DFE5B62BFBE5B73AFA7F147E001268
:1028D6002E1909B910E275B501A9027F647E0012AE
:0428E6002E19AF01F7
:0128EA0022CB
:1015D3007B017A0079507D0C7F007E2F122B559072
:1015E3000050E0FFE4FCFDFE900010120D19900086
:1015F30010120D017808120CEE900010120D1990C4
:101603000010120D0D900051E0FFE4FCFDFE120BE3
:101613006E900010120D19900010120D01E47BE87A
:101623007A03F9F8120B89900010120D19E47F3038
:101633007E75FDFC900010120D0DC3120CCA4014F0
:101643007F007E097D3D7C00900010120D0DD312AA
:101653000CCA400A900010120D2500009C40900017
:1016630052E0900069F070028007900069E0B4FED8
:101673000374FFF0900053E0FF900031E4F0A3EF18
:10168300F0E0F8E4F0E8900031F0900054E0FF90CF
:101693000031E48FF0120B58900031E0FEA3E0FF1D
:1016A3004E6009D3EF9408EE94074009900031E4AB
:1016B300F0A37405F0900055E090002EF0900039EF
:1016C300F0900056E0900023F06006E0D394FF40D2
:1016D300069000237401F0900057E0F45401900049
:1016E30020F0900058E0540190002DF0900059E054
:1016F3005401900015F090005AE05401900014F04A
:1017030090005BE090000AF07B017A0079087D028B
:101713007F807E2F122B55900008E0900035F090CB
:101723000009E0900028F0121D58900028E0700393
:04173300122E2B2225
:10003E00900036E060030206DC43B440E5B430E5E0
:10004E00FB53B4DF85B70985B60A900016E475F048
:10005E0001120B58900065120D0DAE09AF0AE4FCAB
:10006E00FD120B6E900065120D1990004EE0FEA36E
:10007E00E0FFC3950AEE9509500DC3E50A9FF50AF8
:10008E00E5099EF509800BC3EF950AF50AEE950971
:10009E00F50990001C120D0DAE09AF0AE4FCFD121D
:1000AE000B6E90001C120D19900016E05401FEA369
:1000BE00E04E7061D390006BE0940090006AE09483
:1000CE00004017900045E094645042E02402F0E0B6
:1000DE00D3946440387464F0803390000EE0700462
:1000EE00A3E06401702F90002EE0FF900045E0FE2B
:1000FE00D39F4019EE94024004E024FEF090004598
:10010E00E0C39F500890002EE0900045F09000450F
:10011E00E0FF1221BEC3900016E0942050030207A8
:10012E002943BD10E4F0A3F0900046E004F09000E7
:10013E004A120D01900065120D0D120B6E90004AC1
:10014E00120D19900046E0C394084037E4F0900079
:10015E004A120D017810120CDB90004A120D199004
:10016E00004A120D0190004EEE8FF0120B589000C7
:10017E004EE0C313F0A3E013F090004A120D2500D9
:10018E00000000900001E0C394085005E004F080E8
:10019E005690006AE07002A3E0704C7F0A1228A607
:1001AE00900030EFF0900064E0FE2402FDE433FC9A
:1001BE00EFD39DEC6480F8748098501E900030E070
:1001CE002402FDE433FCEED39DEC6480F874809839
:1001DE005008900064E0900030F0900030E0900005
:1001EE0064F0E4900001F0E4FFFEFDFC90001812B4
:1001FE000D0DC3120CCA704190001C120D01EF249C
:10020E0088FFEE3413FEE43DFDE43CFC9000181232
:10021E000D1990002BE07002A3E0701D7F407E420E
:10022E007D0FFC900018120D0DD3120CCA400A90CF
:10023E000018120D25000F4240900007E070169036
:10024E00001C120D0190003A120D19900024120D8F
:10025E002500000001900024120D0190001C120DCB
:10026E000D120B6E90003A120D0DC3120CCA400304
:10027E00020509900024120D0190003A120D0D1284
:10028E000B6E90001C120D0DC3120CCA400302051A
:10029E0009900007E004F090005C120D0190001C24
:1002AE00120D0D120B6E90005C120D19900007E0EE
:1002BE00FFFBE4FAF9F890005C120D01120C149099
:1002CE00003A120D1990003A120D017803120CDB50
:1002DE00900024120D19E47F207E4EFDFC90002428
:1002EE00120D0DC3120CCA500A900024120D2500D7
:1002FE00004E20E47F607EEAFDFC900024120D0D7E
:10030E00D3120CCA400A900024120D250000EA6098
:10031E0090003A120D01900018120D0DD3120CCA56
:10032E00404C90003A120D0D900018120D01120B58
:10033E007B900065120D197F807E387D017C0090C8
:10034E000065120D0DD3120CCA40089000437406BE
:10035E00F08021E47F407E9CFDFC900065120D0D27
:10036E00D3120CCA90004340087409F08006900026
:10037E0043740CF0900043E0FF900007E0C39F40F1
:10038E007B900018120D0190003A120D0DC3120C45
:10039E00CA5069900044E094105003020518900072
:1003AE0043E0D39409500890003A120D0180449016
:1003BE00003A120D01EF24A0FFEE340FFEE43DFDD6
:1003CE00E43CFC900018120D0DD3120CCA402A907A
:1003DE000018120D0190003A120D0D120B6E9000C6
:1003EE0018120D19900018120D01E47B02FAF9F89B
:1003FE00120C14900018120D19020509900044E019
:10040E00FF900007E0C39F500302051890001812DA
:10041E000D01EF24A0FFEE340FFEE43DFDE43CFCA5
:10042E0090003A120D0DD3120CCA50030204F9902B
:10043E000018120D0D90003A120D01120B7B900058
:10044E0065120D197F007E127D7A7C0090003A12A3
:10045E000D0DC3120CCA40030204F97F807E1A7D73
:10046E00067C00900065120D0DC3120CCA507C90D4
:10047E000044E09410400280487FE07E937D047C2F
:10048E0000900065120D0DD3120CCA400890004466
:10049E007410F0801F7FF07E497D027C0090006515
:1004AE00120D0DD3120CCA9000444005740CF0804E
:1004BE00037408F0900044E0FF900007E0C39F40F3
:1004CE002A900018120D0190003A120D0D120B6EAB
:1004DE00900018120D19900018120D01E47B02FA0B
:1004EE00F9F8120C14900018120D19900044E0FF48
:1004FE00900007E0C39F4012E48004E4900007F0F0
:10050E0090005C120D2500000000900038E0D3949E
:10051E00004066E014F090003E120D01EF2470FFD3
:10052E00EE3417FEE43DFDE43CFC900018120D0D78
:10053E00D3120CCA500302069390003E120D01EF27
:10054E002498FFEE343AFEE43DFDE43CFC90001CA2
:10055E00120D0DC3120CCA400302069390003E12F8
:10056E000D01EF2470FFEE3417FEE43DFDE43CFC7C
:10057E00900018120D19020693D390002CE09400EF
:10058E0090002BE09400407B74FFF5F0120B58D3D3
:10059E0090002CE0940090002BE0940040657F00CA
:1005AE007E127D7A7C00900018120D0DD3120CCAAB
:1005BE00400C900010120D25000C35008045900067
:1005CE0010120D01900018120D0D120B6E90006599
:1005DE00120D197F407E547D897C00900065120DAE
:1005EE000DD3120CCA401C900018120D0DC374408E
:1005FE009BFF74549AFE748999FDE498FC90001048
:10060E00120D19900010120D01900018120D0D12FE
:10061E000B6E90001C120D0DD3120CCA4067900089
:10062E0069E0FF900030E0D39F400FD390002CE0A4
:10063E00940090002BE09400404B90006AE0700212
:10064E00A3E0700C900018120D0190003E120D19CF
:10065E0090006AE4F0A304F0900029F0900021E4E9
:10066E0075F001120B5890002A7401F0900044743A
:10067E0008F0E490000EF0A3F0900060F0A3F0906C
:10068E000047F0A3F0900065120D250000000090C9
:10069E00001C120D250000000090006AE0FEA3E091
:1006AE00FFD39400EE94004072900031E0FCA3E082
:1006BE00FDD3EF9DEE9C4063E490006AF0A3F090B2
:1006CE00003604F0E4900029F0900000F022900033
:1006DE000EE4F0A304F0E4900036F090000BF0A3CB
:1006EE00F0900003F07FFAFE122C7090004A120D6B
:1006FE002500000000E4900046F09000447440F0A5
:10070E009000387402F09000017406F0E490000737
:0B071E00F090005C120D2500000000B0
:0107290022AD
:10240C00E4F50A900065120D2500000000E4F509C2
:10241C0043B440E5B430E5FB53B4DF900065120DD6
:10242C000DAFB6AEB7E4FCFD120B6E900065120D4D
:10243C00190509E509B480D87F907E01122C7090A3
:10244C000065120D01780B120CDB8F09E509D39492
:10245C000C400CE509948D5006E50A9414500A05BD
:09246C000AE50AD39450409B22BA
:012475002244
:10247600900065120D2500000000E4F509E4F50C56
:10248600F50D43B440E5B430E5FB53B4DF85B70A38
:1024960085B60B900065120D0DAE0AAF0BE4FCFD80
:1024A600120B6E900065120D19050DE50D700205F3
:1024B6000CB400CEE50CB420C943BD100509E509EE
:1024C600B408BA900065120D017810120CDB90006A
:0624D6004EEEF0A3EFF052
:0124DC0022DD
:10259400BF0105E4FCFD80377E007C017DFF120A4B
:1025A400F11C7D64120B03AC06AD07E41208C78F5F
:1025B400108E0F8D0E8C0DE4FFFEFD7C3FAB10AA38
:1025C4000FA90EA80D120731120900AC06AD079031
:1025D400FF907411F075DA0175E30175E2FF8CE583
:0725E4008DE475E10F7F009B
:0125EB0022CD
:1026E700BF0104E4FE80397E007C007DFF120AF101
:1026F700AC06AD07E41208C7E4FBFA79C8784212C2
:1027070008258F108E0F8D0E8C0DE4FFFEFD7C3F8C
:10271700AB10AA0FA90EA80D120731120900AE07B8
:1027270090FF9C7410F075DEFF8EDF75DD947F00DF
:01273700227F
:0221BE00AB076D
:1021C000EB700C90006204F0E490002FF0801ABBDA
:1021D000640CE4900062F090002F04F0800B9000FB
:1021E000627402F090002F14F090000AE014601264
:1021F00014601814601C14602C2404702AE4F50B7D
:102200008025EB75F00384F50B801CEBC313F50BF5
:102210008015EB75F002A4FFAEF07C007D03120B7D
:10222000038F0B80028B0BC3EB950BF50CAF0B12DE
:092230002594AF0C1226E77F0093
:012239002282
:10102900120026120003122DA47F641221BE122D74
:101039004F122BB9122DBE75BBAA90FEA774FFF0F3
:1010490053BBF7D2AF7FC87E00122C707F64122188
:10105900BE9000637401F07F0A1228A6900030EF59
:10106900F0900064F0C2AF1215D3900035E004F09F
:101079007F807E2F122CE57F107E27122D92900003
:1010890035E0FF7D807C2F122C987F647E00122D25
:1010990092D2AF12240C90002EE0FF900045F0127E
:1010A90021BE7F2C7E01122C7012247690006512CD
:1010B9000D2500000000900035E0C394034005E4CD
:1010C900F012001E900004E0FF900062E0FD6F60E6
:1010D9000D7F76122B20900062E0900004F09000C2
:1010E90042E0FF90002FE0FD6F600D7F77122B200B
:1010F90090002FE0900042F0900002E064017041FE
:1011090090002AE0B4013AE4900002F090002AF03D
:10111900900021E0FEA3E0FF900033E06E7003A38E
:10112900E06F601DE48F2F8E2EF52DF52C7F741244
:101139002135900021E0FFA3E0900033CFF0A3EF29
:10114900F043BD10900036E0700B900017E0541F7B
:1011590070031212AF900020E0640160030212557F
:10116900900037E0703F900036F0A304F090002E15
:10117900E0900045F090004A120D2500000000E4BF
:10118900900046F09000447440F09000387402F0EA
:101199009000017406F0E4900007F090005C120DD5
:1011A900250000000012003ED390000FE09400904B
:1011B900000EE094004036900003E0B4012FE4F003
:1011C90090000E75F001120B58900023E0FFC390B8
:1011D900000FE09F90000EE094004011E4F0A3F0AE
:1011E900900014E064016005E4FF1221BED3900071
:1011F9006BE0940090006AE09400401B900047E087
:101209007004A3E06401700F900047F0A3F0900010
:101219006A75F001120B5890002DE0640160030219
:1012290010BF900029E0FF900000E06F70030210EA
:10123900BFEFF090006AE4F0A304F0E4F508E508D4
:10124900C3940840030210BF050880F2E4900037F8
:10125900F0900015E07007FF1221BE0210BF900048
:1012690039E0FF1221BEE4900036F090002EE090A4
:101279000045F090004A120D2500000000E490009E
:1012890046F09000447440F09000387402F09000E9
:10129900017406F0E4900007F090005C120D25003F
:0612A9000000000210BF6E
:03001B00021E259D
:101E2500C0E0C0F0C083C082C0D075D000C000C083
:101E350001C002C003C004C005C006C007AF6FAE35
:101E45006EAD6DAC6CEF2401FFE43EFEE43DFDE4B8
:101E55003C8F6F8E6E8D6DF56C90000BE475F00107
:101E6500120B5890000BE0FEA3E0FFE4FCFD7B6045
:101E75007AEAF9F8D3120CB4500C90000BE4F0A3F5
:101E8500F090000304F0900060E475F001120B5827
:101E9500C3900061E094E8900060E09403400BE497
:101EA500F0A3F0900047F0A304F0900005E475F06E
:101EB50001120B58C3900006E094E8900005E094E9
:101EC500034009E4F0A3F090000204F0D007D00627
:101ED500D005D004D003D002D001D000D0D0D0821C
:071EE500D083D0F0D0E03201
:030023000227D3DE
:1027D300C0E0C0F0C083C082C0D075D000C000C0CC
:0D27E30001C002C003C004C005C006C0074D
:0F27F000E59830E00AAF991229B45398FED2AFA2
:1027FF00D007D006D005D004D003D002D001D0002E
:0B280F00D0D0D082D083D0F0D0E032D7
:03003B0002001AA6
:01001A0032B3
:102CE50053BBF7C280E5BB20E3F6D280C2AF75FDCA
:102CF500F075FC0F8EFA8FF975FDD275FC2D75FDFB
:052D0500E175FC1E2237
:102C980053BBF7C280E5BB20E3F6D280C2AF8FFBFF
:102CA80075FDF075FC0F8CFA8DF975FDB475FC4B4C
:072CB80075FDE175FC1E2211
:101D58007F007E2F122CE57F107E27122D92E47BC8
:101D6800E87A03F9F8900010120D01120C147808A3
:101D7800120CDB7D007C2F122C987F647E00122DC4
:101D880092E47BE87A03F9F8900010120D01120C26
:101D9800147D017C2F122C987F647E00122D929066
:101DA80000697D02122D899000317D03122D89A3CF
:101DB800E0FF7D04122D8B90002EE0FF7D05122D93
:101DC8008B900023E0FF7D06122D8B900020E0F41D
:101DD800FF7D07122D8B90002DE0FF7D08122D8BC3
:101DE800900015E0FF7D09122D8B900014E0FF7D17
:101DF8000A122D8B90000AE0FF7D0B122D8B7F803D
:101E08007E2F122CE57F107E27122D927D807C2F4D
:0C1E1800E4FF122C980D0F122C98D2AF92
:011E2400229B
:041959000278000010
:10239B00EFC39430400CEFD39439500674D02FFF19
:1023AB008022EFC39441400CEFD394465006EF24A8
:1023BB00C9FF8010EFC39461400AEFD394665004B9
:1023CB00EF24A9FFEF540FC454F0FFEDC39430403A
:1023DB000CEDD39439500674D02DFD801EEDC394B3
:1023EB00414008EDD394465002800CEDC3946140FC
:1023FB000AEDD394665004ED24A9FDED540F42076A
:01240B0022AE
:062642008B1A8A1B891CA3
:10264800E4F520F51FF51EF51DE94A4B7005FFFE60
:10265800FDFC22E4F520F51FF51EF51D781AE4753A
:10266800F001120D62120A77601AE5202401FFE4D6
:10267800351FFEE4351EFDE4351D8F208E1F8D1E8F
:0C268800F51D80D8AF20AE1FAD1EAC1DAC
:012694002223
:062AE8008B268A278928D5
:102AEE008B2C8A2D892EE94A4B7004FBFAF922E5CC
:102AFE002B152BAE2A7002152A4E600F782CE4751A
:102B0E00F001120D62ED120ABD80E4AB26AA27A9D0
:012B1E00288E
:012B1F002293
:061C87008B218A22892353
:101C8D008B298A2A892B85242C85252D85262EE9BD
:101C9D004A4B6008E5264525452470077B007A00F0
:101CAD00790022D3852D83852E82E52B9582E52A19
:101CBD0095834019E52E2528F9E52D3527FA8A83D8
:101CCD008982D3E52B9582E52A95834038E4F52F5B
:101CDD00F530C3E5309528E52F95275067AB2CAA35
:101CED002DA92E853082852F83120A90AB29AA2A21
:101CFD00A92B853082852F83120ACF0530E53070F0
:101D0D00D1052F80CD85272F852830D3E530940040
:101D1D00E52F9400402EAB2CAA2DA92EE53024FFE3
:101D2D00FFE52F34FFFE8F82F583120A90AB29AAAF
:101D3D002AA92B8F828E83120ACFE530153070CBF6
:0A1D4D00152F80C7AB21AA22A9239D
:011D57002269
:0628EB008B3C8A3D893E92
:1028F1008B428A438944AB3FAA40A941120A7760BF
:102901001C783FE475F001120D62120A77FF783CE2
:10291100E475F001120D62EF120ABD80D9AB3CAA39
:0D2921003DA93EE4120ABDAB42AA43A94401
:01292E002286
:1024DD008B558A568957AB55AA56A957120A77FFBD
:1024ED006026AB58AA59A95A120A77601BB507186E
:1024FD0074012557F557E43556F5567401255AF5EF
:10250D005AE43559F55980CEAB58AA59A95A120A31
:10251D0077FF3395E0FEAB55AA56A957120A77FD02
:0C252D003395E0FCC3ED9FFFEC9EFE2206
:10292F008F738E728D718C707818120CDBEF120A08
:10293F00BDAF73AE72AD71AC707810120CDB90003E
:10294F0001EF120ACFAF73AE72AD71AC707808128F
:10295F000CDB900002EF120ACFE573FF900003EF3C
:03296F00020ACF8A
:101F8500E4F530F52FF52EF52D120A77FFE48F30A5
:101F9500F52FF52EF52DAE2FAD2EAC2D7808120CA4
:101FA500EE8F308E2F8D2E8C2D900001120A90FF12
:101FB500E5304FFFE52FFEE52EFDE52D8F308E2F09
:101FC5008D2EF52DFC7808120CEE8F308E2F8D2E70
:101FD5008C2D900002120A90FFE5304FFFE52FFE91
:101FE500E52EFDE52D8F308E2F8D2EF52DFC7808F5
:101FF500120CEE8F308E2F8D2E8C2D900003120A31
:1020050090FFE5304FFFE52FFEE52EFDE52D8F30E6
:072015008E2F8D2EF52DFC2E
:01201C0022A1
:102E3D00E4FDFCFFFE122D75AC06AD077F030222EB
:012E4D003A4A
:102E2B00E4FDFCFFFE0D122D75AC06AD077F030212
:022E3B00223A39
:08281A008F5B8B5C8A5D895E17
:10282200E4FCFFFEAD5B122D75AC06E4FD122D75C6
:10283200AC06E55FFD122D75AC06AD60122D75ACD0
:1028420006AD07AB5CAA5DA95E855F1F856020129D
:0D2852002AB2AC06AD077F0612223A7F01C4
:01285F002256
:042972008D27AB07FB
:10297600E4FCFFFEAD03122D75AC067D01122D752C
:10298600AC06E4FD122D75AC067D01122D75AC0664
:10299600AD07E5277003FD8006AF05AE047D011285
:0D29A6002D75AC06AD077F0612223A7F01A9
:0129B3002201
:02213500AB07F6
:10213700E4FCFFFEAD03122D75AC067D02122D7572
:10214700AC06E4FD122D75AC067D04122D75C00694
:10215700C007AF2FAE2EAD2DAC2C7818120CDBAD0F
:1021670007D007D006122D75C006C007AF2FAE2EB9
:10217700AD2DAC2C7810120CDBAD07D007D00612B2
:102187002D75C006C007AF2FAE2EAD2DAC2C78082D
:10219700120CDBAD07D007D006122D75AC06C007B1
:1021A700E52FFFE4AD07D007122D75AC06AD077F0D
:0621B7000612223A7F012E
:0121BD0022FF
:082860008F618B628A638964B9
:10286800E4FCFFFEAD61122D75AC067D03122D75DB
:10287800AC06E565FD122D75AC06AD66122D75AC7E
:1028880006AD07AB62AA63A96485651F8566201239
:0D2898002AB2AC06AD077F0612223A7F017E
:0128A5002210
:042B20008D27AB074B
:102B2400E4FCFFFEAD03122D75AC067D04122D7579
:102B3400AC06E4FD122D75AC067D01122D75AC06B4
:102B4400AD27122D75AC06AD077F0612223A7F0120
:012B5400225E
:021B9A00AB0797
:101B9C00900000AF82AE83AD03122D758E838F82C1
:101BAC007D05122D758E838F82E4FD122D758E832B
:101BBC008F8274FFFFE56AFEE569FDE568FCE47B56
:101BCC00FFFAF9F8C3120CCA7012AF82AE837D0112
:101BDC00122D758E838F82AD6B021C7474FFFFFE09
:101BEC00E569FDE568FCE47BFF7AFFF9F8C3120CAC
:101BFC00CAAF82AE8370047D02803E7D04122D75C7
:101C0C008E838F82C006C007AF6BAE6AAD69AC68BD
:101C1C007818120CDBAD07D007D006122D758E8309
:101C2C008F82C006C007AF6BAE6AAD69AC68781026
:101C3C00120CDBAD07D007D006122D758E838F8268
:101C4C00C006C007AF6BAE6AAD69AC687808120C01
:101C5C00DBAD07D007D006122D758E838F82C0079F
:101C6C00E56BFFE4AD07D007122D758E838F82AD27
:0A1C7C0082AC837F0612223A7F013A
:011C8600223B
:082E7B008C278D28120A77FF55
:012E8300222C
:082E84008C278D28120A77FF4C
:012E8C002223
:072E9F008C2B8D2C121F8506
:012EA6002209
:100026007574007575B07576007577B0E49000C983
:04003600F0A3F02221
:1029B400C39000CAE094199000C9E09400502FC35A
:1029C4009000C9E5759582E5749583400675740099
:1029D4007575B00575E575AC747002057414F582EF
:0F29E4008C83EFF09000C9E475F001120B5822BC
:1012AF00E4F509F50AF50BF50CF50DF50EF50F75CF
:1012BF001009C3E5799421E57894005027122E0385
:1012CF00D3EF9400EE9400401B122A6F0579E57955
:1012DF00AC787002057814246EF58274003CF583A7
:1012EF00EFF080CEC3E5799409E5789400500302BE
:1012FF001463C3E579950AFDE5789509FCC3ED9470
:10130F0009EC94005003021406746E250AF58274DA
:10131F00003509F583E06455600A050AE50A70D2C5
:10132F00050980CE746F250AF58274003509F5839F
:10133F00E064AA600A050AE50A70B7050980B3746C
:10134F0070250AF58274003509F583E0750D00F5F7
:10135F000E6402450D60047402803C7474250AF516
:10136F008274003509F583E0750C00F50B74752553
:10137F000AF58274003509F583E02409FFE433FE92
:10138F00EF250CF50CEE350BF50BD3E50C942AE598
:10139F000B940040097403250AF50AE48052C3ED4B
:1013AF00950CEC950B4050746E250AF974003509B5
:1013BF00FA7B01E50C24FFFDE50B34FFFC122BEA51
:1013CF00E50A250CFDE509350BFC746D2DF58274CE
:1013DF00003CF583E06F60097403250AF50AE48089
:1013EF000FAF0AAE09121464E50C250AF50AE50BD6
:1013FF003509F509021301C3E579950AF579E57801
:10140F009509F578D3E5799400E57894004045E5A2
:10141F000A45097020E5799421E578940040160576
:10142F000AE50A70020509E579950AF579E57895D7
:10143F0009F5788000746E250AF974003509752452
:10144F0001F52589268578278579287B017A00790A
:04145F006E121C8766
:011463002266
:10195D004100D1004400CD000000005E00D2010125
:10196D000302650466026701680269027101720172
:0C197D007301740275017604770478048D
:03001E00022E2B84
:032EBA00022E667F
:101AA300900000E0FD7F01122972900015E0FD7F98
:101AB3007112297290002EE0FFE48F2FF52EF52D81
:101AC300F52C7F03122135900069E0FFB4FF05E494
:101AD300F519801EEFB4C8057519028015EFB428F7
:101AE30005751903800CEFB414057519048003758B
:101AF3001905AD197F65122B20900031E0FEA3E09C
:101B0300FFE48F2F8E2EF52DF52C7F661221359055
:101B13000020E0FD7F67122972900023E0FFE48F2D
:101B23002FF52EF52DF52C7F68122135E47B107AE5
:101B330027F9F8900010120D01120C14C374329F90
:101B4300FFE48F2FF52EF52DF52C7F6912213590AB
:101B5300002DE0FD7F72122972900014E0FD7F7367
:101B6300122972900021E0FEA3E0FFE48F2F8E2E56
:101B7300F52DF52C7F74122135900062E0FD7F7600
:101B8300122B2090002FE0FD7F77122B2090000A6C
:071B9300E0FD7F78022B202A
:102DD500122E7B900000EFF0FD7F01122972BF01DA
:062DE500037F01227F00C4
:012DEB0022C5
:10269500122E9F8F2A8E298D288C2790002EE0FFE1
:1026A500E4FCFDFEAB2AAA29A928A827C3120CCA57
:1026B5006006E4FF0FBF08FCAF2A90002EEFF090F4
:1026C5000039F0121D5890002EE0FFE48F2FF52EF3
:1026D500F52DF52C7F03122135BF01037F01227FE4
:0126E50000F4
:0126E60022D1
:1022B100122E849000D1E0B5070FBF05129000697E
:1022C100E0FE900030E06E8006E4FE0EBE08FCEFFA
:1022D10014601014601514601A14601F1460242413
:1022E10005702890006974FFF0802090006974C81F
:1022F100F080189000697428F080109000697414BF
:10230100F08008900030E0900069F09000D1EFF08B
:10231100121D589000D1E0FD7F65122B20BF0103F3
:052321007F01227F0096
:012326002294
:1025EC00122E9F8F2A8E298D288C27900031E0FE89
:1025FC00A3E0FFE4FCFDAB2AAA29A928A827C31253
:10260C000CCA6006E4FF0FBF08FC900031E529F00E
:10261C00A3E52AF0121D58900031E0FEA3E0FFE480
:10262C008F2F8E2EF52DF52C7F66122135BF0103D1
:05263C007F01227F0078
:012641002276
:102B8700122E7B900020E06F6006E4FE0EBE08FC6C
:102B9700EF9000207003F080037401F0121D58902D
:102BA7000020E0FD7F67122972BF01037F01227FAA
:012BB700001D
:012BB80022FA
:10278600122E9F8F2A8E298D288C27900023E0FFFA
:10279600E4FCFDFEAB2AAA29A928A827C3120CCA65
:1027A6006006E4FF0FBF08FC900023E52AF0121D27
:1027B60058900023E0FFE48F2FF52EF52DF52C7FA2
:0C27C60068122135BF01037F01227F0053
:0127D20022E4
:10232700122E9F8F2A8E298D288C279000CD120D73
:1023370001AB2AAA29A928A827C3120CCA6006E458
:10234700FF0FBF08FCAF2AAE29AD28AC279000CD00
:10235700120D19C37432952AFFE49529FEE49528D6
:10236700FDE49527FCE47B107A27F9F8120B899096
:102377000010120D19121D589000CD120D018F2F4C
:102387008E2E8D2D8C2C7F69122135BF01037F0185
:03239700227F00A2
:01239A002220
:1029F300122E7B900015E06F6006E4FE0EBE08FC0D
:102A0300EF7006900015F08013900020E0B40106EB
:102A13009000297401F09000157401F0900015E006
:0E2A2300FD7F71122972BF01037F01227F0027
:012A31002282
:102C4400122E7BAD0790002DE06D6006E4FF0FBFF0
:102C540008FCED90002D7003F080037401F07F7286
:0B2C6400122972BF01037F01227F00D4
:012C6F002242
:102D0A00122E7B900014E06F6006E4FE0EBE08FCF3
:102D1A00900014EFF0FD7F73122972BF01037F0147
:032D2A00227F0005
:012D2D002283
:102CBF00122E7BEF601DE4900021F0A3F090002115
:102CCF00E0FEA3E0FFE48F2F8E2EF52DF52C7F7401
:052CDF001221357F0108
:012CE40022CD
:102DEC00122E8490000AEFF0FD7F78122B20BF0189
:062DFC00037F01227F00AD
:012E020022AD
:022EA7008F2674
:042EA9008C278D28BD
:012EAD002202
:06198E008B218A2289234F
:10199400E4F526EF120D7219C30119F2031A026558
:1019A4001A12661A21671A30681A3F691A4E711A98
:1019B4005D721A6C731A7B751A8A7800001A9BABD5
:1019C40021AA22A923AD25AC24122DD58F26E526E4
:1019D40064016003021AA0900049E004F0E0C3949B
:1019E400055003021AA0E4F012001E021AA0AB2153
:1019F400AA22A923AD25AC24122695021A97AB215D
:101A0400AA22A923AD25AC241222B1021A97AB2134
:101A1400AA22A923AD25AC241225EC8076AB21AAF9
:101A240022A923AD25AC24122B878067AB21AA22DF
:101A3400A923AD25AC241227868058AB21AA22A95C
:101A440023AD25AC241223278049AB21AA22A92344
:101A5400AD25AC241229F3803AAB21AA22A923ADE7
:101A640025AC24122C44802BAB21AA22A923AD251A
:101A7400AC24122D0A801CAB21AA22A923AD25ACCB
:101A840024122CBF800DAB21AA22A923AD25AC249E
:0E1A9400122DEC8F268000E4900049F0AF2662
:011AA2002221
:032EBD007F0F2262
:102C17007B2270223A220030626E6635716F740033
:102C2700222C2276223A2200312E302E3000227DAD
:0D2C3700001F1C1F1E1F1E1F1F1E1F1E1F23
:0419890041006D00AC
:092E8D009000CBEEF0A3EFF0225F
:092E96009000CBE0FEA3E0FF2256
:082D6D00AB07E4FCFFFEAD031F
:102D750074972FF974003EFA7B01ED120ABD0FBF5F
:032D850000010E3C
:012D88002228
:062AAC00AF197E007BFF64
:0A2AB2008E1A8F1B8B1C8A1D891ED3
:102ABC0074972FF974003EFA7B01851C24851D2523
:102ACC00851E26851F27852028121C87E520251B9F
:0B2ADC00F51BE51F351AF51AFEAF1BB5
:012AE70022CC
:102A32008B328A3389348C358D36E94A4B602DE5E9
:102A42003645356027E5361536AE35700215354EFA
:102A5200601AAB32AA33A934120A77FF122EBA7463
:0D2A6200012534F534E43533F53380D922F5
:0A2BEA008B328A3389348C358D3626
:102BF400E4FFFDFCC3ED9536EC953550157832E4D1
:102C040075F001120D62120A772FFF0DBD00010C41
:022C140080E25C
:012C1600229B
:06223A008C308D31AB0772
:10224000E4FF122E96AD07AC0690008F7455F0A3F4
:1022500074AAF0A37402F0AF04A3EFF0AF05EFA3EC
:10226000F0A3EBF0E530A3F0E531A3F00DBD0001E4
:102270000CAF05AE04122E8D74092531F531E4350D
:1022800030F5307B017A00798FE53124FFFDE530B0
:1022900034FFFC122BEA748E2531F5827400353040
:1022A000F583EFF07B017A00798FAD31AC30022AF3
:0122B00032FB
:022D2E008F20F4
:102D3000122EBDE4FEEEC39F501275F002EE90001D
:0E2D4000D2120D56E0652060030E80E9AF064A
:012D4E002262
:102E03009000C9E07002A3E070031200269000C98D
:062E1300E0FEA3E0FF2237
:102A6F00E4FFD39000CAE094009000C9E0940040C6
:102A7F002BE5779582E57695834006757600757719
:102A8F00B00577E577AE767002057614F5828E8302
:0C2A9F00E0FF9000C974FFF5F0120B5826
:012AAB002208
:080D98008F298E288D278C267F
:100DA000782C7C007D007BFF7A2C79387E007F0CCC
:100DB000120A51E4F538F539F53AF53BFFFEFDFC32
:100DC000AB29AA28A927A826C3120CCA6006E52BBE
:100DD000452A70077B007A00790022E47B3CFAF90F
:100DE000F8AF29AE28AD27AC26120C14AF03E52BC3
:100DF0002406F582E4352AF583EAF0A3EFF0AF2963
:100E0000AE28AD27AC26E47B3CFAF9F8120C148F1F
:100E1000298E288D278C26E47B3CFAF9F8120C14D5
:100E2000E52B2405F582E4352AF583EBF0AF29AEF6
:100E300028AD27AC26E47B3CFAF9F8120C148F2974
:100E40008E288D278C26E47BF87A88F9F8120C140A
:100E50008E388F39E5397802C333CE33CED8F924B2
:100E6000B2FFEE3407852B82852A83F0A3EFF0AF23
:100E700029AE28AD27AC26E47BF87A88F9F8120C65
:100E800014AC00AD01AE02AF038F298E288D278CE4
:100E900026753A22753B38852B82852A83A3E05438
:100EA00003700B7418253BF53BE4353AF53AAE3A3E
:100EB000AF3BE4FCFDAB29AA28A927A826C3120C46
:100EC000CA4031852B82852A83E475F001120B58C4
:100ED000AE3AAF3BAB07AA06C3E5299BFFE5289ACC
:100EE000FEE5279400FDE52694008F298E288D27A6
:100EF000F526809DE47B18FAF9F8AF29AE28AD27D6
:100F0000AC26120C14E52B2404F582E4352AF58373
:100F1000EBF0AF29AE28AD27AC26E47B18FAF9F840
:100F2000120C148F298E288D278C26EF2401FFE4C4
:100F30003EFEE43DFDE43C8F298E288D27F5268575
:100F40002B82852A83A3E05403705B7F3CFEFDFC6B
:100F5000AB29AA28A927A826D3120CCA401DE52927
:100F600024FFFFE52834FFFEE52734FFFDE52634A6
:100F7000FF8F298E288D27F526802BE47F3CFEFDF0
:100F8000FCAB29AA28A927A826C3120CCA7017856A
:100F90002B82852A83A3A304F0852B82852A83A331
:100FA000A3A3741D807B852B82852A83A3A3E4F0F1
:100FB000852B82852A83A3A3E0242CF8E6FF3395B2
:100FC000E0FEFDFCAB29AA28A927A826D3120CCA4B
:100FD0004039852B82852A83A3A3E0242CF8E6FBE5
:100FE0003395E0FAF9F8C3E5299BFFE5289AFEE579
:100FF0002799FDE526988F298E288D27F526852BA4
:1010000082852A83A3A3E004F080A5852B82852A0C
:1010100083A3A3E004F0852B82852A83A3A3A3E501
:0810200029F0AA2AA92B7B018B
:0110280022A5
:0C2E4E00122D6DAC06AD077F0B02223A7E
:0C2E5A00122D6DAC06AD077F0C02223A71
:081EEC008B458A4689478D48A9
:101EF400E4FDFCF54C754D08E54D154DAE4C7002F6
:101F0400154C4E601AAF05AE047845E475F0011225
:101F14000D62120A77FD122D75AC06AD0780D9AF9C
:101F240005AE04AD48122D75AC06AD07C006C0075A
:101F3400E54AAE497818CEC313CE13D8F9FDD007BD
:101F4400D006122D75AC06AD07C006C007E54AAE33
:101F5400497810CEC313CE13D8F9FDD007D006129A
:101F64002D75AC06E549FD122D75AC06AD4A122D52
:101F740075AC06AD4B122D75AC06AD077F0D022274
:011F84003A22
:082738008F4E8B4F8A5089512E
:10274000E4FCF553755408FFFEAD4E801EE55415AC
:1027500054AE53700215534E601AAF05AE04784F55
:10276000E475F001120D62120A77FD122D75AC06A8
:10277000AD0780D9AF05AE04AD52122D75AC06ADD4
:06278000077F0E02223A61
:1020A900E4F5197BFF7A2C79171226428E1F8F20AF
:1020B9007A2C7917122AAC8F197BFF7A2C791E1288
:1020C90026428E1F8F207A2C791E122AAC8F197BFB
:1020D900FF7A2C79271226428E1F8F20AF197E0096
:1020E9007BFF7A2C7927122AB28F197BFF7A2C79F8
:1020F9002F1226428E1F8F20AF197E007BFF7A2C6C
:10210900792F122AB28F197BFF7A2C793512264240
:102119008E1F8F20AF197E007BFF7A2C7935122A0A
:0C212900B28F19EFFD7C007F0102223A0A
:0A2E71008F19E4FDFC7F0202223AF3
:0100210022BC
:062539008B198A1A891BB0
:10253F00120A77F51C900001120A90F51D90000207
:10254F00120A90751F00F51E900003120A90251FA6
:10255F00F51FE4351EF51EAF1C122D2E75F002EF80
:10256F009000D3120D56E0651D60037F0022AB195A
:10257F00E51B2404F9E4351AFA851E24851F25AFBF
:04258F001C12198E73
:012593002225
:022EC0008F1968
:012EC20022ED
:032EC3000200000A
:021737008D190A
:10173900E4F51DF51CF51BF51AF521F520F51FF546
:101749001EF5228B238A248925E519C394085003A1
:101759000218667B017A0079F0752A00752B08E476
:10176900FD122AE87B017A0079F8752A00752B08A1
:10177900E4FD122AE8E4F5227823E475F001120D5C
:1017890062120A77FFE51D4FFFE51CFEE51BFDE52B
:101799001A8F1D8E1C8D1BF51AFC7808120CEE8F02
:1017A9001D8E1C8D1B8C1A0522E522B403CA7823D1
:1017B900E475F001120D62120A77FFE51D4FFFE58E
:1017C9001CFEE51BFDE51A8F1D8E1C8D1BF51AE409
:1017D900F5227823E475F001120D62120A77FFE50C
:1017E900214FFFE520FEE51FFDE51E8F218E208D8F
:1017F9001FF51EFC7808120CEE8F218E208D1F8C90
:101809001E0522E522B403CA7823E475F001120DFE
:1018190062120A77FFE5214FFFE520FEE51FFDE58E
:101829001E8F218E208D1FF51EAF1DAE1CAD1BAC6A
:101839001A752A00752BF8120D98AF21AE20AD1F2D
:10184900AC1E752A00752BF0120D987C007DF87F6F
:0D18590001122EA77C007DF0E4FF122EA7E7
:01186600225F
:062EAE0090006DEFF02220
:062EB40090006DE0FF221A
:041464008E118F1244
:10146800E4F513F51474732512F58274003511F53B
:1014780083E0FD74742512F58274003511F583E05C
:10148800751400F51374752512F58274003511F57D
:1014980083E02514F514E43513F51374712512F55A
:1014A8008274003511F583E07F00FE74722512F511
:1014B8008274003511F583E02FFFE43EFE122E8D75
:1014C800ED120D7214E80114EB02151903151C0432
:1014D800158A05158A06159D0815C124000015D220
:0314E8000220A936
:1014EB0074762512F58274003511F583E0F515FF3E
:1014FB00122EAEAF15122E71E51570030215D2E543
:0E150B0015640160030215D2121AA3021D58C6
:03151900020021AC
:10151C00E4F515F517F518F515AF157E00C3EF9525
:10152C0014EE951340030215D2E5122FFDEE351182
:10153C00FC74782DF58274003CF583E0751800F589
:10154C001774792DF58274003CF583E02518F51895
:10155C00EE3517F51774762512F974003511FA7BF0
:10156C0001E92FF9EE3AFA1225398F16E516B40176
:0E157C0003121D58E51824042515F515809B53
:10158A0074762512F58274003511F583E0F515FF9E
:03159A00022EC05E
:10159D0074762512F58274003511F583E0F5157416
:1015AD00772512F58274003511F583E0F516FDAF40
:0415BD0015022EC322
:1015C10074762512F974003511FA7B01AD141217E6
:0115D10037E2
:0115D20022F6
:10072A0002096CE86480F8E933E83360110460F088
:10073A00ED33EC337009E8FCE9FDEAFEEBFF220435
:10074A0060DED3EB9FEA9EE99DE8C2E78CF0C2F730
:10075A0095F0400CE8CCF8E9CDF9EACEFAEBCFFBFC
:10076A0012093785D0F05804700320D5B3E8047015
:10077A00075002B2D502097692D5EC0460F7E4CCB0
:10078A00C0E0C398F8603B94186008400DD0E0FBC5
:10079A0002094EE4FBFAC9FC8028E830E406E4C901
:1007AA00FBE4CAFCE830E305E4C9CACBFCE8540719
:1007BA006010F8C3E913F9EA13FAEB13FBEC13FC24
:1007CA00D8F130F52FC3E49CFCEF9BFFEE9AFEEDC7
:1007DA0099FDD0E0FBEF4E4D4C701222DB0302096B
:1007EA0073EC2CFCEF33FFEE33FEED33FDED30E717
:1007FA00EB02094EEF2BFFEE3AFEED39FDD0E0FB9E
:10080A0050130BBB0003020976ED13FDEE13FEEF46
:08081A0013FFEC13FC02094E70
:10082200020976EC5D046005E85904700302096C64
:10083200120937580460F6EC4860F2EC7004FDFED1
:10084200FF22C860DB2481C85009C39860025006A9
:100852000209739850CAF582E9294B4A7005AB82A6
:1008620002096275F0007C1A7880C3EF9BEE9AED64
:1008720099400DC3EF9BFFEE9AFEED99FDE842F021
:10088200DC23ACF0D0E0FFD0E0FED0E0FDAB822074
:10089200E7101BEB60BAEC2CFCEF33FFEE33FEEDFE
:1008A20033FD02094EE803F830E705C0F075F000A9
:1008B200EF2FFFEE33FEED33FD40B830E7C280AAE2
:1008C20075F020800E75F010800575F0087D007EB1
:1008D200007F003392D530D503120CA6EC334010C2
:1008E200EF33FFEE33FEED33FDEC33FCD5F0ED22BA
:0E08F200E5F0247EA2D513CC92E7CDCEFF22F6
:10090000EDD2E7CD33EC3392D524814006E4FFFEEF
:10091000FDFC22FCE4CFCECDCC24E0501174FF804E
:10092000EDC3CC13CCCD13CDCE13CECF13CF0470EB
:07093000F030D5DE020CA639
:10093700E9D2E7C933E833F892D5EDD2E7CD33EC06
:0709470033FC5002B2D5227F
:10094E00EC30E7100FBF000C0EBE00080DBD00040A
:10095E000BEB6014A2D5EB13FCED92E7FD2274FFB6
:10096E00FCFDFEFF22E480F8A2D574FF13FC7D800F
:03097E00E480EF23
:10202900021029E493A3F8E493A34003F68001F294
:1020390008DFF48029E493A3F85407240CC8C333B8
:10204900C4540F4420C8834004F456800146F6DF87
:10205900E4800B0102040810204080901867E47E98
:10206900019360BCA3FF543F30E509541FFEE4937C
:10207900A360010ECF54C025E060A840B8E493A343
:10208900FAE493A3F8E493A3C8C582C8CAC583CA6E
:10209900F0A3C8C582C8CAC583CADFE9DEE780BE26
:01198D000059
:10098100E709F608DFFA8046E709F208DFFA803E58
:1009910088828C83E709F0A3DFFA8032E309F60845
:1009A100DFFA8078E309F208DFFA807088828C83AD
:1009B100E309F0A3DFFA806489828A83E0A3F60861
:1009C100DFFA805889828A83E0A3F208DFFA804C3B
:1009D10080D280FA80C680D4806980F28033801012
:1009E10080A680EA809A80A880DA80E280CA80337B
:1009F10089828A83ECFAE493A3C8C582C8CCC583F3
:100A0100CCF0A3C8C582C8CCC583CCDFE9DEE780C2
:100A11000D89828A83E493A3F608DFF9ECFAA9F041
:100A2100EDFB2289828A83ECFAE0A3C8C582C8CC97
:100A3100C583CCF0A3C8C582C8CCC583CCDFEADEB0
:100A4100E880DB89828A83E493A3F208DFF980CC12
:100A510088F0EF60010E4E60C388F0ED2402B4040B
:100A61000050B9F582EB2402B4040050AF232345B2
:060A710082239009D173FD
:100A7700BB010689828A83E0225002E722BBFE027D
:090A8700E32289828A83E49322B0
:100A9000BB010CE58229F582E5833AF583E022501B
:100AA00006E92582F8E622BBFE06E92582F8E22265
:0D0AB000E58229F582E5833AF583E493227F
:100ABD00BB010689828A83F0225002F722BBFE0118
:020ACD00F32212
:100ACF00F8BB010DE58229F582E5833AF583E8F05D
:100ADF00225006E92582C8F622BBFE05E92582C809
:020AEF00F222F1
:100AF100EF8DF0A4A8F0CF8CF0A428CE8DF0A42E19
:020B0100FE22D2
:100B0300BC000BBE0029EF8DF084FFADF022E4CCD6
:100B1300F875F008EF2FFFEE33FEEC33FCEE9DEC9F
:100B2300984005FCEE9DFE0FD5F0E9E4CEFD22EDE5
:100B3300F8F5F0EE8420D21CFEADF075F008EF2F2F
:100B4300FFED33FD4007985006D5F0F222C398FD20
:050B53000FD5F0EA22BD
:100B5800C5F0F8A3E028F0C5F0F8E5821582700228
:060B68001583E038F022C5
:0D0B6E00EF2BFFEE3AFEED39FDEC38FC22D6
:0E0B7B00C3EF9BFFEE9AFEED99FDEC98FC2275
:100B8900E88FF0A4CC8BF0A42CFCE98EF0A42CFC0B
:100B99008AF0EDA42CFCEA8EF0A4CDA8F08BF0A489
:100BA9002DCC3825F0FDE98FF0A42CCD35F0FCEBE8
:100BB9008EF0A4FEA9F0EB8FF0A4CFC5F02ECD39AD
:0F0BC900FEE43CFCEAA42DCE35F0FDE43CFC221A
:100BD80075F008758200EF2FFFEE33FECD33CDCCD4
:100BE80033CCC58233C5829BED9AEC99E582984057
:100BF8000CF582EE9BFEED9AFDEC99FC0FD5F0D634
:100C0800E4CEFBE4CDFAE4CCF9A88222B800C1B95D
:100C18000059BA002DEC8BF084CFCECDFCE5F0CB9B
:100C2800F97818EF2FFFEE33FEED33FDEC33FCEBD4
:100C380033FB10D703994004EB99FB0FD8E5E4F98F
:100C4800FA227818EF2FFFEE33FEED33FDEC33FC7C
:100C5800C933C910D7059BE99A4007EC9BFCE99A70
:100C6800F90FD8E0E4C9FAE4CCFB2275F010EF2FB5
:100C7800FFEE33FEED33FDCC33CCC833C810D707B5
:100C88009BEC9AE899400AED9BFDEC9AFCE899F8F0
:0E0C98000FD5F0DAE4CDFBE4CCFAE4C8F92283
:0E0CA600C3E49FFFE49EFEE49DFDE49CFC225F
:100CB400EB9FF5F0EA9E42F0E99D42F0EC6480C8B7
:060CC40064809845F02257
:100CCA00EB9FF5F0EA9E42F0E99D42F0E89C45F080
:010CDA0022F7
:100CDB00E8600FECC313FCED13FDEE13FEEF13FFF7
:030CEB00D8F1221B
:100CEE00E8600FEFC333FFEE33FEED33FDEC33FC64
:030CFE00D8F12208
:0C0D0100E0FCA3E0FDA3E0FEA3E0FF2265
:0C0D0D00E0F8A3E0F9A3E0FAA3E0FB2269
:0C0D1900ECF0A3EDF0A3EEF0A3EFF0224D
:100D2500A8828583F0D083D082120D3C120D3C122F
:100D35000D3C120D3CE473E493A3C583C5F0C58354
:100D4500C8C582C8F0A3C583C5F0C583C8C582C818
:010D5500227B
:0C0D5600A42582F582E5F03583F58322A8
:100D6200FAE6FB0808E6F925F0F618E6CA3AF62292
:100D7200D083D082F8E4937012740193700DA3A310
:100D820093F8740193F5828883E473740293686024
:060D9200EFA3A3A380DF24
:00000001FF
