:03000000021D6A74
:0C1D6A00787FE4F6D8FD758183021DB17E
:1014E300045500000000410007004100450C410085
:1014F300464044003C000000004400180000000087
:1015030044001C00000000440020000000004400D0
:101513005C0000000044004A000000004400620038
:1015230000000042002F0001420016000041000DA0
:101533000041003A00420067000042000E000041F3
:1015430000010841004800015900015A00410015FB
:1015530000410024014100320A4100490041004793
:101563000A4100390041003B0042000B00004100EA
:1015730003000282000002800000410031004100AC
:101583002D004100000041000A0041002C004100F1
:1015930014004200250000420037000041006000B3
:1015A3004100040042000500004100020041002EFA
:1015B300004100330041004400017D00017C000232
:1015C3007E00004C005000000000000000000000FE
:0715D30000004200080000C7
:10126300EF24A0FFEE340FFEE43DFDE43CFC120648
:1012730009D30205C6E4900048F09000467440F09C
:1012830090003A7402F09000017406F0E4900007B5
:10129300F090005C229000181205FD90003C1206AD
:1012A3000912046A9000181206159000180205FD31
:1012B30090003C120609C30205C6E4FCFD12046A51
:1012C3009000620206159000401205FDEF2470FFA6
:1012D300EE3417FEE43DFDE43CFC90001822122A94
:1012E30064E47BE87A03F9F89000100205FD9000AE
:1012F30046E0FF900007E0C39F22D3900030E094C4
:101303000090002FE0940022E475F00102045412CF
:1013130005FD90001C12060902046A1203EDAC06D7
:10132300AD07E41201C3E4FBFA79C8784202012154
:101333007F647E00022A6490001002061590003C30
:101343000205FDE4FFFEFD7C3F12002D0201FCD3EC
:10135300900068E09400900067E0940022900032CF
:10136300E0900047F0227F0A122542900034EFF00C
:1013730090006122F090004A0205FD90006202068F
:1013830009D39DEC6480F87480982290001C0205B8
:10139300FDE47B02FAF9F802051090001802060931
:0A13A3007E2F1229767F107E27228C
:1027E3008E098F0A8B0B8A0C890DAF051DEF6021B3
:1027F300050AE50AAE097002050914F5828E83E421
:1028030093FF780BE475F00112065EEF1203B980B3
:02281300D922C8
:102901008F828E83E4F558F557F556F555AF82AEB3
:1029110083E4FCFDAB58AA57A956A855C31205C6B6
:08292100500543BD1080E622C1
:092A5B00E0FF7C2F1229297F64A1
:102A6400E4FDFCC3ED9FEC9E50070DBD00010C80FE
:012A7400F26F
:012A7500223E
:10000300758E5190FE917401F0A37410F075BD5F6D
:0700130090FEA07420F02212
:102A1F00E490FE80F0758901758DFA758BCB43A814
:0E2A2F0008438840758CCB758AEB43881022D3
:1028470090FF10E054F04408F090FF02E054F04489
:1028570002F0D28490FFA07420F0A37404F075CC2A
:102867000675CEFF75CD98759E0275981043A81012
:01287700223E
:102AAA0043B40343B4807F147E00122A6475B501CF
:072ABA0090FE9B744BF0221B
:102A760090FF08E04488F090FF00E0540F4430F0E7
:0A2A860090FF11E054F04403F02229
:0B2B30008F99E59830E1FB5398FD22DF
:102542008FB543B440E5B430E5FB53B4DF12133327
:10255200E4FBFAF943B440E5B430E5FB53B4DFE5FC
:10256200B62BFBE5B73AFA7F147E00122A6409B94A
:0C25720010E275B501A902121333AF018D
:01257E00223A
:1010EA007B017A0079507D0C7F007E2F1227E390D6
:1010FA000050E0FFE4FCFDFE12133A1212EB7808EE
:10110A001205EA12133A900010120609900051E0F3
:10111A00FFE4FCFDFE12046A12133A1212EBE47B9E
:10112A00E87A03F9F812048512133AE47F307E75DF
:10113A00FDFC9000101212B640107F007E097D3D22
:10114A007C00900010121271400A900010120621C1
:10115A0000009C40900052E0900066F07002800708
:10116A00900066E0B4FE0374FFF0900053E0FF9035
:10117A000035E4F0A3EFF0E0F8E4F0E8900035F091
:10118A00900054E0FF900035E48FF0120454900070
:10119A0035E0FEA3E0FF4E6009D3EF9408EE940712
:1011AA004009900035E4F0A37405F0900055E090F2
:1011BA000032F090003BF0900056E0900027F0607B
:1011CA0006E0D394FF40069000277401F090005780
:1011DA00E0F45401900024F0900058E0540190008B
:1011EA0031F0900059E05401900015F090005AE057
:1011FA005401900014F090005BE090000AF07B012B
:10120A007A0079087D027F807E2F1227E3900008FA
:10121A00E0900039F0900009E090002CF07F807E89
:10122A002F1229767F107E27122A64900039E00453
:10123A00F0E0FF7D807C2F12292912133390002CB5
:10124A00E07003022B7190002CE0FFB4010A7D814B
:09125A007C2F1229291213332202
:10069400E5596003020B7143B440E5B430E5FB5304
:1006A400B4DF85B70985B60A90001612130B12132E
:1006B4007EAE09AF0A1212BD90004EE0FEA3E0FF29
:1006C400C3950AEE9509500DC3E50A9FF50AE5099D
:1006D4009EF509800BC3EF950AF50AEE9509F50915
:1006E40090001C120609AE09AF0AE4FCFD12046A6C
:1006F40090001C120615900016E05401FEA3E04E73
:1007040070521213524017900047E09464503DE039
:100714002402F0E0D3946440337464F0802E90009B
:100724000EE07004A3E06401702A900032E0FF90B0
:100734000047E0FED39F4014EE94024004E024FE00
:10074400F0900047E0C39F5003121360900047E00D
:10075400FF1220C2C3900016E094205003020BA0A5
:1007640043BD10E4F0A3F0900048E0041213779026
:10077400006212131890004A120615900048E0C354
:1007840094084030E412137778101205D790004A89
:1007940012061512137890004EEE8FF01204549046
:1007A400004EE0C313F0A3E013F090004A120621B8
:1007B40000000000900001E0C394085005E004F03C
:1007C4008040900067E07002A3E07036121369E085
:1007D400FE2402FDE433FCEF12138450189000341D
:1007E400E02402FDE433FCEE12138450089000610F
:1007F400E0900034F0900034E0900061F0E4900068
:1008040001F0E4FFFEFDFC9000181212B6703312E2
:10081400138EEF2488FFEE34131212D612061590AD
:10082400002FE07002A3E070197F407E427D0FFC30
:10083400900018121271400A900018120621000F3D
:100844004240900007E0701312138E90003C120691
:1008540015900028120621000000019000281213B0
:10086400121212B34003020A139000281205FD90DD
:10087400003C12131890001C1212B64003020A1313
:10088400900007E004F090005C12131290005C12D8
:100894000615900007E0FFFBE4FAF9F890005C12FB
:1008A40005FD12051090003C120615121340780342
:1008B4001205D7900028120615E47F207E4EFDFC19
:1008C4009000281212B6500A900028120621000047
:1008D4004E20E47F607EEAFDFC90002812127140F5
:1008E4000A9000281206210000EA601213409000CA
:1008F40018121271403E90003C1206091212AD12F9
:1009040004771212C37F807E387D017C00900062E0
:1009140012127140089000457406F0801DE47F4077
:100924007E9CFDFC90006212127190004540087498
:1009340009F08006900045740CF09000451212F402
:10094400403B1212AD1212B35033900046E09410A3
:100954005003020A22900045E0D394095005121373
:10096400408011121340900018121263400C1212AE
:1009740098121394900018120615020A131212F119
:100984005003020A221212AD90003C121263407707
:1009940012139D1213401204771212C37F007E12A9
:1009A4007D7A7C001212B3505E7F807E1A7D067CB5
:1009B400009000621212B6504E900046E09410402F
:1009C4000280387FE07E937D047C009000621212E6
:1009D4007140089000467410F0801B7FF07E497DC2
:1009E400027C009000621212719000464005740C63
:1009F400F080037408F01212F1400C1212981213D2
:100A0400949000181206151212F14012E48004E4C6
:100A1400900007F090005C12062100000000900096
:100A24003AE0D394004036E014F01212C912127165
:100A34005003020B229000401205FDEF2498FFEEB4
:100A4400343AFEE43DFDE43CFC90001C1212B64036
:100A540003020B221212C9120615020B221212FDF6
:100A6400405774FFF5F01204541212FD404B7F00FE
:100A74007E127D7A7C00900018121271400C900056
:100A840010120621000C3500802F1212EB12139D58
:100A94001212C07F407E547D897C00900062121245
:100AA40071401612139DC374409BFF74549AFE74D4
:100AB4008999FDE498FC12133A1212EB9000181273
:100AC400131890001C1212714054900066E0FF90BD
:100AD4000034E0D39F40051212FD4042900067E0CD
:100AE4007002A3E070091212AD9000401206159036
:100AF4000067E4F0A304F090002DF0900025121399
:100B04000B90002E7401F09000467408F0E49000FD
:100B14000EF0A3F07882F608F67880F608F6121341
:100B24008E9000201206159000621206210000002B
:100B34000090001C12062100000000900067E0FEF7
:100B4400A3E0FFD39400EE94004051900035E0FC04
:100B5400A3E0FDD3EF9DEE9C4042E4900067F0A338
:100B6400F075590190002DF0900000F02290000ED5
:100B7400E4F0A304F0E4F55990000BF0A3F0900026
:100B840003F07FFAFE12290190004A1206210000A8
:0C0B940000001212781206210000000080
:010BA0002232
:10212200E4F50A90006212062100000000E4F509BD
:1021320043B440E5B430E5FB53B4DF12137EAFB6CF
:10214200AEB71212BD0509E509B480E47F907E01A5
:102152001229019000621205FD780B1205D78F0932
:10216200E509D3940C400CE509948D5006E50A94D8
:0D21720014500A050AE50AD3945040A72234
:01217F00223D
:1021DD0090006212062100000000E4F509E4F50C00
:1021ED00F50D43B440E5B430E5FB53B4DF85B70AD4
:1021FD0085B60B12137EAE0AAF0B1212BD050DE59F
:10220D000D7002050CB400DAE50CB420D543BD10F9
:10221D000509E509B408C69000621205FD78101293
:0A222D0005D790004EEEF0A3EFF08D
:012237002284
:10229300BF0105E4FCFD802E7E007C017DFF12035F
:1022A300ED1C7D641203FFAC06AD07E41201C38F7E
:1022B3002D8E2C8D2B8C2AAB2DAA2CA92BA82A1260
:1022C3001346AC06AD0790FF907411F075DA0175F3
:0E22D300E30175E2FF8CE58DE475E10F7F00FD
:0122E10022DA
:1026DE00BF0104E4FE801E7E007C007DFF12131EEF
:1026EE008F2D8E2C8D2B8C2AAB2DAA2CA92BA82AA4
:1026FE00121346AE0790FF9C7410F075DEFF8EDF4E
:05270E0075DD947F0061
:0127130022A3
:0220C2008F2865
:1020C400787DE6B528037F0022787DA628E5287070
:1020D40006900060048016E528B4640CE490006067
:1020E400F090003304F0800B9000607402F0E490F0
:1020F4000033F0E528FD7C0090000AE0FF7E00122A
:10210400131EE4FBFAF9783F12134C8F29C3E52818
:0D2114009529FF122293AF291226DE7F00CD
:01212100229B
:100BA100122AEC120003122A76122A1F1228471267
:100BB1002AAA75BBAA90FEA774FFF053BBF7D2AF68
:100BC1007FC87E00122901121369F0C2AF1210EA28
:100BD1007F641220C2D2AF122122900032E0FF9036
:100BE1000047F01220C27F2C7E011229011221DD63
:100BF10090006212062100000000900039E0D394B9
:100C0100034007E4F0122B718003121C2C787CE660
:100C110060127F64120DA2E4FF120DA2787F06E636
:100C210018700106900004E0FF900060E0FD6F6025
:100C31000D7F761228A7900060E0900004F09000EC
:100C410044E0FF900033E0FD6F600D7F771228A72D
:100C5100900033E0900044F0900002E064017041A4
:100C610090002EE0B4013AE4900002F090002EF0E2
:100C7100900025E0FEA3E0FF900037E06E7003A333
:100C8100E06F601DE48F2F8E2EF52DF52C7F7412F1
:100C91001FE8900025E0FFA3E0900037CFF0A3EF1D
:100CA100F043BD10E559700B900017E0541F70031D
:100CB100120F53900024E064016003020D6DE55AA8
:100CC100701CF559755A0112136090004A120621E1
:100CD1000000000012127812062100000000120626
:100CE10094D390000FE0940090000EE09400403304
:100CF100900003E0B4012CE4F090000E12130C906C
:100D01000027E0FFC390000FE09F90000EE09400E9
:100D11004011E4F0A3F0900014E064016005E4FFE9
:100D21001220C2121352400F7881E66401184670F6
:100D310006F608F612130C900031E064016003021C
:100D41000C0E90002DE0FF900000E06F7003020C8C
:100D51000EEFF0900067E4F0A304F0E4F508E50875
:100D6100C394084003020C0E050880F2E4F55A9082
:100D71000015E07007FF1220C2020C0E90003BE04C
:100D8100FF1220C2E4F55912136090004A120621A5
:100D91000000000012127812062100000000020C6F
:010DA1000E43
:0B0DA2001220C27F647E001229012293
:03001B00021A0EB8
:101A0E00C0E0C0F0C083C082C0D075D000C000C09E
:101A1E0001C002C003C004C005C006C007AF58AE67
:101A2E0057AD56AC55EF2401FFE43EFEE43DFDE418
:101A3E003C8F588E578D56F55590000B12130B9008
:101A4E00000BE0FEA3E0FFE4FCFD7B607AEAF9F810
:101A5E00D31205B0500C90000BE4F0A3F0900003ED
:101A6E0004F0788306E618700106C37883E694E8DE
:101A7E0018E69403400C760008760078807600080D
:101A8E00760190000512130BC3900006E094E890C7
:101A9E000005E094034009E4F0A3F090000204F086
:101AAE00D007D006D005D004D003D002D001D0008C
:0B1ABE00D0D0D082D083D0F0D0E03236
:0300230002232D88
:10232D00C0E0C0F0C083C082C0D075D000C000C076
:0D233D0001C002C003C004C005C006C007F7
:0F234A00E59830E00AAF991224C45398FED2AF41
:10235900D007D006D005D004D003D002D001D000D8
:0B236900D0D0D082D083D0F0D0E03282
:1029760053BBF7C280E5BB20E3F6D280C2AF75FD3C
:10298600F075FC0F8EFA8FF975FDD275FC2D75FD6D
:05299600E175FC1E22AA
:1029290053BBF7C280E5BB20E3F6D280C2AF8FFB71
:1029390075FDF075FC0F8CFA8DF975FDB475FC4BBE
:0729490075FDE175FC1E2283
:101C2C007F001213A31212E112051078081205D7C7
:101C3C007D007C2F1229297F647E001212E112058F
:101C4C00107D017C2F1229291213339000667D021E
:101C5C00122A5B9000357D03122A5BA3E0FF7D0402
:101C6C00122A5D900032E0FF7D05122A5D9000275C
:101C7C00E0FF7D06122A5D900024E0F4FF7D071240
:101C8C002A5D900031E0FF7D08122A5D900015E07E
:101C9C00FF7D09122A5D900014E0FF7D0A122A5D77
:101CAC0090000AE0FF7D0B122A5D7F801213A312B5
:101CBC002A647D807C2FE4FF1229290D0F1229291B
:021CCC00D2AF95
:011CCE0022F3
:0415DA00027A000091
:101B810012038CFFE5304FFFE52FFEE52EFDE52D1D
:101B91008F308E2F8D2EF52DFC78081205EA8F30AF
:101BA1008E2F8D2E22AF2FAE2EAD2DAC2C1205D740
:101BB100AD0722AF71AE70AD6FAC6E1205D7AD0738
:101BC10022E475F00102065EAB07E4FCFFFEAD0303
:101BD10022AC06AD077F0622E57B950AF57BE57A07
:101BE1009509F57A22AF75AE74AD73AC720205D763
:101BF100FEE56FFDE56EFCE47BFF22E4F520F51FB9
:101C0100F51EF51D2212038CAB29AA2AA92B22ABA2
:101C11005BAA5CA95D020373AB5EAA5FA9600203C4
:0B1C210073746A250AF974003509226B
:101F7700EFC39430400CEFD39439500674D02FFF41
:101F87008022EFC39441400CEFD394465006EF24D0
:101F9700C9FF8010EFC39461400AEFD394665004E1
:101FA700EF24A9FFEF540FC454F0FFEDC394304062
:101FB7000CEDD39439500674D02DFD801EEDC394DB
:101FC700414008EDD394465002800CEDC394614024
:101FD7000AEDD394665004ED24A9FDED540F420792
:011FE70022D7
:0623B8008B1A8A1B891C30
:1023BE00121BFCE94A4B7005FFFEFDFC22121BFCB2
:1023CE00781A121BC2120373601AE5202401FFE46F
:1023DE00351FFEE4351EFDE4351D8F208E1F8D1E2C
:0C23EE00F51D80DCAF20AE1FAD1EAC1D45
:0123FA0022C0
:062749008B268A27892877
:10274F008B2C8A2D892EE94A4B7004FBFAF922E56E
:10275F002B152BAE2A7002152A4E600B782C121BEC
:0D276F00C2ED1203B980E8AB26AA27A92805
:01277C00223A
:0617C4008B218A2289231B
:1017CA008B298A2A892B85242C85252D85262EE985
:1017DA004A4B6008E5264525452470077B007A00B8
:1017EA00790022D3852D83852E82E52B9582E52AE1
:1017FA0095834019E52E2528F9E52D3527FA8A83A0
:10180A008982D3E52B9582E52A95834032E4F52F28
:10181A00F530C3E5309528E52F9527505BAB2CAA08
:10182A002DA92E853082852F83121C06853082854C
:10183A002F831203CB0530E53070D7052F80D3856F
:10184A00272F852830D3E5309400E52F94004028CF
:10185A00AB2CAA2DA92EE53024FFFFE52F34FFFE7D
:10186A008F82F583121C068F828E831203CBE5309A
:0E187A00153070D1152F80CDAB21AA22A923E5
:01188800223D
:0625F9008B3C8A3D893E87
:1025FF008B428A438944AB3FAA40A94112037360BF
:10260F0014783F121BC2120373FF783C121BC2EFE8
:10261F001203B980E1AB3CAA3DA93EE41203B9AB6A
:05262F0042AA43A9448A
:012634002283
:102374008B5B8A5C895D121C10FF6020121C196043
:102384001BB507187401255DF55DE4355CF55C74D7
:10239400012560F560E4355FF55F80DA121C19FFF2
:1023A4003395E0FE121C10FD3395E0FCC3ED9FFF56
:0423B400EC9EFE227B
:10277D008F758E748D738C7278181205D7EF1203C6
:10278D00B97810121BE6900001EF1203CB780812F6
:10279D001BE6900002EF1203CBE575FF900003EFEF
:0327AD000203CB59
:1022E200E4F530F52FF52EF52D120373FFE48F3050
:1022F200F52FF52EF52DAE2FAD2EAC2D121B9A8C8F
:102302002D900001121B818C2D900002121B818CDA
:102312002D90000312038CFFE5304FFFE52FFEE501
:0A2322002EFDE52D121B9FF52DFC8A
:01232C00228E
:102B1200E4FDFCFFFE122B23AC06AD077F03021F70
:012B220000B2
:102B0000E4FDFCFFFE0D122B23AC06AD077F030294
:022B10001F00A4
:0823FB008F618B628A63896423
:10240300E4FCFFFEAD61122B23AC06E4FD122B238B
:10241300AC06E565FD122B23AC06AD66122B23AC8F
:1024230006AD07AB62AA63A96485651F85662012A2
:0A2433002878121BD2121F007F014F
:01243D00227C
:02266F008D28B4
:10267100121BC912269AE4FD12269AAD07E52870AD
:1026810003FD8006AF05AE047D01122B23AC06AD20
:08269100077F06121F007F0104
:0E26990022122B23AC067D01122B23AC06224D
:101FE800121BC9122B23AC067D02122B23AC06E46C
:101FF800FD122B23AC067D04122B23C006C00778E4
:1020080018121BA6D007D006122B23C006C00778CB
:1020180010121BA6D007D006122B23C006C007AF8C
:102028002FAE2EAD2DAC2C78081205D7AD07D007F2
:10203800D006122B23AC06C007E52FFFE4AD07D06E
:0C20480007122B23121BD2121F007F0175
:012054002269
:08243E008F678B688A69896AC7
:10244600E4FCFFFEAD67122B23AC067D03122B23A3
:10245600AC06E56BFD122B23AC06AD6C122B23AC40
:1024660006AD07AB68AA69A96A856B1F856C201241
:0A2476002878121BD2121F007F010C
:012480002239
:0228A7008D277B
:1028A900121BC9122B23AC067D04122B23AC06E4A0
:1028B900FD122B23AC067D01122B23AC06AD27128A
:0A28C9002B23121BD2121F007F0107
:0128D30022E2
:0216FD00AB0739
:1016FF00900000AD031217A07D051217ACE4FD1288
:10170F0017AC74FFFFE570121BF1FAF9F8C312055D
:10171F00C6700A7D011217A0AD7102178D74FFFFFD
:10172F00121BF17AFFF9F8C31205C6AF82AE8370B0
:10173F00047D02802C7D041217B4C006C0077818F0
:10174F00121BB4D007D0061217B4C006C007AF7172
:10175F00AE70AD6FAC6E78101205D7AD07D007D055
:10176F00061217BCC006C0077808121BB4D007D0EA
:10177F00061217BCC007E571FFE4AD07D007122BA7
:10178F00238E838F82AD82AC837F06121F007F0171
:10179F0022AF82AE83122B238E838F8222122B23B2
:1017AF008E838F8222122B238E838F8222122B23E2
:0517BF008E838F8222E1
:082B45008C288D29120373FF97
:012B4D002265
:082B4E008C278D28120373FF90
:012B5600225C
:072B69008C2B8D2C1222E2DF
:012B70002242
:102AEC007576007577AC7578007579ACE49000C597
:042AFC00F0A3F02231
:1024C400C39000C6E094199000C5E09400502FC357
:1024D4009000C5E5779582E576958340067576008C
:1024E4007577AC0577E577AC767002057614F582DE
:0F24F4008C83EFF09000C5E475F00112045422C0
:100F5300E4F509F50AF50BF50CF50DF50EF50F752E
:100F63001009C3E57B9421E57A94005027122AC126
:100F7300D3EF9400EE9400401B1225BC057BE57B68
:100F8300AC7A7002057A14246AF58274003CF58306
:100F9300EFF080CEC3E57B9409E57A940050030219
:100FA30010E9C3E57B950AFDE57A9509FCC3ED9449
:100FB30009EC940050030210A4746A250AF58274A4
:100FC300003509F583E06455600A050AE50A70D225
:100FD300050980CE746B250AF58274003509F58303
:100FE300E064AA600A050AE50A70B7050980B374CC
:100FF3006C250AF58274003509F583E0750D00F55B
:101003000E6402450D60047402803C7470250AF579
:101013008274003509F583E0750C00F50B747125B6
:101023000AF58274003509F583E02409FFE433FEF1
:10103300EF250CF50CEE350BF50BD3E50C942AE5F7
:101043000B940040097403250AF50AE4804CC3EDB0
:10105300950CEC950B404A121C22FA7B01E50C24FB
:10106300FFFDE50B34FFFC122950E50A250CFDE5D5
:1010730009350BFC74692DF58274003CF583E06F30
:1010830060097403250AF50AE4800FAF0AAE09125A
:1010930013ADE50C250AF50AE50B3509F509020F31
:1010A300A5C3121BD9D3E57B9400E57A940040369F
:1010B300E50A45097017E57B9421E57A9400400D14
:1010C300050AE50A70020509121BD98000121C22C9
:1010D300752401F5258926857A27857B287B017A66
:0610E30000796A1217C437
:0110E90022E4
:1015DE004100CD004400C9000000005E00CE0101B4
:1015EE0003026504660267016802690271017201F5
:0C15FE00730174027501760477049602F4
:1027B000AB21AA22A923AD25AC2422E0FFE48F2F70
:1027C000F52EF52DF52C22900025E0FEA3E0FFE488
:1027D0008F2F8E2EF52DF52C22E0FFE4FCFDFEC39D
:0327E0000205C629
:082B7100122B00787C76012292
:03001E00022B3082
:101889007D017F0112266F900015E0FD7F71122600
:101899006F9000321227BB7F03121FE8900066E0A9
:1018A900FFB4FF05E4F519801EEFB4C805751902E8
:1018B9008015EFB42805751903800CEFB41405756C
:1018C90019048003751905AD197F651228A79000C1
:1018D900351227CA7F66121FE8900024E0FD7F6752
:1018E90012266F9000271227BB7F68121FE8E47B3E
:1018F900107A27F9F89000101205FD120510C3742B
:10190900329F1227BC7F69121FE8900031E0FD7FEA
:101919007212266F900014E0FD7F7312266F122752
:10192900C77F74121FE8900060E0FD7F761228A738
:10193900900033E0FD7F771228A790000A1227BB99
:051949007F96021FE87B
:102AD700122B458F277D017F0112266FBF01037FD0
:042AE70001227F0049
:012AEB0022C8
:10263500122B698F2A8E298D288C27900032AB2A80
:10264500AA29A928A8271227D97002FF22AF2A9004
:102655000032EFF0FE90003BF01227BD7F03121F02
:09266500E8BF01037F01227F00A0
:01266E002249
:10218000122B4E9000CDE0B507037F0022EF1460C4
:102190001014601514601A14601F14602424057054
:1021A0002890006674FFF0802090006674C8F0806C
:1021B000189000667428F080109000667414F08007
:1021C00008900034E0900066F09000CDEFF0FD7FC5
:0C21D000651228A7BF01037F01227F00D9
:0121DC0022E0
:10248100122B698F2A8E298D288C27900035E0FE2A
:10249100A3E0FFE4FCFDAB2AAA29A928A827C312BF
:1024A10005C67002FF22AE29AF2A900035EEF0A3D7
:1024B100EFF01227CF7F66121FE8BF01037F0122D1
:0224C1007F009A
:0124C30022F6
:10299B00122B45900024E0B507037F002290002402
:1029AB00EFF0FD7F6712266FBF01037F01227F00CF
:0129BB0022F9
:10271400122B698F2A8E298D288C27900027AB2AAB
:10272400AA29A928A8271227D97002FF22AF2A9024
:102734000027EFF01227BD7F68121FE8BF01037F57
:0427440001227F00EF
:01274800226E
:10205500122B698F2A8E298D288C279000C912058D
:10206500FDAB2AAA29A928A827C31205C67002FF15
:1020750022AF2AAE29AD28AC279000C9120615C398
:102085007432952AFFE49529FEE49528FDE4952709
:10209500FCE47B107A27F9F81204859000101206EB
:1020A500159000C91205FD8F2F8E2E8D2D8C2C7F3E
:0C20B50069121FE8BF01037F01227F00B9
:0120C10022FC
:10281500122B45EF7006900015F08013900024E010
:10282500B4010690002D7401F09000157401F0902C
:102835000015E0FD7F7112266FBF01037F01227F26
:012845000092
:01284600226F
:1029BC00122B45900031E0B507037F0022900031C7
:1029CC00EFF0FD7F7212266FBF01037F01227F00A3
:0129DC0022D8
:1029DD00122B45900014E0B507037F0022900014E0
:1029ED00EFF0FD7F7312266FBF01037F01227F0081
:0129FD0022B7
:102A9000122B45EF7002FF22E4900025F0A3F01204
:092AA00027C77F74121FE87F01B3
:012AA900220A
:1026A700122B698F2790000AE0B527037F0022903D
:1026B700000AE527F0E4FF1220C290003BE0FF127A
:1026C70020C2E485272F1227C07F96121FE8BF017B
:0626D700037F01227F00D9
:0126DD0022DA
:022B99008F2685
:042B9B008C278D28CE
:012B9F002213
:061AC9008B218A22892313
:101ACF00E4F526EF12066E1AFE011B1D031B266599
:101ADF001B2F661B37671B3F681B47691B4F711B0B
:101AEF0057721B5F731B67751B6F9600001B791274
:101AFF0027B0122AD78F26E526640170729000490D
:101B0F00E004F0E0C394054066E4F0021B7E122768
:101B1F00B0122635021B751227B0122180021B75D9
:101B2F001227B0122481803E1227B012299B8036D3
:101B3F001227B0122714802E1227B012205580269C
:101B4F001227B0122815801E1227B01229BC80163A
:101B5F001227B01229DD800E1227B0122A908006AC
:101B6F001227B01226A78F268000E4900049F0AF0D
:011B7F00263F
:011B80002242
:032BA6007F0F227C
:1028D4007B2270223A220030626E6635716F74007A
:1028E400222C2276223A2200312E302E3000227DF4
:0D28F400001F1C1F1E1F1E1F1F1E1F1E1F6A
:04160A004100690032
:10160F00F07B3CAF29AE28AD27AC26E4FAF9F812EF
:10161F0005108F298E288D27227823E475F001126B
:10162F00065E0203737F3CFEFDFCAB29AA28A927A7
:10163F00A8260205C6F526852B82852A83A322AB11
:10164F0007E4FCFFFEAD03122B23AC06AD0722749B
:10165F00722512F58274003511F583E0F51522FE1F
:10166F00FDFCAB29AA28A927A8260205C6FFE51D60
:10167F004FFFE51CFEE51BFDE51A8F1D8E1C8D1B14
:10168F0022FFE5214FFFE520FEE51FFDE51E8F211F
:10169F008E208D1F221205FD78101205D7AD07225F
:1016AF001205FD78081205D7AD0722E4FAF9F8AF55
:1016BF0029AE28AD27AC262274722512F974003595
:1016CF0011FA7B0122F582E4352AF58322C3E5293D
:1016DF009BFFE5289AFEE5272274932FF974003EAD
:0E16EF00FA7B0122E47BF87A88F9F8020510F4
:082B7900E4FDFC7F20021F00B7
:101CCF00E4FFFE90004EE0C4F854F0C8A3E0C45403
:101CDF000F48FD122B237E00900034E0FD122B23C2
:101CEF007E00C006C0079000181216A4D007D006B9
:101CFF00122B237E00C006C0079000181216AFD01B
:101D0F0007D006122B237E00C006C00790002012BA
:101D1F0016A4D007D006122B237E00C006C0079052
:101D2F0000201216AFD007D006122B237E00C0065C
:101D3F00C0079000101216A4D007D006122B237ED6
:101D4F0000C006C0079000101216AFD007D00612C1
:0B1D5F002B23EFFD7C007FB0021F0073
:082B8100E4FDFC7FB1021F001E
:092B57009000C7EEF0A3EFF0229C
:092B60009000C7E0FEA3E0FF2293
:0C2B23001216E8ED1203B90FBF00010EFE
:012B2F002283
:0A2878008E1A8F1B8B1C8A1D891E0F
:102882001216E8851C24851D25851E26851F278591
:1028920020281217C4E520251BF51BE51F351AF564
:0428A2001AFEAF1B50
:0128A600220F
:10257F008B328A3389348C358D36E94A4B602DE5A1
:10258F003645356027E5361536AE35700215354EB2
:10259F00601AAB32AA33A934120373FF12001E74F0
:0D25AF00012534F534E43533F53380D922AD
:0A2950008B328A3389348C358D36C2
:10295A00E4FFFDFCC3ED9536EC9535500E78321246
:0B296A00162A2FFF0DBD00010C80E9B4
:01297500223F
:061F00008C308D31AB07AF
:101F0600E4FF122B60AD07AC0690008B7455F0A36E
:101F160074AAF0A37402F0AF04A3EFF0AF05EFA329
:101F2600F0A3EBF0E530A3F0E531A3F00DBD000121
:101F36000CAF05AE04122B5774092531F531E43583
:101F460030F5307B017A00798BE53124FFFDE530F1
:101F560034FFFC122950748A2531F582740035301D
:101F6600F583EFF07B017A00798BAD31AC30022539
:011F76007FEB
:0229FE008F2028
:102A0000122BA6E4FEEEC39F501275F002EE90006A
:0E2A1000CE120652E0652060030E80E9AF068C
:012A1E002295
:102AC1009000C5E07002A3E07003122AEC9000C5EB
:062AD100E0FEA3E0FF227D
:1025BC00E4FFD39000C6E094009000C5E094004086
:1025CC002BE5799582E578958340067578007579C9
:1025DC00AC0579E579AE787002057814F5828E83B6
:0C25EC00E0FF9000C574FFF5F0120454ED
:0125F80022C0
:050DAD001216218C2646
:100DB200782C7C007D007BFF7A2879F57E007F0C01
:100DC20012034DE4F538F539F53AF53BFFC3121637
:100DD2006E6006E52B452A70077B007A00790022B7
:100DE2007B3C1216BA120510AF03E52B240612162D
:100DF200D4EAF0A3EF12160F8C26E47B3CFAF9F842
:100E0200120510E52B24051216D4EB12160F8C26B0
:100E12001216F38E388F39E5397802C333CE33CECA
:100E2200D8F924B2FFEE3407852B82852A83F0A3FA
:100E3200EFF01216BE1216F3AC00AD01AE02AF0314
:100E42001216218C26753A22753B38121646E0544A
:100E520003700B7418253BF53BE4353AF53AAE3A8C
:100E6200AF3BE4FCFDAB29AA28A927A826C312059B
:100E7200C64026852B82852A83E475F0011204542C
:100E8200AE3AAF3BAB07AA061216DC9400FDE5268C
:100E92009400121621F52680AC7B181216BA1205A0
:100EA20010E52B24041216D4EBF07B181216128CC8
:100EB20026EF2401FFE43EFEE43DFDE43C12162150
:100EC200121644E054037036D3121634401AE52940
:100ED20024FFFFE52834FFFEE52734FFFDE5263435
:100EE200FF121621F5268016E4C3121634700F1273
:100EF2001646A304F0121646A3A3741D804B1216C5
:100F020046A3E4F0121646A3E0242CF8E6FF33953C
:100F1200E0D312166E4024121646A3E0242CF8E603
:100F2200FB3395E0FAF9F81216DC99FDE5269812E2
:100F32001621121644A3E004F080C9121646A3E05B
:100F420004F0121646A3A3E529F0AA2AA92B7B01D5
:010F5200227C
:082B890012164E7F0B021F0023
:082B910012164E7F0C021F001A
:081E7E008B458A4689478D4817
:101E8600E4FDFCF54C754D08E54D154DAE4C700264
:101E9600154C4E600FAF05AE04784512162AFD129A
:101EA600165680E4AF05AE04AD48121656C006C0FD
:101EB60007E54AAE497818CEC313CE13D8F9FDD03C
:101EC60007D006121656C006C007E54AAE49781076
:101ED600CEC313CE13D8F9FDD007D006122B23ACF0
:101EE60006E549FD122B23AC06AD4A122B23AC06A0
:0A1EF600AD4B1216567F0D021F00BF
:082503008F4E8B4F8A50895165
:10250B00E4FCF553755408FFFEAD4E8017E55415EA
:10251B0054AE53700215534E600FAF05AE04784F97
:10252B0012162AFD12165680E4AF05AE04AD5212F8
:07253B0016567F0E021F007F
:101DF600E4F5197A2879D4121E5E7A2879D4122845
:101E0600788F197A2879DB121E5E7A2879DB1228F8
:101E1600788F197A2879E4121E6E7A2879E41228C6
:101E2600788F197A2879EC121E6E7A2879EC1228A6
:101E3600788F197BFF7A2879F21223B88E1F8F20AC
:101E4600AF197E007BFF7A2879F21228788F19EF76
:081E5600FD7C007F01021F006A
:101E5E007BFF1223B88E1F8F20AF197E007BFF22CF
:101E6E007BFF1223B88E1F8F20AF197E007BFF22BF
:0A2B3B008F19E4FDFC7F02021F0069
:01001A0022C3
:062238008B198A1A891BB4
:10223E00120373F51C90000112038CF51D90000221
:10224E0012038C751F00F51E90000312038C251FC0
:10225E00F51FE4351EF51EAF1C1229FE75F002EFB8
:10226E009000CF120652E0651D60037F0022AB196D
:10227E00E51B2404F9E4351AFA851E24851F25AFC3
:04228E001C121AC93B
:012292002229
:022BA9008F1982
:012BAB002207
:032BAC0002000024
:02194E008D19F1
:10195000E4F51DF51CF51BF51AF521F520F51FF52D
:101960001EF5228B238A248925E519C39408500388
:101970000219FF7A0079EC121A007A0079F4121A2F
:1019800000E4F52212162812167CF51AFC780812CB
:1019900005EA1216898C1A0522E522B403E612160E
:1019A0002812167CF51AE4F522121628121690F564
:1019B0001EFC78081205EA12169D8C1E0522E522EF
:1019C000B403E6121628121690F51EAF1DAE1CAD1C
:1019D0001BAC1A752A00752BF4120DADAF21AE2089
:1019E000AD1FAC1E752A00752BEC120DAD7C007D71
:0F19F000F47F01122B997C007DECE4FF122B9900
:0F19FF00227B01752A00752B08E4FD122749226F
:102A3D00900069EFF07005787C760122900069E0D6
:0E2A4D00B4010A121889121C2CE4787CF622BF
:062BA000900069E0FF2235
:0413AD008E118F12FC
:1013B100E4F513F514746F2512F58274003511F5F7
:1013C10083E0FD74702512F58274003511F583E018
:1013D100751400F51374712512F58274003511F539
:1013E10083E02514F514E43513F513746D2512F516
:1013F1008274003511F583E07F00FE746E2512F5CD
:101401008274003511F583E02FFFE43EFE122B5765
:10141100ED12066E144701144A02145603145904BE
:1014210014BB0514BB0614C208143A2014DA2414A0
:0914310041B01444B1000014E2C2
:07143A0012165EFF022A3DBD
:09144100021CCF022B81021DF6F2
:0C144A0012165EFF122A3DAF15022B3B6C
:0314560002001A77
:10145900E4F515F517F518F515AF157E00C3EF95E9
:1014690014EE95135073E5122FFDEE3511FC7474CB
:101479002DF58274003CF583E0751800F517747535
:101489002DF58274003CF583E02518F518EE351723
:10149900F5171216C7E92FF9EE3AFA1222388F1604
:1014A900E516B40103121C2CE51824042515F515BD
:0214B90080A70A
:0714BB0012165EFF022BA9CF
:1014C20012165E74732512F58274003511F583E0ED
:0814D200F516FDAF15022BAC6D
:0814DA001216C7AD1412194EE1
:0114E20022E7
:10002600020268E86480F8E933E83360110460F09E
:10003600ED33EC337009E8FCE9FDEAFEEBFF220440
:1000460060DED3EB9FEA9EE99DE8C2E78CF0C2F73B
:1000560095F0400CE8CCF8E9CDF9EACEFAEBCFFB07
:1000660012023385D0F05804700320D5B3E804702B
:10007600075002B2D502027292D5EC0460F7E4CCC6
:10008600C0E0C398F8603B94186008400DD0E0FBD0
:1000960002024AE4FBFAC9FC8028E830E406E4C917
:1000A600FBE4CAFCE830E305E4C9CACBFCE8540724
:1000B6006010F8C3E913F9EA13FAEB13FBEC13FC2F
:1000C600D8F130F52FC3E49CFCEF9BFFEE9AFEEDD2
:1000D60099FDD0E0FBEF4E4D4C701222DB0302027D
:1000E6006FEC2CFCEF33FFEE33FEED33FDED30E726
:1000F600EB02024AEF2BFFEE3AFEED39FDD0E0FBB4
:1001060050130BBB0003020272ED13FDEE13FEEF5C
:0801160013FFEC13FC02024A86
:10011E00020272EC5D046005E85904700302026885
:10012E00120233580460F6EC4860F2EC7004FDFEE7
:10013E00FF22C860DB2481C85009C39860025006B4
:10014E0002026F9850CAF582E9294B4A7005AB82BC
:10015E0002025E75F0007C1A7880C3EF9BEE9AED7A
:10016E0099400DC3EF9BFFEE9AFEED99FDE842F02C
:10017E00DC23ACF0D0E0FFD0E0FED0E0FDAB82207F
:10018E00E7101BEB60BAEC2CFCEF33FFEE33FEED09
:10019E0033FD02024AE803F830E705C0F075F000BF
:1001AE00EF2FFFEE33FEED33FD40B830E7C280AAED
:1001BE0075F020800E75F010800575F0087D007EBC
:1001CE00007F003392D530D5031205A2EC334010D8
:1001DE00EF33FFEE33FEED33FDEC33FCD5F0ED22C5
:0E01EE00E5F0247EA2D513CC92E7CDCEFF2201
:1001FC00EDD2E7CD33EC3392D524814006E4FFFEFB
:10020C00FDFC22FCE4CFCECDCC24E0501174FF8059
:10021C00EDC3CC13CCCD13CDCE13CECF13CF0470F6
:07022C00F030D5DE0205A24F
:10023300E9D2E7C933E833F892D5EDD2E7CD33EC11
:0702430033FC5002B2D5228A
:10024A00EC30E7100FBF000C0EBE00080DBD000415
:10025A000BEB6014A2D5EB13FCED92E7FD2274FFC1
:10026A00FCFDFEFF22E480F8A2D574FF13FC7D801A
:03027A00E480EF2E
:101D7600020BA1E493A3F8E493A34003F68001F2D7
:101D860008DFF48029E493A3F85407240CC8C3336E
:101D9600C4540F4420C8834004F456800146F6DF3D
:101DA600E4800B01020408102040809014E3E47ED6
:101DB600019360BCA3FF543F30E509541FFEE49332
:101DC600A360010ECF54C025E060A840B8E493A3F9
:101DD600FAE493A3F8E493A3C8C582C8CAC583CA24
:101DE600F0A3C8C582C8CAC583CADFE9DEE780BEDC
:01160E0000DB
:10027D00E709F608DFFA8046E709F208DFFA803E63
:10028D0088828C83E709F0A3DFFA8032E309F60850
:10029D00DFFA8078E309F208DFFA807088828C83B8
:1002AD00E309F0A3DFFA806489828A83E0A3F6086C
:1002BD00DFFA805889828A83E0A3F208DFFA804C46
:1002CD0080D280FA80C680D4806980F2803380101D
:1002DD0080A680EA809A80A880DA80E280CA803386
:1002ED0089828A83ECFAE493A3C8C582C8CCC583FE
:1002FD00CCF0A3C8C582C8CCC583CCDFE9DEE780CE
:10030D000D89828A83E493A3F608DFF9ECFAA9F04C
:10031D00EDFB2289828A83ECFAE0A3C8C582C8CCA2
:10032D00C583CCF0A3C8C582C8CCC583CCDFEADEBB
:10033D00E880DB89828A83E493A3F208DFF980CC1D
:10034D0088F0EF60010E4E60C388F0ED2402B40416
:10035D000050B9F582EB2402B4040050AF232345BD
:06036D0082239002CD7313
:10037300BB010689828A83E0225002E722BBFE0288
:09038300E32289828A83E49322BB
:10038C00BB010CE58229F582E5833AF583E0225026
:10039C0006E92582F8E622BBFE06E92582F8E22270
:0D03AC00E58229F582E5833AF583E493228A
:1003B900BB010689828A83F0225002F722BBFE0123
:0203C900F3221D
:1003CB00F8BB010DE58229F582E5833AF583E8F068
:1003DB00225006E92582C8F622BBFE05E92582C814
:0203EB00F222FC
:1003ED00EF8DF0A4A8F0CF8CF0A428CE8DF0A42E24
:0203FD00FE22DE
:1003FF00BC000BBE0029EF8DF084FFADF022E4CCE2
:10040F00F875F008EF2FFFEE33FEEC33FCEE9DECAA
:10041F00984005FCEE9DFE0FD5F0E9E4CEFD22EDF0
:10042F00F8F5F0EE8420D21CFEADF075F008EF2F3A
:10043F00FFED33FD4007985006D5F0F222C398FD2B
:05044F000FD5F0EA22C8
:10045400C5F0F8A3E028F0C5F0F8E5821582700233
:060464001583E038F022D0
:0D046A00EF2BFFEE3AFEED39FDEC38FC22E1
:0E047700C3EF9BFFEE9AFEED99FDEC98FC2280
:10048500E88FF0A4CC8BF0A42CFCE98EF0A42CFC16
:100495008AF0EDA42CFCEA8EF0A4CDA8F08BF0A494
:1004A5002DCC3825F0FDE98FF0A42CCD35F0FCEBF3
:1004B5008EF0A4FEA9F0EB8FF0A4CFC5F02ECD39B8
:0F04C500FEE43CFCEAA42DCE35F0FDE43CFC2225
:1004D40075F008758200EF2FFFEE33FECD33CDCCDF
:1004E40033CCC58233C5829BED9AEC99E582984062
:1004F4000CF582EE9BFEED9AFDEC99FC0FD5F0D63F
:10050400E4CEFBE4CDFAE4CCF9A88222B800C1B968
:100514000059BA002DEC8BF084CFCECDFCE5F0CBA6
:10052400F97818EF2FFFEE33FEED33FDEC33FCEBDF
:1005340033FB10D703994004EB99FB0FD8E5E4F99A
:10054400FA227818EF2FFFEE33FEED33FDEC33FC87
:10055400C933C910D7059BE99A4007EC9BFCE99A7B
:10056400F90FD8E0E4C9FAE4CCFB2275F010EF2FC0
:10057400FFEE33FEED33FDCC33CCC833C810D707C0
:100584009BEC9AE899400AED9BFDEC9AFCE899F8FB
:0E0594000FD5F0DAE4CDFBE4CCFAE4C8F9228E
:0E05A200C3E49FFFE49EFEE49DFDE49CFC226A
:1005B000EB9FF5F0EA9E42F0E99D42F0EC6480C8C2
:0605C00064809845F02262
:1005C600EB9FF5F0EA9E42F0E99D42F0E89C45F08B
:0105D6002202
:1005D700E8600FECC313FCED13FDEE13FEEF13FF02
:0305E700D8F12226
:1005EA00E8600FEFC333FFEE33FEED33FDEC33FC6F
:0305FA00D8F12213
:0C05FD00E0FCA3E0FDA3E0FEA3E0FF2271
:0C060900E0F8A3E0F9A3E0FAA3E0FB2274
:0C061500ECF0A3EDF0A3EEF0A3EFF02258
:10062100A8828583F0D083D0821206381206381250
:100631000638120638E473E493A3C583C5F0C58375
:10064100C8C582C8F0A3C583C5F0C583C8C582C823
:010651002286
:0C065200A42582F582E5F03583F58322B3
:10065E00FAE6FB0808E6F925F0F618E6CA3AF6229D
:10066E00D083D082F8E4937012740193700DA3A31B
:10067E0093F8740193F5828883E47374029368602F
:06068E00EFA3A3A380DF2F
:00000001FF
