:03000000021FC418
:0C1FC400787FE4F6D8FD75818302200BC5
:1017B600045D0000000041006D004100A60C4100E0
:1017C600A74044009D0000000044007D000000008A
:1017D600440081000000004400BD000000004400F9
:1017E600AB000000004400C300000000420090006F
:1017F6000142007B00004100720041009B00420054
:10180600C800004200730000410067084100A900BB
:101816004100CA0001610001620041007A004100F6
:1018260085014100930A4100AA004100A80A41002F
:101836009A0041009C0042007000004100690002CD
:10184600820000028000004100920041008E0041AB
:1018560000660041008D00410079004200860000CC
:1018660042009800004100C10041006A0042006B3E
:1018760000004100680041008F00410094004100D3
:10188600A5004C00B10000000000000000000000B0
:061896000042006E00009C
:102A48008E098F0A8B0B8A0C890DAF051DEF60214B
:102A5800050AE50AAE097002050914F5828E83E4B9
:102A680093FF780BE475F001120CBBEF120A6B8030
:022A7800D92261
:102B63008F828E83E4F560F55FF55EF55DAF82AE2F
:102B730083E4FCFDAB60AA5FA95EA85DC3120C23CE
:082B8300500543BD1080E6225D
:092C9800E0FF7C2F122B8B7F64FE
:102CA100E4FDFCC3ED9FEC9E50070DBD00010C80BF
:012CB100F230
:012CB20022FF
:102CB300758E5190FE917401F0A37410F075BD5F91
:072CC30090FEA07420F02236
:102C4200E490FE80F0758901758DFA758BCB43A8EF
:0E2C520008438840758CCB758AEB43881022AE
:102AAC0090FF10E054F04408F090FF02E054F04422
:102ABC0002F0D28490FFA07420F0A37404F075CCC3
:102ACC000675CEFF75CD98759E0275981043A810AB
:012ADC0022D7
:102CCA0043B40343B4807F147E00122CA175B5016E
:072CDA0090FE9B744BF022F9
:102C600090FF08E054F04408F090FF00E0540F4457
:0C2C700030F090FF11E054F04403F0221B
:0B2D41008F99E59830E1FB5398FD22CC
:10279C008FB543B440E5B430E5FB53B4DF7F647EC2
:1027AC0000122CA1E4FBFAF943B440E5B430E5FB8C
:1027BC0053B4DFE5B62BFBE5B73AFA7F147E001273
:1027CC002CA109B910E275B501A9027F647E001233
:0427DC002CA1AF017C
:0127E00022D6
:101378007B017A0079B17D0C7F007E2F122A48907C
:1013880000B1E0FFE4FCFDFE900075120C729000C5
:1013980075120C5A7808120C47900075120C72904E
:1013A8000075120C669000B2E0FFE4FCFDFE120A24
:1013B800C7900075120C72900075120C5AE47BE805
:1013C8007A03F9F8120AE2900075120C72E47F3081
:1013D8007E75FDFC900075120C66C3120C23401438
:1013E8007F007E097D3D7C00900075120C66D3124B
:1013F8000C23400A900075120C7E00009C4090005F
:10140800B3E09000C7F0700280079000C7E0B4FE18
:101418000374FFF09000B4E0FF900096E4F0A3EFAF
:10142800F0E0F8E4F0E8900096F09000B5E0FF9066
:101438000096E48FF0120AB1900096E0FEA3E0FF58
:101448004E6009D3EF9408EE94074009900096E4A3
:10145800F0A37405F09000B6E0900093F090009C23
:10146800F09000B7E0900088F06006E0D394FF4069
:10147800069000887401F09000B8E0F454019000E0
:1014880085F09000B9E05401900092F09000BAE025
:10149800540190007AF09000BBE05401900079F07C
:1014A8007B017A00796E7D027F807E2F122A489018
:1014B800006EE090009AF090006FE090008DF07F51
:1014C800807E2F122BD87F107E27122CA190009A95
:1014D800E004F0E0FF7D807C2F122B8B7F647E0080
:1014E800122CA190008DE0700302001E90008DE088
:1014F800FFB4010E7D817C2F122B8B7F647E00123E
:031508002CA122F1
:10002600E561600302068C43B440E5B430E5FB535A
:10003600B4DF85B70985B60A90007BE475F0011236
:100046000AB19000C3120C66AE09AF0AE4FCFD12B9
:100056000AC79000C3120C729000AFE0FEA3E0FF47
:10006600C3950AEE9509500DC3E50A9FF50AE50901
:100076009EF509800BC3EF950AF50AEE9509F50979
:10008600900081120C66AE09AF0AE4FCFD120AC7A5
:10009600900081120C7290007BE05401FEA3E04EAA
:1000A6007030D39000C9E094009000C8E0940040FE
:1000B600099000A87464F0FF8015900073E0700446
:1000C600A3E06401700C900093E0FF9000A8F0128A
:1000D6002252C390007BE0942050030206D743BD12
:1000E60010E4F0A3F09000A9E004F09000AB120C2D
:1000F6005A9000C3120C66120AC79000AB120C721B
:100106009000A9E0C394084037E4F09000AB120CCD
:100116005A7810120C349000AB120C729000AB128D
:100126000C5A9000AFEE8FF0120AB19000AFE0C308
:1001360013F0A3E013F09000AB120C7E0000000059
:10014600900067E0C394085005E004F080569000E4
:10015600C8E07002A3E0704C7F0A12279C900095BD
:10016600EFF09000C2E0FE2402FDE433FCEFD39DE5
:10017600EC6480F8748098501E900095E02402FD8F
:10018600E433FCEED39DEC6480F8748098500890BC
:1001960000C2E0900095F0900095E09000C2F0E477
:1001A600900067F0E4FFFEFDFC90007D120C66C334
:1001B600120C237041900081120C5AEF2488FFEE36
:1001C6003413FEE43DFDE43CFC90007D120C72907D
:1001D6000090E07002A3E0701D7F407E427D0FFC20
:1001E60090007D120C66D3120C23400A90007D12FB
:1001F6000C7E000F424090006DE070169000811258
:100206000C5A90009D120C72900089120C7E000010
:100216000001900089120C5A900081120C66120A95
:10022600C790009D120C66C3120C2340030204BE45
:10023600900089120C5A90009D120C66120AC79003
:100246000081120C66C3120C2340030204BE900008
:100256006DE004F09000BD120C5A900081120C66FD
:10026600120AC79000BD120C7290006DE0FFFBE40D
:10027600FAF9F89000BD120C5A120B6D90009D12FF
:100286000C7290009D120C5A7803120C349000895F
:10029600120C72E47F207E4EFDFC900089120C66E3
:1002A600C3120C23500A900089120C7E00004E20C7
:1002B600E47F607EEAFDFC900089120C66D3120C86
:1002C60023400A900089120C7E0000EA6090009D8F
:1002D600120C5A90007D120C66D3120C23404C90DF
:1002E600009D120C6690007D120C5A120AD49000E2
:1002F600C3120C727F807E387D017C009000C31291
:100306000C66D3120C2340089000A67406F08021D8
:10031600E47F407E9CFDFC9000C3120C66D3120C59
:10032600239000A640087409F080069000A6740C7D
:10033600F09000A6E0FF90006DE0C39F407B900028
:100346007D120C5A90009D120C66C3120C23506944
:100356009000A7E0941050030204CD9000A6E0D3CD
:100366009409500890009D120C5A804490009D12EA
:100376000C5AEF24A0FFEE340FFEE43DFDE43CFCF6
:1003860090007D120C66D3120C23402A90007D1239
:100396000C5A90009D120C66120AC790007D120C32
:1003A6007290007D120C5AE47B02FAF9F8120B6D7A
:1003B60090007D120C720204BE9000A7E0FF900030
:1003C6006DE0C39F50030204CD90007D120C5AEFDE
:1003D60024A0FFEE340FFEE43DFDE43CFC90009DBE
:1003E600120C66D3120C2350030204AE90007D1249
:1003F6000C6690009D120C5A120AD49000C3120C7F
:10040600727F007E127D7A7C0090009D120C66C37E
:10041600120C2340030204AE7F807E1A7D067C0008
:100426009000C3120C66C3120C23507C9000A7E008
:100436009410400280487FE07E937D047C0090000B
:10044600C3120C66D3120C2340089000A77410F058
:10045600801F7FF07E497D027C009000C3120C66EF
:10046600D3120C239000A74005740CF08003740887
:10047600F09000A7E0FF90006DE0C39F402A900037
:100486007D120C5A90009D120C66120AC790007DD0
:10049600120C7290007D120C5AE47B02FAF9F812E3
:1004A6000B6D90007D120C729000A7E0FF90006D1E
:1004B600E0C39F4012E48004E490006DF09000BD1C
:1004C600120C7E0000000090009BE0D39400406672
:1004D600E014F09000A1120C5AEF2470FFEE3417CE
:1004E600FEE43DFDE43CFC90007D120C66D3120C4C
:1004F6002350030206469000A1120C5AEF2498FFDF
:10050600EE343AFEE43DFDE43CFC900081120C66BC
:10051600C3120C2340030206469000A1120C5AEFA8
:100526002470FFEE3417FEE43DFDE43CFC90007DB4
:10053600120C72020646D3900091E094009000904F
:10054600E09400407B74FFF5F0120AB1D39000915D
:10055600E09400900090E0940040657F007E127D5C
:100566007A7C0090007D120C66D3120C23400C900E
:100576000075120C7E000C35008045900075120C3B
:100586005A90007D120C66120AC79000C3120C72B4
:100596007F407E547D897C009000C3120C66D31286
:1005A6000C23401C90007D120C66C374409BFF74A4
:1005B600549AFE748999FDE498FC900075120C72A9
:1005C600900075120C5A90007D120C66120AC790A4
:1005D6000081120C66D3120C2340659000C7E0FF21
:1005E600900095E0D39F400FD3900091E094009047
:1005F6000090E0940040499000C8E07002A3E070CB
:100606000C90007D120C5A9000A1120C729000C83A
:10061600E4F0A304F090008EF0900086E475F001FB
:10062600120AB190008F7401F09000A77408F0E4EC
:10063600900073F0A3F07882F608F67880F608F654
:100646009000C3120C7E00000000900081120C7E08
:10065600000000009000C8E0FEA3E0FFD39400EE87
:100666009400406D900096E0FCA3E0FDD3EF9DEE74
:100676009C405EE49000C8F0A3F075610190008E86
:10068600F0900066F022900073E4F0A304F0E4F525
:1006960061900070F0A3F0900069F07FFAFE122BD3
:1006A600639000AB120C7E00000000E49000A9F0FD
:1006B6009000A77440F090009B7402F0900067745D
:1006C60006F0E490006DF09000BD120C7E00000074
:0106D6000023
:0106D7002200
:1023AB00E4F50A9000C3120C7E00000000E4F5096E
:1023BB0043B440E5B430E5FB53B4DF9000C3120CDB
:1023CB0066AFB6AEB7E4FCFD120AC79000C3120CA1
:1023DB00720509E509B480D87F907E01122B6390BA
:1023EB0000C3120C5A780B120C348F09E509D394E5
:1023FB000C400CE509948D5006E50A9414500A051F
:09240B000AE50AD39450409B221B
:0124140022A5
:102415009000C3120C7E00000000E4F509E4F50C01
:10242500F50D43B440E5B430E5FB53B4DF85B70A99
:1024350085B60B9000C3120C66AE0AAF0BE4FCFD2B
:10244500120AC79000C3120C72050DE50D70020546
:102455000CB400CEE50CB420C943BD100509E5094F
:10246500B408BA9000C3120C5A7810120C349000BC
:06247500AFEEF0A3EFF052
:01247B00223E
:10225200EF70069000C1048014BF640CE49000C1CA
:10226200F090009404F0800B9000C17402F0E490AE
:102272000094F0BF0104E4FE80397E007C007DFF03
:10228200120A9FAC06AD07E4120875E4FBFA79C89E
:1022920078421207D38F0E8E0D8D0C8C0BE4FFFE4D
:1022A200FD7C3FAB0EAA0DA90CA80B1206DF12088B
:1022B200AEAE0790FF9C7410F075DEFF8EDF75DD09
:0322C200947F0006
:0122C50022F6
:100F8200120003122CB3122C60122C42122AAC1241
:100F92002CCA75BBAA90FEA774FFF053BBF7D2AF61
:100FA2007FC87E00122B637F0A12279C900095EF68
:100FB200F09000C2F0C2AF1213787F64122252D2B4
:100FC200AF1223AB900093E0FF9000A8F0122252E0
:100FD2007F2C7E01122B631224159000C3120C7E0B
:100FE2000000000090009AE0D394034005E4F01260
:100FF200001E90006AE0FF9000C1E0FD6F600D7F6F
:1010020076122A139000C1E090006AF09000A5E0E9
:10101200FF900094E0FD6F600D7F77122A1390001D
:1010220094E09000A5F0900068E0640170419000A7
:101032008FE0B4013AE4900068F090008FF09000E5
:1010420086E0FEA3E0FF900098E06E7003A3E06FDD
:10105200601DE48F2F8E2EF52DF52C7F741220DC6F
:10106200900086E0FFA3E0900098CFF0A3EFF0435A
:10107200BD10E561700B90007CE0541F70031211EB
:10108200C3900085E06401600302116DE562703D6A
:10109200F561756201900093E09000A8F09000ABBA
:1010A200120C7E00000000E49000A9F09000A774EA
:1010B20040F090009B7402F09000677406F0E49098
:1010C200006DF09000BD120C7E00000000120026A0
:1010D200D3900074E09400900073E0940040369046
:1010E2000069E0B4012FE4F090007375F001120A78
:1010F200B1900088E0FFC3900074E09F900073E01D
:1011020094004011E4F0A3F0900079E064016005DE
:10111200E4FF122252D39000C9E094009000C8E08C
:10112200940040127881E6640118467009F608F6C8
:1011320075F001120AB1900092E064016003020F9F
:10114200E690008EE0FF900066E06F7003020FE60B
:10115200EFF09000C8E4F0A304F0E4F508E508C35A
:1011620094084003020FE6050880F2E4F56290005D
:101172007AE07007FF122252020FE690009CE0FF15
:10118200122252E4F561900093E09000A8F09000E2
:10119200AB120C7E00000000E49000A9F09000A7C2
:1011A2007440F090009B7402F09000677406F0E4C3
:1011B20090006DF09000BD120C7E00000000020F46
:0111C200E646
:03001B00021C7C48
:101C7C00C0E0C0F0C083C082C0D075D000C000C02E
:101C8C0001C002C003C004C005C006C007AF60AEEF
:101C9C005FAD5EAC5DEF2401FFE43EFEE43DFDE490
:101CAC003C8F608E5F8D5EF55D900070E475F00189
:101CBC00120AB1900070E0FEA3E0FFE4FCFD7B6033
:101CCC007AEAF9F8D3120C0D500C900070E4F0A3E2
:101CDC00F090006904F0788306E618700106C3786A
:101CEC0083E694E818E69403400C760008760078B6
:101CFC0080760008760190006BE475F001120AB151
:101D0C00C390006CE094E890006BE094034009E40D
:101D1C00F0A3F090006804F0D007D006D005D004F2
:101D2C00D003D002D001D000D0D0D082D083D0F05C
:031D3C00D0E032C2
:030023000226C9E9
:1026C900C0E0C0F0C083C082C0D075D000C000C0D7
:0D26D90001C002C003C004C005C006C00758
:0F26E600E59830E00AAF991229635398FED2AFFE
:1026F500D007D006D005D004D003D002D001D00039
:0B270500D0D0D082D083D0F0D0E032E2
:102BD80053BBF7C280E5BB20E3F6D280C2AF75FDD8
:102BE800F075FC0F8EFA8FF975FDD275FC2D75FD09
:052BF800E175FC1E2246
:102B8B0053BBF7C280E5BB20E3F6D280C2AF8FFB0D
:102B9B0075FDF075FC0F8CFA8DF975FDB475FC4B5A
:072BAB0075FDE175FC1E221F
:101D3F007F007E2F122BD87F107E27122CA1E47BE1
:101D4F00E87A03F9F8900075120C5A120B6D7808A7
:101D5F00120C347D007C2F122B8B7F647E00122C93
:101D6F00A1E47BE87A03F9F8900075120C5A120B74
:101D7F006D7D017C2F122B8B7F647E00122CA19026
:101D8F0000C77D02122C989000967D03122C98A309
:101D9F00E0FF7D04122C9A900093E0FF7D05122C3A
:101DAF009A900088E0FF7D06122C9A900085E0F44F
:101DBF00FF7D07122C9A900092E0FF7D08122C9A5B
:101DCF0090007AE0FF7D09122C9A900079E0FF7D58
:101DDF000A122C9A7F807E2F122BD87F107E27120B
:101DEF002CA17D807C2FE4FF122B8B0D0F122B8BE0
:021DFF00D2AF61
:011E010022BE
:04189C00027E0000C8
:10233A00EFC39430400CEFD39439500674D02FFF7A
:10234A008022EFC39441400CEFD394465006EF2409
:10235A00C9FF8010EFC39461400AEFD3946650041A
:10236A00EF24A9FFEF540FC454F0FFEDC39430409B
:10237A000CEDD39439500674D02DFD801EEDC39414
:10238A00414008EDD394465002800CEDC39461405D
:10239A000AEDD394665004ED24A9FDED540F4207CB
:0123AA002210
:062589008B1A8A1B891C5D
:10258F00E4F520F51FF51EF51DE94A4B7005FFFE1A
:10259F00FDFC22E4F520F51FF51EF51D781AE475F4
:1025AF00F001120CBB120A25601AE5202401FFE48A
:1025BF00351FFEE4351EFDE4351D8F208E1F8D1E49
:0C25CF00F51D80D8AF20AE1FAD1EAC1D66
:0125DB0022DD
:0629DB008B268A278928E3
:1029E1008B2C8A2D892EE94A4B7004FBFAF922E5DA
:1029F1002B152BAE2A7002152A4E600F782CE47528
:102A0100F001120CBBED120A6B80E4AB26AA27A9D8
:012A1100289C
:012A120022A1
:061BAB008B218A22892330
:101BB1008B298A2A892B85242C85252D85262EE99A
:101BC1004A4B6008E5264525452470077B007A00CD
:101BD100790022D3852D83852E82E52B9582E52AF6
:101BE10095834019E52E2528F9E52D3527FA8A83B5
:101BF1008982D3E52B9582E52A95834038E4F52F38
:101C0100F530C3E5309528E52F95275067AB2CAA11
:101C11002DA92E853082852F83120A3EAB29AA2A4F
:101C2100A92B853082852F83120A7D0530E530701E
:101C3100D1052F80CD85272F852830D3E53094001D
:101C4100E52F9400402EAB2CAA2DA92EE53024FFC0
:101C5100FFE52F34FFFE8F82F583120A3EAB29AADE
:101C61002AA92B8F828E83120A7DE530153070CB25
:0A1C7100152F80C7AB21AA22A9237A
:011C7B002246
:0627E1008B3C8A3D893E9D
:1027E7008B428A438944AB3FAA40A941120A25601C
:1027F7001C783FE475F001120CBB120A25FF783CE8
:10280700E475F001120CBBEF120A6B80D9AB3CAA3E
:0D2817003DA93EE4120A6BAB42AA43A9445E
:012824002291
:10247C008B638A648965AB63AA64A965120A25FF1C
:10248C006026AB66AA67A968120A25601BB50718F7
:10249C0074012565F565E43564F56474012568F50A
:1024AC0068E43567F56780CEAB66AA67A968120A3F
:1024BC0025FF3395E0FEAB63AA64A965120A25FDDE
:0C24CC003395E0FCC3ED9FFFEC9EFE2268
:102825008F7D8E7C8D7B8C7A7818120C34EF120A92
:102835006BAF7DAE7CAD7BAC7A7810120C3490001A
:1028450001EF120A7DAF7DAE7CAD7BAC7A780812C4
:102855000C34900002EF120A7DE57DFF900003EF36
:03286500020A7DE7
:101E9B00E4F530F52FF52EF52D120A25FFE48F30E2
:101EAB00F52FF52EF52DAE2FAD2EAC2D7808120C8F
:101EBB00478F308E2F8D2E8C2D900001120A3EFFF6
:101ECB00E5304FFFE52FFEE52EFDE52D8F308E2FF4
:101EDB008D2EF52DFC7808120C478F308E2F8D2E02
:101EEB008C2D900002120A3EFFE5304FFFE52FFECE
:101EFB00E52EFDE52D8F308E2F8D2EF52DFC7808E0
:101F0B00120C478F308E2F8D2E8C2D900003120AC2
:101F1B003EFFE5304FFFE52FFEE52EFDE52D8F3023
:071F2B008E2F8D2EF52DFC19
:011F3200228C
:102D0A00E4FDFCFFFE122C84AC06AD077F03022112
:012D1A006553
:102CF800E4FDFCFFFE0D122C84AC06AD077F030239
:022D0800216543
:082710008F698B6A8A6B896CEA
:10271800E4FCFFFEAD69122C84AC06E4FD122C84A7
:10272800AC06E56DFD122C84AC06AD6E122C84ACA3
:1027380006AD07AB6AAA6BA96C856D1F856E201262
:0D27480029A5AC06AD077F061221657F01B3
:012755002261
:042868008D27AB0706
:10286C00E4FCFFFEAD03122C84AC067D01122C841B
:10287C00AC06E4FD122C84AC067D01122C84AC0653
:10288C00AD07E5277003FD8006AF05AE047D011290
:0D289C002C84AC06AD077F061221657F017C
:0128A900220C
:0220DC00AB0750
:1020DE00E4FCFFFEAD03122C84AC067D02122C84B0
:1020EE00AC06E4FD122C84AC067D04122C84C006D2
:1020FE00C007AF2FAE2EAD2DAC2C7818120C34AD10
:10210E0007D007D006122C84C006C007AF2FAE2E04
:10211E00AD2DAC2C7810120C34AD07D007D00612B2
:10212E002C84C006C007AF2FAE2EAD2DAC2C780878
:10213E00120C34AD07D007D006122C84AC06C007A3
:10214E00E52FFFE4AD07D007122C84AC06AD077F58
:06215E00061221657F015D
:012164002258
:082756008F6F8B708A7189728C
:10275E00E4FCFFFEAD6F122C84AC067D03122C84BC
:10276E00AC06E573FD122C84AC06AD74122C84AC51
:10277E0006AD07AB70AA71A97285731F85742012FE
:0D278E0029A5AC06AD077F061221657F016D
:01279B00221B
:042A13008D27AB0759
:102A1700E4FCFFFEAD03122C84AC067D04122C846B
:102A2700AC06E4FD122C84AC067D01122C84AC06A6
:102A3700AD27122C84AC06AD077F061221657F01F6
:012A4700226C
:0219D100AB0762
:1019D300900000AF82AE83AD03122C848E838F827E
:1019E3007D05122C848E838F82E4FD122C848E83DA
:1019F3008F8274FFFFE578FEE577FDE576FCE47BF7
:101A0300FFFAF9F8C3120C237012AF82AE837D0183
:101A1300122C848E838F82AD79021AAB74FFFFFE82
:101A2300E577FDE576FCE47BFF7AFFF9F8C3120C5A
:101A330023AF82AE8370047D02803E7D04122C842A
:101A43008E838F82C006C007AF79AE78AD77AC7650
:101A53007818120C34AD07D007D006122C848E836D
:101A63008F82C006C007AF79AE78AD77AC767810B9
:101A7300120C34AD07D007D006122C848E838F82CC
:101A8300C006C007AF79AE78AD77AC767808120C94
:101A930034AD07D007D006122C848E838F82C00703
:101AA300E579FFE4AD07D007122C848E838F82ADD6
:0A1AB30082AC837F061221657F01DB
:011ABD002206
:082D56008C278D28120A25FFCD
:012D5E002252
:082D5F008C278D28120A25FFC4
:012D67002249
:072D7A008C2B8D2C121E9B17
:012D8100222F
:100003007550017551007552437553017554007550
:080013005543E4F54EF54F22C0
:10296300C3E54F9421E54E94005030C3900064E5D5
:10297300529582E5519583400D7A00794375500154
:102983007551007552437850E475F001120CBBEF9A
:0C299300120A6B054FE54F7002054E2242
:1011C300E4F509F50AF50BF50CF50DF50EF50F75BC
:1011D3001009C3E57F9421E57E94005027122D1B4F
:1011E300D3EF9400EE9400401B122926057FE57F80
:1011F300AC7E7002057E142401F58274003CF583F5
:10120300EFF080CEC3E57F9409E57E94005003029E
:101213001377C3E57F950AFDE57E9509FCC3ED943D
:1012230009EC9400500302131A7401250AF5827421
:10123300003509F583E06455600A050AE50A70D2B2
:10124300050980CE7402250AF58274003509F583F9
:10125300E064AA600A050AE50A70B7050980B37459
:1012630003250AF58274003509F583E0750D00F551
:101273000E6402450D60047402803C7407250AF570
:101283008274003509F583E0750C00F50B740825AD
:101293000AF58274003509F583E02409FFE433FE7F
:1012A300EF250CF50CEE350BF50BD3E50C942AE585
:1012B3000B940040097403250AF50AE48052C3ED38
:1012C300950CEC950B40507401250AF9740035090F
:1012D300FA7B01E50C24FFFDE50B34FFFC122ADD4C
:1012E300E50A250CFDE509350BFC74002DF5827428
:1012F300003CF583E06F60097403250AF50AE48076
:101303000FAF0AAE0912150BE50C250AF50AE50B1A
:101313003509F509021215C3E57F950AF57FE57EC8
:101323009509F57ED3E57F9400E57E94004045E57D
:101333000A45097020E57F9421E57E940040160557
:101343000AE50A70020509E57F950AF57FE57E95B2
:1013530009F57E80007401250AF9740035097524A6
:1013630001F5258926857E27857F287B017A0079EB
:0413730001121BAB9D
:011377002253
:1018A0004100CF004400CB000000005C00D00101EB
:1018B0000302650466026701680269027101720130
:0A18C00073017402750176047704C9
:03001E00022CF8B9
:032D9D00022D41C3
:101ABE00900000E0FD7F0112286890007AE0FD7F23
:101ACE0071122868900093E0FFE48F2FF52EF52D0C
:101ADE00F52C7F031220DC9000C7E0FFB4FF05E475
:101AEE00F519801EEFB4C8057519028015EFB428DC
:101AFE0005751903800CEFB4140575190480037570
:101B0E001905AD197F65122A13900096E0FEA3E029
:101B1E00FFE48F2F8E2EF52DF52C7F661220DC9094
:101B2E000085E0FD7F67122868900088E0FFE48F53
:101B3E002FF52EF52DF52C7F681220DCE47B107A24
:101B4E0027F9F8900075120C5A120B6DC374329F60
:101B5E00FFE48F2FF52EF52DF52C7F691220DC90EA
:101B6E000092E0FD7F72122868900079E0FD7F738D
:101B7E00122868900086E0FEA3E0FFE48F2F8E2EE1
:101B8E00F52DF52C7F741220DC9000C1E0FD7F76E0
:0D1B9E00122A13900094E0FD7F77022A13B5
:102CE100122D56900000EFF0FD7F01122868BF0100
:062CF100037F01227F00B9
:012CF70022BA
:1025DC00122D7A8F2A8E298D288C27900093E0FF5C
:1025EC00E4FCFDFEAB2AAA29A928A827C3120C23B8
:1025FC006006E4FF0FBF08FCAF2A900093EFF09049
:10260C00009CF0121D3F900093E0FFE48F2FF52EFD
:10261C00F52DF52C7F031220DCBF01037F01227FF7
:01262C0000AD
:01262D00228A
:1021DC00122D5F9000CFE0B5070FBF05129000C71E
:1021EC00E0FE900095E06E8006E4FE0EBE08FCEF6B
:1021FC0014601014601514601A14601F14602424E9
:10220C000570289000C774FFF080209000C774C838
:10221C00F080189000C77428F080109000C77414D8
:10222C00F08008900095E09000C7F09000CFEFF0A0
:10223C00121D3F9000CFE0FD7F65122A13BF0103F2
:05224C007F01227F006C
:01225100226A
:10253300122D7A8F2A8E298D288C27900096E0FE03
:10254300A3E0FFE4FCFDAB2AAA29A928A827C3120C
:102553000C236006E4FF0FBF08FC900096E529F00A
:10256300A3E52AF0121D3F900096E0FEA3E0FFE4EE
:102573008F2F8E2EF52DF52C7F661220DCBF0103E5
:052583007F01227F0032
:012588002230
:102A7A00122D56900085E06F6006E4FE0EBE08FC3B
:102A8A00EF9000857003F080037401F0121D3F90EF
:102A9A000085E0FD7F67122868BF01037F01227F5E
:012AAA00002B
:012AAB002208
:10267C00122D7A8F2A8E298D288C27900088E0FFC6
:10268C00E4FCFDFEAB2AAA29A928A827C3120C2317
:10269C006006E4FF0FBF08FC900088E52AF0121DCD
:1026AC003F900088E0FFE48F2FF52EF52DF52C7F61
:0C26BC00681220DCBF01037F01227F00B8
:0126C80022EF
:1022C600122D7A8F2A8E298D288C279000CB120CFE
:1022D6005AAB2AAA29A928A827C3120C236006E408
:1022E600FF0FBF08FCAF2AAE29AD28AC279000CB64
:1022F600120C72C37432952AFFE49529FEE49528E0
:10230600FDE49527FCE47B107A27F9F8120AE2909F
:102316000075120C72121D3F9000CB120C5A8F2FB3
:102326008E2E8D2D8C2C7F691220DCBF01037F0140
:03233600227F0003
:012339002281
:1028AA00122D5690007AE06F6006E4FE0EBE08FC18
:1028BA00EF700690007AF08013900085E0B401066C
:1028CA0090008E7401F090007A7401F090007AE022
:0E28DA00FD7F71122868BF01037F01227F007D
:0128E80022CD
:102B3700122D56AD07900092E06D6006E4FF0FBFBF
:102B470008FCED9000927003F080037401F07F722F
:0B2B5700122868BF01037F01227F00ED
:012B62002250
:102BFD00122D56900079E06F6006E4FE0EBE08FCC3
:102C0D00900079EFF0FD7F73122868BF01037F01FB
:032C1D00227F0013
:012C20002291
:102BB200122D56EF601DE4900086F0A3F09000867F
:102BC200E0FEA3E0FFE48F2F8E2EF52DF52C7F740F
:052BD2001220DC7F0170
:012BD70022DB
:022D8A008F2692
:042D8C008C278D28DB
:012D90002220
:0618CF008B218A2289230F
:1018D500E4F526EF120CCB19010119300319406507
:1018E500194F66195E67196D68197C69198B71192D
:1018F5009A7219A97319B875000019C9AB21AA22E2
:10190500A923AD25AC24122CE18F26E526640160C0
:10191500030219CE9000AAE004F0E0C39405500339
:101925000219CEE4F012001E0219CEAB21AA22A99B
:1019350023AD25AC241225DC0219C5AB21AA22A9A9
:1019450023AD25AC241221DC8076AB21AA22A92364
:10195500AD25AC241225338067AB21AA22A923AD7E
:1019650025AC24122A7A8058AB21AA22A923AD25B9
:10197500AC2412267C8049AB21AA22A923AD25AC33
:10198500241222C6803AAB21AA22A923AD25AC2474
:101995001228AA802BAB21AA22A923AD25AC24129B
:1019A5002B37801CAB21AA22A923AD25AC24122BF1
:1019B500FD800DAB21AA22A923AD25AC24122BB2A3
:0B19C5008F268000E49000AAF0AF26FF
:0119D00022F4
:032DA0007F0E2281
:102B0A007B2270223A2200726C3766777133320068
:102B1A00222C2276223A2200312E302E3000227DBB
:0D2B2A00001F1C1F1E1F1E1F1F1E1F1E1F31
:0418CA0041000000D9
:101F3300E4FFFE9000AFE0C4F854F0C8A3E0C4543B
:101F43000F48FD122C847E00900095E0FD122C8436
:101F53007E00C006C00790007D120C5A7810120C48
:101F630034AD07D007D006122C847E00C006C0070C
:101F730090007D120C5A7808120C34AD07D007D0AC
:101F830006122C847E00C006C007900081120C5AF2
:101F93007810120C34AD07D007D006122C847E00C3
:101FA300C006C007900081120C5A7808120C34AD99
:101FB30007D007D006122C84EFFD7C007FB00221EE
:011FC30065B8
:082D8200E4FDFC7FB1022165B4
:092D6800900064EEF0A3EFF022EC
:092D7100900064E0FEA3E0FF22E3
:082C7C00AB07E4FCFFFEAD0311
:102C8400742A2FF974003EFA7B01ED120A6B0FBF10
:032C940000010E2E
:012C9700221A
:06299F00AF197E007BFF72
:0A29A5008E1A8F1B8B1C8A1D891EE1
:1029AF00742A2FF974003EFA7B01851C24851D259E
:1029BF00851E26851F27852028121BABE520251B8A
:0B29CF00F51BE51F351AF51AFEAF1BC3
:0129DA0022DA
:1028E9008B328A3389348C358D36E94A4B602DE534
:1028F9003645356027E5361536AE35700215354E45
:10290900601AAB32AA33A934120A25FF122D9D741D
:0D291900012534F534E43533F53380D9223F
:0A2ADD008B328A3389348C358D3634
:102AE700E4FFFDFCC3ED9536EC953550157832E4DF
:102AF70075F001120CBB120A252FFF0DBD00010C4A
:022B070080E26A
:012B090022A9
:062165008C308D31AB0748
:10216B00E4FF122D71AD07AC069000227455F0A35D
:10217B0074AAF0A37402F0AF04A3EFF0AF05EFA3C2
:10218B00F0A3EBF0E530A3F0E531A3F00DBD0001BA
:10219B000CAF05AE04122D6874092531F531E43509
:1021AB0030F5307B017A007922E53124FFFDE530F3
:1021BB0034FFFC122ADD74212531F5827400353091
:1021CB00F583EFF07B017A007922AD31AC30022838
:0121DB00E91A
:022C21008F2002
:102C2300122DA0E4FEEEC39F501275F002EE900049
:0E2C3300D0120CAFE0652060030E80E9AF0602
:012C41002270
:0E2D1B00E54F454E7003120003AE4EAF4F223F
:10292600E4FFD3E54F9400E54E9400402F900064F9
:10293600E5559582E5549583400D7A0079437553A4
:10294600017554007555437853E475F001120CBBBC
:0C295600120A25FFE54F154F7002154EC8
:012962002252
:080CF1008F298E288D278C2627
:100CF900782C7C007D007BFF7A2B792B7E007F0C82
:100D09001209FFE4F538F539F53AF53BFFFEFDFC2C
:100D1900AB29AA28A927A826C3120C236006E52B0C
:100D2900452A70077B007A00790022E47B3CFAF9B6
:100D3900F8AF29AE28AD27AC26120B6DAF03E52B12
:100D49002406F582E4352AF583EAF0A3EFF0AF290A
:100D5900AE28AD27AC26E47B3CFAF9F8120B6D8F6F
:100D6900298E288D278C26E47B3CFAF9F8120B6D25
:100D7900E52B2405F582E4352AF583EBF0AF29AE9E
:100D890028AD27AC26E47B3CFAF9F8120B6D8F29C4
:100D99008E288D278C26E47BF87A88F9F8120B6D5A
:100DA9008E388F39E5397802C333CE33CED8F9245A
:100DB900B2FFEE3407852B82852A83F0A3EFF0AFCB
:100DC90029AE28AD27AC26E47BF87A88F9F8120B0E
:100DD9006DAC00AD01AE02AF038F298E288D278C33
:100DE90026753A22753B38852B82852A83A3E054E0
:100DF90003700B7418253BF53BE4353AF53AAE3AE6
:100E0900AF3BE4FCFDAB29AA28A927A826C3120CED
:100E1900234031852B82852A83E475F001120AB1BA
:100E2900AE3AAF3BAB07AA06C3E5299BFFE5289A73
:100E3900FEE5279400FDE52694008F298E288D274D
:100E4900F526809DE47B18FAF9F8AF29AE28AD277D
:100E5900AC26120B6DE52B2404F582E4352AF583C3
:100E6900EBF0AF29AE28AD27AC26E47B18FAF9F8E8
:100E7900120B6D8F298E288D278C26EF2401FFE414
:100E89003EFEE43DFDE43C8F298E288D27F526851D
:100E99002B82852A83A3E05403705B7F3CFEFDFC13
:100EA900AB29AA28A927A826D3120C23401DE52976
:100EB90024FFFFE52834FFFEE52734FFFDE526344E
:100EC900FF8F298E288D27F526802BE47F3CFEFD98
:100ED900FCAB29AA28A927A826C3120C23701785B9
:100EE9002B82852A83A3A304F0852B82852A83A3D9
:100EF900A3A3741D807B852B82852A83A3A3E4F099
:100F0900852B82852A83A3A3E0242CF8E6FF339559
:100F1900E0FEFDFCAB29AA28A927A826D3120C2399
:100F29004039852B82852A83A3A3E0242CF8E6FB8C
:100F39003395E0FAF9F8C3E5299BFFE5289AFEE520
:100F49002799FDE526988F298E288D27F526852B4B
:100F590082852A83A3A3E004F080A5852B82852AB4
:100F690083A3A3E004F0852B82852A83A3A3A3E5A9
:080F790029F0AA2AA92B7B0133
:010F8100224D
:0C2D2900122C7CAC06AD077F0B0221656C
:0C2D3500122C7CAC06AD077F0C0221655F
:081E02008B458A4689478D4893
:101E0A00E4FDFCF54C754D08E54D154DAE4C7002E0
:101E1A00154C4E601AAF05AE047845E475F0011210
:101E2A000CBB120A25FD122C84AC06AD0780D9AF73
:101E3A0005AE04AD48122C84AC06AD07C006C00737
:101E4A00E54AAE497818CEC313CE13D8F9FDD007A8
:101E5A00D006122C84AC06AD07C006C007E54AAE10
:101E6A00497810CEC313CE13D8F9FDD007D0061285
:101E7A002C84AC06E549FD122C84AC06AD4A122C22
:101E8A0084AC06AD4B122C84AC06AD077F0D022143
:011E9A0065E2
:08262E008F568B578A58895919
:10263600E4FCF55B755C08FFFEAD56801EE55C1597
:102646005CAE5B7002155B4E601AAF05AE04785740
:10265600E475F001120CBB120A25FD122C84AC069F
:10266600AD0780D9AF05AE04AD5A122C84AC06ADC9
:06267600077F0E02216542
:10205000E4F5197BFF7A2B790A1225898E1F8F20D0
:102060007A2B790A12299F8F197BFF7A2B7911120B
:1020700025898E1F8F207A2B791112299F8F197B2A
:10208000FF7A2B791A1225898E1F8F20AF197E00B7
:102090007BFF7A2B791A1229A58F197BFF7A2B796E
:1020A000221225898E1F8F20AF197E007BFF7A2B8D
:1020B00079221229A58F197BFF7A2B79281225897D
:1020C0008E1F8F20AF197E007BFF7A2B7928122973
:0C20D000A58F19EFFD7C007F0102216547
:0A2D4C008F19E4FDFC7F02022165EF
:0100210022BC
:0624D8008B198A1A891B12
:1024DE00120A25F51C900001120A3EF51D9000020D
:1024EE00120A3E751F00F51E900003120A3E251FAC
:1024FE00F51FE4351EF51EAF1C122C2175F002EFF0
:10250E009000D1120CAFE0651D60037F0022AB1965
:10251E00E51B2404F9E4351AFA851E24851F25AF20
:04252E001C1218CF94
:012532002286
:022DA3008F1986
:012DA500220B
:032DA60002000028
:021686008D19BC
:10168800E4F51DF51CF51BF51AF521F520F51FF5F8
:101698001EF5228B238A248925E519C39408500353
:1016A8000217B57B017A0079EC752A00752B08E4DE
:1016B800FD1229DB7B017A0079F4752A00752B0865
:1016C800E4FD1229DBE4F5227823E475F001120C1D
:1016D800BB120A25FFE51D4FFFE51CFEE51BFDE5D6
:1016E8001A8F1D8E1C8D1BF51AFC7808120C478F5B
:1016F8001D8E1C8D1B8C1A0522E522B403CA782383
:10170800E475F001120CBB120A25FFE51D4FFFE539
:101718001CFEE51BFDE51A8F1D8E1C8D1BF51AE4BA
:10172800F5227823E475F001120CBB120A25FFE5B7
:10173800214FFFE520FEE51FFDE51E8F218E208D40
:101748001FF51EFC7808120C478F218E208D1F8CE8
:101758001E0522E522B403CA7823E475F001120CB1
:10176800BB120A25FFE5214FFFE520FEE51FFDE539
:101778001E8F218E208D1FF51EAF1DAE1CAD1BAC1C
:101788001A752A00752BF4120CF1AF21AE20AD1F8B
:10179800AC1E752A00752BEC120CF17C007DF47FD1
:0D17A80001122D8A7C007DECE4FF122D8AD9
:0117B5002211
:062D9100900000EFF022AB
:062D9700900000E0FF22A5
:04150B008E118F129C
:10150F00E4F513F51474062512F58274003511F500
:10151F0083E0FD74072512F58274003511F583E021
:10152F00751400F51374082512F58274003511F542
:10153F0083E02514F514E43513F51374042512F51F
:10154F008274003511F583E07F00FE74052512F5D6
:10155F008274003511F583E02FFFE43EFE122D68F3
:10156F00ED120CCB159B01159E0215CC0315CF0464
:10157F00163D05163D061650081674241595B01520
:0F158F0098B100001685021F33022D82022050F2
:10159E0074092512F58274003511F583E0F515FFF7
:1015AE00122D91AF15122D4CE5157003021685E51F
:0E15BE001564016003021685121ABE021D3F5D
:0315CC00020021F9
:1015CF00E4F515F517F518F515AF157E00C3EF9572
:1015DF0014EE95134003021685E5122FFDEE35111B
:1015EF00FC740B2DF58274003CF583E0751800F543
:1015FF0017740C2DF58274003CF583E02518F5184F
:10160F00EE3517F51774092512F974003511FA7BA9
:10161F0001E92FF9EE3AFA1224D88F16E516B40124
:0E162F0003121D3FE51824042515F515809BB8
:10163D0074092512F58274003511F583E0F515FF57
:03164D00022DA3C8
:1016500074092512F58274003511F583E0F51574CF
:101660000A2512F58274003511F583E0F516FDAFF9
:0416700015022DA68C
:1016740074092512F974003511FA7B01AD141216A0
:0116840086DF
:011685002242
:1006D80002091AE86480F8E933E83360110460F02D
:1006E800ED33EC337009E8FCE9FDEAFEEBFF220488
:1006F80060DED3EB9FEA9EE99DE8C2E78CF0C2F783
:1007080095F0400CE8CCF8E9CDF9EACEFAEBCFFB4E
:100718001208E585D0F05804700320D5B3E80470BA
:10072800075002B2D502092492D5EC0460F7E4CC54
:10073800C0E0C398F8603B94186008400DD0E0FB17
:100748000208FCE4FBFAC9FC8028E830E406E4C9A6
:10075800FBE4CAFCE830E305E4C9CACBFCE854076B
:100768006010F8C3E913F9EA13FAEB13FBEC13FC76
:10077800D8F130F52FC3E49CFCEF9BFFEE9AFEED19
:1007880099FDD0E0FBEF4E4D4C701222DB030209BD
:1007980021EC2CFCEF33FFEE33FEED33FDED30E7BB
:1007A800EB0208FCEF2BFFEE3AFEED39FDD0E0FB43
:1007B80050130BBB0003020924ED13FDEE13FEEFEB
:0807C80013FFEC13FC0208FC16
:1007D000020924EC5D046005E85904700302091A5B
:1007E0001208E5580460F6EC4860F2EC7004FDFE77
:1007F000FF22C860DB2481C85009C39860025006FC
:100800000209219850CAF582E9294B4A7005AB824A
:1008100002091075F0007C1A7880C3EF9BEE9AED08
:1008200099400DC3EF9BFFEE9AFEED99FDE842F073
:10083000DC23ACF0D0E0FFD0E0FED0E0FDAB8220C6
:10084000E7101BEB60BAEC2CFCEF33FFEE33FEED50
:1008500033FD0208FCE803F830E705C0F075F0004E
:10086000EF2FFFEE33FEED33FD40B830E7C280AA34
:1008700075F020800E75F010800575F0087D007E03
:10088000007F003392D530D503120BFFEC334010BC
:10089000EF33FFEE33FEED33FDEC33FCD5F0ED220C
:0E08A000E5F0247EA2D513CC92E7CDCEFF2248
:1008AE00EDD2E7CD33EC3392D524814006E4FFFE42
:1008BE00FDFC22FCE4CFCECDCC24E0501174FF80A1
:1008CE00EDC3CC13CCCD13CDCE13CECF13CF04703E
:0708DE00F030D5DE020BFF34
:1008E500E9D2E7C933E833F892D5EDD2E7CD33EC59
:0708F50033FC5002B2D522D2
:1008FC00EC30E7100FBF000C0EBE00080DBD00045D
:10090C000BEB6014A2D5EB13FCED92E7FD2274FF08
:10091C00FCFDFEFF22E480F8A2D574FF13FC7D8061
:03092C00E480EF75
:101FD000020F82E493A3F8E493A34003F68001F296
:101FE00008DFF48029E493A3F85407240CC8C33312
:101FF000C4540F4420C8834004F456800146F6DFE1
:10200000E4800B01020408102040809017B6E47EA3
:10201000019360BCA3FF543F30E509541FFEE493D5
:10202000A360010ECF54C025E060A840B8E493A39C
:10203000FAE493A3F8E493A3C8C582C8CAC583CAC7
:10204000F0A3C8C582C8CAC583CADFE9DEE780BE7F
:0118CE000019
:10092F00E709F608DFFA8046E709F208DFFA803EAA
:10093F0088828C83E709F0A3DFFA8032E309F60897
:10094F00DFFA8078E309F208DFFA807088828C83FF
:10095F00E309F0A3DFFA806489828A83E0A3F608B3
:10096F00DFFA805889828A83E0A3F208DFFA804C8D
:10097F0080D280FA80C680D4806980F28033801064
:10098F0080A680EA809A80A880DA80E280CA8033CD
:10099F0089828A83ECFAE493A3C8C582C8CCC58345
:1009AF00CCF0A3C8C582C8CCC583CCDFE9DEE78015
:1009BF000D89828A83E493A3F608DFF9ECFAA9F094
:1009CF00EDFB2289828A83ECFAE0A3C8C582C8CCEA
:1009DF00C583CCF0A3C8C582C8CCC583CCDFEADE03
:1009EF00E880DB89828A83E493A3F208DFF980CC65
:1009FF0088F0EF60010E4E60C388F0ED2402B4045E
:100A0F000050B9F582EB2402B4040050AF23234504
:060A1F00822390097F73A1
:100A2500BB010689828A83E0225002E722BBFE02CF
:090A3500E32289828A83E4932202
:100A3E00BB010CE58229F582E5833AF583E022506D
:100A4E0006E92582F8E622BBFE06E92582F8E222B7
:0D0A5E00E58229F582E5833AF583E49322D1
:100A6B00BB010689828A83F0225002F722BBFE016A
:020A7B00F32264
:100A7D00F8BB010DE58229F582E5833AF583E8F0AF
:100A8D00225006E92582C8F622BBFE05E92582C85B
:020A9D00F22243
:100A9F00EF8DF0A4A8F0CF8CF0A428CE8DF0A42E6B
:020AAF00FE2225
:100AB100C5F0F8A3E028F0C5F0F8E58215827002D0
:060AC1001583E038F0226D
:0D0AC700EF2BFFEE3AFEED39FDEC38FC227E
:0E0AD400C3EF9BFFEE9AFEED99FDEC98FC221D
:100AE200E88FF0A4CC8BF0A42CFCE98EF0A42CFCB3
:100AF2008AF0EDA42CFCEA8EF0A4CDA8F08BF0A431
:100B02002DCC3825F0FDE98FF0A42CCD35F0FCEB8F
:100B12008EF0A4FEA9F0EB8FF0A4CFC5F02ECD3954
:0F0B2200FEE43CFCEAA42DCE35F0FDE43CFC22C1
:100B310075F008758200EF2FFFEE33FECD33CDCC7B
:100B410033CCC58233C5829BED9AEC99E5829840FE
:100B51000CF582EE9BFEED9AFDEC99FC0FD5F0D6DB
:100B6100E4CEFBE4CDFAE4CCF9A88222B800C1B905
:100B71000059BA002DEC8BF084CFCECDFCE5F0CB43
:100B8100F97818EF2FFFEE33FEED33FDEC33FCEB7C
:100B910033FB10D703994004EB99FB0FD8E5E4F937
:100BA100FA227818EF2FFFEE33FEED33FDEC33FC24
:100BB100C933C910D7059BE99A4007EC9BFCE99A18
:100BC100F90FD8E0E4C9FAE4CCFB2275F010EF2F5D
:100BD100FFEE33FEED33FDCC33CCC833C810D7075D
:100BE1009BEC9AE899400AED9BFDEC9AFCE899F898
:0E0BF1000FD5F0DAE4CDFBE4CCFAE4C8F9222B
:0E0BFF00C3E49FFFE49EFEE49DFDE49CFC2207
:100C0D00EB9FF5F0EA9E42F0E99D42F0EC6480C85E
:060C1D0064809845F022FE
:100C2300EB9FF5F0EA9E42F0E99D42F0E89C45F027
:010C3300229E
:100C3400E8600FECC313FCED13FDEE13FEEF13FF9E
:030C4400D8F122C2
:100C4700E8600FEFC333FFEE33FEED33FDEC33FC0B
:030C5700D8F122AF
:0C0C5A00E0FCA3E0FDA3E0FEA3E0FF220D
:0C0C6600E0F8A3E0F9A3E0FAA3E0FB2211
:0C0C7200ECF0A3EDF0A3EEF0A3EFF022F5
:100C7E00A8828583F0D083D082120C95120C951227
:100C8E000C95120C95E473E493A3C583C5F0C5834C
:100C9E00C8C582C8F0A3C583C5F0C583C8C582C8C0
:010CAE002223
:0C0CAF00A42582F582E5F03583F5832250
:100CBB00FAE6FB0808E6F925F0F618E6CA3AF6223A
:100CCB00D083D082F8E4937012740193700DA3A3B8
:100CDB0093F8740193F5828883E4737402936860CC
:060CEB00EFA3A3A380DFCC
:00000001FF
