:03000000021B1CC4
:0C1B1C00787FE4F6D8FD758150021B6351
:10142B00044500000000410007004100440C41004E
:10143B00454044003B000000004400170000000042
:10144B0044001B0000000044001F0000000044008B
:10145B005B000000004400490000000044006100F4
:10146B0000000042002E0001420015000041000C5C
:10147B000041003900420066000042000D000041AF
:10148B0000010841004700014900014A00410014D6
:10149B0000410023014100310A4100480041004650
:1014AB000A4100380041003A0042000A00004100A6
:1014BB000300024F0000024D0000410030004100CC
:1014CB002C004100000041002B00410013004200A2
:1014DB00240000420036000041005F004100040080
:1014EB0042000500004100020041002D0041003286
:1014FB0000410043000144004C004F00000000007D
:0C150B000000000000000042000800008A
:1012F500EF24A0FFEE340FFEE43DFDE43CFC1205B7
:10130500B4D3020571E4900047F09000457440F0B5
:101315009000397402F09000017406F0E490000723
:10132500F090005B229000171205A890003B120573
:10133500B41204159000171205C09000170205A8F5
:1013450090003B1205B4C3020571E4FCFD120415BF
:101355009000610205C090003F1205A8EF2470FFC0
:10136500EE3417FEE43DFDE43CFC90001722122606
:10137500C8E47BE87A03F9F890000F0205A890000D
:1013850045E0FF900007E0C39F22D390002FE09433
:101395000090002EE0940022E475F0010203FF1294
:1013A50005A890001B1205B40204157F647E000297
:1013B50026C890000F0205C090003B0205A8D390F7
:1013C5000067E09400900066E09400227F0A1222F4
:1013D5005B900033EFF090006022900031E09000C8
:1013E50046F090004922F09000490205A89000615E
:1013F5000205B4900031E0FF900046F022D39DEC49
:101405006480F87480982290001B0205A8E47B0292
:10141500FAF9F80204BB9000170205B47E2F1225D5
:06142500FE7F107E27226D
:1023DF008E098F0A8B0B8A0C890DAF051DEF6021BB
:1023EF00050AE50AAE097002050914F5828E83E429
:1023FF0093FF780BE475F001120609EF1203B98011
:02240F00D922D0
:102589008F828E83E4F548F547F546F545AF82AE6F
:1025990083E4FCFDAB48AA47A946A845C3120571C7
:0825A900500543BD1080E6223D
:0926BF00E0FF7C2F1225B17F64BD
:1026C800E4FDFCC3ED9FEC9E50070DBD00010C809E
:0126D800F20F
:0126D90022DE
:10000300758E5190FE917401F0A37410F075BD5F6D
:0700130090FEA07420F02212
:10266700E490FE80F0758901758DFA758BCB43A8D0
:0E26770008438840758CCB758AEB438810228F
:1024750090FF10E054F04408F090FF02E054F0445F
:1024850002F0D28490FFA07420F0A37404F075CC00
:102495000675CEFF75CD98759E0275981043A810E8
:0124A5002214
:1026F50043B40343B4807F147E001226C875B50128
:0727050090FE9B744BF022D3
:1026A30090FF08E054F04408F090FF00E0540F441A
:0C26B30030F090FF11E054F04403F022DE
:0B27D6008F99E59830E1FB5398FD223D
:10225B008FB543B440E5B430E5FB53B4DF1213B094
:10226B00E4FBFAF943B440E5B430E5FB53B4DFE5E6
:10227B00B62BFBE5B73AFA7F147E001226C809B9D4
:0C228B0010E275B501A9021213B0AF01FA
:012297002224
:10104D007B017A00794F7D0C7F007E2F1223DF907C
:10105D00004FE0FFE4FCFDFE1213B712137D78087C
:10106D001205951213B790000F1205B4900050E0C1
:10107D00FFE4FCFDFE1204151213B712137DE47B81
:10108D00E87A03F9F81204301213B7E47F307E7555
:10109D00FDFC90000F12134840107F007E097D3D2E
:1010AD007C0090000F121303400A90000F1205CC24
:1010BD0000009C40900051E0900065F070028007A8
:1010CD00900065E0B4FE0374FFF0900052E0FF90D5
:1010DD000034E4F0A3EFF0E0F8E4F0E8900034F031
:1010ED00900053E0FF900034E48FF01203FF900066
:1010FD0034E0FEA3E0FF4E6009D3EF9408EE9407B1
:10110D004009900034E4F0A37405F0900054E09091
:10111D000031F090003AF0900055E0900026F0601C
:10112D0006E0D394FF40069000267401F09000561F
:10113D00E0F45401900023F0900057E0540190002A
:10114D0030F0900058E05401900014F0900059E0F8
:10115D005401900013F07B017A0079087D027F80A5
:10116D007E2F1223DF900008E0900038F0900009E8
:10117D00E090002BF07F807E2F1225FE7F107E27C2
:10118D001226C8900038E004F0E0FF7D807C2F121D
:10119D0025B11213B090002BE070030228269000A9
:1011AD002BE0FFB4010A7D817C2F1225B11213B003
:0111BD00220F
:10063F00E5496003020AEA43B440E5B430E5FB53F1
:10064F00B4DF85B70985B60A90001512139D1213F2
:10065F00F2AE09AF0A12134F90004DE0FEA3E0FF78
:10066F00C3950AEE9509500DC3E50A9FF50AE509F2
:10067F009EF509800BC3EF950AF50AEE9509F5096A
:10068F0090001B1205B4AE09AF0AE4FCFD1204156D
:10069F0090001B1205C0900015E05401FEA3E04E20
:1006AF0070201213C340099000467464F0FF800F4E
:1006BF0090000DE07004A3E0640170061213F812AD
:1006CF001D95C3900015E094205003020B1943BDF4
:1006DF0010E4F0A3F0900047E0041213EB900061D8
:1006EF001213AA9000491205C0900047E0C3940866
:1006FF004030E41213EB7810120582900049120576
:10070F00C01213EC90004DEE8FF01203FF90004DCE
:10071F00E0C313F0A3E013F09000491205CC0000E2
:10072F000000900001E0C394085005E004F0804001
:10073F00900066E07002A3E070361213D1E0FE2441
:10074F0002FDE433FCEF1214025018900033E02442
:10075F0002FDE433FCEE1214025008900060E090AA
:10076F000033F0900033E0900060F0E4900001F06F
:10077F00E4FFFEFDFC900017121348703312140CA7
:10078F00EF2488FFEE34131213681205C090002E69
:10079F00E07002A3E070197F407E427D0FFC900055
:1007AF0017121303400A9000171205CC000F424096
:1007BF00900007E0701312140C90003B1205C090CC
:1007CF0000271205CC000000019000271213A4127D
:1007DF001345400302098C9000271205A890003B97
:1007EF001213AA90001B121348400302098C9000A9
:1007FF0007E004F090005B1213A490005B1205C099
:10080F00900007E0FFFBE4FAF9F890005B1205A8EF
:10081F001204BB90003B1205C01213BD78031205E2
:10082F00829000271205C0E47F207E4EFDFC9000D1
:10083F0027121348500A9000271205CC00004E20B3
:10084F00E47F607EEAFDFC900027121303400A90BC
:10085F0000271205CC0000EA601213BD900017129A
:10086F001303403E90003B1205B412133F120422B3
:10087F001213557F807E387D017C0090006112132A
:10088F000340089000447406F0801DE47F407E9C76
:10089F00FDFC90006112130390004440087409F0AE
:1008AF008006900044740CF0900044121386403B75
:1008BF0012133F1213455033900045E0941050032C
:1008CF0002099B900044E0D3940950051213BD8098
:1008DF00111213BD9000171212F5400C12132A12A9
:1008EF0014129000171205C002098C1213835003C3
:1008FF0002099B12133F90003B1212F5407712141E
:10090F001B1213BD1204221213557F007E127D7A23
:10091F007C00121345505E7F807E1A7D067C00900E
:10092F000061121348504E900045E0941040028031
:10093F00387FE07E937D047C0090006112130340AA
:10094F00089000457410F0801B7FF07E497D027C7B
:10095F00009000611213039000454005740CF08065
:10096F00037408F0121383400C12132A12141290FE
:10097F0000171205C01213834012E48004E49000A4
:10098F0007F090005B1205CC00000000900039E0EA
:10099F00D394004036E014F012135B12130350038C
:1009AF00020A9B90003F1205A8EF2498FFEE343AFD
:1009BF00FEE43DFDE43CFC90001B12134840030293
:1009CF000A9B12135B1205C0020A9B12138F40572A
:1009DF0074FFF5F01203FF12138F404B7F007E124E
:1009EF007D7A7C00900017121303400C90000F12B9
:1009FF0005CC000C3500802F12137D12141B12131F
:100A0F00527F407E547D897C009000611213034019
:100A1F001612141BC374409BFF74549AFE74899969
:100A2F00FDE498FC1213B712137D9000171213AA4E
:100A3F0090001B1213034054900065E0FF900033A9
:100A4F00E0D39F400512138F4042900066E0700282
:100A5F00A3E0700912133F90003F1205C09000668B
:100A6F00E4F0A304F090002CF090002412139D905A
:100A7F00002D7401F09000457408F0E490000DF023
:100A8F00A3F0784FF608F6784DF608F612140C908E
:100A9F00001F1205C09000611205CC0000000090ED
:100AAF00001B1205CC00000000900066E0FEA3E0E2
:100ABF00FFD39400EE94004051900034E0FCA3E08B
:100ACF00FDD3EF9DEE9C4042E4900066F0A3F075DD
:100ADF00490190002CF0900000F02290000DE4F0FE
:100AEF00A304F0E4F54990000AF0A3F0900003F09E
:100AFF007FFAFE1225899000491205CC00000000F4
:0A0B0F0012130A1205CC00000000CA
:010B190022B9
:101EEC00E4F50A9000611205CC00000000E4F5094D
:101EFC0043B440E5B430E5FB53B4DF1213F2AFB694
:101F0C00AEB712134F0509E509B480E47F907E014A
:101F1C001225899000611205A8780B1205828F0991
:101F2C00E509D3940C400CE509948D5006E50A9410
:0D1F3C0014500A050AE50AD3945040A7226C
:011F49002275
:101F4A009000611205CC00000000E4F509E4F50CEC
:101F5A00F50D43B440E5B430E5FB53B4DF85B70A69
:101F6A0085B60B1213F2AE0AAF0B12134F050DE52D
:101F7A000D7002050CB400DAE50CB420D543BD108F
:101F8A000509E509B408C69000611205A87810127F
:0A1F9A00058290004DEEF0A3EFF079
:011FA400221A
:101D9500EF700690005F048014BF640CE490005F50
:101DA500F090003204F0800B90005F7402F0E49034
:101DB5000032F0BF0104E4FE80397E007C007DFF27
:101DC5001203EDAC06AD07E41201C3E4FBFA79C8D2
:101DD50078421201218F0E8E0D8D0C8C0BE4FFFEC7
:101DE500FD7C3FAB0EAA0DA90CA80B12002D12010C
:101DF500FCAE0790FF9C7410F075DEFF8EDF75DD7D
:031E0500947F00C7
:011E080022B7
:100B1A001227831200031226A312266712247512C3
:100B2A0026F575BBAA90FEA774FFF053BBF7D2AFA8
:100B3A007FC87E001225891213D1F0C2AF12104D60
:100B4A007F64121D95D2AF121EEC1213F8121D9576
:100B5A007F2C7E01122589121F4A9000611205CC52
:100B6A0000000000E4F544900038E0D394034016F6
:100B7A00122826900038E0D3940C400312275EE432
:100B8A00900038F08003121A83E5446003020C17C0
:100B9A00900004E0FF90005FE0FD6F600D7F761229
:100BAA0024D790005FE0900004F0900043E0FF90AB
:100BBA000032E0FD6F600D7F771224D7900032E09B
:100BCA00900043F0900002E06401704190002DE033
:100BDA00B4013AE4900002F090002DF0900024E075
:100BEA00FEA3E0FF900036E06E7003A3E06F601D85
:100BFA00E48F2B8E2AF529F5287F74121E7D90002A
:100C0A0024E0FFA3E0900036CFF0A3EFF043BD103D
:100C1A00E549700B900016E0541F7003120EB7904E
:100C2A000023E064016003020CDFE54A7019F5490C
:100C3A00754A011213DF1205CC0000000012130AD4
:100C4A001205CC0000000012063FD390000EE0947B
:100C5A000090000DE094004033900003E0B4012CB2
:100C6A00E4F090000D12139E900026E0FFC390005E
:100C7A000EE09F90000DE094004011E4F0A3F09084
:100C8A000013E064016005E4FF121D951213C340CE
:100C9A000F784EE6640118467006F608F612139E9F
:100CAA00900030E064016003020B9390002CE0FF97
:100CBA00900000E06F7003020B93EFF0900066E47F
:100CCA00F0A304F0E4F508E508C394084003020B16
:100CDA0093050880F2E4F54A900014E07007FF12C9
:100CEA001D95020B9390003AE0FF121D95E4F54919
:100CFA001213DF1205CC0000000012130A1205CCF1
:070D0A0000000000020B9342
:03001B0002192D9A
:10192D00C0E0C0F0C083C082C0D075D000C000C080
:10193D0001C002C003C004C005C006C007AF48AE59
:10194D0047AD46AC45EF2401FFE43EFEE43DFDE42A
:10195D003C8F488E478D46F54590000A12139D9099
:10196D00000AE0FEA3E0FFE4FCFD7B607AEAF9F8F3
:10197D00D312055B500C90000AE4F0A3F090000325
:10198D0004F0785006E618700106C37850E694E826
:10199D0018E69403400C7600087600784D76000822
:1019AD00760190000512139DC3900006E094E89017
:1019BD000005E094034009E4F0A3F090000204F068
:1019CD00D007D006D005D004D003D002D001D0006E
:0B19DD00D0D0D082D083D0F0D0E03218
:030023000222981E
:10229800C0E0C0F0C083C082C0D075D000C000C00C
:0722A80001C002C003C007E2
:0F22AF00E59830E00AAF991224115398FED2AF90
:1022BE00D007D003D002D001D000D0D0D082D083AE
:0522CE00D0F0D0E03269
:1025FE0053BBF7C280E5BB20E3F6D280C2AF75FDB8
:10260E00F075FC0F8EFA8FF975FDD275FC2D75FDE8
:05261E00E175FC1E2225
:1025B10053BBF7C280E5BB20E3F6D280C2AF8FFBED
:1025C10075FDF075FC0F8CFA8DF975FDB475FC4B3A
:0725D10075FDE175FC1E22FF
:101A83007F001214211213731204BB78081205820B
:101A93007D007C2F1225B17F647E00121373120424
:101AA300BB7D017C2F1225B11213B09000657D021E
:101AB3001226BF9000347D031226BFA3E0FF7D04EE
:101AC3001226C1900031E0FF7D051226C190002649
:101AD300E0FF7D061226C1900023E0F4FF7D07128C
:101AE30026C1900030E0FF7D081226C1900014E06B
:101AF300FF7D091226C1900013E0FF7D0A1226C163
:101B03007F801214211226C87D807C2FE4FF1225CA
:081B1300B10D0F1225B1D2AF94
:011B1B0022A7
:04151700024B000083
:101C300012038CFFE52C4FFFE52BFEE52AFDE5297D
:101C40008F2C8E2B8D2AF529FC78081205958F2C68
:101C50008E2B8D2A22AF2BAE2AAD29AC28120582FD
:101C6000AD0722AB07E4FCFFFEAD0322E54C950A6D
:101C7000F54CE54B9509F54B22E475F00102060998
:101C8000E4F520F51FF51EF51D2212038CAB29AAE1
:101C90002AA92B22753E01753F007540AB2274695D
:081CA000250AF9740035092240
:062118008B1A8A1B891CD2
:10211E00121C80E94A4B7005FFFEFDFC22121C804A
:10212E00781A121C79120373601AE5202401FFE459
:10213E00351FFEE4351EFDE4351D8F208E1F8D1ECE
:0C214E00F51D80DCAF20AE1FAD1EAC1DE7
:01215A002262
:062377008B268A2789284D
:10237D008B2C8A2D892EE94A4B7004FBFAF922E544
:10238D002B152BAE2A7002152A4E600B782C121CC1
:0D239D0079ED1203B980E8AB26AA27A92824
:0123AA002210
:061623008B218A228923BD
:101629008B298A2A892B85242C85252D85262EE927
:101639004A4B6008E5264525452470077B007A005A
:10164900790022D3852D83852E82E52B9582E52A83
:1016590095834019E52E2528F9E52D3527FA8A8342
:101669008982D3E52B9582E52A95834032E4F52FCB
:10167900F530C3E5309528E52F9527505BAB2CAAAB
:101689002DA92E853082852F83121C8A853082856B
:101699002F831203CB0530E53070D7052F80D38512
:1016A900272F852830D3E5309400E52F9400402872
:1016B900AB2CAA2DA92EE53024FFFFE52F34FFFE20
:1016C9008F82F583121C8A8F828E831203CBE530B9
:0E16D900153070D1152F80CDAB21AA22A92388
:0116E70022E0
:101FF500E4F52CF52BF52AF529120373FFE48F2C54
:10200500F52BF52AF529AE2BAD2AAC29121C498CE6
:1020150029900001121C308C29900002121C308C72
:102025002990000312038CFFE52C4FFFE52BFEE5FD
:0A2035002AFDE529121C4EF529FCD6
:01203F00227E
:10279500E4FDFCFFFE122737AC06AD077F03021CE4
:0127A500A88B
:10277100E4FDFCFFFE0D122737AC06AD077F030217
:022781001CA892
:0222D3008D2458
:1022D500121C631222FEE4FD1222FEAD07E52470F6
:1022E50003FD8006AF05AE047D01122737AC06ADB0
:0822F500077F06121CA87F01FF
:0E22FD0022122737AC067D01122737AC0622CD
:101E7D00121C63122737AC067D02122737AC06E41D
:101E8D00FD122737AC067D04122737C006C0077830
:101E9D0018121C55D007D006122737C006C0077878
:101EAD0010121C55D007D006122737C006C007AF39
:101EBD002BAE2AAD29AC287808120582AD07D007C4
:101ECD00D006122737AC06C007E52BFFAD07D007AC
:0E1EDD00122737AC06AD077F06121CA87F0146
:011EEB0022D4
:0224D7008D2452
:1024D900121C631227377D041224FFE4FD122737EB
:1024E9007D011224FFAD24122737AC06AD077F0604
:0524F900121CA87F0188
:0924FE0022AC06122737AC0622BD
:0827EB008C248D25120373FFFD
:0127F30022C3
:0827F4008C248D25120373FFF4
:0127FC0022BA
:07280F008C278D28121FF534
:01281600229F
:10278300121C947541017542007543ABE4F53CF5A9
:022793003D22E5
:10241100C3E53D9421E53C94005026C39000CCE5F2
:10242100409582E53F958340077A0079AB121C9471
:10243100783E121C79EF1203B9053DE53D700205A6
:022441003C223B
:100EB700E4F509F50AF50BF50CF50DF50EF50F75CB
:100EC7001009C3E54C9421E54B940050261227C81E
:100ED700EF9400EE9400401B122341054CE54CAC07
:100EE7004B7002054B142469F58274003CF583EFBF
:100EF700F080CFC3E54C9409E54B940050030210F2
:100F07004CC3E54C950AFDE54B9509FCC3ED9409E7
:100F1700EC940050030210077469250AF5827400E7
:100F27003509F583E06455600A050AE50A70D205BC
:100F37000980CE746A250AF58274003509F583E0C5
:100F470064AA600A050AE50A70B7050980B3746BDD
:100F5700250AF58274003509F583E0750D00F50E55
:100F67006402450D60047402803C746F250AF582A3
:100F770074003509F583E0750C00F50B7470250ACC
:100F8700F58274003509F583E02409FFE433FEEFA9
:100F9700250CF50CEE350BF50BD3E50C942AE50B78
:100FA700940040097403250AF50AE4804CC3ED95C3
:100FB7000CEC950B404A121C9EFA7B01E50C24FFB2
:100FC700FDE50B34FFFC1225D8E50A250CFDE509E4
:100FD700350BFC74682DF58274003CF583E06F6077
:100FE700097403250AF50AE4800FAF0AAE09121146
:100FF700BEE50C250AF50AE50B3509F509020F08C8
:10100700C3121C6CD3E54C9400E54B94004036E5C5
:101017000A45097017E54C9421E54B9400400D05EE
:101027000AE50A70020509121C6C8000121C9E75E5
:101037002401F5258926854B27854C287B017A00D5
:05104700796912162377
:01104C002281
:10151B004100D2004400CE00000000602000D30147
:10152B0001030265046602670168026902710172B8
:0F153B00017301740275017604770496049A0413
:10230B00AB1DAA1EA91FAD21AC2022900034E0FE0C
:10231B00A3E0FFE48F2B8E2AF529F52822900031BC
:10232B00E0FFE48F2BF52AF529F52822E0FFE4FCEA
:06233B00FDFEC302057166
:0628260075440102277158
:03001E000227D6E0
:10186F007D017F011222D3900014E0FD7F711222BF
:10187F00D31223287F03121E7D900065E0FFB4FF73
:10188F0005E4F519801EEFB4C8057519028015EF30
:10189F00B42805751903800CEFB41405751904806D
:1018AF0003751905AD197F651224D71223167F66AC
:1018BF00121E7D900023E0FD7F671222D390002639
:1018CF0012232B7F68121E7DE47B107A27F9F89084
:1018DF00000F1205A81204BBC374329F12232C7F72
:1018EF0069121E7D900030E0FD7F721222D39000AE
:1018FF0013E0FD7F731222D39000241223197F74FB
:10190F00121E7D90005FE0FD7F761224D79000328B
:0E191F00E0FD7F771224D77D067F960224D745
:102722001227EB8F237D017F011222D3BF01037F8A
:0427320001227F0001
:012736002280
:10219E0012280F8F268E258D248C23900031AB268E
:1021AE00AA25A924A8231223376006E4FF0FBF082F
:1021BE00FCAF26900031EFF090003AF0121A831225
:0F21CE0023287F03121E7DBF01037F01227F00A4
:0121DD0022DF
:101D1F001227F49000D2E0B5070FBF0512900065AF
:101D2F00E0FE900033E06E8006E4FE0EBE08FCEF8E
:101D3F0014601014601514601A14601F14602424AA
:101D4F0005702890006574FFF0802090006574C8BE
:101D5F00F080189000657428F0801090006574145E
:101D6F00F08008900033E0900065F09000D2EFF023
:101D7F00121A839000D2E0FD7F651224D7BF0103B2
:051D8F007F01227F002E
:011D9400222C
:10208A0012280F8F268E258D248C23900034E0FE93
:10209A00A3E0FFE4FCFDAB26AA25A924A823C312CA
:1020AA0005716006E4FF0FBF08FC900034E525F0D7
:1020BA00A3E526F0121A831223167F66121E7DBF2D
:0720CA0001037F01227F00EA
:0120D10022EC
:102443001227EB900023E06F6006E4FE0EBE08FC4B
:10245300EF9000237003F080037401F0121A83904D
:102463000023E0FD7F671222D3BF01037F01227F98
:012473000068
:012474002245
:10221D0012280F8F268E258D248C23900026AB2619
:10222D00AA25A924A8231223376006E4FF0FBF08AF
:10223D00FC900026E526F0121A8390002612232B1F
:0D224D007F68121E7DBF01037F01227F000C
:01225A002261
:101E090012280F8F268E258D248C239000CE120543
:101E1900A8AB26AA25A924A823C31205716006E444
:101E2900FF0FBF08FCAF26AE25AD24AC239000CE32
:101E39001205C0C374329526FFE49525FEE4952466
:101E4900FDE49523FCE47B107A27F9F8120430901D
:101E5900000F1205C0121A839000CE1205A88F2B0D
:101E69008E2A8D298C287F69121E7DBF01037F016F
:031E7900227F00C5
:011E7C002243
:1021DE001227EB900014E06F6006E4FE0EBE08FCC2
:1021EE00EF7006900014F08013900023E0B4010607
:1021FE0090002C7401F09000147401F0900014E023
:0E220E00FD7F711222D3BF01037F01227F00EA
:01221C00229F
:102534001227EBAD07900030E06D6006E4FF0FBF9B
:1025440008FCED9000307003F080037401F07F729A
:0B2554001222D3BF01037F01227F0091
:01255F002259
:102623001227EB900013E06F6006E4FE0EBE08FC79
:10263300900013EFF0FD7F731222D3BF01037F01DC
:03264300227F00F3
:012646002271
:1026DA001227EBEF6012E4900024F0A3F09000249C
:0A26EA001223197F74121E7D7F0178
:0126F40022C3
:1020D2001227F48F23E52314601514601714601976
:1020E20014601B14601D2405701C12282F80171207
:1020F200275E8012122832800D12283580081200C5
:102102001A8003120021AD237F961224D7BF010348
:052112007F01227F00A7
:0121170022A5
:10274B001227F4AD077F9A1224D7BF01037F012212
:02275B007F00FD
:01275D002259
:02281F008F2602
:042821008C278D284B
:012825002290
:0616E8008B1D8A1E891F04
:1016EE00E4F522EF120619172001173F031748657C
:1016FE00175166175A67176268176A69177271175A
:10170E007A72178273178A75179296179A9A000033
:10171E0017A412230B1227228F22E5226401707B5D
:10172E00900048E004F0E0C39405406FE4F0021727
:10173E00A912230B12219E0217A012230B121D1F9A
:10174E000217A012230B12208A0217A012230B12CB
:10175E002443803E12230B12221D803612230B12BD
:10176E001E09802E12230B1221DE802612230B124D
:10177E002534801E12230B122623801612230B12E1
:10178E0026DA800E12230B1220D2800612230B12A1
:0D179E00274B8F228000E4900048F0AF221E
:0117AB00221B
:03282C007F1022F8
:03282F000227A6D7
:10275E007F807E2E1225FE7D807C2E7F011225B17C
:03276E000227B788
:0328320002277109
:03283500022795E2
:01001A0022C3
:0100210022BC
:1027A600C2AF75FDF075FC0F75FD8775FC78D2AF6D
:0127B6002200
:1027B700C2AF75FDF075FC0F75FD7875FC87D2AF5C
:0127C70022EF
:10250700726C376677713332007B2270223A220071
:10251700222C2276223A2200312E302E3100227DC3
:0D252700001F1C1F1E1F1E1F1F1E1F1E1F3A
:04154A0041006800F4
:10154F00F07B3CAF29AE28AD27AC26E4FAF9F812B0
:10155F0004BB8F298E288D27227823E475F0011282
:10156F0006090203737F3CFEFDFCAB29AA28A927BD
:10157F00A826020571F526852B82852A83A322745E
:10158F00712512F58274003511F583E0F515FF22F0
:10159F00FEFDFCAB29AA28A927A826020571FFE5A5
:1015AF001D4FFFE51CFEE51BFDE51A8F1D8E1C8DE3
:1015BF001B22FFE5214FFFE520FEE51FFDE51E8FF6
:1015CF00218E208D1F221205A87810120582AD07DB
:1015DF00221205A87808120582AD0722E4FAF9F85D
:1015EF00AF29AE28AD27AC262274712512F97400ED
:1015FF003511FA7B0122F582E4352AF58322C3E502
:10160F00299BFFE5289AFEE52722E47BF87A88F9E3
:04161F00F80204BB0E
:1019E800E4FFFE90004DE0C4F854F0C8A3E0C454EE
:1019F8000F48FD1227377E00900033E0FD1227378D
:101A08007E00C006C0079000171215D5D007D00673
:101A18001227377E00C006C0079000171215E0D0C5
:101A280007D0061227377E00C006C00790001F1295
:101A380015D5D007D0061227377E00C006C00790FC
:101A4800001F1215E0D007D0061227377E00C00607
:101A5800C00790000F1215D5D007D0061227377E81
:101A680000C006C00790000F1215E0D007D006127C
:0B1A78002737EFFD7C007FB0021CA8A8
:08281700E4FDFC7FB1021CA8E6
:0927FD009000CCEEF0A3EFF022F5
:092806009000CCE0FEA3E0FF22EB
:1027370074922FF974003EFA7B01ED1203B90FBFB3
:0327470000010E80
:01274A00226C
:0A24A6008B1C8A1D891EAD07AC06D1
:1024B00074922DF974003CFA7B01851C24851D253E
:1024C000851E26851F27852028121623E5202DFD31
:0624D000E51F3CFEAF0514
:0124D60022E3
:1023AB008B2E8A2F8930E94A4B6028ED4C6024ED47
:1023BB001DAE0470011C4E601AAB2EAA2FA9301251
:1023CB000373FF12001E74012530F530E4352FF531
:0423DB002F80DC2251
:0A25D8008B2E8A2F89308C318D3252
:1025E200E4FFFDFCC3ED9532EC9531500E782E12CE
:0B25F200156A2FFF0DBD00010C80E9F1
:0125FD0022BB
:061CA8008C2C8D2DAB0712
:101CAE00E4FF122806AD07AC0690008A7455F0A327
:101CBE0074AAF0A37402F0AF04A3EFF0AF05EFA384
:101CCE00F0A3EBF0E52CA3F0E52DA3F00DBD000184
:101CDE000CAF05AE041227FD7409252DF52DE43544
:101CEE002CF52C7B017A00798AE52D24FFFDE52C5D
:101CFE0034FFFC1225D87489252DF5827400352CFD
:101D0E00F583EFF07B017A00798AAD2DAC2C02239E
:011D1E00AB19
:02264700AE07DC
:1026490012282CE4FDEDC39F501175F002ED9000A6
:0D265900D31205FDE06E60030D80EAAF05B1
:012666002251
:0E27C800E53D453C7003122783AE3CAF3D2239
:10234100E4FFD3E53D9400E53C940040289000CCA7
:10235100E5439582E5429583400D7A0079AB75415D
:10236100017542007543AB784112156AFFE53D15D1
:052371003D7002153C67
:012376002244
:050D11001215618C26A3
:100D1600782C7C007D007BFF7A2579287E007F0C6D
:100D260012034DE4F538F539F53AF53BFFC31215D4
:100D36009F6006E52B452A70077B007A0079002222
:100D46007B3C1215EB1204BBAF03E52B24061216EF
:100D560005EAF0A3EF12154F8C26E47B3CFAF9F86E
:100D66001204BBE52B2405121605EB12154F8C2633
:100D76001216198E388F39E5397802C333CE33CE41
:100D8600D8F924B2FFEE3407852B82852A83F0A397
:100D9600EFF01215EF121619AC00AD01AE02AF035B
:100DA6001215618C26753A22753B38121586E05469
:100DB60003700B7418253BF53BE4353AF53AAE3A29
:100DC600AF3BE4FCFDAB29AA28A927A826C3120538
:100DD600714026852B82852A83E475F0011203FF74
:100DE600AE3AAF3BAB07AA0612160D9400FDE526F8
:100DF6009400121561F52680AC7B181215EB1204CF
:100E0600BBE52B2404121605EBF07B181215528C49
:100E160026EF2401FFE43EFEE43DFDE43C121561AD
:100E2600121584E054037036D3121574401AE5295E
:100E360024FFFFE52834FFFEE52734FFFDE52634D1
:100E4600FF121561F5268016E4C3121574700F1291
:100E56001586A304F0121586A3A3741D804B1215E4
:100E660086A3E4F0121586A3E0242CF8E6FF33955A
:100E7600E0D312159F4024121586A3E0242CF8E631
:100E8600FB3395E0FAF9F812160D99FDE52698124E
:100E96001561121584A3E004F080C9121586A3E03B
:100EA60004F0121586A3A3E529F0AA2AA92B7B0133
:010EB6002219
:022040008F19F6
:10204200E4FCF51A751B08751CFF751D25751E0726
:10205200FFFEAD198017E51B151BAE1A7002151A8B
:102062004E6013AF05AE04781C12156AFD122737B5
:10207200AC06AD0780E0AF05AE04E4FD122737AC35
:0820820006AD077F0E021CA849
:101BA800E4F5197A257910121C107A257910122477
:101BB800A68F197A257907121C107A25790712241D
:101BC800A68F197A257917121C207A2579171224DD
:101BD800A68F197A25791F121C207A25791F1224BD
:101BE800A68F197BFF7A2579251221188E1F8F2041
:101BF800AF197E007BFF7A2579251224A68F19EF6D
:081C0800FD7C007F01021CA815
:101C10007BFF1221188E1F8F20AF197E007BFF22C1
:101C20007BFF1221188E1F8F20AF197E007BFF22B1
:0A27E1008F19E4FDFC7F02021CA822
:0100220022BB
:101FA500120373FC90000112038CF51990000212C4
:101FB500038C751B00F51A90000312038C251BF585
:101FC5001BE4351AF51AAF0412264775F002EF9097
:101FD50000D41205FDE0651960037F0022AF04E916
:0F1FE5002404F9E43AFA851A20851B211216E824
:011FF40022CA
:022838008F19F6
:01283A00227B
:10268500E4F519F51A12215BAD07AF1AAE19122739
:0E269500378E198F1AAD1AAC197F0B021CA8D4
:10215B007BFF7A2579078B1B8A1C891DE4F51E12E0
:10216B000373FF12270CEFC4333354C0F51E9000DA
:10217B000212218FC454F0421E90000412218F4290
:03218B001EAF1E66
:10218E0022AB1BAA1CA91D12038CFF12270CEF22D7
:10270C00EFC394305008EF943940037FFF22EF75EC
:06271C00F03084AFF02252
:0217AC008D1995
:1017AE00E4F51DF51CF51BF51AF521F520F51FF5D1
:1017BE001EF5228B238A248925E519C3940850032C
:1017CE0002186E7B017A0079F3752A00752B08E4F6
:1017DE00FD1223777B017A0079FB752A00752B08A1
:1017EE00122377E4F5221215681215ADF51AFC785E
:1017FE00081205951215BA8C1A0522E522B403E6D5
:10180E001215681215ADF51AE4F5221215681215A7
:10181E00C1F51EFC78081205951215CE8C1E0522F8
:10182E00E522B403E61215681215C1F51EAF1DAE02
:10183E001CAD1BAC1A752A00752BFB120D11AF21B6
:10184E00AE20AD1FAC1E752A00752BF3120D117C48
:10185E00007DFB7F0112281F7C007DF31F12281FC5
:01186E002257
:10256000900068EFF07003F54422900068E0B40139
:1025700009E4F54412186F021A83900068E0B4036E
:092580000475440122E4F5442233
:0411BE008E118F12ED
:1011C200E4F513F514746E2512F58274003511F5E9
:1011D20083E0FD746F2512F58274003511F583E00A
:1011E200751400F51374702512F58274003511F52B
:1011F20083E02514F514E43513F513746C2512F508
:101202008274003511F583E07F00FE746D2512F5BE
:101212008274003511F583E02FFFE43EFE1227FDB4
:10122200ED120619125A01125D02126803126B04C2
:1012320012CD0512CD0612D30B12D60C124E20126D
:0C124200EC241254B01257B1000012F45A
:06124E0012158E0225605E
:091254000219E8022817021BA888
:0B125D0012158E122560AF150227E16C
:031268000200225F
:10126B00E4F515F517F518F515AF157E00C3EF95D9
:10127B0014EE95135073E5122FFDEE3511FC7473BC
:10128B002DF58274003CF583E0751800F517747426
:10129B002DF58274003CF583E02518F518EE351713
:1012AB00F5171215F8E92FF9EE3AFA121FA58F165A
:1012BB00E516B40103121A83E51824042515F51558
:0212CB0080A7FA
:0612CD0012158E02283804
:1012D3000226857F647E001225897F011220407FCC
:1012E300647E0012258902275E1215F8AD141217C9
:0112F300AC4E
:0112F40022D7
:10002600020268E86480F8E933E83360110460F09E
:10003600ED33EC337009E8FCE9FDEAFEEBFF220440
:1000460060DED3EB9FEA9EE99DE8C2E78CF0C2F73B
:1000560095F0400CE8CCF8E9CDF9EACEFAEBCFFB07
:1000660012023385D0F05804700320D5B3E804702B
:10007600075002B2D502027292D5EC0460F7E4CCC6
:10008600C0E0C398F8603B94186008400DD0E0FBD0
:1000960002024AE4FBFAC9FC8028E830E406E4C917
:1000A600FBE4CAFCE830E305E4C9CACBFCE8540724
:1000B6006010F8C3E913F9EA13FAEB13FBEC13FC2F
:1000C600D8F130F52FC3E49CFCEF9BFFEE9AFEEDD2
:1000D60099FDD0E0FBEF4E4D4C701222DB0302027D
:1000E6006FEC2CFCEF33FFEE33FEED33FDED30E726
:1000F600EB02024AEF2BFFEE3AFEED39FDD0E0FBB4
:1001060050130BBB0003020272ED13FDEE13FEEF5C
:0801160013FFEC13FC02024A86
:10011E00020272EC5D046005E85904700302026885
:10012E00120233580460F6EC4860F2EC7004FDFEE7
:10013E00FF22C860DB2481C85009C39860025006B4
:10014E0002026F9850CAF582E9294B4A7005AB82BC
:10015E0002025E75F0007C1A7880C3EF9BEE9AED7A
:10016E0099400DC3EF9BFFEE9AFEED99FDE842F02C
:10017E00DC23ACF0D0E0FFD0E0FED0E0FDAB82207F
:10018E00E7101BEB60BAEC2CFCEF33FFEE33FEED09
:10019E0033FD02024AE803F830E705C0F075F000BF
:1001AE00EF2FFFEE33FEED33FD40B830E7C280AAED
:1001BE0075F020800E75F010800575F0087D007EBC
:1001CE00007F003392D530D50312054DEC3340102D
:1001DE00EF33FFEE33FEED33FDEC33FCD5F0ED22C5
:0E01EE00E5F0247EA2D513CC92E7CDCEFF2201
:1001FC00EDD2E7CD33EC3392D524814006E4FFFEFB
:10020C00FDFC22FCE4CFCECDCC24E0501174FF8059
:10021C00EDC3CC13CCCD13CDCE13CECF13CF0470F6
:07022C00F030D5DE02054DA4
:10023300E9D2E7C933E833F892D5EDD2E7CD33EC11
:0702430033FC5002B2D5228A
:10024A00EC30E7100FBF000C0EBE00080DBD000415
:10025A000BEB6014A2D5EB13FCED92E7FD2274FFC1
:10026A00FCFDFEFF22E480F8A2D574FF13FC7D801A
:03027A00E480EF2E
:101B2800020B1AE493A3F8E493A34003F68001F2AE
:101B380008DFF48029E493A3F85407240CC8C333BE
:101B4800C4540F4420C8834004F456800146F6DF8D
:101B5800E4800B010204081020408090142BE47EDE
:101B6800019360BCA3FF543F30E509541FFEE49382
:101B7800A360010ECF54C025E060A840B8E493A349
:101B8800FAE493A3F8E493A3C8C582C8CAC583CA74
:101B9800F0A3C8C582C8CAC583CADFE9DEE780BE2C
:01154E00009C
:10027D00E709F608DFFA8046E709F208DFFA803E63
:10028D0088828C83E709F0A3DFFA8032E309F60850
:10029D00DFFA8078E309F208DFFA807088828C83B8
:1002AD00E309F0A3DFFA806489828A83E0A3F6086C
:1002BD00DFFA805889828A83E0A3F208DFFA804C46
:1002CD0080D280FA80C680D4806980F2803380101D
:1002DD0080A680EA809A80A880DA80E280CA803386
:1002ED0089828A83ECFAE493A3C8C582C8CCC583FE
:1002FD00CCF0A3C8C582C8CCC583CCDFE9DEE780CE
:10030D000D89828A83E493A3F608DFF9ECFAA9F04C
:10031D00EDFB2289828A83ECFAE0A3C8C582C8CCA2
:10032D00C583CCF0A3C8C582C8CCC583CCDFEADEBB
:10033D00E880DB89828A83E493A3F208DFF980CC1D
:10034D0088F0EF60010E4E60C388F0ED2402B40416
:10035D000050B9F582EB2402B4040050AF232345BD
:06036D0082239002CD7313
:10037300BB010689828A83E0225002E722BBFE0288
:09038300E32289828A83E49322BB
:10038C00BB010CE58229F582E5833AF583E0225026
:10039C0006E92582F8E622BBFE06E92582F8E22270
:0D03AC00E58229F582E5833AF583E493228A
:1003B900BB010689828A83F0225002F722BBFE0123
:0203C900F3221D
:1003CB00F8BB010DE58229F582E5833AF583E8F068
:1003DB00225006E92582C8F622BBFE05E92582C814
:0203EB00F222FC
:1003ED00EF8DF0A4A8F0CF8CF0A428CE8DF0A42E24
:0203FD00FE22DE
:1003FF00C5F0F8A3E028F0C5F0F8E5821582700289
:06040F001583E038F02225
:0D041500EF2BFFEE3AFEED39FDEC38FC2236
:0E042200C3EF9BFFEE9AFEED99FDEC98FC22D5
:10043000E88FF0A4CC8BF0A42CFCE98EF0A42CFC6B
:100440008AF0EDA42CFCEA8EF0A4CDA8F08BF0A4E9
:100450002DCC3825F0FDE98FF0A42CCD35F0FCEB48
:100460008EF0A4FEA9F0EB8FF0A4CFC5F02ECD390D
:0F047000FEE43CFCEAA42DCE35F0FDE43CFC227A
:10047F0075F008758200EF2FFFEE33FECD33CDCC34
:10048F0033CCC58233C5829BED9AEC99E5829840B7
:10049F000CF582EE9BFEED9AFDEC99FC0FD5F0D694
:1004AF00E4CEFBE4CDFAE4CCF9A88222B800C1B9BE
:1004BF000059BA002DEC8BF084CFCECDFCE5F0CBFC
:1004CF00F97818EF2FFFEE33FEED33FDEC33FCEB35
:1004DF0033FB10D703994004EB99FB0FD8E5E4F9F0
:1004EF00FA227818EF2FFFEE33FEED33FDEC33FCDD
:1004FF00C933C910D7059BE99A4007EC9BFCE99AD1
:10050F00F90FD8E0E4C9FAE4CCFB2275F010EF2F15
:10051F00FFEE33FEED33FDCC33CCC833C810D70715
:10052F009BEC9AE899400AED9BFDEC9AFCE899F850
:0E053F000FD5F0DAE4CDFBE4CCFAE4C8F922E3
:0E054D00C3E49FFFE49EFEE49DFDE49CFC22BF
:10055B00EB9FF5F0EA9E42F0E99D42F0EC6480C817
:06056B0064809845F022B7
:10057100EB9FF5F0EA9E42F0E99D42F0E89C45F0E0
:010581002257
:10058200E8600FECC313FCED13FDEE13FEEF13FF57
:03059200D8F1227B
:10059500E8600FEFC333FFEE33FEED33FDEC33FCC4
:0305A500D8F12268
:0C05A800E0FCA3E0FDA3E0FEA3E0FF22C6
:0C05B400E0F8A3E0F9A3E0FAA3E0FB22CA
:0C05C000ECF0A3EDF0A3EEF0A3EFF022AE
:1005CC00A8828583F0D083D0821205E31205E31252
:1005DC0005E31205E3E473E493A3C583C5F0C58377
:1005EC00C8C582C8F0A3C583C5F0C583C8C582C879
:0105FC0022DC
:0C05FD00A42582F582E5F03583F5832209
:10060900FAE6FB0808E6F925F0F618E6CA3AF622F2
:10061900D083D082F8E4937012740193700DA3A370
:1006290093F8740193F5828883E473740293686084
:06063900EFA3A3A380DF84
:00000001FF
