:03000000021EDC01
:0C1EDC00787FE4F6D8FD758183021F2397
:10178B00045D0000000041006C004100A50C41000D
:10179B00A64044009D0000000044007E00000000B5
:1017AB00440082000000004400BA00000000440026
:1017BB00AA000000004400C100000000420091009C
:1017CB000142007C00004100720041009B0042007E
:1017DB00C600004200730000410067084100A800EA
:1017EB004100C8000161000162004100BF004100DF
:1017FB007B00410086014100950A4100A900410090
:10180B00A70A41009A0041009C0042007000004171
:10181B00006900028200000280000041006D00415F
:10182B000079004100940041008F004100660041A7
:10183B00008E0041007A0042008700004100BE008C
:10184B0042006A000041006800410090004A00B06D
:0F185B000000000000000000000042006E0000CE
:102957008E098F0A8B0B8A0C890DAF051DEF60213D
:10296700050AE50AAE097002050914F5828E83E4AB
:1029770093FF780BE475F001120D04EF120AB4808F
:02298700D92253
:10002600E4FDFCC3ED9FEC9E50070DBD00010C8066
:01003600F2D7
:0100370022A6
:102A72008F828E83E4F560F55FF55EF55DAF82AE21
:102A820083E4FCFDAB60AA5FA95EA85DC3120C6C77
:082A9200500543BD1080E6224F
:092BA700E0FF7C2F122A9A7F64E2
:102BB000E4FDFCC3ED9FEC9E50070DBD00010C80B1
:012BC000F222
:012BC10022F1
:102BC200758E5190FE917401F0A37410F075BD5F83
:072BD20090FEA07420F02228
:102B5100E490FE80F0758901758DFA758BCB43A8E1
:0E2B610008438840758CCB758AEB43881022A0
:1029BB0090FF10E054F04408F090FF02E054F04414
:1029CB0002F0D28490FFA07420F0A37404F075CCB5
:1029DB000675CEFF75CD98759E0275981043A8109D
:0129EB0022C9
:102BD90043B40343B4807F147E0012002675B50107
:072BE90090FE9B744BF022EB
:102B6F0090FF08E054F04408F090FF00E0540F4449
:0C2B7F0030F090FF11E054F04403F0220D
:0B2C50008F99E59830E1FB5398FD22BE
:1026AB008FB543B440E5B430E5FB53B4DF7F647EB4
:1026BB0000120026E4FBFAF943B440E5B430E5FB25
:1026CB0053B4DFE5B62BFBE5B73AFA7F147E001265
:1026DB00002609B910E275B501A9027F647E0012CC
:0426EB000026AF0115
:0126EF0022C8
:10151D007B017A0079B07D0A7F007E2F12295790CA
:10152D0000B0E0FFE4FCFDFE900075120CBB9000D6
:10153D0075120CA37808120C90900075120CBB90CC
:10154D000075120CAF9000B1E0FFE4FCFDFE120B34
:10155D0010900075120CBB900075120CA3E47BE883
:10156D007A03F9F8120B2B900075120CBBE47F3047
:10157D007E75FDFC900075120CAFC3120C6C4014FF
:10158D007F007E097D3D7C00900075120CAFD3125B
:10159D000C6C400A900075120CC700009C40900026
:1015AD00B2E09000C5F0700280079000C5E0B4FE77
:1015BD000374FFF09000B3E0FF900097E4F0A3EF09
:1015CD00F0E0F8E4F0E8900097F09000B4E0FF90C0
:1015DD000097E48FF0120AFA900097E0FEA3E0FF67
:1015ED004E6009D3EF9408EE94074009900097E4FC
:1015FD00F0A37405F09000B5E0900095F090009C7C
:10160D00F09000B6E0900089F06006E0D394FF40C2
:10161D00069000897401F09000B7E0F45401900039
:10162D0086F07B017A00796E7D027F807E2F1229F4
:10163D005790006EE090009AF090006FE090008E51
:0E164D00F0121D0690008EE07003122C072292
:10003E00E56160030206D543B440E5B430E5FB53F9
:10004E00B4DF85B70985B60A90007CE475F001121D
:10005E000AFA9000C1120CAFAE09AF0AE4FCFD1211
:10006E000B109000C1120CBB9000AEE0FEA3E0FF9F
:10007E00C3950AEE9509500DC3E50A9FF50AE509E9
:10008E009EF509800BC3EF950AF50AEE9509F50961
:10009E00900082120CAFAE09AF0AE4FCFD120B10F9
:1000AE00900082120CBB90007CE05401FEA3E04E47
:1000BE007061D39000C7E094009000C6E0940040B9
:1000CE00179000A7E094645042E02402F0E0D3942D
:1000DE006440387464F08033900073E07004A3E0E1
:1000EE006401702F900095E0FF9000A7E0FED39F73
:1000FE004019EE94024004E024FEF09000A7E0C305
:10010E009F5008900095E09000A7F09000A7E0FFA8
:10011E0012224FC390007CE094205003020720432C
:10012E00BD10E4F0A3F09000A8E004F09000AA1235
:10013E000CA39000C1120CAF120B109000AA120C5F
:10014E00BB9000A8E0C394084037E4F09000AA12D8
:10015E000CA37810120C7D9000AA120CBB9000AA72
:10016E00120CA39000AEEE8FF0120AFA9000AEE0E1
:10017E00C313F0A3E013F09000AA120CC700000006
:10018E0000900067E0C394085005E004F08056909C
:10019E0000C6E07002A3E0704C7F0A1226AB9000FE
:1001AE0096EFF09000C0E0FE2402FDE433FCEFD3A6
:1001BE009DEC6480F8748098501E900096E02402A6
:1001CE00FDE433FCEED39DEC6480F8748098500807
:1001DE009000C0E0900096F0900096E09000C0F085
:1001EE00E4900067F0E4FFFEFDFC90007E120CAF81
:1001FE00C3120C6C7041900082120CA3EF2488FF86
:10020E00EE3413FEE43DFDE43CFC90007E120CBB8C
:10021E00900091E07002A3E0701D7F407E427D0F42
:10022E00FC90007E120CAFD3120C6C400A90007E34
:10023E00120CC7000F424090006CE07016900082C6
:10024E00120CA390009D120CBB90008A120CC700DA
:10025E0000000190008A120CA3900082120CAF12C3
:10026E000B1090009D120CAFC3120C6C40030205D4
:10027E000790008A120CA390009D120CAF120B1067
:10028E00900082120CAFC3120C6C40030205079053
:10029E00006CE004F09000BA120CA3900082120CD5
:1002AE00AF120B109000BA120CBB90006CE0FFFB6B
:1002BE00E4FAF9F89000BA120CA3120BB690009D56
:1002CE00120CBB90009D120CA37803120C7D9000B3
:1002DE008A120CBBE47F207E4EFDFC90008A120C2D
:1002EE00AFC3120C6C500A90008A120CC700004E5D
:1002FE0020E47F607EEAFDFC90008A120CAFD312E0
:10030E000C6C400A90008A120CC70000EA60900044
:10031E009D120CA390007E120CAFD3120C6C404CAD
:10032E0090009D120CAF90007E120CA3120B1D902C
:10033E0000C1120CBB7F807E387D017C009000C115
:10034E00120CAFD3120C6C40089000A57406F0800E
:10035E0021E47F407E9CFDFC9000C1120CAFD312B5
:10036E000C6C9000A540087409F080069000A574EE
:10037E000CF09000A5E0FF90006CE0C39F407B90D6
:10038E00007E120CA390009D120CAFC3120C6C5089
:10039E00699000A6E0941050030205169000A5E0A7
:1003AE00D39409500890009D120CA3804490009D98
:1003BE00120CA3EF24A0FFEE340FFEE43DFDE43C4F
:1003CE00FC90007E120CAFD3120C6C402A90007E73
:1003DE00120CA390009D120CAF120B1090007E1207
:1003EE000CBB90007E120CA3E47B02FAF9F8120B00
:1003FE00B690007E120CBB0205079000A6E0FF909F
:10040E00006CE0C39F500302051690007E120CA3F1
:10041E00EF24A0FFEE340FFEE43DFDE43CFC900023
:10042E009D120CAFD3120C6C50030204F790007E99
:10043E00120CAF90009D120CA3120B1D9000C11256
:10044E000CBB7F007E127D7A7C0090009D120CAF5B
:10045E00C3120C6C40030204F77F807E1A7D067C6B
:10046E00009000C1120CAFC3120C6C507C9000A611
:10047E00E09410400280487FE07E937D047C0090E3
:10048E0000C1120CAFD3120C6C40089000A6741071
:10049E00F0801F7FF07E497D027C009000C1120C1F
:1004AE00AFD3120C6C9000A64005740CF080037450
:1004BE0008F09000A6E0FF90006CE0C39F402A90E9
:1004CE00007E120CA390009D120CAF120B10900028
:1004DE007E120CBB90007E120CA3E47B02FAF9F89C
:1004EE00120BB690007E120CBB9000A6E0FF90009F
:1004FE006CE0C39F4012E48004E490006CF0900026
:10050E00BA120CC70000000090009BE0D39400408C
:10051E0066E014F09000A1120CA3EF2470FFEE34ED
:10052E0017FEE43DFDE43CFC90007E120CAFD312AE
:10053E000C6C500302068F9000A1120CA3EF2498AE
:10054E00FFEE343AFEE43DFDE43CFC900082120CDA
:10055E00AFC3120C6C400302068F9000A1120CA3C5
:10056E00EF2470FFEE3417FEE43DFDE43CFC9000FA
:10057E007E120CBB02068FD3900092E09400900086
:10058E0091E09400407B74FFF5F0120AFAD39000CC
:10059E0092E09400900091E0940040657F007E12FE
:1005AE007D7A7C0090007E120CAFD3120C6C400C46
:1005BE00900075120CC7000C350080459000751226
:1005CE000CA390007E120CAF120B109000C1120CF7
:1005DE00BB7F407E547D897C009000C1120CAFD34E
:1005EE00120C6C401C90007E120CAFC374409BFF2B
:1005FE0074549AFE748999FDE498FC900075120C5F
:10060E00BB900075120CA390007E120CAF120B1053
:10061E00900082120CAFD3120C6C40659000C5E0B6
:10062E00FF900096E0D39F400FD3900092E094008D
:10063E00900091E0940040499000C6E07002A3E063
:10064E00700C90007E120CA39000A1120CBB9000B7
:10065E00C6E4F0A304F090008FF0900087E475F0EC
:10066E0001120AFA9000907401F09000A67408F03E
:10067E00E4900073F0A3F07882F608F67880F6081E
:10068E00F69000C1120CC700000000900082120C00
:10069E00C7000000009000C6E0FEA3E0FFD3940068
:1006AE00EE9400406D900097E0FCA3E0FDD3EF9D2B
:1006BE00EE9C405EE49000C6F0A3F07561019000E0
:1006CE008FF0900066F022900073E4F0A304F0E443
:1006DE00F561900070F0A3F0900069F07FFAFE12C1
:1006EE002A729000AA120CC700000000E49000A825
:1006FE00F09000A67440F090009B7402F09000679A
:10070E007406F0E490006CF09000BA120CC7000072
:02071E000000D9
:0107200022B6
:1022BA00E4F50A9000C1120CC700000000E4F50919
:1022CA0043B440E5B430E5FB53B4DF9000C1120CCF
:1022DA00AFAFB6AEB7E4FCFD120B109000C1120C02
:1022EA00BB0509E509B480D87F907E01122A729055
:1022FA0000C1120CA3780B120C7D8F09E509D39447
:10230A000C400CE509948D5006E50A9414500A0510
:09231A000AE50AD39450409B220D
:012323002297
:102324009000C1120CC700000000E4F509E4F50CAC
:10233400F50D43B440E5B430E5FB53B4DF85B70A8B
:1023440085B60B9000C1120CAFAE0AAF0BE4FCFDD6
:10235400120B109000C1120CBB050DE50D700205A7
:102364000CB400CEE50CB420C943BD100509E50941
:10237400B408BA9000C1120CA37810120C7D90001E
:06238400AEEEF0A3EFF045
:01238A002230
:10224F00EF70079000BE04F08010BF6407E49000A9
:10225F00BEF080069000BE7402F0BF0104E4FE8061
:10226F00397E007C007DFF120AE8AC06AD07E41250
:10227F0008BEE4FBFA79C8784212081C8F0E8E0D47
:10228F008D0C8C0BE4FFFEFD7C3FAB0EAA0DA90C51
:10229F00A80B1207281208F7AE0790FF9C7410F0D6
:0A22AF0075DEFF8EDF75DD947F0001
:0122B9002202
:100FCB00120003122BC2122B6F7F6412224F122BB3
:100FDB00511229BB122BD975BBAA90FEA774FFF037
:100FEB0053BBF7D2AF7FC87E00122A727F641222E6
:100FFB004F9000BF7401F07F0A1226AB900096EF62
:10100B00F09000C0F0C2AF12151D90009AE004F0F2
:10101B007F807E2F122AE77F107E27122BB0900045
:10102B009AE0FF7D807C2F122A9A7F647E00122B20
:10103B00B0D2AF1222BA900095E0FF9000A7F01249
:10104B00224F7F2C7E01122A721223249000C11290
:10105B000CC70000000090009AE0C394034005E425
:10106B00F012001E90006DE0B4010CE4F09000BE95
:10107B00E0FD7F76122922900068E0B401269000F3
:10108B0090E0B4011FE4900068F0900090F09000A5
:10109B0087E0FEA3E0FFE48F2F8E2EF52DF52C7F3E
:1010AB0074121FF443BD10E561700B90007DE0548A
:1010BB001F7003121201900086E06401600302119D
:1010CB00ABE562703DF561756201900095E09000B3
:1010DB00A7F09000AA120CC700000000E49000A833
:1010EB00F09000A67440F090009B7402F0900067A3
:1010FB007406F0E490006CF09000BA120CC700007C
:10110B00000012003ED3900074E09400900073E056
:10111B0094004036900069E0B4012FE4F090007326
:10112B0075F001120AFA900089E0FFC3900074E099
:10113B009F900073E094004011E4F0A3F090007ACC
:10114B00E064016005E4FF12224FD39000C7E094E6
:10115B00009000C6E0940040127881E664011846C6
:10116B007009F608F675F001120AFA900094E06423
:10117B0001600302106190008FE0FF900066E06F4A
:10118B007003021061EFF09000C6E4F0A304F0E4EA
:10119B00F508E508C394084003021061050880F2C6
:1011AB00E4F56290007BE07007FF12224F021061A2
:1011BB0090009CE0FF12224FE4F561900095E090C7
:1011CB0000A7F09000AA120CC700000000E49000EA
:1011DB00A8F09000A67440F090009B7402F0900071
:1011EB00677406F0E490006CF09000BA120CC70024
:0611FB000000000210617B
:03001B00021C3E86
:101C3E00C0E0C0F0C083C082C0D075D000C000C06C
:101C4E0001C002C003C004C005C006C007AF60AE2D
:101C5E005FAD5EAC5DEF2401FFE43EFEE43DFDE4CE
:101C6E003C8F608E5F8D5EF55D900070E475F001C7
:101C7E00120AFA900070E0FEA3E0FFE4FCFD7B6028
:101C8E007AEAF9F8D3120C56500C900070E4F0A3D7
:101C9E00F090006904F0788306E618700106C378A8
:101CAE0083E694E818E69403401190006D7401F0F9
:101CBE0076000876007880760008F690006AE47563
:101CCE00F001120AFAC390006BE0944C90006AE0A7
:101CDE0094044009E4F0A3F090006804F0D007D01B
:101CEE0006D005D004D003D002D001D000D0D0D081
:081CFE0082D083D0F0D0E03267
:030023000225D8DB
:1025D800C0E0C0F0C083C082C0D075D000C000C0C9
:0D25E80001C002C003C004C005C006C0074A
:0F25F500E59830E00AAF991228725398FED2AFE2
:10260400D007D006D005D004D003D002D001D0002A
:0B261400D0D0D082D083D0F0D0E032D4
:03003B000200219F
:0100210032AC
:102AE70053BBF7C280E5BB20E3F6D280C2AF75FDCA
:102AF700F075FC0F8EFA8FF975FDD275FC2D75FDFB
:052B0700E175FC1E2237
:102A9A0053BBF7C280E5BB20E3F6D280C2AF8FFBFF
:102AAA0075FDF075FC0F8CFA8DF975FDB475FC4B4C
:072ABA0075FDE175FC1E2211
:101D06007F007E2F122AE77F107E27122BB0E47BFE
:101D1600E87A03F9F8900075120CA3120BB678084E
:101D2600120C7D7D007C2F122A9A7F647E00122B76
:101D3600B0E47BE87A03F9F8900075120CA3120B55
:101D4600B67D017C2F122A9A7F647E00122BB090FA
:101D560000C57D02122BA79000977D03122BA7A327
:101D6600E0FF7D04122BA9900095E0FF7D05122B64
:101D7600A9900089E0FF7D06122BA9900086E0F469
:101D8600FF7D07122BA97F807E2F122AE77F107E08
:101D960027122BB07D807C2FE4FF122A9A0D0F129A
:041DA6002A9AD2AFF4
:011DAA002216
:04186A00027E0000FA
:1021DE00EFC39430400CEFD39439500674D02FFFD8
:1021EE008022EFC39441400CEFD394465006EF2467
:1021FE00C9FF8010EFC39461400AEFD39466500478
:10220E00EF24A9FFEF540FC454F0FFEDC3943040F8
:10221E000CEDD39439500674D02DFD801EEDC39471
:10222E00414008EDD394465002800CEDC3946140BA
:10223E000AEDD394665004ED24A9FDED540F420728
:01224E00226D
:062498008B1A8A1B891C4F
:10249E00E4F520F51FF51EF51DE94A4B7005FFFE0C
:1024AE00FDFC22E4F520F51FF51EF51D781AE475E6
:1024BE00F001120D04120A6E601AE5202401FFE4E9
:1024CE00351FFEE4351EFDE4351D8F208E1F8D1E3B
:0C24DE00F51D80D8AF20AE1FAD1EAC1D58
:0124EA0022CF
:0628EA008B268A278928D5
:1028F0008B2C8A2D892EE94A4B7004FBFAF922E5CC
:102900002B152BAE2A7002152A4E600F782CE47519
:10291000F001120D04ED120AB480E4AB26AA27A937
:01292000288E
:012921002293
:061B6D008B218A2289236E
:101B73008B298A2A892B85242C85252D85262EE9D8
:101B83004A4B6008E5264525452470077B007A000B
:101B9300790022D3852D83852E82E52B9582E52A34
:101BA30095834019E52E2528F9E52D3527FA8A83F3
:101BB3008982D3E52B9582E52A95834038E4F52F76
:101BC300F530C3E5309528E52F95275067AB2CAA50
:101BD3002DA92E853082852F83120A87AB29AA2A45
:101BE300A92B853082852F83120AC60530E5307014
:101BF300D1052F80CD85272F852830D3E53094005C
:101C0300E52F9400402EAB2CAA2DA92EE53024FFFE
:101C1300FFE52F34FFFE8F82F583120A87AB29AAD3
:101C23002AA92B8F828E83120AC6E530153070CB1A
:0A1C3300152F80C7AB21AA22A923B8
:011C3D002284
:0626F0008B3C8A3D893E8F
:1026F6008B428A438944AB3FAA40A941120A6E60C5
:102706001C783FE475F001120D04120A6EFF783C46
:10271600E475F001120D04EF120AB480D9AB3CAA9D
:0D2726003DA93EE4120AB4AB42AA43A94407
:012733002283
:10238B008B638A648965AB63AA64A965120A6EFFC5
:10239B006026AB66AA67A968120A6E601BB50718A0
:1023AB0074012565F565E43564F56474012568F5FC
:1023BB0068E43567F56780CEAB66AA67A968120A31
:1023CB006EFF3395E0FEAB63AA64A965120A6EFD3E
:0C23DB003395E0FCC3ED9FFFEC9EFE225A
:102734008F7D8E7C8D7B8C7A7818120C7DEF120A3B
:10274400B4AF7DAE7CAD7BAC7A7810120C7D90007A
:1027540001EF120AC6AF7DAE7CAD7BAC7A7808126D
:102764000C7D900002EF120AC6E57DFF900003EF96
:03277400020AC690
:101E4400E4F530F52FF52EF52D120A6EFFE48F30F0
:101E5400F52FF52EF52DAE2FAD2EAC2D7808120CE6
:101E6400908F308E2F8D2E8C2D900001120A87FFBB
:101E7400E5304FFFE52FFEE52EFDE52D8F308E2F4B
:101E84008D2EF52DFC7808120C908F308E2F8D2E10
:101E94008C2D900002120A87FFE5304FFFE52FFEDC
:101EA400E52EFDE52D8F308E2F8D2EF52DFC780837
:101EB400120C908F308E2F8D2E8C2D900003120AD1
:101EC40087FFE5304FFFE52FFEE52EFDE52D8F3032
:071ED4008E2F8D2EF52DFC71
:011EDB0022E4
:102C1900E4FDFCFFFE122B93AC06AD077F030220F7
:012C29007D2D
:102C0700E4FDFCFFFE0D122B93AC06AD077F03021C
:022C1700207D1E
:08261F008F698B6A8A6B896CDC
:10262700E4FCFFFEAD69122B93AC06E4FD122B937D
:10263700AC06E56DFD122B93AC06AD6E122B93AC79
:1026470006AD07AB6AAA6BA96C856D1F856E201254
:0D26570028B4AC06AD077F0612207D7F0180
:012664002253
:042777008D27AB07F8
:10277B00E4FCFFFEAD03122B93AC067D01122B93F1
:10278B00AC06E4FD122B93AC067D01122B93AC0629
:10279B00AD07E5277003FD8006AF05AE047D011282
:0D27AB002B93AC06AD077F0612207D7F0149
:0127B80022FE
:021FF400AB0739
:101FF600E4FCFFFEAD03122B93AC067D02122B937D
:10200600AC06E4FD122B93AC067D04122B93C0069E
:10201600C007AF2FAE2EAD2DAC2C7818120C7DADAF
:1020260007D007D006122B93C006C007AF2FAE2EDF
:10203600AD2DAC2C7810120C7DAD07D007D0061252
:102046002B93C006C007AF2FAE2EAD2DAC2C780853
:10205600120C7DAD07D007D006122B93AC06C00735
:10206600E52FFFE4AD07D007122B93AC06AD077F33
:062076000612207D7F012F
:01207C002241
:082665008F6F8B708A7189727E
:10266D00E4FCFFFEAD6F122B93AC067D03122B9392
:10267D00AC06E573FD122B93AC06AD74122B93AC27
:10268D0006AD07AB70AA71A97285731F85742012F0
:0D269D0028B4AC06AD077F0612207D7F013A
:0126AA00220D
:042922008D27AB074B
:10292600E4FCFFFEAD03122B93AC067D04122B9341
:10293600AC06E4FD122B93AC067D01122B93AC067C
:10294600AD27122B93AC06AD077F0612207D7F01C3
:01295600225E
:02199D00AB0796
:10199F00900000AF82AE83AD03122B938E838F82A4
:1019AF007D05122B938E838F82E4FD122B938E83F2
:1019BF008F8274FFFFE578FEE577FDE576FCE47B2B
:1019CF00FFFAF9F8C3120C6C7012AF82AE837D016F
:1019DF00122B938E838F82AD79021A7774FFFFFEDD
:1019EF00E577FDE576FCE47BFF7AFFF9F8C3120C8F
:1019FF006CAF82AE8370047D02803E7D04122B9308
:101A0F008E838F82C006C007AF79AE78AD77AC7684
:101A1F007818120C7DAD07D007D006122B938E834A
:101A2F008F82C006C007AF79AE78AD77AC767810ED
:101A3F00120C7DAD07D007D006122B938E838F82A9
:101A4F00C006C007AF79AE78AD77AC767808120CC8
:101A5F007DAD07D007D006122B938E838F82C007E0
:101A6F00E579FFE4AD07D007122B938E838F82ADFC
:0A1A7F0082AC837F0612207D7F01F8
:011A8900223A
:082C65008C278D28120A6EFF76
:012C6D002244
:082C6E008C278D28120A6EFF6D
:012C7600223B
:072C89008C2B8D2C121E4460
:012C90002221
:100003007550017551007552437553017554007550
:080013005543E4F54EF54F22C0
:10287200C3E54F9421E54E94005030C3900064E5C7
:10288200529582E5519583400D7A00794375500146
:102892007551007552437850E475F001120D04EF42
:0C28A200120AB4054FE54F7002054E22EB
:10120100E4F509F50AF50BF50CF50DF50EF50F757D
:101211001009C3E57F9421E57E94005027122C2A02
:10122100D3EF9400EE9400401B122835057FE57F33
:10123100AC7E7002057E142401F58274003CF583B6
:10124100EFF080CEC3E57F9409E57E940050030260
:1012510013B5C3E57F950AFDE57E9509FCC3ED94C1
:1012610009EC940050030213587401250AF58274A5
:10127100003509F583E06455600A050AE50A70D274
:10128100050980CE7402250AF58274003509F583BB
:10129100E064AA600A050AE50A70B7050980B3741B
:1012A10003250AF58274003509F583E0750D00F513
:1012B1000E6402450D60047402803C7407250AF532
:1012C1008274003509F583E0750C00F50B7408256F
:1012D1000AF58274003509F583E02409FFE433FE41
:1012E100EF250CF50CEE350BF50BD3E50C942AE547
:1012F1000B940040097403250AF50AE48052C3EDFA
:10130100950CEC950B40507401250AF974003509D0
:10131100FA7B01E50C24FFFDE50B34FFFC1229ECFF
:10132100E50A250CFDE509350BFC74002DF58274E9
:10133100003CF583E06F60097403250AF50AE48037
:101341000FAF0AAE091213B6E50C250AF50AE50B33
:101351003509F509021253C3E57F950AF57FE57E4C
:101361009509F57ED3E57F9400E57E94004045E53F
:101371000A45097020E57F9421E57E940040160519
:101381000AE50A70020509E57F950AF57FE57E9574
:1013910009F57E80007401250AF974003509752468
:1013A10001F5258926857E27857F287B017A0079AD
:0413B10001121B6D9D
:0113B5002215
:10186E004100CD004400C9000000005A00CE010125
:10187E000302650466026701680269027101720162
:08188E00730174027501760478
:03001E00022C07AA
:03003800022C5047
:101A8A00900000E0FD7F0112277790007BE0FD7F48
:101A9A0071122777900095E0FFE48F2FF52EF52D30
:101AAA00F52C7F03121FF49000C5E0FFB4FF05E494
:101ABA00F519801EEFB4C8057519028015EFB42810
:101ACA0005751903800CEFB41405751904800375A4
:101ADA001905AD197F65122922900097E0FEA3E04F
:101AEA00FFE48F2F8E2EF52DF52C7F66121FF490B2
:101AFA000086E0FD7F67122777900089E0FFE48F78
:101B0A002FF52EF52DF52C7F68121FF4E47B107A41
:101B1A0027F9F8900075120CA3120BB6C374329F02
:101B2A00FFE48F2FF52EF52DF52C7F69121FF49007
:101B3A000094E0FD7F7212277790007AE0FD7F73B0
:101B4A00122777900087E0FEA3E0FFE48F2F8E2E06
:101B5A00F52DF52C7F74121FF49000BEE0FD7F7600
:031B6A000229222B
:102BF000122C65900000EFF0FD7F01122777BF01D6
:062C0000037F01227F00AA
:012C060022AB
:1024EB00122C898F2A8E298D288C27900095E0FF3E
:1024FB00E4FCFDFEAB2AAA29A928A827C3120C6C61
:10250B006006E4FF0FBF08FCAF2A900095EFF09038
:10251B00009CF0121D06900095E0FFE48F2FF52E26
:10252B00F52DF52C7F03121FF4BF01037F01227FD2
:01253B00009F
:01253C00227C
:1020F400122C6E9000CDE0B5070FBF05129000C5FD
:10210400E0FE900096E06E8006E4FE0EBE08FCEF52
:1021140014601014601514601A14601F14602424D1
:102124000570289000C574FFF080209000C574C825
:10213400F080189000C57428F080109000C57414C5
:10214400F08008900096E09000C5F09000CDEFF08C
:10215400121D069000CDE0FD7F65122922BF010308
:052164007F01227F0055
:012169002253
:10244200122C898F2A8E298D288C27900097E0FEE6
:10245200A3E0FFE4FCFDAB2AAA29A928A827C312FE
:102462000C6C6006E4FF0FBF08FC900097E529F0B2
:10247200A3E52AF0121D06900097E0FEA3E0FFE418
:102482008F2F8E2EF52DF52C7F66121FF4BF0103C0
:052492007F01227F0024
:012497002222
:10298900122C65900086E06F6006E4FE0EBE08FC1E
:10299900EF9000867003F080037401F0121D069019
:1029A9000086E0FD7F67122777BF01037F01227F41
:0129B900001D
:0129BA0022FA
:10258B00122C898F2A8E298D288C27900089E0FFA9
:10259B00E4FCFDFEAB2AAA29A928A827C3120C6CC0
:1025AB006006E4FF0FBF08FC900089E52AF0121DBE
:1025BB0006900089E0FFE48F2FF52EF52DF52C7F8B
:0C25CB0068121FF4BF01037F01227F0093
:0125D70022E1
:10216A00122C898F2A8E298D288C279000C9120C4F
:10217A00A3AB2AAA29A928A827C3120C6C6006E4D3
:10218A00FF0FBF08FCAF2AAE29AD28AC279000C9C3
:10219A00120CBBC37432952AFFE49529FEE49528F4
:1021AA00FDE49527FCE47B107A27F9F8120B2B90B3
:1021BA000075120CBB121D069000C9120CA38F2FBA
:1021CA008E2E8D2D8C2C7F69121FF4BF01037F0187
:0321DA00227F0061
:0121DD0022DF
:1027B900122C6590007BE06F6006E4FE0EBE08FCFB
:1027C900EF700690007BF08013900086E0B401065C
:1027D90090008F7401F090007B7401F090007BE011
:0E27E900FD7F71122777BF01037F01227F0061
:0127F70022BF
:102A4600122C65AD07900094E06D6006E4FF0FBFA1
:102A560008FCED9000947003F080037401F07F721F
:0B2A6600122777BF01037F01227F00D1
:012A71002242
:102B0C00122C6590007AE06F6006E4FE0EBE08FCA5
:102B1C0090007AEFF0FD7F73122777BF01037F01DE
:032B2C00227F0005
:012B2F002283
:102AC100122C65EF601DE4900087F0A3F090008761
:102AD100E0FEA3E0FFE48F2F8E2EF52DF52C7F7401
:052AE100121FF47F014B
:012AE60022CD
:022C91008F268C
:042C93008C278D28D5
:012C9700221A
:06189B008B218A22892343
:1018A100E4F526EF120D1418CD0118FC03190C658F
:1018B100191B66192A671939681948691957711965
:1018C100667219757319847500001995AB21AA22E6
:1018D100A923AD25AC24122BF08F26E526640160E7
:1018E1000302199A9000A9E004F0E0C394055003A3
:1018F10002199AE4F012001E02199AAB21AA22A938
:1019010023AD25AC241224EB021991AB21AA22A903
:1019110023AD25AC241220F48076AB21AA22A92381
:10192100AD25AC241224428067AB21AA22A923ADA4
:1019310025AC241229898058AB21AA22A923AD25DF
:10194100AC2412258B8049AB21AA22A923AD25AC59
:101951002412216A803AAB21AA22A923AD25AC2405
:101961001227B9802BAB21AA22A923AD25AC2412C1
:101971002A46801CAB21AA22A923AD25AC24122B17
:101981000C800DAB21AA22A923AD25AC24122AC1BA
:0B1991008F268000E49000A9F0AF2634
:01199C002228
:032CA4007F0D227F
:102A19007B2270223A2200726C376677713332005A
:102A2900222C2276223A2200312E302E3000227DAD
:0D2A3900001F1C1F1E1F1E1F1F1E1F1E1F23
:04189600410000000D
:092C7700900064EEF0A3EFF022DE
:092C8000900064E0FEA3E0FF22D5
:082B8B00AB07E4FCFFFEAD0303
:102B9300742A2FF974003EFA7B01ED120AB40FBFB9
:032BA30000010E20
:012BA600220C
:0628AE00AF197E007BFF64
:0A28B4008E1A8F1B8B1C8A1D891ED3
:1028BE00742A2FF974003EFA7B01851C24851D2590
:1028CE00851E26851F27852028121B6DE520251BBA
:0B28DE00F51BE51F351AF51AFEAF1BB5
:0128E90022CC
:1027F8008B328A3389348C358D36E94A4B602DE526
:102808003645356027E5361536AE35700215354E36
:10281800601AAB32AA33A934120A6EFF1200387458
:0D282800012534F534E43533F53380D92231
:0A29EC008B328A3389348C358D3626
:1029F600E4FFFDFCC3ED9536EC953550157832E4D1
:102A060075F001120D04120A6E2FFF0DBD00010CA8
:022A160080E25C
:012A1800229B
:06207D008C308D31AB0731
:10208300E4FF122C80AD07AC069000227455F0A338
:1020930074AAF0A37402F0AF04A3EFF0AF05EFA3AB
:1020A300F0A3EBF0E530A3F0E531A3F00DBD0001A3
:1020B3000CAF05AE04122C7774092531F531E435E4
:1020C30030F5307B017A007922E53124FFFDE530DC
:1020D30034FFFC1229EC74212531F582740035306C
:1020E300F583EFF07B017A007922AD31AC30022722
:0120F300F8F4
:022B30008F20F4
:102B3200122CA4E4FEEEC39F501275F002EE900038
:0E2B4200CE120CF8E0652060030E80E9AF06AD
:012B50002262
:0E2C2A00E54F454E7003120003AE4EAF4F2231
:10283500E4FFD3E54F9400E54E9400402F900064EB
:10284500E5559582E5549583400D7A007943755396
:10285500017554007555437853E475F001120D0464
:0C286500120A6EFFE54F154F7002154E71
:012871002244
:080D3A008F298E288D278C26DD
:100D4200782C7C007D007BFF7A2A793A7E007F0C2A
:100D5200120A48E4F538F539F53AF53BFFFEFDFC99
:100D6200AB29AA28A927A826C3120C6C6006E52B7A
:100D7200452A70077B007A00790022E47B3CFAF96D
:100D8200F8AF29AE28AD27AC26120BB6AF03E52B80
:100D92002406F582E4352AF583EAF0A3EFF0AF29C1
:100DA200AE28AD27AC26E47B3CFAF9F8120BB68FDD
:100DB200298E288D278C26E47B3CFAF9F8120BB693
:100DC200E52B2405F582E4352AF583EBF0AF29AE55
:100DD20028AD27AC26E47B3CFAF9F8120BB68F2932
:100DE2008E288D278C26E47BF87A88F9F8120BB6C8
:100DF2008E388F39E5397802C333CE33CED8F92411
:100E0200B2FFEE3407852B82852A83F0A3EFF0AF81
:100E120029AE28AD27AC26E47BF87A88F9F8120BC4
:100E2200B6AC00AD01AE02AF038F298E288D278CA0
:100E320026753A22753B38852B82852A83A3E05496
:100E420003700B7418253BF53BE4353AF53AAE3A9C
:100E5200AF3BE4FCFDAB29AA28A927A826C3120CA4
:100E62006C4031852B82852A83E475F001120AFADF
:100E7200AE3AAF3BAB07AA06C3E5299BFFE5289A2A
:100E8200FEE5279400FDE52694008F298E288D2704
:100E9200F526809DE47B18FAF9F8AF29AE28AD2734
:100EA200AC26120BB6E52B2404F582E4352AF58331
:100EB200EBF0AF29AE28AD27AC26E47B18FAF9F89F
:100EC200120BB68F298E288D278C26EF2401FFE482
:100ED2003EFEE43DFDE43C8F298E288D27F52685D4
:100EE2002B82852A83A3E05403705B7F3CFEFDFCCA
:100EF200AB29AA28A927A826D3120C6C401DE529E4
:100F020024FFFFE52834FFFEE52734FFFDE5263404
:100F1200FF8F298E288D27F526802BE47F3CFEFD4E
:100F2200FCAB29AA28A927A826C3120C6C70178526
:100F32002B82852A83A3A304F0852B82852A83A38F
:100F4200A3A3741D807B852B82852A83A3A3E4F04F
:100F5200852B82852A83A3A3E0242CF8E6FF339510
:100F6200E0FEFDFCAB29AA28A927A826D3120C6C07
:100F72004039852B82852A83A3A3E0242CF8E6FB43
:100F82003395E0FAF9F8C3E5299BFFE5289AFEE5D7
:100F92002799FDE526988F298E288D27F526852B02
:100FA20082852A83A3A3E004F080A5852B82852A6B
:100FB20083A3A3E004F0852B82852A83A3A3A3E560
:080FC20029F0AA2AA92B7B01EA
:010FCA002204
:0C2C3800122B8BAC06AD077F0B02207D39
:0C2C4400122B8BAC06AD077F0C02207D2C
:081DAB008B458A4689478D48EB
:101DB300E4FDFCF54C754D08E54D154DAE4C700238
:101DC300154C4E601AAF05AE047845E475F0011268
:101DD3000D04120A6EFD122B93AC06AD0780D9AF2A
:101DE30005AE04AD48122B93AC06AD07C006C00781
:101DF300E54AAE497818CEC313CE13D8F9FDD00700
:101E0300D006122B93AC06AD07C006C007E54AAE59
:101E1300497810CEC313CE13D8F9FDD007D00612DC
:101E23002B93AC06E549FD122B93AC06AD4A122B5E
:101E330093AC06AD4B122B93AC06AD077F0D02207E
:011E43007D21
:08253D008F568B578A5889590B
:10254500E4FCF55B755C08FFFEAD56801EE55C1589
:102555005CAE5B7002155B4E601AAF05AE04785732
:10256500E475F001120D04120A6EFD122B93AC06F0
:10257500AD0780D9AF05AE04AD5A122B93AC06ADAD
:06258500077F0E02207D1D
:101F6800E4F5197BFF7A2A79191224988E1F8F209D
:101F78007A2A79191228AE8F197BFF7A2A792012CA
:101F880024988E1F8F207A2A79201228AE8F197BE9
:101F9800FF7A2A79291224988E1F8F20AF197E0084
:101FA8007BFF7A2A79291228B48F197BFF7A2A793C
:101FB800311224988E1F8F20AF197E007BFF7A2A5A
:101FC80079311228B48F197BFF7A2A79371224982D
:101FD8008E1F8F20AF197E007BFF7A2A793712284F
:0C1FE800B48F19EFFD7C007F0102207D0A
:0A2C5B008F19E4FDFC7F0202207DCA
:0100220022BB
:0623E7008B198A1A891B04
:1023ED00120A6EF51C900001120A87F51D9000026D
:1023FD00120A87751F00F51E900003120A87251F0C
:10240D00F51FE4351EF51EAF1C122B3075F002EFD3
:10241D009000CF120CF8E0651D60037F0022AB1910
:10242D00E51B2404F9E4351AFA851E24851F25AF12
:04243D001C12189BBA
:012441002278
:022CA7008F1983
:012CA9002208
:032CAA0002000025
:02165B008D19E7
:10165D00E4F51DF51CF51BF51AF521F520F51FF523
:10166D001EF5228B238A248925E519C3940850037E
:10167D0002178A7B017A0079E8752A00752B08E438
:10168D00FD1228EA7B017A0079F0752A00752B0886
:10169D00E4FD1228EAE4F5227823E475F001120D39
:1016AD0004120A6EFFE51D4FFFE51CFEE51BFDE56F
:1016BD001A8F1D8E1C8D1BF51AFC7808120C908F3D
:1016CD001D8E1C8D1B8C1A0522E522B403CA7823AE
:1016DD00E475F001120D04120A6EFFE51D4FFFE5D2
:1016ED001CFEE51BFDE51A8F1D8E1C8D1BF51AE4E6
:1016FD00F5227823E475F001120D04120A6EFFE550
:10170D00214FFFE520FEE51FFDE51E8F218E208D6B
:10171D001FF51EFC7808120C908F218E208D1F8CCA
:10172D001E0522E522B403CA7823E475F001120DDB
:10173D0004120A6EFFE5214FFFE520FEE51FFDE5D2
:10174D001E8F218E208D1FF51EAF1DAE1CAD1BAC47
:10175D001A752A00752BF0120D3AAF21AE20AD1F70
:10176D00AC1E752A00752BE8120D3A7C007DF07FBA
:0D177D0001122C917C007DE8E4FF122C91FC
:01178A00223C
:062C9800900000EFF022A5
:062C9E00900000E0FF229F
:0413B6008E118F12F3
:1013BA00E4F513F51474062512F58274003511F557
:1013CA0083E0FD74072512F58274003511F583E078
:1013DA00751400F51374082512F58274003511F599
:1013EA0083E02514F514E43513F51374042512F576
:1013FA008274003511F583E07F00FE74052512F52D
:10140A008274003511F583E02FFFE43EFE122C773B
:10141A00ED120D14143A01143D02146B03146E04F8
:10142A0014D40514D40614E708150B240000151C5F
:03143A00021F6826
:10143D0074092512F58274003511F583E0F515FF59
:10144D00122C98AF15122C5BE515700302151CE5D7
:0E145D00156401600302151C121A8A021D0696
:03146B000200225A
:10146E00E4F515F517F518F515AF157E00C3EF95D4
:10147E0014EE9513400302151CE5122FFDEE3511E7
:10148E00FC740B2DF58274003CF583E0751800F5A5
:10149E0017740C2DF58274003CF583E02518F518B1
:1014AE00EE3517F51774092512F974003511FA7B0C
:1014BE0001E92FF9EE3AFA1223E78F16E518240404
:0614CE002515F51580A3B1
:1014D40074092512F58274003511F583E0F515FFC2
:0314E400022CA730
:1014E70074092512F58274003511F583E0F515743A
:1014F7000A2512F58274003511F583E0F516FDAF64
:0415070015022CAAF3
:10150B0074092512F974003511FA7B01AD1412160A
:01151B005B74
:01151C0022AC
:10072100020963E86480F8E933E83360110460F09A
:10073100ED33EC337009E8FCE9FDEAFEEBFF22043E
:1007410060DED3EB9FEA9EE99DE8C2E78CF0C2F739
:1007510095F0400CE8CCF8E9CDF9EACEFAEBCFFB05
:1007610012092E85D0F05804700320D5B3E8047027
:10077100075002B2D502096D92D5EC0460F7E4CCC2
:10078100C0E0C398F8603B94186008400DD0E0FBCE
:10079100020945E4FBFAC9FC8028E830E406E4C913
:1007A100FBE4CAFCE830E305E4C9CACBFCE8540722
:1007B1006010F8C3E913F9EA13FAEB13FBEC13FC2D
:1007C100D8F130F52FC3E49CFCEF9BFFEE9AFEEDD0
:1007D10099FDD0E0FBEF4E4D4C701222DB03020974
:1007E1006AEC2CFCEF33FFEE33FEED33FDED30E729
:1007F100EB020945EF2BFFEE3AFEED39FDD0E0FBB0
:1008010050130BBB000302096DED13FDEE13FEEF58
:0808110013FFEC13FC02094582
:1008190002096DEC5D046005E8590470030209637F
:1008290012092E580460F6EC4860F2EC7004FDFEE3
:10083900FF22C860DB2481C85009C39860025006B2
:1008490002096A9850CAF582E9294B4A7005AB82B8
:1008590002095975F0007C1A7880C3EF9BEE9AED76
:1008690099400DC3EF9BFFEE9AFEED99FDE842F02A
:10087900DC23ACF0D0E0FFD0E0FED0E0FDAB82207D
:10088900E7101BEB60BAEC2CFCEF33FFEE33FEED07
:1008990033FD020945E803F830E705C0F075F000BB
:1008A900EF2FFFEE33FEED33FD40B830E7C280AAEB
:1008B90075F020800E75F010800575F0087D007EBA
:1008C900007F003392D530D503120C48EC33401029
:1008D900EF33FFEE33FEED33FDEC33FCD5F0ED22C3
:0E08E900E5F0247EA2D513CC92E7CDCEFF22FF
:1008F700EDD2E7CD33EC3392D524814006E4FFFEF9
:10090700FDFC22FCE4CFCECDCC24E0501174FF8057
:10091700EDC3CC13CCCD13CDCE13CECF13CF0470F4
:07092700F030D5DE020C48A0
:10092E00E9D2E7C933E833F892D5EDD2E7CD33EC0F
:07093E0033FC5002B2D52288
:10094500EC30E7100FBF000C0EBE00080DBD000413
:100955000BEB6014A2D5EB13FCED92E7FD2274FFBF
:10096500FCFDFEFF22E480F8A2D574FF13FC7D8018
:03097500E480EF2C
:101EE800020FCBE493A3F8E493A34003F68001F236
:101EF80008DFF48029E493A3F85407240CC8C333FB
:101F0800C4540F4420C8834004F456800146F6DFC9
:101F1800E4800B010204081020408090178BE47EB7
:101F2800019360BCA3FF543F30E509541FFEE493BE
:101F3800A360010ECF54C025E060A840B8E493A385
:101F4800FAE493A3F8E493A3C8C582C8CAC583CAB0
:101F5800F0A3C8C582C8CAC583CADFE9DEE780BE68
:01189A00004D
:10097800E709F608DFFA8046E709F208DFFA803E61
:1009880088828C83E709F0A3DFFA8032E309F6084E
:10099800DFFA8078E309F208DFFA807088828C83B6
:1009A800E309F0A3DFFA806489828A83E0A3F6086A
:1009B800DFFA805889828A83E0A3F208DFFA804C44
:1009C80080D280FA80C680D4806980F2803380101B
:1009D80080A680EA809A80A880DA80E280CA803384
:1009E80089828A83ECFAE493A3C8C582C8CCC583FC
:1009F800CCF0A3C8C582C8CCC583CCDFE9DEE780CC
:100A08000D89828A83E493A3F608DFF9ECFAA9F04A
:100A1800EDFB2289828A83ECFAE0A3C8C582C8CCA0
:100A2800C583CCF0A3C8C582C8CCC583CCDFEADEB9
:100A3800E880DB89828A83E493A3F208DFF980CC1B
:100A480088F0EF60010E4E60C388F0ED2402B40414
:100A58000050B9F582EB2402B4040050AF232345BB
:060A680082239009C8730F
:100A6E00BB010689828A83E0225002E722BBFE0286
:090A7E00E32289828A83E49322B9
:100A8700BB010CE58229F582E5833AF583E0225024
:100A970006E92582F8E622BBFE06E92582F8E2226E
:0D0AA700E58229F582E5833AF583E4932288
:100AB400BB010689828A83F0225002F722BBFE0121
:020AC400F3221B
:100AC600F8BB010DE58229F582E5833AF583E8F066
:100AD600225006E92582C8F622BBFE05E92582C812
:020AE600F222FA
:100AE800EF8DF0A4A8F0CF8CF0A428CE8DF0A42E22
:020AF800FE22DC
:100AFA00C5F0F8A3E028F0C5F0F8E5821582700287
:060B0A001583E038F02223
:0D0B1000EF2BFFEE3AFEED39FDEC38FC2234
:0E0B1D00C3EF9BFFEE9AFEED99FDEC98FC22D3
:100B2B00E88FF0A4CC8BF0A42CFCE98EF0A42CFC69
:100B3B008AF0EDA42CFCEA8EF0A4CDA8F08BF0A4E7
:100B4B002DCC3825F0FDE98FF0A42CCD35F0FCEB46
:100B5B008EF0A4FEA9F0EB8FF0A4CFC5F02ECD390B
:0F0B6B00FEE43CFCEAA42DCE35F0FDE43CFC2278
:100B7A0075F008758200EF2FFFEE33FECD33CDCC32
:100B8A0033CCC58233C5829BED9AEC99E5829840B5
:100B9A000CF582EE9BFEED9AFDEC99FC0FD5F0D692
:100BAA00E4CEFBE4CDFAE4CCF9A88222B800C1B9BC
:100BBA000059BA002DEC8BF084CFCECDFCE5F0CBFA
:100BCA00F97818EF2FFFEE33FEED33FDEC33FCEB33
:100BDA0033FB10D703994004EB99FB0FD8E5E4F9EE
:100BEA00FA227818EF2FFFEE33FEED33FDEC33FCDB
:100BFA00C933C910D7059BE99A4007EC9BFCE99ACF
:100C0A00F90FD8E0E4C9FAE4CCFB2275F010EF2F13
:100C1A00FFEE33FEED33FDCC33CCC833C810D70713
:100C2A009BEC9AE899400AED9BFDEC9AFCE899F84E
:0E0C3A000FD5F0DAE4CDFBE4CCFAE4C8F922E1
:0E0C4800C3E49FFFE49EFEE49DFDE49CFC22BD
:100C5600EB9FF5F0EA9E42F0E99D42F0EC6480C815
:060C660064809845F022B5
:100C6C00EB9FF5F0EA9E42F0E99D42F0E89C45F0DE
:010C7C002255
:100C7D00E8600FECC313FCED13FDEE13FEEF13FF55
:030C8D00D8F12279
:100C9000E8600FEFC333FFEE33FEED33FDEC33FCC2
:030CA000D8F12266
:0C0CA300E0FCA3E0FDA3E0FEA3E0FF22C4
:0C0CAF00E0F8A3E0F9A3E0FAA3E0FB22C8
:0C0CBB00ECF0A3EDF0A3EEF0A3EFF022AC
:100CC700A8828583F0D083D082120CDE120CDE124C
:100CD7000CDE120CDEE473E493A3C583C5F0C58371
:100CE700C8C582C8F0A3C583C5F0C583C8C582C877
:010CF70022DA
:0C0CF800A42582F582E5F03583F5832207
:100D0400FAE6FB0808E6F925F0F618E6CA3AF622F0
:100D1400D083D082F8E4937012740193700DA3A36E
:100D240093F8740193F5828883E473740293686082
:060D3400EFA3A3A380DF82
:00000001FF
