:03000000021CBF20
:0C1CBF00787FE4F6D8FD75817D021D06DB
:1014E600046C00000000410007004100430C41006D
:1014F600444044003A000000004400180000000088
:1015060044001C0000000044005C00000000440091
:101516004A000000004400640000000042002B0066
:1015260001420016000041000D0041003800420053
:1015360069000042000E000041000108410046001B
:1015460041006B00410036004100370041001500A4
:101556004100200141002E0A410049004100450A90
:10156600410035004100390042000B0000410003F4
:10157600004200600000420047000041002D00418B
:101586000029004100000041000A004100280041F6
:1015960000140042002100004200330000410062B6
:1015A6000041000400420005000041000200410025
:1015B6002A0041002F0041004200017B00017A0011
:1015C600027C00004C0050000000000000000000FB
:0815D6000000004200080000C3
:1013B600EF24A0FFEE340FFEE43DFDE43CFC1206F4
:1013C60009D30205C6E4900046F09000447440F04C
:1013D6009000387402F09000017406F0E490000763
:1013E600F090005C229000181205FD90003A12065B
:1013F6000912046A9000181206159000180205FDDD
:1014060090003A120609C30205C6E4FCFD12046AFE
:1014160090006402061590003E1205FDEF2470FF51
:10142600EE3417FEE43DFDE43CFC90001822122A3F
:101436001EE47BE87A03F9F89000100205FDE475D6
:10144600F001020454900044E0FF900007E0C39FBF
:1014560022D390002CE0940090002BE094002212FE
:1014660005FD90001C12060902046A7F647E0002D4
:101476002A1E90001002061590003A0205FDF09013
:10148600002EE0900045F022D390006AE094009090
:101496000069E09400227F0A1225E1900030EFF007
:1014A60090006322E4FFFEFD7C3F12002D0201FC4A
:1014B600F090004A0205FD900064020609D39DECF7
:1014C6006480F874809822E47B02FAF9F802051029
:1014D6009000180206097E2F1229687F107E2722A7
:1027A9008E098F0A8B0B8A0C890DAF051DEF6021ED
:1027B900050AE50AAE097002050914F5828E83E45B
:1027C90093FF780BE475F00112065EEF1203B980EE
:0227D900D92203
:1028F3008F828E83E4F56FF56EF56DF56CAF82AE66
:1029030083E4FCFDAB6FAA6EA96DA86CC31205C668
:08291300500543BD1080E622CF
:092A1500E0FF7C2F12291B7F64F5
:102A1E00E4FDFCC3ED9FEC9E50070DBD00010C8044
:012A2E00F2B5
:012A2F002284
:10000300758E5190FE917401F0A37410F075BD5F6D
:0700130090FEA07420F02212
:1029F700E490FE80F0758901758DFA758BCB43A83D
:0E2A070008438840758CCB758AEB43881022FB
:10280D0090FF10E054F04408F090FF02E054F044C3
:10281D0002F0D28490FFA07420F0A37404F075CC64
:10282D000675CEFF75CD98759E0275981043A8104C
:01283D002278
:102A650043B40343B4807F147E00122A1E75B5015A
:072A750090FE9B744BF02260
:102A4B0090FF08E04488F090FF00E0540F4430F012
:0A2A5B0090FF11E054F04403F02254
:0B2AED008F99E59830E1FB5398FD2223
:1025E1008FB543B440E5B430E5FB53B4DF12147149
:1025F100E4FBFAF943B440E5B430E5FB53B4DFE55D
:10260100B62BFBE5B73AFA7F147E00122A1E09B9F0
:0C26110010E275B501A902121471AF01AE
:01261D00229A
:10112F007B017A0079507D0C7F007E2F1227A990CA
:10113F000050E0FFE4FCFDFE12147812143E780814
:10114F001205EA121478900010120609900051E06F
:10115F00FFE4FCFDFE12046A12147812143EE47BC5
:10116F00E87A03F9F8120485121478E47F307E755B
:10117F00FDFC90001012140940107F007E097D3D88
:10118F007C009000101213C4400A90001012062128
:10119F0000009C40900052E0900068F070028007C1
:1011AF00900068E0B4FE0374FFF0900053E0FF90EE
:1011BF000031E4F0A3EFF0E0F8E4F0E8900031F054
:1011CF00900054E0FF900031E48FF012045490002F
:1011DF0031E0FEA3E0FF4E6009D3EF9408EE9407D1
:1011EF004009900031E4F0A37405F0900055E090B1
:1011FF00002EF0900039F0900056E0900023F06040
:10120F0006E0D394FF40069000237401F09000573E
:10121F00E0F45401900020F0900058E05401900049
:10122F002DF0900059E05401900015F090005AE015
:10123F005401900014F090005BE090000AF07B01E5
:10124F007A0079087D027F807E2F1227A9900008EF
:10125F00E0900035F0900009E0900028F0121C1C7F
:0A126F00900028E07003122B2E22DD
:10069400900036E06003020B7543B440E5B430E5E6
:1006A400FB53B4DF85B70985B60A900016121444CB
:1006B4001214BDAE09AF0A12141090004EE0FEA34E
:1006C400E0FFC3950AEE9509500DC3E50A9FF50AAC
:1006D400E5099EF509800BC3EF950AF50AEE950925
:1006E400F50990001C120609AE09AF0AE4FCFD12DC
:1006F400046A90001C120615900016E05401FEA333
:10070400E04E705212148E4017900045E0946450ED
:100714003DE02402F0E0D3946440337464F0802E0E
:1007240090000EE07004A3E06401702A90002EE0B3
:10073400FF900045E0FED39F4014EE94024004E095
:1007440024FEF0900045E0C39F50031214859000EE
:1007540045E0FF121E55C3900016E094205003029A
:100764000BA643BD10E4F0A3F0900046E00412147D
:10077400B690006412146B90004A1206159000465D
:10078400E0C394084030E41214B678101205D790F0
:10079400004A1206151214B790004EEE8FF01204A0
:1007A4005490004EE0C313F0A3E013F090004A12FB
:1007B400062100000000900001E0C394085005E009
:1007C40004F08040900069E07002A3E070361214D7
:1007D4009CE0FE2402FDE433FCEF1214C350189095
:1007E4000030E02402FDE433FCEE1214C350089000
:1007F4000063E0900030F0900030E0900063F0E49B
:10080400900001F0E4FFFEFDFC9000181214097042
:100814003690001C1205FDEF2488FFEE34131214E9
:100824002912061590002BE07002A3E070197F4096
:100834007E427D0FFC9000181213C4400A900018E9
:10084400120621000F4240900007E0701690001C31
:100854001205FD90003A120615900024120621009C
:100864000000019000241214651214064003020AC9
:100874001B9000241205FD90003A12146B90001C8A
:100884001214094003020A1B900007E004F09000D0
:100894005C12146590005C120615900007E0FFFBE3
:1008A400E4FAF9F890005C1205FD12051090003A84
:1008B40012061512147E78031205D790002412062E
:1008C40015E47F207E4EFDFC900024121409500A8A
:1008D40090002412062100004E20E47F607EEAFD91
:1008E400FC9000241213C4400A9000241206210034
:1008F40000EA6012147E9000181213C4403E900067
:100904003A1206091214001204771214167F807E1C
:10091400387D017C009000641213C44008900043A9
:100924007406F0801DE47F407E9CFDFC9000641200
:1009340013C490004340087409F080069000437487
:100944000CF090004312144E403B12140012140693
:100954005033900044E094105003020A2A9000435C
:10096400E0D39409500512147E801112147E900075
:10097400181213B6400C1213EB1214CD9000181277
:100984000615020A1B12144B5003020A2A12140001
:1009940090003A1213B640771214D612147E120441
:1009A400771214167F007E127D7A7C001214065092
:1009B4005E7F807E1A7D067C0090006412140950CC
:1009C4004E900044E09410400280387FE07E937D96
:1009D400047C009000641213C44008900044741016
:1009E400F0801B7FF07E497D027C0090006412132E
:1009F400C49000444005740CF080037408F0121491
:100A04004B400C1213EB1214CD9000181206151261
:100A1400144B4012E48004E4900007F090005C1250
:100A2400062100000000900038E0D394004036E036
:100A340014F012141C1213C45003020B2C90003E29
:100A44001205FDEF2498FFEE343AFEE43DFDE43C4C
:100A5400FC90001C1214094003020B2C12141C12EB
:100A64000615020B2C121457405774FFF5F01204AC
:100A740054121457404B7F007E127D7A7C00900004
:100A8400181213C4400C900010120621000C3500FB
:100A9400802F12143E1214D61214137F407E547DFC
:100AA400897C009000641213C440161214D6C374D7
:100AB400409BFF74549AFE748999FDE498FC1214C7
:100AC4007812143E90001812146B90001C1213C478
:100AD4004056900068E0FF900030E0D39F4005123C
:100AE40014574044900069E07002A3E070091214A6
:100AF4000090003E120615900069E4F0A304F09003
:100B04000029F090002112144490002A7401F090FE
:100B140000447408F0E490000EF0A3F0900060F03C
:100B2400A3F0900047F0A3F09000641206210000A7
:100B3400000090001C12062100000000900069E0F3
:100B4400FEA3E0FFD39400EE94004056900031E001
:100B5400FCA3E0FDD3EF9DEE9C4047E4900069F0D8
:100B6400A3F090003604F0E4900029F0900000F027
:100B74002290000EE4F0A304F0E4900036F090001C
:100B84000BF0A3F0900003F07FFAFE1228F390001C
:100B94004A120621000000001213CB1206210000A5
:020BA40000004F
:010BA600222C
:10211400E4F50A90006412062100000000E4F509C9
:1021240043B440E5B430E5FB53B4DF1214BDAFB69D
:10213400AEB71214100509E509B480E47F907E015E
:102144001228F39000641205FD780B1205D78F094D
:10215400E509D3940C400CE509948D5006E50A94E6
:0D21640014500A050AE50AD3945040A72242
:01217100224B
:1021720090006412062100000000E4F509E4F50C69
:10218200F50D43B440E5B430E5FB53B4DF85B70A3F
:1021920085B60B1214BDAE0AAF0B121410050DE575
:1021A2000D7002050CB400DAE50CB420D543BD1065
:1021B2000509E509B408C69000641205FD781012FD
:0A21C20005D790004EEEF0A3EFF0F9
:0121CC0022F0
:10222800BF0105E4FCFD802E7E007C017DFF1203CA
:10223800ED1C7D641203FFAC06AD07E41201C38FE9
:102248002B8E2A8D298C28AB2BAA2AA929A82812DB
:1022580014AAAC06AD0790FF907411F075DA0175F9
:0E226800E30175E2FF8CE58DE475E10F7F0068
:012276002245
:1022C200BF0104E4FE80307E007C007DFF1203ED3E
:1022D200AC06AD07E41201C3E4FBFA79C8784212F6
:1022E20001218F2B8E2A8D298C28AB2BAA2AA92972
:1022F200A8281214AAAE0790FF9C7410F075DEFF96
:072302008EDF75DD947F0002
:0123090022B1
:021E5500AB07D9
:101E5700787BE6B503037F0022787BA603EB700649
:101E6700900062048014BB640CE4900062F0900060
:101E77002F04F0800B9000627402F0E490002FF0C2
:101E870090000AE014601214601814601C14602C8F
:101E97002404702AE4F5278025EB75F00384F527E1
:101EA700801CEBC313F5278015EB75F002A4FFAE7A
:101EB700F07C007D031203FF8F2780028B27C3EB83
:0D1EC7009527FF122228AF271222C27F00AC
:011ED40022EB
:100BA700122AA9120003122A4B1229F712280D1232
:100BB7002A6575BBAA90FEA774FFF053BBF7D2AFA7
:100BC7007FC87E001228F312149CF0C2AF12112FB7
:100BD7007F64121E55900035E004F07F807E2F124F
:100BE70029687F107E27122A1E900035E0FF7D803E
:100BF7007C2F12291B121471D2AF12211490002ED0
:100C0700E0FF900045F0121E557F2C7E011228F35D
:100C17001221729000641206210000000090003536
:100C2700E0C394034005E4F0122B2E787AE66022A5
:100C37007F64120DE7E4FF120DE7787D06E6187072
:100C47000106D3742C787D96740118965004E478C5
:100C57007AF6900004E0FF900062E0FD6F600D7F80
:100C67007612286D900062E0900004F0900042E058
:100C7700FF90002FE0FD6F600D7F7712286D9000C9
:100C87002FE0900042F0900002E064017041900074
:100C97002AE0B4013AE4900002F090002AF09000B4
:100CA70021E0FEA3E0FF900033E06E7003A3E06F46
:100CB700601DE48F2F8E2EF52DF52C7F741220A743
:100CC700900021E0FFA3E0900033CFF0A3EFF043C3
:100CD700BD10900036E0700B900017E0541F7003B2
:100CE700120F98900020E064016003020DAF90009E
:100CF70037E0701D900036F0A30412148490004A68
:100D0700120621000000001213CB1206210000007A
:100D170000120694D390000FE0940090000EE09428
:100D2700004033900003E0B4012CE4F090000E1271
:100D37001445900023E0FFC390000FE09F90000E42
:100D4700E094004011E4F0A3F0900014E064016027
:100D570005E4FF121E5512148E4018900047E070EC
:100D670004A3E06401700C900047F0A3F0900069C1
:100D770012144590002DE064016003020C249000DA
:100D870029E0FF900000E06F7003020C24EFF09061
:100D97000069E4F0A304F0E4F508E508C39408400B
:100DA70003020C24050880F2E4900037F090001548
:100DB700E07007FF121E55020C24900039E0FF1265
:100DC7001E55E490003612148490004A1206210042
:100DD7000000001213CB12062100000000020C24B1
:0B0DE700121E557F647E001228F322CC
:03001B000219FBCC
:1019FB00C0E0C0F0C083C082C0D075D000C000C0B2
:101A0B0001C002C003C004C005C006C007AF6FAE63
:101A1B006EAD6DAC6CEF2401FFE43EFEE43DFDE4E6
:101A2B003C8F6F8E6E8D6DF56C90000B1214449085
:101A3B00000BE0FEA3E0FFE4FCFD7B607AEAF9F823
:101A4B00D31205B0500C90000BE4F0A3F090000300
:101A5B0004F0900060121444C3900061E094E8908D
:101A6B000060E09403400BE4F0A3F0900047F0A378
:101A7B0004F0900005121444C3900006E094E89023
:101A8B000005E094034009E4F0A3F090000204F099
:101A9B00D007D006D005D004D003D002D001D0009F
:0B1AAB00D0D0D082D083D0F0D0E03249
:0300230002235263
:10235200C0E0C0F0C083C082C0D075D000C000C051
:0D23620001C002C003C004C005C006C007D2
:0F236F00E59830E00AAF991224E65398FED2AFFA
:10237E00D007D006D005D004D003D002D001D000B3
:0B238E00D0D0D082D083D0F0D0E0325D
:1029680053BBF7C280E5BB20E3F6D280C2AF75FD4A
:10297800F075FC0F8EFA8FF975FDD275FC2D75FD7B
:05298800E175FC1E22B8
:10291B0053BBF7C280E5BB20E3F6D280C2AF8FFB7F
:10292B0075FDF075FC0F8CFA8DF975FDB475FC4BCC
:07293B0075FDE175FC1E2291
:101C1C007F001214DC12143412051078081205D748
:101C2C007D007C2F12291B7F647E00121434120558
:101C3C00107D017C2F12291B1214719000687D02FB
:101C4C00122A159000317D03122A15A3E0FF7D04A2
:101C5C00122A1790002EE0FF7D05122A1790002300
:101C6C00E0FF7D06122A17900020E0F4FF7D07129A
:101C7C002A1790002DE0FF7D08122A17900015E01E
:101C8C00FF7D09122A17900014E0FF7D0A122A1713
:101C9C0090000AE0FF7D0B122A177F801214DC12D1
:101CAC002A1E7D807C2FE4FF12291B0D0F12291B8D
:021CBC00D2AFA5
:011CBE002203
:0415DE00027800008F
:101B710012038CFFE5304FFFE52FFEE52EFDE52D2D
:101B81008F308E2F8D2EF52DFC78081205EA8F30BF
:101B91008E2F8D2E22AF2FAE2EAD2DAC2C1205D750
:101BA100AD0722AF6BAE6AAD69AC681205D7AD0760
:101BB10022E475F00102065EAB07E4FCFFFEAD0313
:101BC10022AC06AD077F0622E579950AF579E5781D
:101BD1009509F57822AF73AE72AD71AC700205D77D
:101BE100FEE569FDE568FCE47BFF22E4F520F51FD5
:101BF100F51EF51D2212038CAB29AA2AA92B22ABB3
:101C010055AA56A957020373AB58AA59A95A0203F8
:0B1C110073746D250AF9740035092278
:10203600EFC39430400CEFD39439500674D02FFF81
:102046008022EFC39441400CEFD394465006EF2410
:10205600C9FF8010EFC39461400AEFD39466500421
:10206600EF24A9FFEF540FC454F0FFEDC3943040A2
:102076000CEDD39439500674D02DFD801EEDC3941B
:10208600414008EDD394465002800CEDC394614064
:102096000AEDD394665004ED24A9FDED540F4207D2
:0120A6002217
:0623DD008B1A8A1B891C0B
:1023E300121BECE94A4B7005FFFEFDFC22121BECAD
:1023F300781A121BB2120373601AE5202401FFE45A
:10240300351FFEE4351EFDE4351D8F208E1F8D1E06
:0C241300F51D80DCAF20AE1FAD1EAC1D1F
:01241F00229A
:062742008B268A2789287E
:102748008B2C8A2D892EE94A4B7004FBFAF922E575
:102758002B152BAE2A7002152A4E600B782C121BF3
:0D276800B2ED1203B980E8AB26AA27A9281C
:012775002241
:0617B2008B218A2289232D
:1017B8008B298A2A892B85242C85252D85262EE997
:1017C8004A4B6008E5264525452470077B007A00CA
:1017D800790022D3852D83852E82E52B9582E52AF3
:1017E80095834019E52E2528F9E52D3527FA8A83B2
:1017F8008982D3E52B9582E52A95834032E4F52F3B
:10180800F530C3E5309528E52F9527505BAB2CAA1A
:101818002DA92E853082852F83121BF6853082856F
:101828002F831203CB0530E53070D7052F80D38581
:10183800272F852830D3E5309400E52F94004028E1
:10184800AB2CAA2DA92EE53024FFFFE52F34FFFE8F
:101858008F82F583121BF68F828E831203CBE530BD
:0E186800153070D1152F80CDAB21AA22A923F7
:01187600224F
:062698008B3C8A3D893EE7
:10269E008B428A438944AB3FAA40A941120373601F
:1026AE0014783F121BB2120373FF783C121BB2EF69
:1026BE001203B980E1AB3CAA3DA93EE41203B9ABCB
:0526CE0042AA43A944EB
:0126D30022E4
:102399008B558A568957121C00FF6020121C096050
:1023A9001BB5071874012557F557E43556F55674CA
:1023B90001255AF55AE43559F55980DA121C09FFF5
:1023C9003395E0FE121C00FD3395E0FCC3ED9FFF41
:0423D900EC9EFE2256
:102776008F738E728D718C7078181205D7EF1203D5
:10278600B97810121BD6900001EF1203CB7808120D
:102796001BD6900002EF1203CBE573FF900003EF08
:0327A6000203CB60
:10227700E4F530F52FF52EF52D120373FFE48F30BB
:10228700F52FF52EF52DAE2FAD2EAC2D121B8A8C0A
:102297002D900001121B718C2D900002121B718C66
:1022A7002D90000312038CFFE5304FFFE52FFEE56D
:0A22B7002EFDE52D121B8FF52DFC06
:0122C10022FA
:102ACF00E4FDFCFFFE122AE0AC06AD077F03021EF9
:012ADF00D521
:102ABD00E4FDFCFFFE0D122AE0AC06AD077F03021C
:022ACD001ED514
:082420008F5B8B5C8A5D895E15
:10242800E4FCFFFEAD5B122AE0AC06E4FD122AE0F4
:10243800AC06E55FFD122AE0AC06AD60122AE0ACFE
:1024480006AD07AB5CAA5DA95E855F1F856020129B
:0A245800283E121BC2121ED57F01A0
:012462002257
:0226D4008D2750
:1026D600121BB91226FFE4FD1226FFAD07E527708F
:1026E60003FD8006AF05AE047D01122AE0AC06ADFF
:0826F600077F06121ED57F01CB
:0E26FE0022122AE0AC067D01122AE0AC062270
:1020A700121BB9122AE0AC067D02122AE0AC06E444
:1020B700FD122AE0AC067D04122AE0C006C00778AC
:1020C70018121B96D007D006122AE0C006C0077860
:1020D70010121B96D007D006122AE0C006C007AF21
:1020E7002FAE2EAD2DAC2C78081205D7AD07D00733
:1020F700D006122AE0AC06C007E52FFFE4AD07D0F3
:0C21070007122AE0121BC2121ED57F0135
:0121130022A9
:082463008F618B628A638964BA
:10246B00E4FCFFFEAD61122AE0AC067D03122AE00C
:10247B00AC06E565FD122AE0AC06AD66122AE0ACAF
:10248B0006AD07AB62AA63A96485651F856620123A
:0A249B00283E121BC2121ED57F015D
:0124A5002214
:02286D008D27B5
:10286F00121BB9122AE0AC067D04122AE0AC06E472
:10287F00FD122AE0AC067D01122AE0AC06AD27124C
:0A288F002AE0121BC2121ED57F01C1
:01289900221C
:0216EB00AB074B
:1016ED00900000AD0312178E7D0512179AE4FD12BE
:1016FD00179A74FFFFE56A121BE1FAF9F8C3120598
:10170D00C6700A7D0112178EAD6B02177B74FFFF39
:10171D00121BE17AFFF9F8C31205C6AF82AE8370D2
:10172D00047D02802C7D041217A2C006C007781814
:10173D00121BA4D007D0061217A2C006C007AF6BAC
:10174D00AE6AAD69AC6878101205D7AD07D007D079
:10175D00061217AAC006C0077808121BA4D007D01E
:10176D00061217AAC007E56BFFE4AD07D007122AD2
:10177D00E08E838F82AD82AC837F06121ED57F01F2
:10178D0022AF82AE83122AE08E838F8222122AE04C
:10179D008E838F8222122AE08E838F8222122AE07C
:0517AD008E838F8222F3
:082B02008C278D28120373FFDC
:012B0A0022A8
:082B0B008C278D28120373FFD3
:012B1300229F
:072B26008C2B8D2C1222778D
:012B2D002285
:102AA9007574007575AF7576007577AFE49000C8D9
:042AB900F0A3F02274
:1024E600C39000C9E094199000C8E09400502FC32F
:1024F6009000C8E5759582E574958340067574006D
:102506007575AF0575E575AC747002057414F582C2
:0F2516008C83EFF09000C8E475F001120454229A
:100F9800E4F509F50AF50BF50CF50DF50EF50F75E9
:100FA8001009C3E5799421E57894005027122A9313
:100FB800D3EF9400EE9400401B12265B0579E57987
:100FC800AC787002057814246DF58274003CF583C2
:100FD800EFF080CEC3E5799409E5789400500302D8
:100FE800112EC3E579950AFDE5789509FCC3ED94C2
:100FF80009EC940050030210E9746D250AF5827417
:10100800003509F583E06455600A050AE50A70D2DF
:10101800050980CE746E250AF58274003509F583BA
:10102800E064AA600A050AE50A70B7050980B37486
:101038006F250AF58274003509F583E0750D00F512
:101048000E6402450D60047402803C7473250AF531
:101058008274003509F583E0750C00F50B7474256E
:101068000AF58274003509F583E02409FFE433FEAC
:10107800EF250CF50CEE350BF50BD3E50C942AE5B2
:101088000B940040097403250AF50AE4804CC3ED6B
:10109800950CEC950B404A121C12FA7B01E50C24C6
:1010A800FFFDE50B34FFFC122942E50A250CFDE59E
:1010B80009350BFC746C2DF58274003CF583E06FE8
:1010C80060097403250AF50AE4800FAF0AAE091215
:1010D8001279E50C250AF50AE50B3509F509020F21
:1010E800EAC3121BC9D3E5799400E5789400403629
:1010F800E50A45097017E5799421E5789400400DD3
:10110800050AE50A70020509121BC98000121C12A3
:10111800752401F52589268578278579287B017A24
:0611280000796D1217B200
:01112E00229E
:1015E2004100D0004400CC000000005E00D10101A7
:1015F20003026504660267016802690271017201F1
:0C1602007301740275017604770478040B
:10270C00AB21AA22A923AD25AC2422900031E0FEF6
:10271C00A3E0FFE48F2F8E2EF52DF52C2290002EAA
:10272C00E0FFE48F2FF52EF52DF52C22E0FFE4FCD5
:06273C00FDFEC30205C60C
:082B2E00122ABD787A7601221B
:03001E00022AEDC6
:10187700900000E0FD7F011226D4900015E0FD7F67
:10188700711226D41227297F031220A7900068E03F
:10189700FFB4FF05E4F519801EEFB4C805751902FA
:1018A7008015EFB42805751903800CEFB41405757E
:1018B70019048003751905AD197F6512286D122764
:1018C700177F661220A7900020E0FD7F671226D4BD
:1018D70090002312272C7F681220A7E47B107A2719
:1018E700F9F89000101205FD120510C374329F120B
:1018F700272D7F691220A790002DE0FD7F72122609
:10190700D4900014E0FD7F731226D4900021122793
:101917001A7F741220A7900062E0FD7F7612286D6F
:1019270090002FE0FD7F7712286D90000AE0FD7F81
:041937007802286D9D
:102A7C00122B02900000EFF0FD7F011226D4BF0153
:062A8C00037F01227F0020
:012A92002221
:1024A600122B268F2A8E298D288C2790002EAB2A58
:1024B600AA29A928A8271227386006E4FF0FBF0813
:1024C600FCAF2A90002EEFF0900039F0121C1C127F
:0F24D60027297F031220A7BF01037F01227F0068
:0124E50022D4
:101F4C00122B0B9000D0E0B5070FBF051290006864
:101F5C00E0FE900030E06E8006E4FE0EBE08FCEF62
:101F6C0014601014601514601A14601F146024247B
:101F7C0005702890006874FFF0802090006874C889
:101F8C00F080189000687428F08010900068741429
:101F9C00F08008900030E0900068F09000D0EFF0F6
:101FAC00121C1C9000D0E0FD7F6512286DBF010350
:051FBC007F01227F00FF
:011FC10022FD
:10230A00122B268F2A8E298D288C27900031E0FEE9
:10231A00A3E0FFE4FCFDAB2AAA29A928A827C31237
:10232A0005C66006E4FF0FBF08FC900031E529F0FE
:10233A00A3E52AF0121C1C1227177F661220A7BFDA
:07234A0001037F01227F0067
:012351002269
:1027DB00122B02900020E06F6006E4FE0EBE08FC98
:1027EB00EF9000207003F080037401F0121C1C901A
:1027FB000020E0FD7F671226D4BF01037F01227FFB
:01280B0000CC
:01280C0022A9
:1025A300122B268F2A8E298D288C27900023AB2A65
:1025B300AA29A928A8271227386006E4FF0FBF0815
:1025C300FC900023E52AF0121C1C90002312272CF8
:0D25D3007F681220A7BF01037F01227F0057
:0125E00022D8
:101FC200122B268F2A8E298D288C279000CC120561
:101FD200FDAB2AAA29A928A827C31205C66006E4D0
:101FE200FF0FBF08FCAF2AAE29AD28AC279000CC6A
:101FF200120615C37432952AFFE49529FEE495284A
:10200200FDE49527FCE47B107A27F9F81204859009
:102012000010120615121C1C9000CC1205FD8F2F09
:102022008E2E8D2D8C2C7F691220A7BF01037F017C
:03203200227F000A
:012035002288
:10252500122B02900015E06F6006E4FE0EBE08FC5B
:10253500EF7006900015F08013900020E0B40106BE
:102545009000297401F09000157401F0900015E0D9
:0E255500FD7F711226D4BF01037F01227F009B
:012563002255
:1028C700122B02AD0790002DE06D6006E4FF0FBFED
:1028D70008FCED90002D7003F080037401F07F7207
:0B28E7001226D4BF01037F01227F00F6
:0128F20022C3
:1029B200122B02900014E06F6006E4FE0EBE08FCCB
:1029C200900014EFF0FD7F731226D4BF01037F0144
:0329D200227F0061
:0129D50022DF
:102A3000122B02EF6012E4900021F0A3F09000212D
:0A2A400012271A7F741220A77F01ED
:012A4A002269
:10298D00122B0B90000AEFF0E4FF121E557F64121C
:10299D001E5590000AE0FD7F7812286DBF01037F60
:0429AD0001227F0084
:0129B1002203
:022B46008F26D8
:042B48008C278D2821
:012B4C002266
:061AB6008B218A22892326
:101ABC00E4F526EF12066E1AEB011B0D031B1665DF
:101ACC001B1F661B27671B2F681B37691B3F711B6E
:101ADC0047721B4F731B57751B5F7800001B6912F5
:101AEC00270C122A7C8F26E526640170759000491C
:101AFC00E004F0E0C394054069E4F0122B2E021BC5
:101B0C006E12270C1224A6021B6512270C121F4CF6
:101B1C00021B6512270C12230A803E12270C122777
:101B2C00DB803612270C1225A3802E12270C121FD5
:101B3C00C2802612270C122525801E12270C122873
:101B4C00C7801612270C1229B2800E12270C122AEB
:101B5C0030800612270C12298D8F268000E490000D
:041B6C0049F0AF2667
:011B70002252
:032B59007F0F22C9
:10289A007B2270223A220030626E6635716F7400B4
:1028AA00222C2276223A2200312E302E3000227D2E
:0D28BA00001F1C1F1E1F1E1F1F1E1F1E1FA4
:04160E0041006C002B
:10161300F07B3CAF29AE28AD27AC26E4FAF9F812EB
:1016230005108F298E288D27227823E475F0011267
:10163300065E0203737F3CFEFDFCAB29AA28A927A3
:10164300A8260205C6F526852B82852A83A322AB0D
:1016530007E4FCFFFEAD03122AE0AC06AD072274DB
:10166300752512F58274003511F583E0F51522FE18
:10167300FDFCAB29AA28A927A8260205C6FFE51D5C
:101683004FFFE51CFEE51BFDE51A8F1D8E1C8D1B10
:1016930022FFE5214FFFE520FEE51FFDE51E8F211B
:1016A3008E208D1F22E4FAF9F8AF29AE28AD27ACBE
:1016B300262274752512F974003511FA7B0122F57F
:1016C30082E4352AF58322C3E5299BFFE5289AFEA8
:1016D300E5272274962FF974003EFA7B0122E47BFE
:0816E300F87A88F9F8020510FD
:092B14009000CAEEF0A3EFF022DC
:092B1D009000CAE0FEA3E0FF22D3
:0C2AE0001216D6ED1203B90FBF00010E54
:012AEC0022C7
:0A283E008E1A8F1B8B1C8A1D891E49
:102848001216D6851C24851D25851E26851F2785DD
:1028580020281217B2E520251BF51BE51F351AF5B0
:042868001AFEAF1B8A
:01286C002249
:10261E008B328A3389348C358D36E94A4B602DE501
:10262E003645356027E5361536AE35700215354E12
:10263E00601AAB32AA33A934120373FF12001E7450
:0D264E00012534F534E43533F53380D9220D
:0A2942008B328A3389348C358D36D0
:10294C00E4FFFDFCC3ED9536EC9535500E78321254
:0B295C00162E2FFF0DBD00010C80E9BE
:01296700224D
:061ED5008C308D31AB07DB
:101EDB00E4FF122B1DAD07AC0690008E7455F0A3DA
:101EEB0074AAF0A37402F0AF04A3EFF0AF05EFA355
:101EFB00F0A3EBF0E530A3F0E531A3F00DBD00014D
:101F0B000CAF05AE04122B1474092531F531E435F1
:101F1B0030F5307B017A00798EE53124FFFDE53019
:101F2B0034FFFC122942748D2531F5827400353053
:101F3B00F583EFF07B017A00798EAD31AC30022660
:011F4B001E77
:0229D6008F2050
:1029D800122B59E4FEEEC39F501275F002EE9000E0
:0E29E800D1120652E0652060030E80E9AF06B2
:0129F60022BE
:102A93009000C8E07002A3E07003122AA99000C856
:062AA300E0FEA3E0FF22AB
:10265B00E4FFD39000C9E094009000C8E0940040E0
:10266B002BE5779582E57695834006757600757731
:10267B00AF0577E577AE767002057614F5828E831B
:0C268B00E0FF9000C874FFF5F01204544A
:012697002220
:050DF2001216258C26FD
:100DF700782C7C007D007BFF7A2879BB7E007F0CF6
:100E070012034DE4F538F539F53AF53BFFC31216F1
:100E1700726006E52B452A70077B007A007900226D
:100E27007B3C1216A8120510AF03E52B24061216F9
:100E3700C2EAF0A3EF1216138C26E47B3CFAF9F80A
:100E4700120510E52B24051216C2EB1216138C2679
:100E57001216E18E388F39E5397802C333CE33CE97
:100E6700D8F924B2FFEE3407852B82852A83F0A3B5
:100E7700EFF01216AC1216E1AC00AD01AE02AF03F3
:100E87001216258C26753A22753B3812164AE054FD
:100E970003700B7418253BF53BE4353AF53AAE3A47
:100EA700AF3BE4FCFDAB29AA28A927A826C3120556
:100EB700C64026852B82852A83E475F001120454E7
:100EC700AE3AAF3BAB07AA061216CA9400FDE52659
:100ED7009400121625F52680AC7B181216A8120569
:100EE70010E52B24041216C2EBF07B181216168C91
:100EF70026EF2401FFE43EFEE43DFDE43C12162507
:100F0700121648E054037036D3121638401AE529F2
:100F170024FFFFE52834FFFEE52734FFFDE52634EF
:100F2700FF121625F5268016E4C3121638700F1225
:100F3700164AA304F012164AA3A3741D804B121677
:100F47004AA3E4F012164AA3E0242CF8E6FF3395EF
:100F5700E0D3121672402412164AA3E0242CF8E6B6
:100F6700FB3395E0FAF9F81216CA99FDE5269812AF
:100F77001625121648A3E004F080C912164AA3E00A
:100F870004F012164AA3A3E529F0AA2AA92B7B018C
:010F97002237
:082B36001216527F0B021ED59E
:082B3E001216527F0C021ED595
:081DD3008B458A4689478D48C3
:101DDB00E4FDFCF54C754D08E54D154DAE4C700210
:101DEB00154C4E600FAF05AE04784512162EFD1242
:101DFB00165A80E4AF05AE04AD4812165AC006C0A1
:101E0B0007E54AAE497818CEC313CE13D8F9FDD0E7
:101E1B0007D00612165AC006C007E54AAE4978101D
:101E2B00CEC313CE13D8F9FDD007D006122AE0ACDF
:101E3B0006E549FD122AE0AC06AD4A122AE0AC06D3
:0A1E4B00AD4B12165A7F0D021ED592
:082564008F4E8B4F8A50895104
:10256C00E4FCF553755408FFFEAD4E8017E5541589
:10257C0054AE53700215534E600FAF05AE04784F36
:10258C0012162EFD12165A80E4AF05AE04AD52128F
:07259C00165A7F0E021ED546
:101D4B00E4F5197A28799A121DB37A28799A122810
:101D5B003E8F197A2879A1121DB37A2879A11228FE
:101D6B003E8F197A2879AA121DC37A2879AA1228CC
:101D7B003E8F197A2879B2121DC37A2879B21228AC
:101D8B003E8F197BFF7A2879B81223DD8E1F8F20A7
:101D9B00AF197E007BFF7A2879B812283E8F19EF96
:081DAB00FD7C007F01021ED542
:101DB3007BFF1223DD8E1F8F20AF197E007BFF2256
:101DC3007BFF1223DD8E1F8F20AF197E007BFF2246
:0A2AF8008F19E4FDFC7F02021ED5D9
:01001A0022C3
:0621CD008B198A1A891B20
:1021D300120373F51C90000112038CF51D9000028D
:1021E30012038C751F00F51E90000312038C251F2C
:1021F300F51FE4351EF51EAF1C1229D675F002EF4C
:102203009000D2120652E0651D60037F0022AB19D5
:10221300E51B2404F9E4351AFA851E24851F25AF2E
:042223001C121AB6B9
:012227002294
:022B5C008F19CF
:012B5E002254
:032B5F0002000071
:02193B008D1904
:10193D00E4F51DF51CF51BF51AF521F520F51FF540
:10194D001EF5228B238A248925E519C3940850039B
:10195D000219EC7A0079EF1219ED7A0079F7121964
:10196D00EDE4F52212162C121680F51AFC780812E9
:10197D0005EA12168D8C1A0522E522B403E612161D
:10198D002C121680F51AE4F52212162C121694F567
:10199D001EFC78081205EA1216A18C1E0522E522FE
:1019AD00B403E612162C121694F51EAF1DAE1CAD27
:1019BD001BAC1A752A00752BF7120DF2AF21AE2054
:1019CD00AD1FAC1E752A00752BEF120DF27C007D3C
:0F19DD00F77F01122B467C007DEFE4FF122B46B3
:0F19EC00227B01752A00752B08E4FD1227422289
:062B4D0090006CEFF02285
:062B530090006CE0FF227F
:041279008E118F1231
:10127D00E4F513F51474722512F58274003511F529
:10128D0083E0FD74732512F58274003511F583E04A
:10129D00751400F51374742512F58274003511F56B
:1012AD0083E02514F514E43513F51374702512F548
:1012BD008274003511F583E07F00FE74712512F5FF
:1012CD008274003511F583E02FFFE43EFE122B14DE
:1012DD00ED12066E12FD01130002132903132C04E7
:1012ED00138E05138E0613950813AD24000013B548
:0312FD00021D4B84
:10130000121662FF122B4DAF15122AF8E515700563
:10131000787A760122E515640160030213B512188C
:0813200077121C1CE4787AF638
:041328002202001A83
:10132C00E4F515F517F518F515AF157E00C3EF9517
:10133C0014EE95135073E5122FFDEE3511FC7477F6
:10134C002DF58274003CF583E0751800F517747860
:10135C002DF58274003CF583E02518F518EE351751
:10136C00F5171216B5E92FF9EE3AFA1221CD8F16B0
:10137C00E516B40103121C1CE51824042515F515FB
:02138C0080A738
:07138E00121662FF022B5C46
:1013950012166274762512F58274003511F583E014
:0813A500F516FDAF15022B5FE8
:0813AD001216B5AD1412193B34
:0113B5002215
:10002600020268E86480F8E933E83360110460F09E
:10003600ED33EC337009E8FCE9FDEAFEEBFF220440
:1000460060DED3EB9FEA9EE99DE8C2E78CF0C2F73B
:1000560095F0400CE8CCF8E9CDF9EACEFAEBCFFB07
:1000660012023385D0F05804700320D5B3E804702B
:10007600075002B2D502027292D5EC0460F7E4CCC6
:10008600C0E0C398F8603B94186008400DD0E0FBD0
:1000960002024AE4FBFAC9FC8028E830E406E4C917
:1000A600FBE4CAFCE830E305E4C9CACBFCE8540724
:1000B6006010F8C3E913F9EA13FAEB13FBEC13FC2F
:1000C600D8F130F52FC3E49CFCEF9BFFEE9AFEEDD2
:1000D60099FDD0E0FBEF4E4D4C701222DB0302027D
:1000E6006FEC2CFCEF33FFEE33FEED33FDED30E726
:1000F600EB02024AEF2BFFEE3AFEED39FDD0E0FBB4
:1001060050130BBB0003020272ED13FDEE13FEEF5C
:0801160013FFEC13FC02024A86
:10011E00020272EC5D046005E85904700302026885
:10012E00120233580460F6EC4860F2EC7004FDFEE7
:10013E00FF22C860DB2481C85009C39860025006B4
:10014E0002026F9850CAF582E9294B4A7005AB82BC
:10015E0002025E75F0007C1A7880C3EF9BEE9AED7A
:10016E0099400DC3EF9BFFEE9AFEED99FDE842F02C
:10017E00DC23ACF0D0E0FFD0E0FED0E0FDAB82207F
:10018E00E7101BEB60BAEC2CFCEF33FFEE33FEED09
:10019E0033FD02024AE803F830E705C0F075F000BF
:1001AE00EF2FFFEE33FEED33FD40B830E7C280AAED
:1001BE0075F020800E75F010800575F0087D007EBC
:1001CE00007F003392D530D5031205A2EC334010D8
:1001DE00EF33FFEE33FEED33FDEC33FCD5F0ED22C5
:0E01EE00E5F0247EA2D513CC92E7CDCEFF2201
:1001FC00EDD2E7CD33EC3392D524814006E4FFFEFB
:10020C00FDFC22FCE4CFCECDCC24E0501174FF8059
:10021C00EDC3CC13CCCD13CDCE13CECF13CF0470F6
:07022C00F030D5DE0205A24F
:10023300E9D2E7C933E833F892D5EDD2E7CD33EC11
:0702430033FC5002B2D5228A
:10024A00EC30E7100FBF000C0EBE00080DBD000415
:10025A000BEB6014A2D5EB13FCED92E7FD2274FFC1
:10026A00FCFDFEFF22E480F8A2D574FF13FC7D801A
:03027A00E480EF2E
:101CCB00020BA7E493A3F8E493A34003F68001F27D
:101CDB0008DFF48029E493A3F85407240CC8C3331A
:101CEB00C4540F4420C8834004F456800146F6DFE9
:101CFB00E4800B01020408102040809014E6E47E7F
:101D0B00019360BCA3FF543F30E509541FFEE493DD
:101D1B00A360010ECF54C025E060A840B8E493A3A4
:101D2B00FAE493A3F8E493A3C8C582C8CAC583CACF
:101D3B00F0A3C8C582C8CAC583CADFE9DEE780BE87
:0116120000D7
:10027D00E709F608DFFA8046E709F208DFFA803E63
:10028D0088828C83E709F0A3DFFA8032E309F60850
:10029D00DFFA8078E309F208DFFA807088828C83B8
:1002AD00E309F0A3DFFA806489828A83E0A3F6086C
:1002BD00DFFA805889828A83E0A3F208DFFA804C46
:1002CD0080D280FA80C680D4806980F2803380101D
:1002DD0080A680EA809A80A880DA80E280CA803386
:1002ED0089828A83ECFAE493A3C8C582C8CCC583FE
:1002FD00CCF0A3C8C582C8CCC583CCDFE9DEE780CE
:10030D000D89828A83E493A3F608DFF9ECFAA9F04C
:10031D00EDFB2289828A83ECFAE0A3C8C582C8CCA2
:10032D00C583CCF0A3C8C582C8CCC583CCDFEADEBB
:10033D00E880DB89828A83E493A3F208DFF980CC1D
:10034D0088F0EF60010E4E60C388F0ED2402B40416
:10035D000050B9F582EB2402B4040050AF232345BD
:06036D0082239002CD7313
:10037300BB010689828A83E0225002E722BBFE0288
:09038300E32289828A83E49322BB
:10038C00BB010CE58229F582E5833AF583E0225026
:10039C0006E92582F8E622BBFE06E92582F8E22270
:0D03AC00E58229F582E5833AF583E493228A
:1003B900BB010689828A83F0225002F722BBFE0123
:0203C900F3221D
:1003CB00F8BB010DE58229F582E5833AF583E8F068
:1003DB00225006E92582C8F622BBFE05E92582C814
:0203EB00F222FC
:1003ED00EF8DF0A4A8F0CF8CF0A428CE8DF0A42E24
:0203FD00FE22DE
:1003FF00BC000BBE0029EF8DF084FFADF022E4CCE2
:10040F00F875F008EF2FFFEE33FEEC33FCEE9DECAA
:10041F00984005FCEE9DFE0FD5F0E9E4CEFD22EDF0
:10042F00F8F5F0EE8420D21CFEADF075F008EF2F3A
:10043F00FFED33FD4007985006D5F0F222C398FD2B
:05044F000FD5F0EA22C8
:10045400C5F0F8A3E028F0C5F0F8E5821582700233
:060464001583E038F022D0
:0D046A00EF2BFFEE3AFEED39FDEC38FC22E1
:0E047700C3EF9BFFEE9AFEED99FDEC98FC2280
:10048500E88FF0A4CC8BF0A42CFCE98EF0A42CFC16
:100495008AF0EDA42CFCEA8EF0A4CDA8F08BF0A494
:1004A5002DCC3825F0FDE98FF0A42CCD35F0FCEBF3
:1004B5008EF0A4FEA9F0EB8FF0A4CFC5F02ECD39B8
:0F04C500FEE43CFCEAA42DCE35F0FDE43CFC2225
:1004D40075F008758200EF2FFFEE33FECD33CDCCDF
:1004E40033CCC58233C5829BED9AEC99E582984062
:1004F4000CF582EE9BFEED9AFDEC99FC0FD5F0D63F
:10050400E4CEFBE4CDFAE4CCF9A88222B800C1B968
:100514000059BA002DEC8BF084CFCECDFCE5F0CBA6
:10052400F97818EF2FFFEE33FEED33FDEC33FCEBDF
:1005340033FB10D703994004EB99FB0FD8E5E4F99A
:10054400FA227818EF2FFFEE33FEED33FDEC33FC87
:10055400C933C910D7059BE99A4007EC9BFCE99A7B
:10056400F90FD8E0E4C9FAE4CCFB2275F010EF2FC0
:10057400FFEE33FEED33FDCC33CCC833C810D707C0
:100584009BEC9AE899400AED9BFDEC9AFCE899F8FB
:0E0594000FD5F0DAE4CDFBE4CCFAE4C8F9228E
:0E05A200C3E49FFFE49EFEE49DFDE49CFC226A
:1005B000EB9FF5F0EA9E42F0E99D42F0EC6480C8C2
:0605C00064809845F02262
:1005C600EB9FF5F0EA9E42F0E99D42F0E89C45F08B
:0105D6002202
:1005D700E8600FECC313FCED13FDEE13FEEF13FF02
:0305E700D8F12226
:1005EA00E8600FEFC333FFEE33FEED33FDEC33FC6F
:0305FA00D8F12213
:0C05FD00E0FCA3E0FDA3E0FEA3E0FF2271
:0C060900E0F8A3E0F9A3E0FAA3E0FB2274
:0C061500ECF0A3EDF0A3EEF0A3EFF02258
:10062100A8828583F0D083D0821206381206381250
:100631000638120638E473E493A3C583C5F0C58375
:10064100C8C582C8F0A3C583C5F0C583C8C582C823
:010651002286
:0C065200A42582F582E5F03583F58322B3
:10065E00FAE6FB0808E6F925F0F618E6CA3AF6229D
:10066E00D083D082F8E4937012740193700DA3A31B
:10067E0093F8740193F5828883E47374029368602F
:06068E00EFA3A3A380DF2F
:00000001FF
