:03000000021F8458
:0C1F8400787FE4F6D8FD758182021FCB47
:1018A000045C000000004100690041009E0C410002
:1018B0009F404400960000000044007A00000000B1
:1018C00044007E000000004400B30000000044001B
:1018D000A3000000004400B90000000042008A009C
:1018E00001420078000041006F0041009400420076
:1018F000BE00004200700000410067084100A100E6
:101900004100C0000160000161004100B7004100DA
:1019100077004100820141008E0A4100A20041008F
:10192000A00A410093004100950042006D00004173
:1019300000680002810000027F000041006A00414F
:1019400000760041008D00410089004100660041A1
:101950000088004A00A9000000000000000000000C
:0519600042006B0000D5
:1029B7008E088F098B0A8A0B890CAF051DEF6026DD
:1029C7000509E509AE087002050814F5828E83E44F
:1029D70093FFAB0A050CE50CAA0B7002050B14F963
:0729E700EF120C3980D4222D
:10002600E4FDFCC3ED9FEC9E50070DBD00010C8066
:01003600F2D7
:0100370022A6
:102B40008F828E83E4F55FF55EF55DF55CAF82AE56
:102B500083E4FCFDAB5FAA5EA95DA85CC3120DD641
:082B6000500543BD1080E62280
:092C4C00E0FF7C2F122B687F646D
:102C5500E4FDFCC3ED9FEC9E50070DBD00010C800B
:012C6500F27C
:012C6600224B
:102C6700758E5190FE917401F0A37410F075BD5FDD
:072C770090FEA07420F02282
:102BDA00E490FE80F0758901758DFA758BCB43A858
:0E2BEA0008438840758CCB758AEB4388102217
:102A870090FF10E054F04408F090FF02E054F04447
:102A970002F0D28490FFA07420F0A37404F075CCE8
:102AA7000675CEFF75CD98759E0275981043A810D0
:012AB70022FC
:102C7E0043B40343B4807F147E0012002675B50161
:072C8E0090FE9B744BF02245
:102BF80090FF08E054F04408F090FF00E0540F44C0
:0C2C080030F090FF11E054F04403F02283
:102C140090007AE0FCA3E0FDA3E0FEA3E0FF120D28
:012C2400E7C8
:0B2C25008F99E59830E1FB5398FD22E9
:10277D008FB543B440E5B430E5FB53B4DF7F647EE1
:10278D0000120026E4FBFAF943B440E5B430E5FB52
:10279D0053B4DFE5B62BFBE5B73AFA7F147E001292
:1027AD00002609B910E275B501A9027F647E0012F9
:0427BD000026AF0142
:0127C10022F5
:1015F2007B017A0079A97D0A7F007E2F1229B7909C
:1016020000A9E0FFE4FCFDFE900072120E0D9000B6
:1016120072E0FCA3E0FDA3E0FEA3E0FF7808120D58
:10162200FA900072120E0D900072E0F8A3E0F9A396
:10163200E0FAA3E0FB9000AAE0FFE4FCFDFEEB2F42
:10164200FFEE3AFEED39FDEC38FC900072120E0D01
:10165200900072E0FCA3E0FDA3E0FEA3E0FFE47BC8
:10166200E87A03F9F8120C95900072120E0DE47FDD
:10167200307E75FDFC900072E0F8A3E0F9A3E0FA79
:10168200A3E0FBC3120DD640177F007E097D3D7C8F
:1016920000900072E0F8A3A3A3E0D3120DD6400A93
:1016A200900072120E1900009C409000ABE0900076
:1016B200BDF0700280079000BDE0B4FE0374FFF03D
:1016C2009000ACE0FF900090E4F0A3EFF0E0F8E4CB
:1016D200F0E8900090F09000ADE0FF900091E02FD4
:1016E200F0900090E03400F0E0FEA3E0FF4E6009CD
:1016F200D3EF9408EE94074009900090E4F0A374AD
:1017020005F09000AEE090008EF0900095F0900011
:10171200AFE0900083F06006E0D394FF40069000B3
:10172200837401F09000B0E05401900082F07B01DC
:101732007A00796B7D027F807E2F1229B790006B31
:10174200E0900093F090006CE0900088F0121CEAA8
:0A175200900088E07003122CAC2216
:10003E00E560600302095243B440E5B430E5FB537A
:10004E00B4DF85B70885B609900079E004F0700634
:10005E00900078E004F09000B9E0F8A3E0F9A3E096
:10006E00FAA3E0FBE4FCFDEB2509FFEA3508FEED03
:10007E0039FDEC38FC9000B9120E0D9000A7E0FE91
:10008E00A3E0FFC39509EE9508500DC3E5099FF552
:10009E0009E5089EF508800BC3EF9509F509EE9565
:1000AE0008F50890007EE0F8A3E0F9A3E0FAA3E0DB
:1000BE00FBE4FCFDEB2509FFEA3508FEED39FDEC0E
:1000CE0038FC90007E120E0D900078E05401FEA3D5
:1000DE00E04E7061D39000BFE094009000BEE094BB
:1000EE000040179000A0E094645042E02402F0E03B
:1000FE00D3946440387464F08033900070E07004E0
:10010E00A3E06401702F90008EE0FF9000A0E0FE4F
:10011E00D39F4019EE94024004E024FEF09000A01C
:10012E00E0C39F500890008EE09000A0F09000A0D9
:10013E00E0FF122AB8C3900078E094205003020921
:10014E009D43BD10E4F0A3F09000A1E004F09000F8
:10015E00A3E0FCA3E0FDA3E0FEA3E0FF9000B9E066
:10016E00F8A3E0F9A3E0FAA3E0FBEF2BFFEE3AFED3
:10017E00ED39FDEC38FC9000A3120E0D9000A1E0BD
:10018E00C394084043E4F09000A3E0FCA3E0FDA379
:10019E00E0FEA3E0FF7810120DE79000A3120E0D03
:1001AE009000A3A3A3E0FEA3E0FF9000A8E02FF031
:1001BE009000A7E03EF0E0C313F0A3E013F0900030
:1001CE00A3120E1900000000900067E0C3940850BF
:1001DE0005E004F080569000BEE07002A3E0704C83
:1001EE007F0A12277D90008FEFF09000B8E0FE247A
:1001FE0002FDE433FCEFD39DEC6480F874809850DC
:10020E001E90008FE02402FDE433FCEED39DEC64DF
:10021E0080F874809850089000B8E090008FF090AD
:10022E00008FE09000B8F0E4900067F0E4FFFEFD70
:10023E00FC90007AE0F8A3E0F9A3E0FAA3E0FBC398
:10024E00120DD6704F90007EE0FCA3E0FDA3E0FE01
:10025E00A3E02488FFEE3413FEE43DFDE43CFC9065
:10026E00007A120E0D90008AE07002A3E070257FD6
:10027E00407E427D0FFC90007AE0F8A3E0F9A3E007
:10028E00FAA3E0FBD3120DD6400A90007A120E1993
:10029E00000F4240900069E0701E90007EE0FCA3CB
:1002AE00E0FDA3E0FEA3E0FF900096120E0D90007D
:1002BE0084120E1900000001900084E0FCA3E0FD02
:1002CE00A3E0FEA3E0FF90007EE0F8A3E0F9A3E038
:1002DE00FAA3E02FFFEA3EFEE93DFDE83CFC90006C
:1002EE0096E0F8A3E0F9A3E0FAA3E0FBC3120DD663
:1002FE0040030206C4900084E0FCA3E0FDA3E0FEF0
:10030E00A3E0FF900096E0F8A3A3A3E02FFFEA3E40
:10031E00FEE93DFDE83CFC90007EE0F8A3E0F9A389
:10032E00E0FAA3E0FBC3120DD640030206C4900010
:10033E0069E004F09000B3E0FCA3E0FDA3E0FEA3AF
:10034E00E0FF90007EE0F8EF2BFFEE3AFEED39FD78
:10035E00EC38FC9000B3120E0D900069E0FBE4FA4D
:10036E00F9F89000B3E0FCA3E0FDA3E0FEA3E0FFEC
:10037E00120D20900096120E0D900096E0FCA3E058
:10038E00FDA3E0FEA3E0FF7803120DE790008412B8
:10039E000E0DE47F207E4EFDFC900084E0F8A3E07D
:1003AE00F9A3E0FAA3E0FBC3120DD6500A90008425
:1003BE00120E1900004E20E47F607EEAFDFC9000D4
:1003CE0084E0F8A3E0F9A3E0FAA3E0FBD3120DD684
:1003DE00400A900084120E190000EA60900096E028
:1003EE00FCA3E0FDA3E0FEA3E0FF90007AE0F8A3FB
:1003FE00E0F9A3E0FAA3E0FBD3120DD64073900010
:10040E0096E0F8A3E0F9A3E0FAA3E0FB90007AE00F
:10041E00FCA3E0FDA3E0FEA3E09BFFEE9AFEED99A8
:10042E00FDEC98FC9000B9120E0D7F807E387D0198
:10043E007C009000B9E0F8A3E0F9A3E0FAA3E0FB9A
:10044E00D3120DD6400890009E7406F08029E47FEA
:10045E00407E9CFDFC9000B9E0F8A3E0F9A3E0FA21
:10046E00A3E0FBD3120DD690009E40087409F080D5
:10047E000690009E740CF090009EE0FF900069E0E4
:10048E00C39F500302055C90007AE0FCA3E0FDA33D
:10049E00E0FEA3E0FF900096E0F8A3E0F9A3E0FAF7
:1004AE00A3E0FB120DD6400302055C90009FE09482
:1004BE001050030206D390009EE0D3940950109082
:1004CE000096E0FCA3E0FDA3E0FEA3E0FF807690A3
:1004DE000096E0FCA3E0FDA3E0FEA3E024A0FFEE67
:1004EE00340FFEE43DFDE43CFC90007AE0F8A3E01E
:1004FE00F9A3E0FAA3E0FBD3120DD650030206C413
:10050E0090007AE0FCA3E0FDA3E0FEA3E0FF9000E4
:10051E0096E0F8A3E0F9A3E0FAA3E0FBEF2BFFEEE1
:10052E003AFEED39FDEC38FC90007A120E0D90007B
:10053E007AE0FCA3E0FDA3E0FEA3E0FFE47B02FA79
:10054E00F9F8120D2090007A120E0D0206C49000DA
:10055E009FE0FF900069E0C39F50030206D3900016
:10056E007AE0FCA3E0FDA3E0FEA3E024A0FFEE34BE
:10057E000FFEE43DFDE43CFC900096E0F8A3E0F9AC
:10058E00A3E0FAA3E0FBD3120DD650030206B490FB
:10059E00007AE0F8A3E0F9A3E0FAA3E0FB9000965E
:1005AE00E0FCA3E0FDA3E0FEA3E09BFFEE9AFEEDD0
:1005BE0099FDEC98FC9000B9120E0D7F007E127D15
:1005CE007A7C00900096E0F8A3E0F9A3E0FAA3E0AD
:1005DE00FBC3120DD640030206B47F807E1A7D0641
:1005EE007C009000B9E0F8A3E0F9A3E0FAA3E0FBE9
:1005FE00C3120DD640030206B490009FE094104043
:10060E000280587FE07E937D047C009000B9E0F874
:10061E00A3E0F9A3E0FAA3E0FBD3120DD6400890B5
:10062E00009F7410F080277FF07E497D027C009041
:10063E0000B9E0F8A3E0F9A3E0FAA3E0FBD3120DB2
:10064E00D690009F4005740CF080037408F0900063
:10065E009FE0FF900069E0C39F404B90007AE0FC62
:10066E00A3E0FDA3E0FEA3E0FF900096E0F8A3E078
:10067E00F9A3E0FAA3E0FBEF2BFFEE3AFEED39FD16
:10068E00EC38FC90007A120E0D90007AE0FCA3E09C
:10069E00FDA3E0FEA3E0FFE47B02FAF9F8120D20C1
:1006AE0090007A120E0D90009FE0FF900069E0C35B
:1006BE009F4012E48004E4900069F09000B3120EA3
:1006CE001900000000900094E0D39400500302073C
:1006DE0067E014F090009AE0FCA3E0FDA3E0FEA317
:1006EE00E02470FFEE3417FEE43DFDE43CFC900088
:1006FE007AE0F8A3E0F9A3E0FAA3E0FBD3120DD65B
:10070E0050030208BD90009AE0FCA3E0FDA3E0FEBA
:10071E00A3E02498FFEE343AFEE43DFDE43CFC9069
:10072E00007EE0F8A3E0F9A3E0FAA3E0FBC3120D0C
:10073E00D640030208BD90009AE0FCA3E0FDA3E0C2
:10074E00FEA3E02470FFEE3417FEE43DFDE43CFC16
:10075E0090007A120E0D0208BDD390008BE094002B
:10076E0090008AE094005003020828A3E024FFF0D2
:10077E0090008AE034FFF0D3A3E0940090008AE06A
:10078E00940050030208287F007E127D7A7C009030
:10079E00007AE0F8A3E0F9A3E0FAA3E0FBD3120D90
:1007AE00D6400C900072120E19000C3500806B9022
:1007BE000072E0FCA3E0FDA3E0FEA3E0FF90007A50
:1007CE00E0F8A3E0F9A3E0FAA3E02FFFEA3EFEE98A
:1007DE003DFDE83CFC9000B9120E0D7F407E547D2D
:1007EE00897C009000B9E0F8A3E0F9A3E0FAA3E059
:1007FE00FBD3120DD6402390007AE0F8A3E0F9A3C4
:10080E00E0FAA3E0FB74409BFF74549AFE7489993E
:10081E00FDE498FC900072120E0D900072E0FCA3A5
:10082E00E0FDA3E0FEA3E0FF90007AE0F8A3E0F97C
:10083E00A3E0FAA3E02FFFEA3EFEE93DFDE83CFC13
:10084E00A3E0F8A3E0F9A3E0FAA3E0FBD3120DD6E0
:10085E00405D9000BDE0FF90008FE0D39F400FD32E
:10086E0090008BE0940090008AE09400404190004C
:10087E00BEE07002A3E0701490007AE0FCA3E0FDED
:10088E00A3E0FEA3E0FF90009A120E0D9000BEE4CE
:10089E00F0A304F0900089F090009F7408F0E490AB
:1008AE000070F0A3F07881F608F6787FF608F690DF
:1008BE0000A7E0C4F854F0C8A3E0C4540F48FF12D8
:1008CE002C2590008FE0FF122C257810122C147816
:1008DE0008122C14A3E0FCA3E0FDA3E0FEA3E0FFAE
:1008EE007810120DE7122C2590007EE0FCA3E0FD9F
:1008FE00A3E0FEA3E0FF7808120DE7122C2590006E
:10090E00B9120E190000000090007E120E190000A0
:10091E0000009000BEE0FEA3E0FFD39400EE940032
:10092E00406D900090E0FCA3E0FDD3EF9DEE9C4067
:10093E005EE49000BEF0A3F0756001900089F09027
:10094E000066F022900070E4F0A304F0E4F56090ED
:10095E00006DF0A3F0900068F07FFAFE122B40902D
:10096E0000A3120E1900000000E49000A1F0900008
:10097E009F7440F09000947402F09000677406F03B
:0F098E00E4900069F09000B3120E190000000011
:01099D002237
:10212500E4F5099000B9120E1900000000E4F50865
:1021350043B440E5B430E5FB53B4DF9000B9E0F8B3
:10214500A3E0F9A3E0FAA3E0FBAFB6AEB7E4FCFD6C
:10215500EB2FFFEA3EFEED39FDEC38FC9000B9129D
:102165000E0D0508E508B480C77F907E01122B404F
:102175009000B9E0FCA3E0FDA3E0FEA3E0FF780B2F
:10218500120DE78F08E508D3940C400CE508948DF3
:102195005006E5099414500A0509E509D394504001
:0221A500822294
:0121A7002215
:10222B009000B9120E1900000000E4F508E4F50B5C
:10223B00F50C43B440E5B430E5FB53B4DF85B70987
:10224B0085B60A9000B9E0F8A3E0F9A3E0FAA3E0A1
:10225B00FBE4FCFDEB250AFFEA3509FEED39FDEC4D
:10226B0038FC9000B9120E0D050CE50C7002050B35
:10227B00B400BFE50BB420BA43BD100508E508B4A4
:10228B0008AB9000B9E0FCA3E0FDA3E0FEA3E0FFE8
:0D229B007810120DE79000A7EEF0A3EFF011
:0122A8002213
:102AB8007E007C007DFF120C6DAC06AD07E4120AA7
:102AC80043E4FBFA79C878421209A1120A7C90FF04
:0E2AD8009C7410F075DEFF8FDF75DD947F00BB
:012AE60022CD
:1010F500120003122C67122BF87F64122AB8122BE8
:10110500DA122A87122C7E75BBAA90FEA774FFF00F
:1011150053BBF7D2AF7FC87E00122B407F64122AE3
:10112500B89000B77401F07F0A12277D90008FEF09
:10113500F09000B8F0C2AF1215F2900093E004F001
:101145007F807E2F122BB57F107E27122C559000A5
:1011550093E0FF7D807C2F122B687F647E00122C2C
:1011650055D2AF12212590008EE0FF9000A0F0121D
:101175002AB87F2C7E01122B4012222B9000B91227
:101185000E1900000000900093E0C394034005E4AD
:10119500F012001E43BD10E560700B900079E0541D
:1011A5001F70031212C1900082E0640160030212F5
:1011B5006BE561703DF56075610190008EE0900012
:1011C500A0F09000A3120E1900000000E49000A109
:1011D500F090009F7440F09000947402F0900067C6
:1011E5007406F0E4900069F09000B3120E19000047
:1011F500000012003ED3900071E09400900070E072
:1012050094004032900068E0B4012BE4F090007146
:10121500E004F07006900070E004F0900083E0FFB9
:10122500C3900071E09F900070E094004008E4F0E6
:10123500A3F0FF122AB8D39000BFE094009000BE3F
:10124500E0940040187880E664011846700FF608AF
:10125500F6A3E004F070069000BEE004F090008D67
:10126500E0640102118BE4F561900077E07007FFFF
:10127500122AB802118B900095E0FF122AB8E4F506
:101285006090008EE09000A0F09000A3120E19006F
:10129500000000E49000A1F090009F7440F09000E1
:1012A500947402F09000677406F0E4900069F09081
:0C12B50000B3120E190000000002118BA3
:03001B00021D9E25
:101D9E00C0E0C0F0C083C082C0D075D000C000C00B
:101DAE0001C002C003C004C005C006C007AF5FAECD
:101DBE005EAD5DAC5CEF2401F55FE43EF55EE43DA7
:101DCE00F55DE43CF55C90006EE004F0700690006A
:101DDE006DE004F090006DE0FEA3E0FFE4FCFD7BFF
:101DEE00607AEAF9F8D3120DC0500C90006DE4F051
:101DFE00A3F090006804F0788206E618700106C31E
:101E0E007882E694E818E69403401190006A740113
:101E1E00F07600087600787F760008F6D007D006B8
:101E2E00D005D004D003D002D001D000D0D0D082C3
:071E3E00D083D0F0D0E032A8
:030023000226AA08
:1026AA00C0E0C0F0C083C082C0D075D000C000C0F6
:0D26BA0001C002C003C004C005C006C00777
:0F26C700E59830E00AAF991229015398FED2AF7F
:1026D600D007D006D005D004D003D002D001D00058
:0B26E600D0D0D082D083D0F0D0E03202
:03003B000200219F
:0100210032AC
:102BB50053BBF7C280E5BB20E3F6D280C2AF75FDFB
:102BC500F075FC0F8EFA8FF975FDD275FC2D75FD2C
:052BD500E175FC1E2269
:102B680053BBF7C280E5BB20E3F6D280C2AF8FFB30
:102B780075FDF075FC0F8CFA8DF975FDB475FC4B7D
:072B880075FDE175FC1E2242
:101CEA007F007E2F122BB57F107E27122C55E47BA6
:101CFA00E87A03F9F8900072E0FCA3E0FDA3E0FEA5
:101D0A00A3E0FF120D207808120DE77D007C2F1248
:101D1A002B687F647E00122C55E47BE87A03F9F87D
:101D2A00900072E0FCA3E0FDA3E0FEA3E0FF120D29
:101D3A00207D017C2F122B687F647E00122C559027
:101D4A0000BD7D02122C4C9000907D03122C4CA3F6
:101D5A00E0FF7D04122C4E90008EE0FF7D05122CD0
:101D6A004E900083E0FF7D06122C4E900082E0FF29
:101D7A007D07122C4E7F807E2F122BB57F107E2777
:101D8A00122C557D807C2FE4FF122B680D0F122B2D
:031D9A0068D2AF5D
:011D9D002223
:04196500027D0000FF
:10239600EFC39430400CEFD39439500674D02FFF1E
:1023A6008022EFC39441400CEFD394465006EF24AD
:1023B600C9FF8010EFC39461400AEFD394665004BE
:1023C600EF24A9FFEF540FC454F0FFEDC39430403F
:1023D6000CEDD39439500674D02DFD801EEDC394B8
:1023E600414008EDD394465002800CEDC394614001
:1023F6000AEDD394665004ED24A9FDED540F42076F
:0124060022B3
:062519008B198A1A891BD0
:10251F00E4F51FF51EF51DF51CE94A4B7005FFFE8E
:10252F00FDFC22E4F51FF51EF51DF51CAB19051B6F
:10253F00E51BAA1A7002051A14F9120BF36017E5BE
:10254F001F2401F51FE4351EF51EE4351DF51DE4AE
:0E255F00351CF51C80D6AF1FAE1EAD1DAC1C8A
:01256D00224B
:0628C4008B258A268927FE
:1028CA008B2B8A2C892DE94A4B7004FBFAF922E5F5
:1028DA002A152AAE29700215294E6014AB2B052D34
:1028EA00E52DAA2C7002052C14F9ED120C3980DFA3
:0628FA00AB25AA26A92768
:0129000022B4
:061B58008B208A21892286
:101B5E008B288A29892A85232B85242C85252DE9F6
:101B6E004A4B6008E5254524452370077B007A0023
:101B7E00790022D3852C83852D82E52A9582E5294D
:101B8E0095834019E52D2527F9E52C3526FA8A830C
:101B9E008982D3E52A9582E52995834038E4F52E8E
:101BAE00F52FC3E52F9527E52E95265067AB2BAA6B
:101BBE002CA92D852F82852E83120C0CAB28AA29D9
:101BCE00A92A852F82852E83120C4B052FE52F70A7
:101BDE00D1052E80CD85262E85272FD3E52F940077
:101BEE00E52E9400402EAB2BAA2CA92DE52F24FF19
:101BFE00FFE52E34FFFE8F82F583120C0CAB28AA64
:101C0E0029A92A8F828E83120C4BE52F152F70CBAC
:0A1C1E00152E80C7AB20AA21A922D1
:011C28002299
:062660008B3B8A3C893D22
:102666008B418A428943AB3EAA3FA940120BF360D5
:10267600220540E5407002053F14F9120BF3FFAB4B
:102686003B053DE53DAA3C7002053C14F9EF120CF2
:102696003980D3AB3BAA3CA93DE4120C39AB41AA25
:0326A60042A94303
:0126A900220E
:102467008B628A638964AB62AA63A964120BF3FF68
:102477006026AB65AA66A967120BF3601BB5071840
:1024870074012564F564E43563F56374012567F524
:1024970067E43566F56680CEAB65AA66A967120B59
:1024A700F3FF3395E0FEAB62AA63A964120BF3FD59
:0C24B7003395E0FCC3ED9FFFEC9EFE227D
:1027C2008F7C8E7B8D7A8C797818120DE7EF120C44
:1027D20039AF7CAE7BAD7AAC797810120DE7900000
:1027E20001EF120C4BAF7CAE7BAD7AAC797808125C
:1027F2000DE7900002EF120C4BE57CFF900003EF17
:03280200020C4B7A
:101E4500E4F52FF52EF52DF52C120BF3FFE48F2F6E
:101E5500F52EF52DF52CAE2EAD2DAC2C7808120DEA
:101E6500FA8F2F8E2E8D2D8C2C900001120C0CFFCD
:101E7500E52F4FF52FE52EF52EE52DF52DE52CF566
:101E85002CAF2FAE2EAD2DFC7808120DFA8F2F8EAC
:101E95002E8D2D8C2C900002120C0CFFE52F4FF58A
:101EA5002FE52EF52EE52DF52DE52CF52CAF2FAED6
:101EB5002EAD2DFC7808120DFA8F2F8E2E8D2D8CC0
:101EC5002C900003120C0CFFE52F4FF52FE52EF596
:101ED5002EE52DF52DE52CF52CAF2FAE2EAD2DFCD9
:011EE50022DA
:102CBE00E4FDFCFFFE122C38AC06AD077F030222AA
:012CCE00A95C
:102CAC00E4FDFCFFFE0D122C38AC06AD077F0302D1
:022CBC0022A94B
:0826F1008F688B698A6A896B0E
:1026F900E4FCFFFEAD68122C38AC06E4FD122C3860
:10270900AC06E56CFD122C38AC06AD6D122C38AC5C
:1027190006AD07AB69AA6AA96B856C1E856D1F1288
:0D2729002981AC06AD077F061222A97F01B1
:012736002280
:042805008D26AB076A
:10280900E4FCFFFEAD03122C38AC067D01122C3816
:10281900AC06E4FD122C38AC067D01122C38AC064E
:10282900AD07E5267003FD8006AF05AE047D0112F4
:0D2839002C38AC06AD077F061222A97F01E6
:01284600226F
:02209C00AB0790
:10209E00E4FCFFFEAD03122C38AC067D02122C3888
:1020AE00AC06E4FD122C38AC067D04122C38C006AA
:1020BE00C007AF2EAE2DAD2CAC2B7818120DE7ADA0
:1020CE0007D007D006122C38C006C007AF2EAE2D93
:1020DE00AD2CAC2B7810120DE7AD07D007D0061241
:1020EE002C38C006C007AF2EAE2DAD2CAC2B780809
:1020FE00120DE7AD07D007D006122C38AC06C0077C
:10210E00E52EFFE4AD07D007122C38AC06AD077FE5
:06211E00061222A97F0158
:012124002298
:082737008F6E8B6F8A708971AF
:10273F00E4FCFFFEAD6E122C38AC067D03122C3874
:10274F00AC06E572FD122C38AC06AD73122C38AC0A
:10275F0006AD07AB6FAA70A97185721E85731F1224
:0D276F002981AC06AD077F061222A97F016B
:01277C00223A
:0429EE008D26AB0780
:1029F200E4FCFFFEAD03122C38AC067D04122C3829
:102A0200AC06E4FD122C38AC067D01122C38AC0663
:102A1200AD26122C38AC06AD077F061222A97F0123
:012A22002291
:02198E00AB07A5
:10199000900000AF82AE83AD03122C388E838F820D
:1019A0007D05122C388E838F82E4FD122C388E83B5
:1019B0008F8274FFFFE577FEE576FDE575FCE47B3D
:1019C000FFFAF9F8C3120DD67012AF82AE837D0113
:1019D000122C388E838F82AD78021A6874FFFFFE56
:1019E000E576FDE575FCE47BFF7AFFF9F8C3120D9F
:1019F000D6AF82AE8370047D02803E7D04122C3807
:101A00008E838F82C006C007AF78AE77AD76AC7597
:101A10007818120DE7AD07D007D006122C388E8348
:101A20008F82C006C007AF78AE77AD76AC75781000
:101A3000120DE7AD07D007D006122C388E838F82A7
:101A4000C006C007AF78AE77AD76AC757808120DDA
:101A5000E7AD07D007D006122C388E838F82C007DF
:101A6000E578FFE4AD07D007122C388E838F82AD66
:0A1A700082AC837F061222A97F01D9
:011A7A002249
:082CFF008C268D27120BF3FF58
:012D070022A9
:082D08008C268D27120BF3FF4E
:012D100022A0
:072D23008C2A8D2B121E45C6
:012D2A002286
:10000300754F017550007551437552017553007555
:080013005443E4F54DF54E22C3
:10290100C3E54E9421E54D94005031C3900064E538
:10291100519582E55095834009754F0175500075B9
:102921005143AB4F0551E551AA507002055014F9BE
:0D293100EF120C39054EE54E7002054D22E7
:1012C100E4F508F509F50AF50BF50CF50DF50E75C4
:1012D1000F09C3E57E9421E57D94005027122CCFA0
:1012E100D3EF9400EE9400401B122886057EE57E24
:1012F100AC7D7002057D142401F58274003CF583F8
:10130100EFF080CEC3E57E9409E57D9400500302A1
:101311001475C3E57E9509FDE57D9508FCC3ED9443
:1013210009EC9400500302141874012509F5827424
:10133100003508F583E06455600A0509E50970D2B6
:10134100050880CE74022509F58274003508F583FD
:10135100E064AA600A0509E50970B7050880B3745D
:10136100032509F58274003508F583E0750C00F555
:101371000D6402450C60047402803C74072509F574
:101381008274003508F583E0750B00F50A740825B1
:1013910009F58274003508F583E02409FFE433FE82
:1013A100EF250BF50BEE350AF50AD3E50B942AE58B
:1013B1000A9400400974032509F509E48052C3ED3C
:1013C100950BEC950A405074012509F97400350814
:1013D100FA7B01E50B24FFFDE50A34FFFC122A55D7
:1013E100E509250BFDE508350AFC74002DF582742D
:1013F100003CF583E06F600974032509F509E48079
:101401000FAF09AE08121476E50B2509F509E50AB7
:101411003508F508021313C3E57E9509F57EE57DD0
:101421009508F57DD3E57E9400E57D94004045E582
:101431000945087020E57E9421E57D94004016055C
:1014410009E50970020508E57E9509F57EE57D95BA
:1014510008F57D800074012509F9740035087523AC
:1014610001F5248925857D26857E277B017A0079F2
:0414710001121B58F1
:011475002254
:101969004100C5004400C1000000005200C6010149
:101979000302650466026701680269027101720166
:03001E00022CAC05
:03003800022C2572
:101C2900900000E0FD7F01122805900077E0FD7F1C
:101C39007112280590008EE0FFE48F2EF52DF52C0A
:101C4900F52B7F0312209C9000BDE0FFB4FF05E453
:101C5900F518801EEFB4C8057518028015EFB42871
:101C690005751803800CEFB4140575180480037505
:101C79001805AD187F651229EE900090E0FEA3E0EB
:101C8900FFE48F2E8E2DF52CF52B7F6612209C906C
:101C99000082E0FD7F67122805900083E0FFE48F52
:101CA9002EF52DF52CF52B7F6812209CE47B107AFC
:101CB90027F9F8900072E0FCA3E0FDA3E0FEA3E0A1
:101CC900FF120D20C374329FFFE48F2EF52DF52CE2
:101CD900F52B7F6912209C90008DE0FD7F72022810
:011CE90005F5
:102C9500122CFF900000EFF0FD7F01122805BF0107
:062CA500037F01227F0005
:012CAB002206
:1025C100122D238F298E288D278C2690008EE0FFD7
:1025D100E4FCFDFEAB29AA28A927A826C3120DD623
:1025E1006006E4FF0FBF08FCAF2990008EEFF0906A
:1025F1000095F0121CEA90008EE0FFE48F2EF52D7D
:10260100F52CF52B7F0312209CBF01037F01227F54
:0126110000C8
:0126120022A5
:10232000122D089000C5E0B5070FBF05129000BD43
:10233000E0FE90008FE06E8006E4FE0EBE08FCEF2B
:1023400014601014601514601A14601F14602424A3
:102350000570289000BD74FFF080209000BD74C807
:10236000F080189000BD7428F080109000BD7414A7
:10237000F0800890008FE09000BDF09000C5EFF075
:10238000121CEA9000C5E0FD7F651229EEBF010333
:052390007F01227F0027
:012395002225
:1024C300122D238F298E288D278C26900090E0FED5
:1024D300A3E0FFE4FCFDAB29AA28A927A826C31281
:1024E3000DD66006E4FF0FBF08FC900090E528F0CE
:1024F300A3E529F0121CEA900090E0FEA3E0FFE4BC
:102503008F2E8E2DF52CF52B7F6612209CBF010399
:052513007F01227F00A2
:0125180022A0
:102A2300122CFF900082E06F6006E4FE0EBE08FCED
:102A3300EF9000827003F080037401F0121CEA909F
:102A43000082E0FD7F67122805BF01037F01227F1B
:012A53000082
:012A5400225F
:10261300122D238F298E288D278C26900083E0FF8F
:10262300E4FCFDFEAB29AA28A927A826C3120DD6D0
:102633006006E4FF0FBF08FC900083E529F0121C3D
:10264300EA900083E0FFE48F2EF52DF52CF52B7F28
:0C2653006812209CBF01037F01227F0061
:01265F002258
:1021A800122D238F298E288D278C269000C1E0FCC4
:1021B800A3E0FDA3E0FEA3E0FFAB29AA28A927A876
:1021C80026C3120DD66006E4FF0FBF08FCAF29AE88
:1021D80028AD27AC269000C1120E0DC37432952984
:1021E800FFE49528FEE49527FDE49526FCE47B10A2
:1021F8007A27F9F8120C95900072120E0D121CEA4B
:102208009000C1E0FCA3E0FDA3E0FEA3E0F52E8E64
:102218002D8D2C8C2B7F6912209CBF01037F0122FE
:022228007F0035
:01222A002291
:10284700122CFF900077E06F6006E4FE0EBE08FCD6
:10285700EF7006900077F08013900082E0B40106D5
:102867009000897401F09000777401F0900077E090
:0E287700FD7F71122805BF01037F01227F0043
:012885002230
:102B1400122CFFAD0790008DE06D6006E4FF0FBF3F
:102B240008FCED90008D7003F080037401F07F7257
:0B2B3400122805BF01037F01227F0073
:012B3F002273
:022D2B008F25F2
:042D2D008C268D273C
:012D3100227F
:061A7B008B208A21892264
:101A8100E4F525EF120E4A1AA7011AD6031AE565E5
:101A91001AF4661B03671B12681B21691B30711B3B
:101AA1003F7200001B50AB20AA21A922AD24AC2318
:101AB100122C958F25E52564016003021B559000CA
:101AC100A2E004F0E0C394055003021B55E4F012B8
:101AD100001E021B55AB20AA21A922AD24AC231262
:101AE10025C18067AB20AA21A922AD24AC231223F2
:101AF100208058AB20AA21A922AD24AC231224C3F3
:101B01008049AB20AA21A922AD24AC23122A23802B
:101B11003AAB20AA21A922AD24AC23122613802B93
:101B2100AB20AA21A922AD24AC231221A8801CAB91
:101B310020AA21A922AD24AC23122847800DAB2075
:101B4100AA21A922AD24AC23122B148F258000E4F5
:061B51009000A2F0AF2598
:011B5700226B
:032D3E007F0922E8
:102AE7007B2270223A2200726C376677713332008C
:102AF700222C2276223A2200312E302E3000227DDF
:0D2B0700001F1C1F1E1F1E1F1F1E1F1E1F54
:041989004100000019
:092D1100900064EEF0A3EFF02243
:092D1A00900064E0FEA3E0FF223A
:082C3000AB07E4FCFFFEAD035D
:102C3800742A2FF974003EFA7B01ED120C390FBF8C
:032C480000010E7A
:012C4B002266
:06297B00AF187E007BFF97
:0A2981008E198F1A8B1B8A1C891D0A
:10298B00742A2FF974003EFA7B01851B23851C24C6
:10299B00851D25851E26851F27121B58E51F251A09
:0B29AB00F51AE51E3519F519FEAF1AEC
:0129B60022FE
:10293E008B318A3289338C348D35E94A4B602DE5E3
:10294E003545346027E5351535AE34700215344EF5
:10295E00601AAB31AA32A933120BF3FF120038748E
:0D296E00012533F533E43532F53280D922EE
:0A2A55008B318A3289338C348D35C1
:102A5F00E4FFFDFCC3ED9535EC9534501AAB310511
:102A6F0033E533AA327002053214F9120BF32FFF3C
:072A7F000DBD00010C80DD1C
:012A8600222D
:0622A9008C2F8D30AB0705
:1022AF00E4FF122D1AAD07AC069000227455F0A36F
:1022BF0074AAF0A37402F0AF04A3EFF0AF05EFA37D
:1022CF00F0A3EBF0E52FA3F0E530A3F00DBD000177
:1022DF000CAF05AE04122D1174092530F530E4351D
:1022EF002FF52F7B017A007922E53024FFFDE52FB2
:1022FF0034FFFC122A5574212530F5827400352FD6
:10230F00F583EFF07B017A007922AD30AC2F0229F3
:01231F003E7F
:022B8F008F1F96
:102B9100122D3EE4FEEEC39F501775F002EEA42401
:102BA100C6F582E5F03400F583E0651F60030E8011
:032BB100E4AF0688
:012BB40022FE
:0E2CCF00E54E454D7003120003AE4DAF4E2290
:10288600E4FFD3E54E9400E54D940040309000649B
:10289600E5549582E55395834009755201755300B9
:1028A600755443AB520554E554AA537002055314AC
:0D28B600F9120BF3FFE54E154E7002154DA3
:0128C30022F2
:080E70008F288E278D268C25AA
:100E7800782B7C007D007BFF7A2B79087E007F0C25
:100E8800120BCDE4F537F538F539F53AFFFEFDFCE0
:100E9800AB28AA27A926A825C3120DD66006E52ADD
:100EA800452970077B007A00790022E47B3CFAF937
:100EB800F8AF28AE27AD26AC25120D20AF03E52AE2
:100EC8002406F582E43529F583EAF0A3EFF0AF288C
:100ED800AE27AD26AC25E47B3CFAF9F8120D208F3D
:100EE800288E278D268C25E47B3CFAF9F8120D20F4
:100EF800E52A2405F582E43529F583EBF0AF28AE21
:100F080027AD26AC25E47B3CFAF9F8120D208F2892
:100F18008E278D268C25E47BF87A88F9F8120D2027
:100F28008E378F38E5387802C333CE33CED8F924DC
:100F3800B2FFEE3407852A82852983F0A3EFF0AF4C
:100F480028AE27AD26AC25E47BF87A88F9F8120D8F
:100F580020AC00AD01AE02AF038F288E278D268C02
:100F680025753922753A38852A82852983A3E05464
:100F780003700B7418253AF53AE43539F539AE396A
:100F8800AF3AE4FCFDAB28AA27A926A825C3120D71
:100F9800D6402E852A82852983E475F001120C7FBC
:100FA800AE39AF3AAB07AA06C3E5289BF528E52773
:100FB8009AF527E5269400F526E5259400F5258081
:100FC800A0E47B18FAF9F8AF28AE27AD26AC2512B5
:100FD8000D20E52A2404F582E43529F583EBF0AFEA
:100FE80028AE27AD26AC25E47B18FAF9F8120D20B7
:100FF8008F288E278D268C25EF2401F528E43EF5D1
:1010080027E43DF526E43CF525852A82852983A336
:10101800E0540370587F3CFEFDFCAB28AA27A926A4
:10102800A825D3120DD6401AE52824FFF528E52770
:1010380034FFF527E52634FFF526E52534FFF525A9
:10104800802BE47F3CFEFDFCAB28AA27A926A82517
:10105800C3120DD67017852A82852983A3A304F0AD
:10106800852A82852983A3A3A3741D8078852A8273
:10107800852983A3A3E4F0852A82852983A3A3E095
:10108800242BF8E6FF3395E0FEFDFCAB28AA27A940
:1010980026A825D3120DD64036852A82852983A312
:1010A800A3E0242BF8E6FB3395E0FAF9F8C3E5282A
:1010B8009BF528E5279AF527E52699F526E525984D
:1010C800F525852A82852983A3A3E004F080A885D5
:1010D8002A82852983A3A3E004F0852A82852983AF
:0C10E800A3A3A3E528F0AA29A92A7B01F4
:0110F40022D9
:0C2CDD00122C30AC06AD077F0B0222A9C0
:0C2CE900122C30AC06AD077F0C0222A9B3
:081EE6008B448A4589468D47B3
:101EEE00E4FDFCF54B754C08E54C154CAE4B700201
:101EFE00154B4E601FAF05AE04AB440546E546AA32
:101F0E00457002054514F9120BF3FD122C38AC0680
:101F1E00AD0780D4AF05AE04AD47122C38AC06AD7C
:101F2E0007C006C007E549AE487818CEC313CE13D6
:101F3E00D8F9FDD007D006122C38AC06AD07C00676
:101F4E00C007E549AE487810CEC313CE13D8F9FDBD
:101F5E00D007D006122C38AC06E548FD122C38AC52
:101F6E0006AD49122C38AC06AD4A122C38AC06AD73
:061F7E00077F0D0222A9FD
:08256E008F558B568A578958DE
:10257600E4FCF55A755B08FFFEAD558023E55B1557
:102586005BAE5A7002155A4E601FAF05AE04AB56CD
:102596000558E558AA577002055714F9120BF3FDB2
:1025A600122C38AC06AD0780D4AF05AE04AD591277
:0B25B6002C38AC06AD077F0E0222A9F6
:10201000E4F5187BFF7A2A79E71225198E1E8F1FA7
:102020007A2A79E712297B8F187BFF7A2A79EE12B8
:1020300025198E1E8F1F7A2A79EE12297B8F187B25
:10204000FF7A2A79F71225198E1E8F1FAF187E008E
:102050007BFF7A2A79F71229818F187BFF7A2A79F8
:10206000FF1225198E1E8F1FAF187E007BFF7A2A64
:1020700079FF1229818F187BFF7A2B790512251998
:102080008E1E8F1FAF187E007BFF7A2B79051229D9
:0C209000818F18EFFD7C007F010222A967
:0A2CF5008F18E4FDFC7F020222A903
:0100220022BB
:062407008B188A19891AE6
:10240D00120BF3F51B900001120C0CF51C90000241
:10241D00120C0C751E00F51D900003120C0C251EE0
:10242D00F51EE4351DF51DAF1B122B8F75F002EF58
:10243D00A424C7F582E5F03400F583E0651C600344
:10244D007F0022AB18E51A2404F9E43519FA851D2D
:09245D0023851E24AF1B121A7B1B
:012466002253
:022D41008F18E9
:012D4300226D
:032D44000200008A
:02175C008D18E6
:10175E00E4F51CF51BF51AF519F520F51FF51EF528
:10176E001DF5218B228A238924E518C39408500382
:10177E0002189F7B017A0079D8752900752A08E432
:10178E00FD1228C47B017A0079E0752900752A08BC
:10179E00E4FD1228C4E4F521AB220524E524AA2396
:1017AE007002052314F9120BF3FFE51C4FF51CE52F
:1017BE001BF51BE51AF51AE519F519AF1CAE1BAD95
:1017CE001AFC7808120DFA8F1C8E1B8D1A8C1905B7
:1017DE0021E521B403C2AB220524E524AA2370021D
:1017EE00052314F9120BF3FFE51C4FF51CE51BF551
:1017FE001BE51AF51AE519F519E4F521AB220524B6
:10180E00E524AA237002052314F9120BF3FFE52039
:10181E004FF520E51FF51FE51EF51EE51DF51DAF65
:10182E0020AE1FAD1EFC7808120DFA8F208E1F8D74
:10183E001E8C1D0521E521B403C2AB220524E5242F
:10184E00AA237002052314F9120BF3FFE5204FF5BE
:10185E0020E51FF51FE51EF51EE51DF51DAF1CAE9F
:10186E001BAD1AAC19752900752AE0120E70AF2047
:10187E00AE1FAD1EAC1D752900752AD8120E707CD8
:10188E00007DE07F01122D2B7C007DD8E4FF122D10
:01189E002B1E
:01189F002226
:062D3200900000EFF0220A
:062D3800900000E0FF2204
:041476008E108F1134
:10147A00E4F512F51374062511F58274003510F59A
:10148A0083E0FD74072511F58274003510F583E0B9
:10149A00751300F51274082511F58274003510F5DC
:1014AA0083E02513F513E43512F51274042511F5BA
:1014BA008274003510F583E07F00FE74052511F56E
:1014CA008274003510F583E02FFFE43EFE122D11E1
:1014DA00ED24DC70030215E02423B4080040030263
:1014EA0015F19014FA75F003A4C58325F0C583732A
:1014FA000215120215150215400215430215A9021A
:0B150A0015A90215F10215BC0220100B
:1015150074092511F58274003510F583E0F514FF83
:10152500122D32AF14122CF5E5147003122CACE514
:0B15350014640160030215F1021C2980
:0315400002002284
:10154300E4F514F516F517F514AF147E00C3EF9503
:1015530013EE951240030215F1E5112FFDEE351040
:10156300FC740B2DF58274003CF583E0751700F5D0
:1015730016740C2DF58274003CF583E02517F517DE
:10158300EE3516F51674092511F974003510FA7B3A
:1015930001E92FF9EE3AFA1224078F15E51724040F
:0615A3002514F51480A3DD
:1015A90074092511F58274003510F583E0F514FFEF
:0315B900022D41BF
:1015BC0074092511F58274003510F583E0F5147467
:1015CC000A2511F58274003510F583E0F515FDAF91
:0415DC0014022D4484
:1015E00074092511F974003510FA7B01AD13121737
:0115F0005C9E
:0115F10022D7
:10099E00020AF2EC5D046005E859047003020AE8ED
:1009AE00120AB3580460F6EC4860F2EC7004FDFED7
:1009BE00FF22C860DB2481C85009C398600250062C
:1009CE00020AEF9850CAF582E9294B4A7005AB82AC
:1009DE00020ADE75F0007C1A7880C3EF9BEE9AED6A
:1009EE0099400DC3EF9BFFEE9AFEED99FDE842F0A4
:1009FE00DC23ACF0D0E0FFD0E0FED0E0FDAB8220F7
:100A0E00E7101BEB60BAEC2CFCEF33FFEE33FEED80
:100A1E0033FD020ACAE803F830E705C0F075F000AE
:100A2E00EF2FFFEE33FEED33FD40B830E7C280AA64
:100A3E0075F020800E75F010800575F0087D007E33
:100A4E00007F003392D530D503120DB2EC33401037
:100A5E00EF33FFEE33FEED33FDEC33FCD5F0ED223C
:0E0A6E00E5F0247EA2D513CC92E7CDCEFF2278
:100A7C00EDD2E7CD33EC3392D524814006E4FFFE72
:100A8C00FDFC22FCE4CFCECDCC24E0501174FF80D1
:100A9C00EDC3CC13CCCD13CDCE13CECF13CF04706E
:070AAC00F030D5DE020DB2AF
:100AB300E9D2E7C933E833F892D5EDD2E7CD33EC89
:070AC30033FC5002B2D52202
:100ACA00EC30E7100FBF000C0EBE00080DBD00048D
:100ADA000BEB6014A2D5EB13FCED92E7FD2274FF39
:100AEA00FCFDFEFF22E480F8A2D574FF13FC7D8092
:030AFA00E480EFA6
:101F90000210F5E493A3F8E493A34003F68001F262
:101FA00008DFF48029E493A3F85407240CC8C33352
:101FB000C4540F4420C8834004F456800146F6DF21
:101FC000E4800B01020408102040809018A0E47EF9
:101FD000019360BCA3FF543F30E509541FFEE49316
:101FE000A360010ECF54C025E060A840B8E493A3DD
:101FF000FAE493A3F8E493A3C8C582C8CAC583CA08
:10200000F0A3C8C582C8CAC583CADFE9DEE780BEBF
:01198D000059
:100AFD00E709F608DFFA8046E709F208DFFA803EDB
:100B0D0088828C83E709F0A3DFFA8032E309F608C7
:100B1D00DFFA8078E309F208DFFA807088828C832F
:100B2D00E309F0A3DFFA806489828A83E0A3F608E3
:100B3D00DFFA805889828A83E0A3F208DFFA804CBD
:100B4D0080D280FA80C680D4806980F28033801094
:100B5D0080A680EA809A80A880DA80E280CA8033FD
:100B6D0089828A83ECFAE493A3C8C582C8CCC58375
:100B7D00CCF0A3C8C582C8CCC583CCDFE9DEE78045
:100B8D000D89828A83E493A3F608DFF9ECFAA9F0C4
:100B9D00EDFB2289828A83ECFAE0A3C8C582C8CC1A
:100BAD00C583CCF0A3C8C582C8CCC583CCDFEADE33
:100BBD00E880DB89828A83E493A3F208DFF980CC95
:100BCD0088F0EF60010E4E60C388F0ED2402B4048E
:100BDD000050B9F582EB2402B4040050AF23234535
:060BED008223900B4D7302
:100BF300BB010689828A83E0225002E722BBFE0200
:090C0300E32289828A83E4932232
:100C0C00BB010CE58229F582E5833AF583E022509D
:100C1C0006E92582F8E622BBFE06E92582F8E222E7
:0D0C2C00E58229F582E5833AF583E4932201
:100C3900BB010689828A83F0225002F722BBFE019A
:020C4900F32294
:100C4B00F8BB010DE58229F582E5833AF583E8F0DF
:100C5B00225006E92582C8F622BBFE05E92582C88B
:020C6B00F22273
:100C6D00EF8DF0A4A8F0CF8CF0A428CE8DF0A42E9B
:020C7D00FE2255
:100C7F00C5F0F8A3E028F0C5F0F8E5821582700200
:060C8F001583E038F0229D
:100C9500E88FF0A4CC8BF0A42CFCE98EF0A42CFCFE
:100CA5008AF0EDA42CFCEA8EF0A4CDA8F08BF0A47C
:100CB5002DCC3825F0FDE98FF0A42CCD35F0FCEBDB
:100CC5008EF0A4FEA9F0EB8FF0A4CFC5F02ECD39A0
:0F0CD500FEE43CFCEAA42DCE35F0FDE43CFC220D
:100CE40075F008758200EF2FFFEE33FECD33CDCCC7
:100CF40033CCC58233C5829BED9AEC99E58298404A
:100D04000CF582EE9BFEED9AFDEC99FC0FD5F0D626
:100D1400E4CEFBE4CDFAE4CCF9A88222B800C1B950
:100D24000059BA002DEC8BF084CFCECDFCE5F0CB8E
:100D3400F97818EF2FFFEE33FEED33FDEC33FCEBC7
:100D440033FB10D703994004EB99FB0FD8E5E4F982
:100D5400FA227818EF2FFFEE33FEED33FDEC33FC6F
:100D6400C933C910D7059BE99A4007EC9BFCE99A63
:100D7400F90FD8E0E4C9FAE4CCFB2275F010EF2FA8
:100D8400FFEE33FEED33FDCC33CCC833C810D707A8
:100D94009BEC9AE899400AED9BFDEC9AFCE899F8E3
:0E0DA4000FD5F0DAE4CDFBE4CCFAE4C8F92276
:0E0DB200C3E49FFFE49EFEE49DFDE49CFC2252
:100DC000EB9FF5F0EA9E42F0E99D42F0EC6480C8AA
:060DD00064809845F0224A
:100DD600EB9FF5F0EA9E42F0E99D42F0E89C45F073
:010DE60022EA
:100DE700E8600FECC313FCED13FDEE13FEEF13FFEA
:030DF700D8F1220E
:100DFA00E8600FEFC333FFEE33FEED33FDEC33FC57
:030E0A00D8F122FA
:0C0E0D00ECF0A3EDF0A3EEF0A3EFF02258
:100E1900A8828583F0D083D082120E30120E301250
:100E29000E30120E30E473E493A3C583C5F0C58375
:100E3900C8C582C8F0A3C583C5F0C583C8C582C823
:010E49002286
:100E4A00D083D082F8E4937012740193700DA3A337
:100E5A0093F8740193F5828883E47374029368604B
:060E6A00EFA3A3A380DF4B
:00000001FF
