:03000000021E6D70
:0C1E6D00787FE4F6D8FD758183021EB476
:10185D00045D00000000410069004100A10C410041
:10186D00A2404400990000000044007B00000000ED
:10187D0044007F000000004400B60000000044005A
:10188D00A6000000004400BC0000000042008D00D6
:10189D0001420079000041006F00410097004200B5
:1018AD00C100004200700000410067084100A40023
:1018BD004100C3000161000162004100BA00410016
:1018CD007800410083014100910A4100A5004100CB
:1018DD00A30A410096004100980042006D000041AE
:1018ED00006800028200000280000041006A004191
:1018FD000076004100900041008C004100660041DF
:10190D00008B004100770042008400004A00AC00CB
:0E191D0000000000000000000042006B00000F
:1028CE008E098F0A8B0B8A0C890DAF051DEF6021C7
:1028DE00050AE50AAE097002050914F5828E83E435
:1028EE0093FF780BE475F001120D14EF120AC480F9
:0228FE00D922DD
:10002600E4FDFCC3ED9FEC9E50070DBD00010C8066
:01003600F2D7
:0100370022A6
:1029E9008F828E83E4F560F55FF55EF55DAF82AEAB
:1029F90083E4FCFDAB60AA5FA95EA85DC3120C7CF1
:082A0900500543BD1080E622D8
:092B1E00E0FF7C2F122A117F64F4
:102B2700E4FDFCC3ED9FEC9E50070DBD00010C803A
:012B3700F2AB
:012B3800227A
:102B3900758E5190FE917401F0A37410F075BD5F0C
:072B490090FEA07420F022B1
:102AC800E490FE80F0758901758DFA758BCB43A86B
:0E2AD80008438840758CCB758AEB438810222A
:1029320090FF10E054F04408F090FF02E054F0449D
:1029420002F0D28490FFA07420F0A37404F075CC3E
:102952000675CEFF75CD98759E0275981043A81026
:012962002252
:102B500043B40343B4807F147E0012002675B50190
:072B600090FE9B744BF02274
:102AE60090FF08E054F04408F090FF00E0540F44D3
:0C2AF60030F090FF11E054F04403F02297
:0B2BC7008F99E59830E1FB5398FD2248
:102622008FB543B440E5B430E5FB53B4DF7F647E3D
:1026320000120026E4FBFAF943B440E5B430E5FBAE
:1026420053B4DFE5B62BFBE5B73AFA7F147E0012EE
:10265200002609B910E275B501A9027F647E001255
:042662000026AF019E
:012666002251
:1014ED007B017A0079AC7D0A7F007E2F1228CE9089
:1014FD0000ACE0FFE4FCFDFE900072120CCB9000FE
:10150D0072120CB37808120CA0900072120CCB90D2
:10151D000072120CBF9000ADE0FFE4FCFDFE120B5B
:10152D0020900072120CCB900072120CB3E47BE889
:10153D007A03F9F8120B3B900072120CCBE47F305A
:10154D007E75FDFC900072120CBFC3120C7C401412
:10155D007F007E097D3D7C00900072120CBFD3127E
:10156D000C7C400A900072120CD700009C40900039
:10157D00AEE09000C0F0700280079000C0E0B4FEB5
:10158D000374FFF09000AFE0FF900093E4F0A3EF41
:10159D00F0E0F8E4F0E8900093F09000B0E0FF90F8
:1015AD000093E48FF0120B0A900093E0FEA3E0FF8E
:1015BD004E6009D3EF9408EE94074009900093E430
:1015CD00F0A37405F09000B1E0900091F0900098B8
:1015DD00F09000B2E0900086F06006E0D394FF40FA
:1015ED00069000867401F09000B3E0F45401900071
:1015FD0083F07B017A00796B7D027F807E2F12282C
:10160D00CE90006BE0900096F090006CE090008B17
:0E161D00F0121C9790008BE07003122B7E22BF
:10003E00E56160030206E543B440E5B430E5FB53E9
:10004E00B4DF85B70985B60A900079E475F0011220
:10005E000B0A9000BC120CBFAE09AF0AE4FCFD12F5
:10006E000B209000BC120CCB9000AAE0FEA3E0FF88
:10007E00C3950AEE9509500DC3E50A9FF50AE509E9
:10008E009EF509800BC3EF950AF50AEE9509F50961
:10009E0090007F120CBFAE09AF0AE4FCFD120B20DC
:1000AE0090007F120CCB900079E05401FEA3E04E3D
:1000BE007061D39000C2E094009000C1E0940040C3
:1000CE00179000A3E094645042E02402F0E0D39431
:1000DE006440387464F08033900070E07004A3E0E4
:1000EE006401702F900091E0FF9000A3E0FED39F7B
:1000FE004019EE94024004E024FEF09000A3E0C309
:10010E009F5008900091E09000A3F09000A3E0FFB4
:10011E00122463C3900079E0942050030207304309
:10012E00BD10E4F0A3F09000A4E004F09000A6123D
:10013E000CB39000BC120CBF120B209000A6120C38
:10014E00CB9000A4E0C394084037E4F09000A612D0
:10015E000CB37810120C8D9000A6120CCB9000A64A
:10016E00120CB39000AAEE8FF0120B0A9000AAE0C8
:10017E00C313F0A3E013F09000A6120CD7000000FA
:10018E0000900067E0C394085005E004F08056909C
:10019E0000C1E07002A3E0704C7F0A12262290008C
:1001AE0092EFF09000BBE0FE2402FDE433FCEFD3AF
:1001BE009DEC6480F8748098501E900092E02402AA
:1001CE00FDE433FCEED39DEC6480F8748098500807
:1001DE009000BBE0900092F0900092E09000BBF097
:1001EE00E4900067F0E4FFFEFDFC90007B120CBF74
:1001FE00C3120C7C704190007F120CB3EF2488FF69
:10020E00EE3413FEE43DFDE43CFC90007B120CCB7F
:10021E0090008DE07002A3E0701D7F407E427D0F46
:10022E00FC90007B120CBFD3120C7C400A90007B1A
:10023E00120CD7000F4240900069E0701690007FBC
:10024E00120CB3900099120CCB900087120CD700B1
:10025E00000001900087120CB390007F120CBF12A9
:10026E000B20900099120CBFC3120C7C40030205A8
:10027E0007900087120CB3900099120CBF120B203E
:10028E0090007F120CBFC3120C7C40030205079036
:10029E000069E004F09000B6120CB390007F120CCF
:1002AE00BF120B209000B6120CCB900069E0FFFB42
:1002BE00E4FAF9F89000B6120CB3120BC69000993E
:1002CE00120CCB900099120CB37803120C8D900087
:1002DE0087120CCBE47F207E4EFDFC900087120C23
:1002EE00BFC3120C7C500A900087120CD700004E30
:1002FE0020E47F607EEAFDFC900087120CBFD312D3
:10030E000C7C400A900087120CD70000EA60900027
:10031E0099120CB390007B120CBFD3120C7C404C84
:10032E00900099120CBF90007B120CB3120B2D9003
:10033E0000BC120CCB7F807E387D017C009000BC0F
:10034E00120CBFD3120C7C40089000A17406F080F2
:10035E0021E47F407E9CFDFC9000BC120CBFD312AA
:10036E000C7C9000A140087409F080069000A174E6
:10037E000CF09000A1E0FF900069E0C39F407B90DD
:10038E00007B120CB3900099120CBFC3120C7C5060
:10039E00699000A2E0941050030205169000A1E0AF
:1003AE00D394095008900099120CB3804490009990
:1003BE00120CB3EF24A0FFEE340FFEE43DFDE43C3F
:1003CE00FC90007B120CBFD3120C7C402A90007B59
:1003DE00120CB3900099120CBF120B2090007B12DE
:1003EE000CCB90007B120CB3E47B02FAF9F8120BE3
:1003FE00C690007B120CCB0205079000A2E0FF9086
:10040E000069E0C39F500302051690007B120CB3E7
:10041E00EF24A0FFEE340FFEE43DFDE43CFC900023
:10042E0099120CBFD3120C7C50030204F790007B80
:10043E00120CBF900099120CB3120B2D9000BC122F
:10044E000CCB7F007E127D7A7C00900099120CBF3F
:10045E00C3120C7C40030204F77F807E1A7D067C5B
:10046E00009000BC120CBFC3120C7C507C9000A2FA
:10047E00E09410400280487FE07E937D047C0090E3
:10048E0000BC120CBFD3120C7C40089000A274105A
:10049E00F0801F7FF07E497D027C009000BC120C24
:1004AE00BFD3120C7C9000A24005740CF080037434
:1004BE0008F09000A2E0FF900069E0C39F402A90F0
:1004CE00007B120CB3900099120CBF120B209000FF
:1004DE007B120CCB90007B120CB3E47B02FAF9F882
:1004EE00120BC690007B120CCB9000A2E0FF900086
:1004FE0069E0C39F4012E48004E4900069F090002C
:10050E00B6120CD700000000900097E0D394004084
:10051E0066E014F090009D120CB3EF2470FFEE34E1
:10052E0017FEE43DFDE43CFC90007B120CBFD312A1
:10053E000C7C500302069F90009D120CB3EF249882
:10054E00FFEE343AFEE43DFDE43CFC90007F120CDD
:10055E00BFC3120C7C400302069F90009D120CB389
:10056E00EF2470FFEE3417FEE43DFDE43CFC9000FA
:10057E007B120CCB02069FD390008EE0940090006D
:10058E008DE09400407B74FFF5F0120B0AD39000BF
:10059E008EE0940090008DE0940040657F007E1206
:1005AE007D7A7C0090007B120CBFD3120C7C400C29
:1005BE00900072120CD7000C35008045900072121C
:1005CE000CB390007B120CBF120B209000BC120CCF
:1005DE00CB7F407E547D897C009000BC120CBFD333
:1005EE00120C7C401C90007B120CBFC374409BFF0E
:1005FE0074549AFE748999FDE498FC900072120C62
:10060E00CB900072120CB390007B120CBF120B2019
:10061E0090007F120CBFD3120C7C40759000C0E08E
:10062E00FF900092E0D39F400FD390008EE0940095
:10063E0090008DE0940040599000C1E07002A3E05C
:10064E00700C90007B120CB390009D120CCB90009E
:10065E00C1E4F0A304F090008CF0900084E475F0F7
:10066E0001120B0A900084E0FEA3E0FFE48F2F8EB0
:10067E002EF52DF52C7F74121F859000A27408F0B4
:10068E00E4900070F0A3F07882F608F67880F60811
:10069E00F69000BC120CD70000000090007F120CE8
:1006AE00D7000000009000C1E0FEA3E0FFD394004D
:1006BE00EE9400406D900093E0FCA3E0FDD3EF9D1F
:1006CE00EE9C405EE49000C1F0A3F07561019000D5
:1006DE008CF0900066F022900070E4F0A304F0E439
:1006EE00F56190006DF0A3F0900068F07FFAFE12B5
:1006FE0029E99000A6120CD700000000E49000A497
:10070E00F09000A27440F09000977402F090006791
:10071E007406F0E4900069F09000B6120CD7000059
:02072E000000C9
:0107300022A6
:1021E000E4F50A9000BC120CD700000000E4F509E9
:1021F00043B440E5B430E5FB53B4DF9000BC120CAF
:10220000BFAFB6AEB7E4FCFD120B209000BC120CC1
:10221000CB0509E509B480D87F907E011229E990A9
:1022200000BC120CB3780B120C8D8F09E509D39406
:102230000C400CE509948D5006E50A9414500A05EB
:092240000AE50AD39450409B22E8
:012249002272
:10224A009000BC120CD700000000E4F509E4F50C7C
:10225A00F50D43B440E5B430E5FB53B4DF85B70A66
:10226A0085B60B9000BC120CBFAE0AAF0BE4FCFDA6
:10227A00120B209000BC120CCB050DE50D70020567
:10228A000CB400CEE50CB420C943BD100509E5091C
:10229A00B408BA9000BC120CB37810120C8D9000DE
:0622AA00AAEEF0A3EFF024
:0122B000220B
:10246300BF0104E4FE80397E007C007DFF120AF880
:10247300AC06AD07E41208CEE4FBFA79C878421241
:10248300082C8F0E8E0D8D0C8C0BE4FFFEFD7C3F14
:10249300AB0EAA0DA90CA80B120738120907AE0739
:1024A30090FF9C7410F075DEFF8EDF75DD947F0066
:0124B3002206
:100FDB00120003122B39122AE67F64122463122AA1
:100FEB00C8122932122B5075BBAA90FEA774FFF0C2
:100FFB0053BBF7D2AF7FC87E001229E97F6412245E
:10100B00639000BA7401F07F0A122622900092EFCF
:10101B00F09000BBF0C2AF1214ED900096E004F01C
:10102B007F807E2F122A5E7F107E27122B27900047
:10103B0096E0FF7D807C2F122A117F647E00122B9D
:10104B0027D2AF1221E0900091E0FF9000A3F012A5
:10105B0024637F2C7E011229E912224A9000BC12D4
:10106B000CD700000000900096E0C394034005E409
:10107B00F012001E43BD10E561700B90007AE05436
:10108B001F70031211D1900083E064016003021101
:10109B007BE562703DF561756201900091E0900017
:1010AB00A3F09000A6120CD700000000E49000A45F
:1010BB00F09000A27440F09000977402F0900067DB
:1010CB007406F0E4900069F09000B6120CD70000A3
:1010DB00000012003ED3900071E09400900070E08D
:1010EB0094004036900068E0B4012FE4F09000705B
:1010FB0075F001120B0A900086E0FFC3900071E0BF
:10110B009F900070E094004011E4F0A3F090007702
:10111B00E064016005E4FF122463D39000C2E09405
:10112B00009000C1E0940040127881E664011846FB
:10113B007009F608F675F001120B0A900090E06446
:10114B0001600302107190008CE0FF900066E06F6D
:10115B007003021071EFF09000C1E4F0A304F0E40F
:10116B00F508E508C394084003021071050880F2E6
:10117B00E4F562900078E07007FF122463021071AF
:10118B00900098E0FF122463E4F561900091E090E9
:10119B0000A3F09000A6120CD700000000E4900012
:1011AB00A4F09000A27440F09000977402F09000AD
:1011BB00677406F0E4900069F09000B6120CD7004B
:0611CB000000000210719B
:03001B00021BF1D4
:101BF100C0E0C0F0C083C082C0D075D000C000C0BA
:101C010001C002C003C004C005C006C007AF60AE7A
:101C11005FAD5EAC5DEF2401FFE43EFEE43DFDE41B
:101C21003C8F608E5F8D5EF55D90006DE475F00117
:101C3100120B0A90006DE0FEA3E0FFE4FCFD7B6067
:101C41007AEAF9F8D3120C66500C90006DE4F0A317
:101C5100F090006804F0788306E618700106C378F6
:101C610083E694E818E69403401190006A7401F049
:101C710076000876007880760008F6D007D006D086
:101C810005D004D003D002D001D000D0D0D082D072
:061C910083D0F0D0E03228
:0300230002254F64
:10254F00C0E0C0F0C083C082C0D075D000C000C052
:0D255F0001C002C003C004C005C006C007D3
:0F256C00E59830E00AAF991227E95398FED2AFF5
:10257B00D007D006D005D004D003D002D001D000B4
:0B258B00D0D0D082D083D0F0D0E0325E
:03003B000200219F
:0100210032AC
:102A5E0053BBF7C280E5BB20E3F6D280C2AF75FD53
:102A6E00F075FC0F8EFA8FF975FDD275FC2D75FD84
:052A7E00E175FC1E22C1
:102A110053BBF7C280E5BB20E3F6D280C2AF8FFB88
:102A210075FDF075FC0F8CFA8DF975FDB475FC4BD5
:072A310075FDE175FC1E229A
:101C97007F007E2F122A5E7F107E27122B27E47B80
:101CA700E87A03F9F8900072120CB3120BC67808A1
:101CB700120C8D7D007C2F122A117F647E00122B5F
:101CC70027E47BE87A03F9F8900072120CB3120B41
:101CD700C67D017C2F122A117F647E00122B27906C
:101CE70000C07D02122B1E9000937D03122B1EA3B2
:101CF700E0FF7D04122B20900091E0FF7D05122B61
:101D070020900086E0FF7D06122B20900083E0F4F0
:101D1700FF7D07122B207F807E2F122A5E7F107E89
:101D270027122B277D807C2FE4FF122A110D0F121B
:041D37002A11D2AFEC
:011D3B002285
:04192B00027E000038
:10216F00EFC39430400CEFD39439500674D02FFF47
:10217F008022EFC39441400CEFD394465006EF24D6
:10218F00C9FF8010EFC39461400AEFD394665004E7
:10219F00EF24A9FFEF540FC454F0FFEDC394304068
:1021AF000CEDD39439500674D02DFD801EEDC394E1
:1021BF00414008EDD394465002800CEDC39461402A
:1021CF000AEDD394665004ED24A9FDED540F420798
:0121DF0022DD
:0623BE008B1A8A1B891C2A
:1023C400E4F520F51FF51EF51DE94A4B7005FFFEE7
:1023D400FDFC22E4F520F51FF51EF51D781AE475C1
:1023E400F001120D14120A7E601AE5202401FFE4A4
:1023F400351FFEE4351EFDE4351D8F208E1F8D1E16
:0C240400F51D80D8AF20AE1FAD1EAC1D32
:0124100022A9
:062861008B268A2789285E
:102867008B2C8A2D892EE94A4B7004FBFAF922E555
:102877002B152BAE2A7002152A4E600F782CE475A3
:10288700F001120D14ED120AC480E4AB26AA27A9A1
:012897002818
:01289800221D
:061B20008B218A228923BB
:101B26008B298A2A892B85242C85252D85262EE925
:101B36004A4B6008E5264525452470077B007A0058
:101B4600790022D3852D83852E82E52B9582E52A81
:101B560095834019E52E2528F9E52D3527FA8A8340
:101B66008982D3E52B9582E52A95834038E4F52FC3
:101B7600F530C3E5309528E52F95275067AB2CAA9D
:101B86002DA92E853082852F83120A97AB29AA2A82
:101B9600A92B853082852F83120AD60530E5307051
:101BA600D1052F80CD85272F852830D3E5309400A9
:101BB600E52F9400402EAB2CAA2DA92EE53024FF4C
:101BC600FFE52F34FFFE8F82F583120A97AB29AA11
:101BD6002AA92B8F828E83120AD6E530153070CB58
:0A1BE600152F80C7AB21AA22A92306
:011BF00022D2
:062667008B3C8A3D893E18
:10266D008B428A438944AB3FAA40A941120A7E603E
:10267D001C783FE475F001120D14120A7EFF783CB0
:10268D00E475F001120D14EF120AC480D9AB3CAA07
:0D269D003DA93EE4120AC4AB42AA43A94481
:0126AA00220D
:1022B1008B638A648965AB63AA64A965120A7EFF90
:1022C1006026AB66AA67A968120A7E601BB507186B
:1022D10074012565F565E43564F56474012568F5D7
:1022E10068E43567F56780CEAB66AA67A968120A0C
:1022F1007EFF3395E0FEAB63AA64A965120A7EFDF9
:0C2301003395E0FCC3ED9FFFEC9EFE2234
:1026AB008F7D8E7C8D7B8C7A7818120C8DEF120AB5
:1026BB00C4AF7DAE7CAD7BAC7A7810120C8D9000E4
:1026CB0001EF120AD6AF7DAE7CAD7BAC7A780812E7
:1026DB000C8D900002EF120AD6E57DFF900003EF00
:0326EB00020AD60A
:101DD500E4F530F52FF52EF52D120A7EFFE48F3050
:101DE500F52FF52EF52DAE2FAD2EAC2D7808120C56
:101DF500A08F308E2F8D2E8C2D900001120A97FF0B
:101E0500E5304FFFE52FFEE52EFDE52D8F308E2FBA
:101E15008D2EF52DFC7808120CA08F308E2F8D2E6F
:101E25008C2D900002120A97FFE5304FFFE52FFE3B
:101E3500E52EFDE52D8F308E2F8D2EF52DFC7808A6
:101E4500120CA08F308E2F8D2E8C2D900003120A30
:101E550097FFE5304FFFE52FFEE52EFDE52D8F3091
:071E65008E2F8D2EF52DFCE0
:011E6C002253
:102B9000E4FDFCFFFE122B0AAC06AD077F0302200A
:012BA0000E26
:102B7E00E4FDFCFFFE0D122B0AAC06AD077F03022F
:022B8E00200E17
:082596008F698B6A8A6B896C66
:10259E00E4FCFFFEAD69122B0AAC06E4FD122B0A19
:1025AE00AC06E56DFD122B0AAC06AD6E122B0AAC15
:1025BE0006AD07AB6AAA6BA96C856D1F856E2012DE
:0D25CE00282BAC06AD077F0612200E7F0102
:0125DB0022DD
:0426EE008D27AB0782
:1026F200E4FCFFFEAD03122B0AAC067D01122B0A8D
:10270200AC06E4FD122B0AAC067D01122B0AAC06C4
:10271200AD07E5277003FD8006AF05AE047D01120B
:0D2722002B0AAC06AD077F0612200E7F01CA
:01272F002287
:021F8500AB07A8
:101F8700E4FCFFFEAD03122B0AAC067D02122B0AFE
:101F9700AC06E4FD122B0AAC067D04122B0AC00620
:101FA700C007AF2FAE2EAD2DAC2C7818120C8DAD0F
:101FB70007D007D006122B0AC006C007AF2FAE2ED8
:101FC700AD2DAC2C7810120C8DAD07D007D00612B2
:101FD7002B0AC006C007AF2FAE2EAD2DAC2C78084C
:101FE700120C8DAD07D007D006122B0AAC06C0071E
:101FF700E52FFFE4AD07D007122B0AAC06AD077F2C
:062007000612200E7F010D
:01200D0022B0
:0825DC008F6F8B708A71897208
:1025E400E4FCFFFEAD6F122B0AAC067D03122B0A2E
:1025F400AC06E573FD122B0AAC06AD74122B0AACC3
:1026040006AD07AB70AA71A97285731F8574201279
:0D261400282BAC06AD077F0612200E7F01BB
:012621002296
:042899008D27AB07D5
:10289D00E4FCFFFEAD03122B0AAC067D04122B0ADD
:1028AD00AC06E4FD122B0AAC067D01122B0AAC0618
:1028BD00AD27122B0AAC06AD077F0612200E7F0145
:0128CD0022E8
:02195A00AB07D9
:10195C00900000AF82AE83AD03122B0A8E838F8270
:10196C007D05122B0A8E838F82E4FD122B0A8E8347
:10197C008F8274FFFFE578FEE577FDE576FCE47B6E
:10198C00FFFAF9F8C3120C7C7012AF82AE837D01A2
:10199C00122B0A8E838F82AD79021A3474FFFFFEEC
:1019AC00E577FDE576FCE47BFF7AFFF9F8C3120CD2
:1019BC007CAF82AE8370047D02803E7D04122B0AC4
:1019CC008E838F82C006C007AF79AE78AD77AC76C8
:1019DC007818120C8DAD07D007D006122B0A8E8307
:1019EC008F82C006C007AF79AE78AD77AC76781031
:1019FC00120C8DAD07D007D006122B0A8E838F8266
:101A0C00C006C007AF79AE78AD77AC767808120C0B
:101A1C008DAD07D007D006122B0A8E838F82C0079C
:101A2C00E579FFE4AD07D007122B0A8E838F82ADC8
:0A1A3C0082AC837F0612200E7F01AA
:011A4600227D
:082BDC008C278D28120A7EFFF0
:012BE40022CE
:082BE5008C278D28120A7EFFE7
:012BED0022C5
:072C00008C2B8D2C121DD559
:012C070022AA
:100003007550017551007552437553017554007550
:080013005543E4F54EF54F22C0
:1027E900C3E54F9421E54E94005030C3900064E551
:1027F900529582E5519583400D7A007943755001D0
:102809007551007552437850E475F001120D14EFBB
:0C281900120AC4054FE54F7002054E2264
:1011D100E4F509F50AF50BF50CF50DF50EF50F75AE
:1011E1001009C3E57F9421E57E94005027122BA1BD
:1011F100D3EF9400EE9400401B1227AC057FE57FEE
:10120100AC7E7002057E142401F58274003CF583E6
:10121100EFF080CEC3E57F9409E57E940050030290
:101221001385C3E57F950AFDE57E9509FCC3ED9421
:1012310009EC940050030213287401250AF5827405
:10124100003509F583E06455600A050AE50A70D2A4
:10125100050980CE7402250AF58274003509F583EB
:10126100E064AA600A050AE50A70B7050980B3744B
:1012710003250AF58274003509F583E0750D00F543
:101281000E6402450D60047402803C7407250AF562
:101291008274003509F583E0750C00F50B7408259F
:1012A1000AF58274003509F583E02409FFE433FE71
:1012B100EF250CF50CEE350BF50BD3E50C942AE577
:1012C1000B940040097403250AF50AE48052C3ED2A
:1012D100950CEC950B40507401250AF97400350901
:1012E100FA7B01E50C24FFFDE50B34FFFC122963B9
:1012F100E50A250CFDE509350BFC74002DF582741A
:10130100003CF583E06F60097403250AF50AE48067
:101311000FAF0AAE09121386E50C250AF50AE50B93
:101321003509F509021223C3E57F950AF57FE57EAC
:101331009509F57ED3E57F9400E57E94004045E56F
:101341000A45097020E57F9421E57E940040160549
:101351000AE50A70020509E57F950AF57FE57E95A4
:1013610009F57E80007401250AF974003509752498
:1013710001F5258926857E27857F287B017A0079DD
:0413810001121B201A
:011385002245
:10192F004100C8004400C4000000005800C9010174
:10193F0003026504660267016802690271017201A0
:06194F0073017402750132
:03001E00022B7E34
:03003800022BC7D1
:101A4700900000E0FD7F011226EE900078E0FD7F18
:101A5700711226EE900091E0FFE48F2FF52EF52D01
:101A6700F52C7F03121F859000C0E0FFB4FF05E44B
:101A7700F519801EEFB4C8057519028015EFB42853
:101A870005751903800CEFB41405751904800375E7
:101A97001905AD197F65122899900093E0FEA3E020
:101AA700FFE48F2F8E2EF52DF52C7F66121F859064
:101AB7000083E0FD7F671226EE900086E0FFE48F4B
:101AC7002FF52EF52DF52C7F68121F85E47B107AF4
:101AD70027F9F8900072120CB3120BC6C374329F29
:101AE700FFE48F2FF52EF52DF52C7F69121F8590BA
:101AF7000090E0FD7F721226EE900077E0FD7F7385
:101B07001226EE900084E0FEA3E0FFE48F2F8E2ED6
:091B1700F52DF52C7F74021F85E9
:102B6700122BDC900000EFF0FD7F011226EEBF0173
:062B7700037F01227F0034
:012B7D002235
:10241100122C008F2A8E298D288C27900091E0FFA5
:10242100E4FCFDFEAB2AAA29A928A827C3120C7C2B
:102431006006E4FF0FBF08FCAF2A900091EFF09017
:102441000098F0121C97900091E0FFE48F2FF52E79
:10245100F52DF52C7F03121F85BF01037F01227F1C
:01246100007A
:012462002257
:10208500122BE59000C8E0B5070FBF05129000C000
:10209500E0FE900092E06E8006E4FE0EBE08FCEFC6
:1020A50014601014601514601A14601F1460242441
:1020B5000570289000C074FFF080209000C074C89F
:1020C500F080189000C07428F080109000C074143F
:1020D500F08008900092E09000C0F09000C8EFF00A
:1020E500121C979000C8E0FD7F65122899BF010377
:0520F5007F01227F00C5
:0120FA0022C3
:10236800122C008F2A8E298D288C27900093E0FE4E
:10237800A3E0FFE4FCFDAB2AAA29A928A827C312D9
:102388000C7C6006E4FF0FBF08FC900093E529F081
:10239800A3E52AF0121C97900093E0FEA3E0FFE467
:1023A8008F2F8E2EF52DF52C7F66121F85BF01030A
:0523B8007F01227F00FF
:0123BD0022FD
:10290000122BDC900083E06F6006E4FE0EBE08FC34
:10291000EF9000837003F080037401F0121C979015
:102920000083E0FD7F671226EEBF01037F01227F57
:0129300000A6
:012931002283
:10250200122C008F2A8E298D288C27900086E0FFBE
:10251200E4FCFDFEAB2AAA29A928A827C3120C7C39
:102522006006E4FF0FBF08FC900086E52AF0121C4B
:1025320097900086E0FFE48F2FF52EF52DF52C7F86
:0C25420068121F85BF01037F01227F008B
:01254E00226A
:1020FB00122C008F2A8E298D288C279000C4120C4D
:10210B00B3AB2AAA29A928A827C3120C7C6006E422
:10211B00FF0FBF08FCAF2AAE29AD28AC279000C437
:10212B00120CCBC37432952AFFE49529FEE4952853
:10213B00FDE49527FCE47B107A27F9F8120B3B9012
:10214B000072120CCB121C979000C4120CB38F2F81
:10215B008E2E8D2D8C2C7F69121F85BF01037F0165
:03216B00227F00D0
:01216E00224E
:10273000122BDC900078E06F6006E4FE0EBE08FC11
:10274000EF7006900078F08013900083E0B40106EB
:1027500090008C7401F09000787401F0900078E0A3
:0E276000FD7F711226EEBF01037F01227F0074
:01276E002248
:1029BD00122BDCAD07900090E06D6006E4FF0FBFB9
:1029CD0008FCED9000907003F080037401F07F72AD
:0B29DD001226EEBF01037F01227F00E5
:0129E80022CC
:102A8300122BDC900077E06F6006E4FE0EBE08FCBC
:102A9300900077EFF0FD7F731226EEBF01037F01F5
:032AA300227F008F
:012AA600220D
:102A3800122BDCEF601DE4900084F0A3F09000847A
:102A4800E0FEA3E0FFE48F2F8E2EF52DF52C7F748A
:052A5800121F857F0143
:012A5D002256
:022C08008F2615
:042C0A008C278D285E
:012C0E0022A3
:06175B008B218A22892384
:10176100E4F526EF120D24178D0117BC0317CC6584
:1017710017DB6617EA6717F96818086918177118EF
:10178100267218357318447500001855AB21AA222A
:10179100A923AD25AC24122B678F26E526640160B1
:1017A1000302185A9000A5E004F0E0C39405500329
:1017B10002185AE4F012001E02185AAB21AA22A9FB
:1017C10023AD25AC24122411021851AB21AA22A960
:1017D10023AD25AC241220858076AB21AA22A92332
:1017E100AD25AC241223688067AB21AA22A923ADC1
:1017F10025AC241229008058AB21AA22A923AD25AA
:10180100AC241225028049AB21AA22A923AD25AC23
:10181100241220FB803AAB21AA22A923AD25AC24B6
:10182100122730802BAB21AA22A923AD25AC24128B
:1018310029BD801CAB21AA22A923AD25AC24122AE3
:1018410083800DAB21AA22A923AD25AC24122A380D
:0B1851008F268000E49000A5F0AF2679
:01185C002269
:032C1B007F0C2209
:102990007B2270223A2200726C37667771333200E4
:1029A000222C2276223A2200312E302E3000227D37
:0D29B000001F1C1F1E1F1E1F1F1E1F1E1FAD
:04195500410000004D
:092BEE00900064EEF0A3EFF02268
:092BF700900064E0FEA3E0FF225F
:082B0200AB07E4FCFFFEAD038C
:102B0A00742A2FF974003EFA7B01ED120AC40FBF32
:032B1A0000010EA9
:012B1D002295
:06282500AF197E007BFFED
:0A282B008E1A8F1B8B1C8A1D891E5C
:10283500742A2FF974003EFA7B01851C24851D2519
:10284500851E26851F27852028121B20E520251B90
:0B285500F51BE51F351AF51AFEAF1B3E
:012860002255
:10276F008B328A3389348C358D36E94A4B602DE5AF
:10277F003645356027E5361536AE35700215354EC0
:10278F00601AAB32AA33A934120A7EFF12003874D2
:0D279F00012534F534E43533F53380D922BB
:0A2963008B328A3389348C358D36AF
:10296D00E4FFFDFCC3ED9536EC953550157832E45A
:10297D0075F001120D14120A7E2FFF0DBD00010C12
:02298D0080E2E6
:01298F002225
:06200E008C308D31AB07A0
:10201400E4FF122BF7AD07AC069000227455F0A331
:1020240074AAF0A37402F0AF04A3EFF0AF05EFA31A
:10203400F0A3EBF0E530A3F0E531A3F00DBD000112
:102044000CAF05AE04122BEE74092531F531E435DD
:1020540030F5307B017A007922E53124FFFDE5304B
:1020640034FFFC12296374212531F5827400353064
:10207400F583EFF07B017A007922AD31AC30022791
:012084006FEC
:022AA7008F207E
:102AA900122C1BE4FEEEC39F501275F002EE90004B
:0E2AB900C9120D08E0652060030E80E9AF062B
:012AC70022EC
:0E2BA100E54F454E7003120003AE4EAF4F22BB
:1027AC00E4FFD3E54F9400E54E9400402F90006475
:1027BC00E5559582E5549583400D7A007943755320
:1027CC00017554007555437853E475F001120D14DE
:0C27DC00120A7EFFE54F154F7002154EEB
:0127E80022CE
:080D4A008F298E288D278C26CD
:100D5200782C7C007D007BFF7A2979B17E007F0CA4
:100D6200120A58E4F538F539F53AF53BFFFEFDFC79
:100D7200AB29AA28A927A826C3120C7C6006E52B5A
:100D8200452A70077B007A00790022E47B3CFAF95D
:100D9200F8AF29AE28AD27AC26120BC6AF03E52B60
:100DA2002406F582E4352AF583EAF0A3EFF0AF29B1
:100DB200AE28AD27AC26E47B3CFAF9F8120BC68FBD
:100DC200298E288D278C26E47B3CFAF9F8120BC673
:100DD200E52B2405F582E4352AF583EBF0AF29AE45
:100DE20028AD27AC26E47B3CFAF9F8120BC68F2912
:100DF2008E288D278C26E47BF87A88F9F8120BC6A8
:100E02008E388F39E5397802C333CE33CED8F92400
:100E1200B2FFEE3407852B82852A83F0A3EFF0AF71
:100E220029AE28AD27AC26E47BF87A88F9F8120BB4
:100E3200C6AC00AD01AE02AF038F298E288D278C80
:100E420026753A22753B38852B82852A83A3E05486
:100E520003700B7418253BF53BE4353AF53AAE3A8C
:100E6200AF3BE4FCFDAB29AA28A927A826C3120C94
:100E72007C4031852B82852A83E475F001120B0AAE
:100E8200AE3AAF3BAB07AA06C3E5299BFFE5289A1A
:100E9200FEE5279400FDE52694008F298E288D27F4
:100EA200F526809DE47B18FAF9F8AF29AE28AD2724
:100EB200AC26120BC6E52B2404F582E4352AF58311
:100EC200EBF0AF29AE28AD27AC26E47B18FAF9F88F
:100ED200120BC68F298E288D278C26EF2401FFE462
:100EE2003EFEE43DFDE43C8F298E288D27F52685C4
:100EF2002B82852A83A3E05403705B7F3CFEFDFCBA
:100F0200AB29AA28A927A826D3120C7C401DE529C3
:100F120024FFFFE52834FFFEE52734FFFDE52634F4
:100F2200FF8F298E288D27F526802BE47F3CFEFD3E
:100F3200FCAB29AA28A927A826C3120C7C70178506
:100F42002B82852A83A3A304F0852B82852A83A37F
:100F5200A3A3741D807B852B82852A83A3A3E4F03F
:100F6200852B82852A83A3A3E0242CF8E6FF339500
:100F7200E0FEFDFCAB29AA28A927A826D3120C7CE7
:100F82004039852B82852A83A3A3E0242CF8E6FB33
:100F92003395E0FAF9F8C3E5299BFFE5289AFEE5C7
:100FA2002799FDE526988F298E288D27F526852BF2
:100FB20082852A83A3A3E004F080A5852B82852A5B
:100FC20083A3A3E004F0852B82852A83A3A3A3E550
:080FD20029F0AA2AA92B7B01DA
:010FDA0022F4
:0C2BAF00122B02AC06AD077F0B02200EBB
:0C2BBB00122B02AC06AD077F0C02200EAE
:081D3C008B458A4689478D485A
:101D4400E4FDFCF54C754D08E54D154DAE4C7002A7
:101D5400154C4E601AAF05AE047845E475F00112D7
:101D64000D14120A7EFD122B0AAC06AD0780D9AF02
:101D740005AE04AD48122B0AAC06AD07C006C00779
:101D8400E54AAE497818CEC313CE13D8F9FDD0076F
:101D9400D006122B0AAC06AD07C006C007E54AAE52
:101DA400497810CEC313CE13D8F9FDD007D006124C
:101DB4002B0AAC06E549FD122B0AAC06AD4A122BE0
:101DC4000AAC06AD4B122B0AAC06AD077F0D022000
:011DD4000E00
:0824B4008F568B578A58895995
:1024BC00E4FCF55B755C08FFFEAD56801EE55C1513
:1024CC005CAE5B7002155B4E601AAF05AE047857BC
:1024DC00E475F001120D14120A7EFD122B0AAC06E3
:1024EC00AD0780D9AF05AE04AD5A122B0AAC06ADC0
:0624FC00077F0E02200E16
:101EF900E4F5197BFF7A2979901223BE8E1F8F2072
:101F09007A2979901228258F197BFF7A29799712D6
:101F190023BE8E1F8F207A2979971228258F197B46
:101F2900FF7A2979A01223BE8E1F8F20AF197E0058
:101F39007BFF7A2979A012282B8F197BFF7A2979BF
:101F4900A81223BE8E1F8F20AF197E007BFF7A292E
:101F590079A812282B8F197BFF7A2979AE1223BE13
:101F69008E1F8F20AF197E007BFF7A2979AE122848
:0C1F79002B8F19EFFD7C007F0102200E71
:0A2BD2008F19E4FDFC7F0202200EC3
:0100220022BB
:06230D008B198A1A891BDE
:10231300120A7EF51C900001120A97F51D90000227
:10232300120A97751F00F51E900003120A97251FC6
:10233300F51FE4351EF51EAF1C122AA775F002EF38
:102343009000CA120D08E0651D60037F0022AB19DF
:10235300E51B2404F9E4351AFA851E24851F25AFED
:042363001C12175BD6
:012367002253
:022C1E008F190C
:012C20002291
:032C2100020000AE
:02162B008D1917
:10162D00E4F51DF51CF51BF51AF521F520F51FF553
:10163D001EF5228B238A248925E519C394085003AE
:10164D0002175A7B017A0079E1752A00752B08E49F
:10165D00FD1228617B017A0079E9752A00752B0846
:10166D00E4FD122861E4F5227823E475F001120DF2
:10167D0014120A7EFFE51D4FFFE51CFEE51BFDE57F
:10168D001A8F1D8E1C8D1BF51AFC7808120CA08F5D
:10169D001D8E1C8D1B8C1A0522E522B403CA7823DE
:1016AD00E475F001120D14120A7EFFE51D4FFFE5E2
:1016BD001CFEE51BFDE51A8F1D8E1C8D1BF51AE416
:1016CD00F5227823E475F001120D14120A7EFFE560
:1016DD00214FFFE520FEE51FFDE51E8F218E208D9C
:1016ED001FF51EFC7808120CA08F218E208D1F8CEB
:1016FD001E0522E522B403CA7823E475F001120D0C
:10170D0014120A7EFFE5214FFFE520FEE51FFDE5E2
:10171D001E8F218E208D1FF51EAF1DAE1CAD1BAC77
:10172D001A752A00752BE9120D4AAF21AE20AD1F97
:10173D00AC1E752A00752BE1120D4A7C007DE97FE8
:0D174D0001122C087C007DE1E4FF122C0845
:01175A00226C
:062C0F00900000EFF0222E
:062C1500900000E0FF2228
:041386008E118F1223
:10138A00E4F513F51474062512F58274003511F587
:10139A0083E0FD74072512F58274003511F583E0A8
:1013AA00751400F51374082512F58274003511F5C9
:1013BA0083E02514F514E43513F51374042512F5A6
:1013CA008274003511F583E07F00FE74052512F55D
:1013DA008274003511F583E02FFFE43EFE122BEEF6
:1013EA00ED120D24140A01140D02143B03143E04D9
:1013FA0014A40514A40614B70814DB24000014EC82
:03140A00021EF9C6
:10140D0074092512F58274003511F583E0F515FF89
:10141D00122C0FAF15122BD2E51570030214ECE54B
:0E142D0015640160030214EC121A47021C97AA
:03143B000200228A
:10143E00E4F515F517F518F515AF157E00C3EF9504
:10144E0014EE951340030214ECE5122FFDEE351148
:10145E00FC740B2DF58274003CF583E0751800F5D5
:10146E0017740C2DF58274003CF583E02518F518E1
:10147E00EE3517F51774092512F974003511FA7B3C
:10148E0001E92FF9EE3AFA12230D8F16E51824040E
:06149E002515F51580A3E1
:1014A40074092512F58274003511F583E0F515FFF2
:0314B400022C1EE9
:1014B70074092512F58274003511F583E0F515746A
:1014C7000A2512F58274003511F583E0F516FDAF94
:0414D70015022C21AD
:1014DB0074092512F974003511FA7B01AD1412163B
:0114EB002BD5
:0114EC0022DD
:10073100020973E86480F8E933E83360110460F07A
:10074100ED33EC337009E8FCE9FDEAFEEBFF22042E
:1007510060DED3EB9FEA9EE99DE8C2E78CF0C2F729
:1007610095F0400CE8CCF8E9CDF9EACEFAEBCFFBF5
:1007710012093E85D0F05804700320D5B3E8047007
:10078100075002B2D502097D92D5EC0460F7E4CCA2
:10079100C0E0C398F8603B94186008400DD0E0FBBE
:1007A100020955E4FBFAC9FC8028E830E406E4C9F3
:1007B100FBE4CAFCE830E305E4C9CACBFCE8540712
:1007C1006010F8C3E913F9EA13FAEB13FBEC13FC1D
:1007D100D8F130F52FC3E49CFCEF9BFFEE9AFEEDC0
:1007E10099FDD0E0FBEF4E4D4C701222DB03020964
:1007F1007AEC2CFCEF33FFEE33FEED33FDED30E709
:10080100EB020955EF2BFFEE3AFEED39FDD0E0FB8F
:1008110050130BBB000302097DED13FDEE13FEEF38
:0808210013FFEC13FC02095562
:1008290002097DEC5D046005E8590470030209734F
:1008390012093E580460F6EC4860F2EC7004FDFEC3
:10084900FF22C860DB2481C85009C39860025006A2
:1008590002097A9850CAF582E9294B4A7005AB8298
:1008690002096975F0007C1A7880C3EF9BEE9AED56
:1008790099400DC3EF9BFFEE9AFEED99FDE842F01A
:10088900DC23ACF0D0E0FFD0E0FED0E0FDAB82206D
:10089900E7101BEB60BAEC2CFCEF33FFEE33FEEDF7
:1008A90033FD020955E803F830E705C0F075F0009B
:1008B900EF2FFFEE33FEED33FD40B830E7C280AADB
:1008C90075F020800E75F010800575F0087D007EAA
:1008D900007F003392D530D503120C58EC33401009
:1008E900EF33FFEE33FEED33FDEC33FCD5F0ED22B3
:0E08F900E5F0247EA2D513CC92E7CDCEFF22EF
:10090700EDD2E7CD33EC3392D524814006E4FFFEE8
:10091700FDFC22FCE4CFCECDCC24E0501174FF8047
:10092700EDC3CC13CCCD13CDCE13CECF13CF0470E4
:07093700F030D5DE020C5880
:10093E00E9D2E7C933E833F892D5EDD2E7CD33ECFF
:07094E0033FC5002B2D52278
:10095500EC30E7100FBF000C0EBE00080DBD000403
:100965000BEB6014A2D5EB13FCED92E7FD2274FFAF
:10097500FCFDFEFF22E480F8A2D574FF13FC7D8008
:03098500E480EF1C
:101E7900020FDBE493A3F8E493A34003F68001F295
:101E890008DFF48029E493A3F85407240CC8C3336A
:101E9900C4540F4420C8834004F456800146F6DF39
:101EA900E4800B010204081020408090185DE47E54
:101EB900019360BCA3FF543F30E509541FFEE4932E
:101EC900A360010ECF54C025E060A840B8E493A3F5
:101ED900FAE493A3F8E493A3C8C582C8CAC583CA20
:101EE900F0A3C8C582C8CAC583CADFE9DEE780BED8
:01195900008D
:10098800E709F608DFFA8046E709F208DFFA803E51
:1009980088828C83E709F0A3DFFA8032E309F6083E
:1009A800DFFA8078E309F208DFFA807088828C83A6
:1009B800E309F0A3DFFA806489828A83E0A3F6085A
:1009C800DFFA805889828A83E0A3F208DFFA804C34
:1009D80080D280FA80C680D4806980F2803380100B
:1009E80080A680EA809A80A880DA80E280CA803374
:1009F80089828A83ECFAE493A3C8C582C8CCC583EC
:100A0800CCF0A3C8C582C8CCC583CCDFE9DEE780BB
:100A18000D89828A83E493A3F608DFF9ECFAA9F03A
:100A2800EDFB2289828A83ECFAE0A3C8C582C8CC90
:100A3800C583CCF0A3C8C582C8CCC583CCDFEADEA9
:100A4800E880DB89828A83E493A3F208DFF980CC0B
:100A580088F0EF60010E4E60C388F0ED2402B40404
:100A68000050B9F582EB2402B4040050AF232345AB
:060A780082239009D873EF
:100A7E00BB010689828A83E0225002E722BBFE0276
:090A8E00E32289828A83E49322A9
:100A9700BB010CE58229F582E5833AF583E0225014
:100AA70006E92582F8E622BBFE06E92582F8E2225E
:0D0AB700E58229F582E5833AF583E4932278
:100AC400BB010689828A83F0225002F722BBFE0111
:020AD400F3220B
:100AD600F8BB010DE58229F582E5833AF583E8F056
:100AE600225006E92582C8F622BBFE05E92582C802
:020AF600F222EA
:100AF800EF8DF0A4A8F0CF8CF0A428CE8DF0A42E12
:020B0800FE22CB
:100B0A00C5F0F8A3E028F0C5F0F8E5821582700276
:060B1A001583E038F02213
:0D0B2000EF2BFFEE3AFEED39FDEC38FC2224
:0E0B2D00C3EF9BFFEE9AFEED99FDEC98FC22C3
:100B3B00E88FF0A4CC8BF0A42CFCE98EF0A42CFC59
:100B4B008AF0EDA42CFCEA8EF0A4CDA8F08BF0A4D7
:100B5B002DCC3825F0FDE98FF0A42CCD35F0FCEB36
:100B6B008EF0A4FEA9F0EB8FF0A4CFC5F02ECD39FB
:0F0B7B00FEE43CFCEAA42DCE35F0FDE43CFC2268
:100B8A0075F008758200EF2FFFEE33FECD33CDCC22
:100B9A0033CCC58233C5829BED9AEC99E5829840A5
:100BAA000CF582EE9BFEED9AFDEC99FC0FD5F0D682
:100BBA00E4CEFBE4CDFAE4CCF9A88222B800C1B9AC
:100BCA000059BA002DEC8BF084CFCECDFCE5F0CBEA
:100BDA00F97818EF2FFFEE33FEED33FDEC33FCEB23
:100BEA0033FB10D703994004EB99FB0FD8E5E4F9DE
:100BFA00FA227818EF2FFFEE33FEED33FDEC33FCCB
:100C0A00C933C910D7059BE99A4007EC9BFCE99ABE
:100C1A00F90FD8E0E4C9FAE4CCFB2275F010EF2F03
:100C2A00FFEE33FEED33FDCC33CCC833C810D70703
:100C3A009BEC9AE899400AED9BFDEC9AFCE899F83E
:0E0C4A000FD5F0DAE4CDFBE4CCFAE4C8F922D1
:0E0C5800C3E49FFFE49EFEE49DFDE49CFC22AD
:100C6600EB9FF5F0EA9E42F0E99D42F0EC6480C805
:060C760064809845F022A5
:100C7C00EB9FF5F0EA9E42F0E99D42F0E89C45F0CE
:010C8C002245
:100C8D00E8600FECC313FCED13FDEE13FEEF13FF45
:030C9D00D8F12269
:100CA000E8600FEFC333FFEE33FEED33FDEC33FCB2
:030CB000D8F12256
:0C0CB300E0FCA3E0FDA3E0FEA3E0FF22B4
:0C0CBF00E0F8A3E0F9A3E0FAA3E0FB22B8
:0C0CCB00ECF0A3EDF0A3EEF0A3EFF0229C
:100CD700A8828583F0D083D082120CEE120CEE121C
:100CE7000CEE120CEEE473E493A3C583C5F0C58341
:100CF700C8C582C8F0A3C583C5F0C583C8C582C867
:010D070022C9
:0C0D0800A42582F582E5F03583F58322F6
:100D1400FAE6FB0808E6F925F0F618E6CA3AF622E0
:100D2400D083D082F8E4937012740193700DA3A35E
:100D340093F8740193F5828883E473740293686072
:060D4400EFA3A3A380DF72
:00000001FF
