:03000000021F7468
:0C1F7400787FE4F6D8FD758182021FBB67
:10189000045C000000004100690041009E0C410012
:1018A0009F404400960000000044007A00000000C1
:1018B00044007E000000004400B30000000044002B
:1018C000A3000000004400B90000000042008A00AC
:1018D00001420078000041006F0041009400420086
:1018E000BE00004200700000410067084100A100F6
:1018F0004100C0000160000161004100B7004100EB
:1019000077004100820141008E0A4100A20041009F
:10191000A00A410093004100950042006D00004183
:1019200000680002810000027F000041006A00415F
:1019300000760041008D00410089004100660041B1
:101940000088004A00A9000000000000000000001C
:0519500042006B0000E5
:1029A7008E088F098B0A8A0B890CAF051DEF6026ED
:1029B7000509E509AE087002050814F5828E83E45F
:1029C70093FFAB0A050CE50CAA0B7002050B14F973
:0729D700EF120C3980D4223D
:10002600E4FDFCC3ED9FEC9E50070DBD00010C8066
:01003600F2D7
:0100370022A6
:102B30008F828E83E4F55FF55EF55DF55CAF82AE66
:102B400083E4FCFDAB5FAA5EA95DA85CC3120DD651
:082B5000500543BD1080E62290
:092C3C00E0FF7C2F122B587F648D
:102C4500E4FDFCC3ED9FEC9E50070DBD00010C801B
:012C5500F28C
:012C5600225B
:102C5700758E5190FE917401F0A37410F075BD5FED
:072C670090FEA07420F02292
:102BCA00E490FE80F0758901758DFA758BCB43A868
:0E2BDA0008438840758CCB758AEB4388102227
:102A770090FF10E054F04408F090FF02E054F04457
:102A870002F0D28490FFA07420F0A37404F075CCF8
:102A97000675CEFF75CD98759E0275981043A810E0
:012AA700220C
:102C6E0043B40343B4807F147E0012002675B50171
:072C7E0090FE9B744BF02255
:102BE80090FF08E054F04408F090FF00E0540F44D0
:0C2BF80030F090FF11E054F04403F02294
:102C040090007AE0FCA3E0FDA3E0FEA3E0FF120D38
:012C1400E7D8
:0B2C15008F99E59830E1FB5398FD22F9
:10276D008FB543B440E5B430E5FB53B4DF7F647EF1
:10277D0000120026E4FBFAF943B440E5B430E5FB62
:10278D0053B4DFE5B62BFBE5B73AFA7F147E0012A2
:10279D00002609B910E275B501A9027F647E001209
:0427AD000026AF0152
:0127B1002205
:101479007B017A0079A97D0A7F007E2F1229A79026
:1014890000A9E0FFE4FCFDFE900072120E0D900031
:1014990072E0FCA3E0FDA3E0FEA3E0FF7808120DD3
:1014A900FA900072120E0D900072E0F8A3E0F9A311
:1014B900E0FAA3E0FB9000AAE0FFE4FCFDFEEB2FBD
:1014C900FFEE3AFEED39FDEC38FC900072120E0D7C
:1014D900900072E0FCA3E0FDA3E0FEA3E0FFE47B43
:1014E900E87A03F9F8120C95900072120E0DE47F58
:1014F900307E75FDFC900072E0F8A3E0F9A3E0FAF4
:10150900A3E0FBC3120DD640177F007E097D3D7C09
:1015190000900072E0F8A3A3A3E0D3120DD6400A0D
:10152900900072120E1900009C409000ABE09000F0
:10153900BDF0700280079000BDE0B4FE0374FFF0B7
:101549009000ACE0FF900090E4F0A3EFF0E0F8E445
:10155900F0E8900090F09000ADE0FF900091E02F4E
:10156900F0900090E03400F0E0FEA3E0FF4E600947
:10157900D3EF9408EE94074009900090E4F0A37427
:1015890005F09000AEE090008EF0900095F090008C
:10159900AFE0900083F06006E0D394FF400690002E
:1015A900837401F09000B0E05401900082F07B0157
:1015B9007A00796B7D027F807E2F1229A790006BBC
:1015C900E0900093F090006CE0900088F0121CDA33
:0A15D900900088E07003122C9C22A1
:10003E00E560600302095243B440E5B430E5FB537A
:10004E00B4DF85B70885B609900079E004F0700634
:10005E00900078E004F09000B9E0F8A3E0F9A3E096
:10006E00FAA3E0FBE4FCFDEB2509FFEA3508FEED03
:10007E0039FDEC38FC9000B9120E0D9000A7E0FE91
:10008E00A3E0FFC39509EE9508500DC3E5099FF552
:10009E0009E5089EF508800BC3EF9509F509EE9565
:1000AE0008F50890007EE0F8A3E0F9A3E0FAA3E0DB
:1000BE00FBE4FCFDEB2509FFEA3508FEED39FDEC0E
:1000CE0038FC90007E120E0D900078E05401FEA3D5
:1000DE00E04E7061D39000BFE094009000BEE094BB
:1000EE000040179000A0E094645042E02402F0E03B
:1000FE00D3946440387464F08033900070E07004E0
:10010E00A3E06401702F90008EE0FF9000A0E0FE4F
:10011E00D39F4019EE94024004E024FEF09000A01C
:10012E00E0C39F500890008EE09000A0F09000A0D9
:10013E00E0FF122AA8C3900078E094205003020931
:10014E009D43BD10E4F0A3F09000A1E004F09000F8
:10015E00A3E0FCA3E0FDA3E0FEA3E0FF9000B9E066
:10016E00F8A3E0F9A3E0FAA3E0FBEF2BFFEE3AFED3
:10017E00ED39FDEC38FC9000A3120E0D9000A1E0BD
:10018E00C394084043E4F09000A3E0FCA3E0FDA379
:10019E00E0FEA3E0FF7810120DE79000A3120E0D03
:1001AE009000A3A3A3E0FEA3E0FF9000A8E02FF031
:1001BE009000A7E03EF0E0C313F0A3E013F0900030
:1001CE00A3120E1900000000900067E0C3940850BF
:1001DE0005E004F080569000BEE07002A3E0704C83
:1001EE007F0A12276D90008FEFF09000B8E0FE248A
:1001FE0002FDE433FCEFD39DEC6480F874809850DC
:10020E001E90008FE02402FDE433FCEED39DEC64DF
:10021E0080F874809850089000B8E090008FF090AD
:10022E00008FE09000B8F0E4900067F0E4FFFEFD70
:10023E00FC90007AE0F8A3E0F9A3E0FAA3E0FBC398
:10024E00120DD6704F90007EE0FCA3E0FDA3E0FE01
:10025E00A3E02488FFEE3413FEE43DFDE43CFC9065
:10026E00007A120E0D90008AE07002A3E070257FD6
:10027E00407E427D0FFC90007AE0F8A3E0F9A3E007
:10028E00FAA3E0FBD3120DD6400A90007A120E1993
:10029E00000F4240900069E0701E90007EE0FCA3CB
:1002AE00E0FDA3E0FEA3E0FF900096120E0D90007D
:1002BE0084120E1900000001900084E0FCA3E0FD02
:1002CE00A3E0FEA3E0FF90007EE0F8A3E0F9A3E038
:1002DE00FAA3E02FFFEA3EFEE93DFDE83CFC90006C
:1002EE0096E0F8A3E0F9A3E0FAA3E0FBC3120DD663
:1002FE0040030206C4900084E0FCA3E0FDA3E0FEF0
:10030E00A3E0FF900096E0F8A3A3A3E02FFFEA3E40
:10031E00FEE93DFDE83CFC90007EE0F8A3E0F9A389
:10032E00E0FAA3E0FBC3120DD640030206C4900010
:10033E0069E004F09000B3E0FCA3E0FDA3E0FEA3AF
:10034E00E0FF90007EE0F8EF2BFFEE3AFEED39FD78
:10035E00EC38FC9000B3120E0D900069E0FBE4FA4D
:10036E00F9F89000B3E0FCA3E0FDA3E0FEA3E0FFEC
:10037E00120D20900096120E0D900096E0FCA3E058
:10038E00FDA3E0FEA3E0FF7803120DE790008412B8
:10039E000E0DE47F207E4EFDFC900084E0F8A3E07D
:1003AE00F9A3E0FAA3E0FBC3120DD6500A90008425
:1003BE00120E1900004E20E47F607EEAFDFC9000D4
:1003CE0084E0F8A3E0F9A3E0FAA3E0FBD3120DD684
:1003DE00400A900084120E190000EA60900096E028
:1003EE00FCA3E0FDA3E0FEA3E0FF90007AE0F8A3FB
:1003FE00E0F9A3E0FAA3E0FBD3120DD64073900010
:10040E0096E0F8A3E0F9A3E0FAA3E0FB90007AE00F
:10041E00FCA3E0FDA3E0FEA3E09BFFEE9AFEED99A8
:10042E00FDEC98FC9000B9120E0D7F807E387D0198
:10043E007C009000B9E0F8A3E0F9A3E0FAA3E0FB9A
:10044E00D3120DD6400890009E7406F08029E47FEA
:10045E00407E9CFDFC9000B9E0F8A3E0F9A3E0FA21
:10046E00A3E0FBD3120DD690009E40087409F080D5
:10047E000690009E740CF090009EE0FF900069E0E4
:10048E00C39F500302055C90007AE0FCA3E0FDA33D
:10049E00E0FEA3E0FF900096E0F8A3E0F9A3E0FAF7
:1004AE00A3E0FB120DD6400302055C90009FE09482
:1004BE001050030206D390009EE0D3940950109082
:1004CE000096E0FCA3E0FDA3E0FEA3E0FF807690A3
:1004DE000096E0FCA3E0FDA3E0FEA3E024A0FFEE67
:1004EE00340FFEE43DFDE43CFC90007AE0F8A3E01E
:1004FE00F9A3E0FAA3E0FBD3120DD650030206C413
:10050E0090007AE0FCA3E0FDA3E0FEA3E0FF9000E4
:10051E0096E0F8A3E0F9A3E0FAA3E0FBEF2BFFEEE1
:10052E003AFEED39FDEC38FC90007A120E0D90007B
:10053E007AE0FCA3E0FDA3E0FEA3E0FFE47B02FA79
:10054E00F9F8120D2090007A120E0D0206C49000DA
:10055E009FE0FF900069E0C39F50030206D3900016
:10056E007AE0FCA3E0FDA3E0FEA3E024A0FFEE34BE
:10057E000FFEE43DFDE43CFC900096E0F8A3E0F9AC
:10058E00A3E0FAA3E0FBD3120DD650030206B490FB
:10059E00007AE0F8A3E0F9A3E0FAA3E0FB9000965E
:1005AE00E0FCA3E0FDA3E0FEA3E09BFFEE9AFEEDD0
:1005BE0099FDEC98FC9000B9120E0D7F007E127D15
:1005CE007A7C00900096E0F8A3E0F9A3E0FAA3E0AD
:1005DE00FBC3120DD640030206B47F807E1A7D0641
:1005EE007C009000B9E0F8A3E0F9A3E0FAA3E0FBE9
:1005FE00C3120DD640030206B490009FE094104043
:10060E000280587FE07E937D047C009000B9E0F874
:10061E00A3E0F9A3E0FAA3E0FBD3120DD6400890B5
:10062E00009F7410F080277FF07E497D027C009041
:10063E0000B9E0F8A3E0F9A3E0FAA3E0FBD3120DB2
:10064E00D690009F4005740CF080037408F0900063
:10065E009FE0FF900069E0C39F404B90007AE0FC62
:10066E00A3E0FDA3E0FEA3E0FF900096E0F8A3E078
:10067E00F9A3E0FAA3E0FBEF2BFFEE3AFEED39FD16
:10068E00EC38FC90007A120E0D90007AE0FCA3E09C
:10069E00FDA3E0FEA3E0FFE47B02FAF9F8120D20C1
:1006AE0090007A120E0D90009FE0FF900069E0C35B
:1006BE009F4012E48004E4900069F09000B3120EA3
:1006CE001900000000900094E0D39400500302073C
:1006DE0067E014F090009AE0FCA3E0FDA3E0FEA317
:1006EE00E02470FFEE3417FEE43DFDE43CFC900088
:1006FE007AE0F8A3E0F9A3E0FAA3E0FBD3120DD65B
:10070E0050030208BD90009AE0FCA3E0FDA3E0FEBA
:10071E00A3E02498FFEE343AFEE43DFDE43CFC9069
:10072E00007EE0F8A3E0F9A3E0FAA3E0FBC3120D0C
:10073E00D640030208BD90009AE0FCA3E0FDA3E0C2
:10074E00FEA3E02470FFEE3417FEE43DFDE43CFC16
:10075E0090007A120E0D0208BDD390008BE094002B
:10076E0090008AE094005003020828A3E024FFF0D2
:10077E0090008AE034FFF0D3A3E0940090008AE06A
:10078E00940050030208287F007E127D7A7C009030
:10079E00007AE0F8A3E0F9A3E0FAA3E0FBD3120D90
:1007AE00D6400C900072120E19000C3500806B9022
:1007BE000072E0FCA3E0FDA3E0FEA3E0FF90007A50
:1007CE00E0F8A3E0F9A3E0FAA3E02FFFEA3EFEE98A
:1007DE003DFDE83CFC9000B9120E0D7F407E547D2D
:1007EE00897C009000B9E0F8A3E0F9A3E0FAA3E059
:1007FE00FBD3120DD6402390007AE0F8A3E0F9A3C4
:10080E00E0FAA3E0FB74409BFF74549AFE7489993E
:10081E00FDE498FC900072120E0D900072E0FCA3A5
:10082E00E0FDA3E0FEA3E0FF90007AE0F8A3E0F97C
:10083E00A3E0FAA3E02FFFEA3EFEE93DFDE83CFC13
:10084E00A3E0F8A3E0F9A3E0FAA3E0FBD3120DD6E0
:10085E00405D9000BDE0FF90008FE0D39F400FD32E
:10086E0090008BE0940090008AE09400404190004C
:10087E00BEE07002A3E0701490007AE0FCA3E0FDED
:10088E00A3E0FEA3E0FF90009A120E0D9000BEE4CE
:10089E00F0A304F0900089F090009F7408F0E490AB
:1008AE000070F0A3F07881F608F6787FF608F690DF
:1008BE0000A7E0C4F854F0C8A3E0C4540F48FF12D8
:1008CE002C1590008FE0FF122C157810122C047846
:1008DE0008122C04A3E0FCA3E0FDA3E0FEA3E0FFBE
:1008EE007810120DE7122C1590007EE0FCA3E0FDAF
:1008FE00A3E0FEA3E0FF7808120DE7122C1590007E
:10090E00B9120E190000000090007E120E190000A0
:10091E0000009000BEE0FEA3E0FFD39400EE940032
:10092E00406D900090E0FCA3E0FDD3EF9DEE9C4067
:10093E005EE49000BEF0A3F0756001900089F09027
:10094E000066F022900070E4F0A304F0E4F56090ED
:10095E00006DF0A3F0900068F07FFAFE122B30903D
:10096E0000A3120E1900000000E49000A1F0900008
:10097E009F7440F09000947402F09000677406F03B
:0F098E00E4900069F09000B3120E190000000011
:01099D002237
:10211500E4F5099000B9120E1900000000E4F50875
:1021250043B440E5B430E5FB53B4DF9000B9E0F8C3
:10213500A3E0F9A3E0FAA3E0FBAFB6AEB7E4FCFD7C
:10214500EB2FFFEA3EFEED39FDEC38FC9000B912AD
:102155000E0D0508E508B480C77F907E01122B306F
:102165009000B9E0FCA3E0FDA3E0FEA3E0FF780B3F
:10217500120DE78F08E508D3940C400CE508948D03
:102185005006E5099414500A0509E509D394504011
:022195008222A4
:012197002225
:10221B009000B9120E1900000000E4F508E4F50B6C
:10222B00F50C43B440E5B430E5FB53B4DF85B70997
:10223B0085B60A9000B9E0F8A3E0F9A3E0FAA3E0B1
:10224B00FBE4FCFDEB250AFFEA3509FEED39FDEC5D
:10225B0038FC9000B9120E0D050CE50C7002050B45
:10226B00B400BFE50BB420BA43BD100508E508B4B4
:10227B0008AB9000B9E0FCA3E0FDA3E0FEA3E0FFF8
:0D228B007810120DE79000A7EEF0A3EFF021
:012298002223
:102AA8007E007C007DFF120C6DAC06AD07E4120AB7
:102AB80043E4FBFA79C878421209A1120A7C90FF14
:0E2AC8009C7410F075DEFF8FDF75DD947F00CB
:012AD60022DD
:1010F500120003122C57122BE87F64122AA8122B18
:10110500CA122A77122C6E75BBAA90FEA774FFF03F
:1011150053BBF7D2AF7FC87E00122B307F64122AF3
:10112500A89000B77401F07F0A12276D90008FEF29
:10113500F09000B8F0C2AF121479900093E004F07B
:101145007F807E2F122BA57F107E27122C459000C5
:1011550093E0FF7D807C2F122B587F647E00122C3C
:1011650045D2AF122115121C1990008EE0FF900098
:10117500A0F0122AA87F2C7E01122B3012221B9080
:1011850000B9120E1900000000900093E0C394030B
:101195004005E4F012001E43BD10E560700B9000A1
:1011A50079E0541F70031212C4900082E06401605C
:1011B5000302126EE561703DF56075610190008E68
:1011C500E09000A0F09000A3120E1900000000E4CA
:1011D5009000A1F090009F7440F09000947402F08C
:1011E5009000677406F0E4900069F09000B3120E69
:1011F500190000000012003ED3900071E0940090A9
:101205000070E094004032900068E0B4012BE4F0F7
:10121500900071E004F07006900070E004F090001A
:1012250083E0FFC3900071E09F900070E094004060
:1012350008E4F0A3F0FF122AA8D39000BFE09400C1
:101245009000BEE0940040187880E664011846706E
:101255000FF608F6A3E004F070069000BEE004F077
:1012650090008DE0640102118EE4F561900077E055
:101275007007FF122AA802118E900095E0FF122A2E
:10128500A8E4F56090008EE09000A0F09000A31215
:101295000E1900000000E49000A1F090009F74403A
:1012A500F09000947402F09000677406F0E49000EA
:0F12B50069F09000B3120E190000000002118EB4
:03001B00021D8E35
:101D8E00C0E0C0F0C083C082C0D075D000C000C01B
:101D9E0001C002C003C004C005C006C007AF5FAEDD
:101DAE005EAD5DAC5CEF2401F55FE43EF55EE43DB7
:101DBE00F55DE43CF55C90006EE004F0700690007A
:101DCE006DE004F090006DE0FEA3E0FFE4FCFD7B0F
:101DDE00607AEAF9F8D3120DC0500C90006DE4F061
:101DEE00A3F090006804F0788206E618700106C32E
:101DFE007882E694E818E69403401190006A740124
:101E0E00F07600087600787F760008F6D007D006C8
:101E1E00D005D004D003D002D001D000D0D0D082D3
:071E2E00D083D0F0D0E032B8
:0300230002269A18
:10269A00C0E0C0F0C083C082C0D075D000C000C006
:0D26AA0001C002C003C004C005C006C00787
:0F26B700E59830E00AAF991228F15398FED2AFA0
:1026C600D007D006D005D004D003D002D001D00068
:0B26D600D0D0D082D083D0F0D0E03212
:03003B000200219F
:0100210032AC
:102BA50053BBF7C280E5BB20E3F6D280C2AF75FD0B
:102BB500F075FC0F8EFA8FF975FDD275FC2D75FD3C
:052BC500E175FC1E2279
:102B580053BBF7C280E5BB20E3F6D280C2AF8FFB40
:102B680075FDF075FC0F8CFA8DF975FDB475FC4B8D
:072B780075FDE175FC1E2252
:101CDA007F007E2F122BA57F107E27122C45E47BD6
:101CEA00E87A03F9F8900072E0FCA3E0FDA3E0FEB5
:101CFA00A3E0FF120D207808120DE77D007C2F1259
:101D0A002B587F647E00122C45E47BE87A03F9F8AD
:101D1A00900072E0FCA3E0FDA3E0FEA3E0FF120D39
:101D2A00207D017C2F122B587F647E00122C459057
:101D3A0000BD7D02122C3C9000907D03122C3CA326
:101D4A00E0FF7D04122C3E90008EE0FF7D05122CF0
:101D5A003E900083E0FF7D06122C3E900082E0FF59
:101D6A007D07122C3E7F807E2F122BA57F107E27A7
:101D7A00122C457D807C2FE4FF122B580D0F122B5D
:031D8A0058D2AF7D
:011D8D002233
:04195500027D00000F
:10238600EFC39430400CEFD39439500674D02FFF2E
:102396008022EFC39441400CEFD394465006EF24BD
:1023A600C9FF8010EFC39461400AEFD394665004CE
:1023B600EF24A9FFEF540FC454F0FFEDC39430404F
:1023C6000CEDD39439500674D02DFD801EEDC394C8
:1023D600414008EDD394465002800CEDC394614011
:1023E6000AEDD394665004ED24A9FDED540F42077F
:0123F60022C4
:062509008B198A1A891BE0
:10250F00E4F51FF51EF51DF51CE94A4B7005FFFE9E
:10251F00FDFC22E4F51FF51EF51DF51CAB19051B7F
:10252F00E51BAA1A7002051A14F9120BF36017E5CE
:10253F001F2401F51FE4351EF51EE4351DF51DE4BE
:0E254F00351CF51C80D6AF1FAE1EAD1DAC1C9A
:01255D00225B
:0628B4008B258A2689270E
:1028BA008B2B8A2C892DE94A4B7004FBFAF922E505
:1028CA002A152AAE29700215294E6014AB2B052D44
:1028DA00E52DAA2C7002052C14F9ED120C3980DFB3
:0628EA00AB25AA26A92778
:0128F00022C5
:061B48008B208A21892296
:101B4E008B288A29892A85232B85242C85252DE906
:101B5E004A4B6008E5254524452370077B007A0033
:101B6E00790022D3852C83852D82E52A9582E5295D
:101B7E0095834019E52D2527F9E52C3526FA8A831C
:101B8E008982D3E52A9582E52995834038E4F52E9E
:101B9E00F52FC3E52F9527E52E95265067AB2BAA7B
:101BAE002CA92D852F82852E83120C0CAB28AA29E9
:101BBE00A92A852F82852E83120C4B052FE52F70B7
:101BCE00D1052E80CD85262E85272FD3E52F940087
:101BDE00E52E9400402EAB2BAA2CA92DE52F24FF29
:101BEE00FFE52E34FFFE8F82F583120C0CAB28AA74
:101BFE0029A92A8F828E83120C4BE52F152F70CBBD
:0A1C0E00152E80C7AB20AA21A922E1
:011C180022A9
:062650008B3B8A3C893D32
:102656008B418A428943AB3EAA3FA940120BF360E5
:10266600220540E5407002053F14F9120BF3FFAB5B
:102676003B053DE53DAA3C7002053C14F9EF120C02
:102686003980D3AB3BAA3CA93DE4120C39AB41AA35
:0326960042A94313
:01269900221E
:102457008B628A638964AB62AA63A964120BF3FF78
:102467006026AB65AA66A967120BF3601BB5071850
:1024770074012564F564E43563F56374012567F534
:1024870067E43566F56680CEAB65AA66A967120B69
:10249700F3FF3395E0FEAB62AA63A964120BF3FD69
:0C24A7003395E0FCC3ED9FFFEC9EFE228D
:1027B2008F7C8E7B8D7A8C797818120DE7EF120C54
:1027C20039AF7CAE7BAD7AAC797810120DE7900010
:1027D20001EF120C4BAF7CAE7BAD7AAC797808126C
:1027E2000DE7900002EF120C4BE57CFF900003EF27
:0327F200020C4B8B
:101E3500E4F52FF52EF52DF52C120BF3FFE48F2F7E
:101E4500F52EF52DF52CAE2EAD2DAC2C7808120DFA
:101E5500FA8F2F8E2E8D2D8C2C900001120C0CFFDD
:101E6500E52F4FF52FE52EF52EE52DF52DE52CF576
:101E75002CAF2FAE2EAD2DFC7808120DFA8F2F8EBC
:101E85002E8D2D8C2C900002120C0CFFE52F4FF59A
:101E95002FE52EF52EE52DF52DE52CF52CAF2FAEE6
:101EA5002EAD2DFC7808120DFA8F2F8E2E8D2D8CD0
:101EB5002C900003120C0CFFE52F4FF52FE52EF5A6
:101EC5002EE52DF52DE52CF52CAF2FAE2EAD2DFCE9
:011ED50022EA
:102CAE00E4FDFCFFFE122C28AC06AD077F030222CA
:012CBE00997C
:102C9C00E4FDFCFFFE0D122C28AC06AD077F0302F1
:022CAC0022996B
:0826E1008F688B698A6A896B1E
:1026E900E4FCFFFEAD68122C28AC06E4FD122C2890
:1026F900AC06E56CFD122C28AC06AD6D122C28AC8D
:1027090006AD07AB69AA6AA96B856C1E856D1F1298
:0D2719002971AC06AD077F061222997F01E1
:012726002290
:0427F5008D26AB077B
:1027F900E4FCFFFEAD03122C28AC067D01122C2847
:10280900AC06E4FD122C28AC067D01122C28AC067E
:10281900AD07E5267003FD8006AF05AE047D011204
:0D2829002C28AC06AD077F061222997F0116
:01283600227F
:02208C00AB07A0
:10208E00E4FCFFFEAD03122C28AC067D02122C28B8
:10209E00AC06E4FD122C28AC067D04122C28C006DA
:1020AE00C007AF2EAE2DAD2CAC2B7818120DE7ADB0
:1020BE0007D007D006122C28C006C007AF2EAE2DB3
:1020CE00AD2CAC2B7810120DE7AD07D007D0061251
:1020DE002C28C006C007AF2EAE2DAD2CAC2B780829
:1020EE00120DE7AD07D007D006122C28AC06C0079C
:1020FE00E52EFFE4AD07D007122C28AC06AD077F06
:06210E00061222997F0178
:0121140022A8
:082727008F6E8B6F8A708971BF
:10272F00E4FCFFFEAD6E122C28AC067D03122C28A4
:10273F00AC06E572FD122C28AC06AD73122C28AC3A
:10274F0006AD07AB6FAA70A97185721E85731F1234
:0D275F002971AC06AD077F061222997F019B
:01276C00224A
:0429DE008D26AB0790
:1029E200E4FCFFFEAD03122C28AC067D04122C2859
:1029F200AC06E4FD122C28AC067D01122C28AC0694
:102A0200AD26122C28AC06AD077F061222997F0153
:012A120022A1
:02197E00AB07B5
:10198000900000AF82AE83AD03122C288E838F822D
:101990007D05122C288E838F82E4FD122C288E83E5
:1019A0008F8274FFFFE577FEE576FDE575FCE47B4D
:1019B000FFFAF9F8C3120DD67012AF82AE837D0123
:1019C000122C288E838F82AD78021A5874FFFFFE86
:1019D000E576FDE575FCE47BFF7AFFF9F8C3120DAF
:1019E000D6AF82AE8370047D02803E7D04122C2827
:1019F0008E838F82C006C007AF78AE77AD76AC75A8
:101A00007818120DE7AD07D007D006122C288E8368
:101A10008F82C006C007AF78AE77AD76AC75781010
:101A2000120DE7AD07D007D006122C288E838F82C7
:101A3000C006C007AF78AE77AD76AC757808120DEA
:101A4000E7AD07D007D006122C288E838F82C007FF
:101A5000E578FFE4AD07D007122C288E838F82AD86
:0A1A600082AC837F061222997F01F9
:011A6A002259
:082CEF008C268D27120BF3FF68
:012CF70022BA
:082CF8008C268D27120BF3FF5F
:012D000022B0
:072D13008C2A8D2B121E35E6
:012D1A002296
:10000300754F017550007551437552017553007555
:080013005443E4F54DF54E22C3
:1028F100C3E54E9421E54D94005031C3900064E549
:10290100519582E55095834009754F0175500075C9
:102911005143AB4F0551E551AA507002055014F9CE
:0D292100EF120C39054EE54E7002054D22F7
:1012C400E4F508F509F50AF50BF50CF50DF50E75C1
:1012D4000F09C3E57E9421E57D94005027122CBFAD
:1012E400D3EF9400EE9400401B122876057EE57E31
:1012F400AC7D7002057D142401F58274003CF583F5
:10130400EFF080CEC3E57E9409E57D94005003029E
:101314001478C3E57E9509FDE57D9508FCC3ED943D
:1013240009EC9400500302141B74012509F582741E
:10133400003508F583E06455600A0509E50970D2B3
:10134400050880CE74022509F58274003508F583FA
:10135400E064AA600A0509E50970B7050880B3745A
:10136400032509F58274003508F583E0750C00F552
:101374000D6402450C60047402803C74072509F571
:101384008274003508F583E0750B00F50A740825AE
:1013940009F58274003508F583E02409FFE433FE7F
:1013A400EF250BF50BEE350AF50AD3E50B942AE588
:1013B4000A9400400974032509F509E48052C3ED39
:1013C400950BEC950A405074012509F97400350811
:1013D400FA7B01E50B24FFFDE50A34FFFC122A45E4
:1013E400E509250BFDE508350AFC74002DF582742A
:1013F400003CF583E06F600974032509F509E48076
:101404000FAF09AE081215E3E50B2509F509E50A46
:101414003508F508021316C3E57E9509F57EE57DCA
:101424009508F57DD3E57E9400E57D94004045E57F
:101434000945087020E57E9421E57D940040160559
:1014440009E50970020508E57E9509F57EE57D95B7
:1014540008F57D800074012509F9740035087523A9
:1014640001F5248925857D26857E277B017A0079EF
:0414740001121B48FE
:011478002251
:101959004100C5004400C1000000005200C6010159
:101969000302650466026701680269027101720176
:03001E00022C9C15
:03003800022C1582
:101C1900900000E0FD7F011227F5900077E0FD7F3D
:101C2900711227F590008EE0FFE48F2EF52DF52C2B
:101C3900F52B7F0312208C9000BDE0FFB4FF05E473
:101C4900F508801EEFB4C8057508028015EFB428A1
:101C590005750803800CEFB4140575080480037535
:101C69000805AD087F651229DE900090E0FEA3E02B
:101C7900FFE48F2E8E2DF52CF52B7F6612208C908C
:101C89000082E0FD7F671227F5900083E0FFE48F73
:101C99002EF52DF52CF52B7F6812208CE47B107A1C
:101CA90027F9F8900072E0FCA3E0FDA3E0FEA3E0B1
:101CB900FF120D20C374329FFFE48F2EF52DF52CF2
:101CC900F52B7F6912208C90008DE0FD7F72022731
:011CD900F515
:102C8500122CEF900000EFF0FD7F011227F5BF0138
:062C9500037F01227F0015
:012C9B002216
:1025B100122D138F298E288D278C2690008EE0FFF7
:1025C100E4FCFDFEAB29AA28A927A826C3120DD633
:1025D1006006E4FF0FBF08FCAF2990008EEFF0907A
:1025E1000095F0121CDA90008EE0FFE48F2EF52D9D
:1025F100F52CF52B7F0312208CBF01037F01227F75
:0126010000D8
:0126020022B5
:10231000122CF89000C5E0B5070FBF05129000BD64
:10232000E0FE90008FE06E8006E4FE0EBE08FCEF3B
:1023300014601014601514601A14601F14602424B3
:102340000570289000BD74FFF080209000BD74C817
:10235000F080189000BD7428F080109000BD7414B7
:10236000F0800890008FE09000BDF09000C5EFF085
:10237000121CDA9000C5E0FD7F651229DEBF010363
:052380007F01227F0037
:012385002235
:1024B300122D138F298E288D278C26900090E0FEF5
:1024C300A3E0FFE4FCFDAB29AA28A927A826C31291
:1024D3000DD66006E4FF0FBF08FC900090E528F0DE
:1024E300A3E529F0121CDA900090E0FEA3E0FFE4DC
:1024F3008F2E8E2DF52CF52B7F6612208CBF0103BA
:052503007F01227F00B2
:0125080022B0
:102A1300122CEF900082E06F6006E4FE0EBE08FC0D
:102A2300EF9000827003F080037401F0121CDA90BF
:102A33000082E0FD7F671227F5BF01037F01227F3C
:012A43000092
:012A4400226F
:10260300122D138F298E288D278C26900083E0FFAF
:10261300E4FCFDFEAB29AA28A927A826C3120DD6E0
:102623006006E4FF0FBF08FC900083E529F0121C4D
:10263300DA900083E0FFE48F2EF52DF52CF52B7F48
:0C2643006812208CBF01037F01227F0081
:01264F002268
:10219800122D138F298E288D278C269000C1E0FCE4
:1021A800A3E0FDA3E0FEA3E0FFAB29AA28A927A886
:1021B80026C3120DD66006E4FF0FBF08FCAF29AE98
:1021C80028AD27AC269000C1120E0DC37432952994
:1021D800FFE49528FEE49527FDE49526FCE47B10B2
:1021E8007A27F9F8120C95900072120E0D121CDA6B
:1021F8009000C1E0FCA3E0FDA3E0FEA3E0F52E8E75
:102208002D8D2C8C2B7F6912208CBF01037F01221E
:022218007F0045
:01221A0022A1
:10283700122CEF900077E06F6006E4FE0EBE08FCF6
:10284700EF7006900077F08013900082E0B40106E5
:102857009000897401F09000777401F0900077E0A0
:0E286700FD7F711227F5BF01037F01227F0064
:012875002240
:102B0400122CEFAD0790008DE06D6006E4FF0FBF5F
:102B140008FCED90008D7003F080037401F07F7267
:0B2B24001227F5BF01037F01227F0094
:012B2F002283
:022D1B008F2502
:042D1D008C268D274C
:012D2100228F
:061A6B008B208A21892274
:101A7100E4F525EF120E4A1A97011AC6031AD56525
:101A81001AE4661AF3671B02681B11691B20711B9C
:101A91002F7200001B40AB20AA21A922AD24AC2348
:101AA100122C858F25E52564016003021B459000FA
:101AB100A2E004F0E0C394055003021B45E4F012D8
:101AC100001E021B45AB20AA21A922AD24AC231282
:101AD10025B18067AB20AA21A922AD24AC23122312
:101AE100108058AB20AA21A922AD24AC231224B323
:101AF1008049AB20AA21A922AD24AC23122A13804C
:101B01003AAB20AA21A922AD24AC23122603802BB3
:101B1100AB20AA21A922AD24AC23122198801CABB1
:101B210020AA21A922AD24AC23122837800DAB2095
:101B3100AA21A922AD24AC23122B048F258000E415
:061B41009000A2F0AF25A8
:011B4700227B
:032D2E007F0922F8
:102AD7007B2270223A2200726C376677713332009C
:102AE700222C2276223A2200312E302E3000227DEF
:0D2AF700001F1C1F1E1F1E1F1F1E1F1E1F65
:041979004100000029
:092D0100900064EEF0A3EFF02253
:092D0A00900064E0FEA3E0FF224A
:082C2000AB07E4FCFFFEAD036D
:102C2800742A2FF974003EFA7B01ED120C390FBF9C
:032C380000010E8A
:012C3B002276
:06296B00AF187E007BFFA7
:0A2971008E198F1A8B1B8A1C891D1A
:10297B00742A2FF974003EFA7B01851B23851C24D6
:10298B00851D25851E26851F27121B48E51F251A29
:0B299B00F51AE51E3519F519FEAF1AFC
:0129A600220E
:10292E008B318A3289338C348D35E94A4B602DE5F3
:10293E003545346027E5351535AE34700215344E05
:10294E00601AAB31AA32A933120BF3FF120038749E
:0D295E00012533F533E43532F53280D922FE
:0A2A45008B318A3289338C348D35D1
:102A4F00E4FFFDFCC3ED9535EC9534501AAB310521
:102A5F0033E533AA327002053214F9120BF32FFF4C
:072A6F000DBD00010C80DD2C
:012A7600223D
:062299008C2F8D30AB0715
:10229F00E4FF122D0AAD07AC069000227455F0A38F
:1022AF0074AAF0A37402F0AF04A3EFF0AF05EFA38D
:1022BF00F0A3EBF0E52FA3F0E530A3F00DBD000187
:1022CF000CAF05AE04122D0174092530F530E4353D
:1022DF002FF52F7B017A007922E53024FFFDE52FC2
:1022EF0034FFFC122A4574212530F5827400352FF6
:1022FF00F583EFF07B017A007922AD30AC2F022904
:01230F002E9F
:022B7F008F1FA6
:102B8100122D2EE4FEEEC39F501775F002EEA42421
:102B9100C6F582E5F03400F583E0651F60030E8021
:032BA100E4AF0698
:012BA400220E
:0E2CBF00E54E454D7003120003AE4DAF4E22A0
:10287600E4FFD3E54E9400E54D94004030900064AB
:10288600E5549582E55395834009755201755300C9
:10289600755443AB520554E554AA537002055314BC
:0D28A600F9120BF3FFE54E154E7002154DB3
:0128B3002202
:080E70008F288E278D268C25AA
:100E7800782B7C007D007BFF7A2A79F87E007F0C36
:100E8800120BCDE4F537F538F539F53AFFFEFDFCE0
:100E9800AB28AA27A926A825C3120DD66006E52ADD
:100EA800452970077B007A00790022E47B3CFAF937
:100EB800F8AF28AE27AD26AC25120D20AF03E52AE2
:100EC8002406F582E43529F583EAF0A3EFF0AF288C
:100ED800AE27AD26AC25E47B3CFAF9F8120D208F3D
:100EE800288E278D268C25E47B3CFAF9F8120D20F4
:100EF800E52A2405F582E43529F583EBF0AF28AE21
:100F080027AD26AC25E47B3CFAF9F8120D208F2892
:100F18008E278D268C25E47BF87A88F9F8120D2027
:100F28008E378F38E5387802C333CE33CED8F924DC
:100F3800B2FFEE3407852A82852983F0A3EFF0AF4C
:100F480028AE27AD26AC25E47BF87A88F9F8120D8F
:100F580020AC00AD01AE02AF038F288E278D268C02
:100F680025753922753A38852A82852983A3E05464
:100F780003700B7418253AF53AE43539F539AE396A
:100F8800AF3AE4FCFDAB28AA27A926A825C3120D71
:100F9800D6402E852A82852983E475F001120C7FBC
:100FA800AE39AF3AAB07AA06C3E5289BF528E52773
:100FB8009AF527E5269400F526E5259400F5258081
:100FC800A0E47B18FAF9F8AF28AE27AD26AC2512B5
:100FD8000D20E52A2404F582E43529F583EBF0AFEA
:100FE80028AE27AD26AC25E47B18FAF9F8120D20B7
:100FF8008F288E278D268C25EF2401F528E43EF5D1
:1010080027E43DF526E43CF525852A82852983A336
:10101800E0540370587F3CFEFDFCAB28AA27A926A4
:10102800A825D3120DD6401AE52824FFF528E52770
:1010380034FFF527E52634FFF526E52534FFF525A9
:10104800802BE47F3CFEFDFCAB28AA27A926A82517
:10105800C3120DD67017852A82852983A3A304F0AD
:10106800852A82852983A3A3A3741D8078852A8273
:10107800852983A3A3E4F0852A82852983A3A3E095
:10108800242BF8E6FF3395E0FEFDFCAB28AA27A940
:1010980026A825D3120DD64036852A82852983A312
:1010A800A3E0242BF8E6FB3395E0FAF9F8C3E5282A
:1010B8009BF528E5279AF527E52699F526E525984D
:1010C800F525852A82852983A3A3E004F080A885D5
:1010D8002A82852983A3A3E004F0852A82852983AF
:0C10E800A3A3A3E528F0AA29A92A7B01F4
:0110F40022D9
:0C2CCD00122C20AC06AD077F0B022299F0
:0C2CD900122C20AC06AD077F0C022299E3
:081ED6008B448A4589468D47C3
:101EDE00E4FDFCF54B754C08E54C154CAE4B700211
:101EEE00154B4E601FAF05AE04AB440546E546AA42
:101EFE00457002054514F9120BF3FD122C28AC06A1
:101F0E00AD0780D4AF05AE04AD47122C28AC06AD9C
:101F1E0007C006C007E549AE487818CEC313CE13E6
:101F2E00D8F9FDD007D006122C28AC06AD07C00696
:101F3E00C007E549AE487810CEC313CE13D8F9FDCD
:101F4E00D007D006122C28AC06E548FD122C28AC82
:101F5E0006AD49122C28AC06AD4A122C28AC06ADA3
:061F6E00077F0D0222991D
:08255E008F558B568A578958EE
:10256600E4FCF55A755B08FFFEAD558023E55B1567
:102576005BAE5A7002155A4E601FAF05AE04AB56DD
:102586000558E558AA577002055714F9120BF3FDC2
:10259600122C28AC06AD0780D4AF05AE04AD591297
:0B25A6002C28AC06AD077F0E02229926
:10200000E4F5187BFF7A2A79D71225098E1E8F1FD7
:102010007A2A79D712296B8F187BFF7A2A79DE12F8
:1020200025098E1E8F1F7A2A79DE12296B8F187B65
:10203000FF7A2A79E71225098E1E8F1FAF187E00BE
:102040007BFF7A2A79E71229718F187BFF7A2A7928
:10205000EF1225098E1E8F1FAF187E007BFF7A2A94
:1020600079EF1229718F187BFF7A2A79F5122509E9
:102070008E1E8F1FAF187E007BFF7A2A79F51229FA
:0C208000718F18EFFD7C007F0102229997
:0A2CE5008F18E4FDFC7F0202229923
:0100220022BB
:0623F7008B188A19891AF7
:1023FD00120BF3F51B900001120C0CF51C90000252
:10240D00120C0C751E00F51D900003120C0C251EF0
:10241D00F51EE4351DF51DAF1B122B7F75F002EF78
:10242D00A424C7F582E5F03400F583E0651C600354
:10243D007F0022AB18E51A2404F9E43519FA851D3D
:09244D0023851E24AF1B121A6B3B
:012456002263
:022D31008F18F9
:012D3300227D
:032D34000200009A
:02174C008D18F6
:10174E00E4F51CF51BF51AF519F520F51FF51EF538
:10175E001DF5218B228A238924E518C39408500392
:10176E0002188F7B017A0079D8752900752A08E452
:10177E00FD1228B47B017A0079E0752900752A08DC
:10178E00E4FD1228B4E4F521AB220524E524AA23B6
:10179E007002052314F9120BF3FFE51C4FF51CE53F
:1017AE001BF51BE51AF51AE519F519AF1CAE1BADA5
:1017BE001AFC7808120DFA8F1C8E1B8D1A8C1905C7
:1017CE0021E521B403C2AB220524E524AA2370022D
:1017DE00052314F9120BF3FFE51C4FF51CE51BF561
:1017EE001BE51AF51AE519F519E4F521AB220524C6
:1017FE00E524AA237002052314F9120BF3FFE5204A
:10180E004FF520E51FF51FE51EF51EE51DF51DAF75
:10181E0020AE1FAD1EFC7808120DFA8F208E1F8D84
:10182E001E8C1D0521E521B403C2AB220524E5243F
:10183E00AA237002052314F9120BF3FFE5204FF5CE
:10184E0020E51FF51FE51EF51EE51DF51DAF1CAEAF
:10185E001BAD1AAC19752900752AE0120E70AF2057
:10186E00AE1FAD1EAC1D752900752AD8120E707CE8
:10187E00007DE07F01122D1B7C007DD8E4FF122D30
:01188E001B3E
:01188F002236
:062D2200900000EFF0221A
:062D2800900000E0FF2214
:0415E3008E108F11C6
:1015E700E4F512F51374062511F58274003510F52C
:1015F70083E0FD74072511F58274003510F583E04B
:10160700751300F51274082511F58274003510F56D
:1016170083E02513F513E43512F51274042511F54B
:101627008274003510F583E07F00FE74052511F5FF
:101637008274003510F583E02FFFE43EFE122D0182
:10164700ED24DC700302173A2423B4080040030298
:10165700174B90166775F003A4C58325F0C58373F0
:1016670002167F02168202169A02169D02170302BD
:0B167700170302174B02171602200099
:1016820074092511F58274003510F583E0F514FF15
:08169200122D22AF14022CE519
:03169A0002002229
:10169D00E4F514F516F517F514AF147E00C3EF95A8
:1016AD0013EE9512400302174BE5112FFDEE351089
:1016BD00FC740B2DF58274003CF583E0751700F575
:1016CD0016740C2DF58274003CF583E02517F51783
:1016DD00EE3516F51674092511F974003510FA7BDF
:1016ED0001E92FF9EE3AFA1223F78F15E5172404C5
:0616FD002514F51480A382
:1017030074092511F58274003510F583E0F514FF93
:03171300022D3173
:1017160074092511F58274003510F583E0F514740B
:101726000A2511F58274003510F583E0F515FDAF35
:0417360014022D3438
:10173A0074092511F974003510FA7B01AD131217DB
:01174A004C52
:01174B00227B
:10099E00020AF2EC5D046005E859047003020AE8ED
:1009AE00120AB3580460F6EC4860F2EC7004FDFED7
:1009BE00FF22C860DB2481C85009C398600250062C
:1009CE00020AEF9850CAF582E9294B4A7005AB82AC
:1009DE00020ADE75F0007C1A7880C3EF9BEE9AED6A
:1009EE0099400DC3EF9BFFEE9AFEED99FDE842F0A4
:1009FE00DC23ACF0D0E0FFD0E0FED0E0FDAB8220F7
:100A0E00E7101BEB60BAEC2CFCEF33FFEE33FEED80
:100A1E0033FD020ACAE803F830E705C0F075F000AE
:100A2E00EF2FFFEE33FEED33FD40B830E7C280AA64
:100A3E0075F020800E75F010800575F0087D007E33
:100A4E00007F003392D530D503120DB2EC33401037
:100A5E00EF33FFEE33FEED33FDEC33FCD5F0ED223C
:0E0A6E00E5F0247EA2D513CC92E7CDCEFF2278
:100A7C00EDD2E7CD33EC3392D524814006E4FFFE72
:100A8C00FDFC22FCE4CFCECDCC24E0501174FF80D1
:100A9C00EDC3CC13CCCD13CDCE13CECF13CF04706E
:070AAC00F030D5DE020DB2AF
:100AB300E9D2E7C933E833F892D5EDD2E7CD33EC89
:070AC30033FC5002B2D52202
:100ACA00EC30E7100FBF000C0EBE00080DBD00048D
:100ADA000BEB6014A2D5EB13FCED92E7FD2274FF39
:100AEA00FCFDFEFF22E480F8A2D574FF13FC7D8092
:030AFA00E480EFA6
:101F80000210F5E493A3F8E493A34003F68001F272
:101F900008DFF48029E493A3F85407240CC8C33362
:101FA000C4540F4420C8834004F456800146F6DF31
:101FB000E4800B0102040810204080901890E47E19
:101FC000019360BCA3FF543F30E509541FFEE49326
:101FD000A360010ECF54C025E060A840B8E493A3ED
:101FE000FAE493A3F8E493A3C8C582C8CAC583CA18
:101FF000F0A3C8C582C8CAC583CADFE9DEE780BED0
:01197D000069
:100AFD00E709F608DFFA8046E709F208DFFA803EDB
:100B0D0088828C83E709F0A3DFFA8032E309F608C7
:100B1D00DFFA8078E309F208DFFA807088828C832F
:100B2D00E309F0A3DFFA806489828A83E0A3F608E3
:100B3D00DFFA805889828A83E0A3F208DFFA804CBD
:100B4D0080D280FA80C680D4806980F28033801094
:100B5D0080A680EA809A80A880DA80E280CA8033FD
:100B6D0089828A83ECFAE493A3C8C582C8CCC58375
:100B7D00CCF0A3C8C582C8CCC583CCDFE9DEE78045
:100B8D000D89828A83E493A3F608DFF9ECFAA9F0C4
:100B9D00EDFB2289828A83ECFAE0A3C8C582C8CC1A
:100BAD00C583CCF0A3C8C582C8CCC583CCDFEADE33
:100BBD00E880DB89828A83E493A3F208DFF980CC95
:100BCD0088F0EF60010E4E60C388F0ED2402B4048E
:100BDD000050B9F582EB2402B4040050AF23234535
:060BED008223900B4D7302
:100BF300BB010689828A83E0225002E722BBFE0200
:090C0300E32289828A83E4932232
:100C0C00BB010CE58229F582E5833AF583E022509D
:100C1C0006E92582F8E622BBFE06E92582F8E222E7
:0D0C2C00E58229F582E5833AF583E4932201
:100C3900BB010689828A83F0225002F722BBFE019A
:020C4900F32294
:100C4B00F8BB010DE58229F582E5833AF583E8F0DF
:100C5B00225006E92582C8F622BBFE05E92582C88B
:020C6B00F22273
:100C6D00EF8DF0A4A8F0CF8CF0A428CE8DF0A42E9B
:020C7D00FE2255
:100C7F00C5F0F8A3E028F0C5F0F8E5821582700200
:060C8F001583E038F0229D
:100C9500E88FF0A4CC8BF0A42CFCE98EF0A42CFCFE
:100CA5008AF0EDA42CFCEA8EF0A4CDA8F08BF0A47C
:100CB5002DCC3825F0FDE98FF0A42CCD35F0FCEBDB
:100CC5008EF0A4FEA9F0EB8FF0A4CFC5F02ECD39A0
:0F0CD500FEE43CFCEAA42DCE35F0FDE43CFC220D
:100CE40075F008758200EF2FFFEE33FECD33CDCCC7
:100CF40033CCC58233C5829BED9AEC99E58298404A
:100D04000CF582EE9BFEED9AFDEC99FC0FD5F0D626
:100D1400E4CEFBE4CDFAE4CCF9A88222B800C1B950
:100D24000059BA002DEC8BF084CFCECDFCE5F0CB8E
:100D3400F97818EF2FFFEE33FEED33FDEC33FCEBC7
:100D440033FB10D703994004EB99FB0FD8E5E4F982
:100D5400FA227818EF2FFFEE33FEED33FDEC33FC6F
:100D6400C933C910D7059BE99A4007EC9BFCE99A63
:100D7400F90FD8E0E4C9FAE4CCFB2275F010EF2FA8
:100D8400FFEE33FEED33FDCC33CCC833C810D707A8
:100D94009BEC9AE899400AED9BFDEC9AFCE899F8E3
:0E0DA4000FD5F0DAE4CDFBE4CCFAE4C8F92276
:0E0DB200C3E49FFFE49EFEE49DFDE49CFC2252
:100DC000EB9FF5F0EA9E42F0E99D42F0EC6480C8AA
:060DD00064809845F0224A
:100DD600EB9FF5F0EA9E42F0E99D42F0E89C45F073
:010DE60022EA
:100DE700E8600FECC313FCED13FDEE13FEEF13FFEA
:030DF700D8F1220E
:100DFA00E8600FEFC333FFEE33FEED33FDEC33FC57
:030E0A00D8F122FA
:0C0E0D00ECF0A3EDF0A3EEF0A3EFF02258
:100E1900A8828583F0D083D082120E30120E301250
:100E29000E30120E30E473E493A3C583C5F0C58375
:100E3900C8C582C8F0A3C583C5F0C583C8C582C823
:010E49002286
:100E4A00D083D082F8E4937012740193700DA3A337
:100E5A0093F8740193F5828883E47374029368604B
:060E6A00EFA3A3A380DF4B
:00000001FF
