:03000000021F27B5
:0C1F2700787FE4F6D8FD758183021F6E00
:1017AA00045D0000000041006D004100A60C4100EC
:1017BA00A74044009D0000000044007D0000000096
:1017CA00440081000000004400BD00000000440005
:1017DA00AB000000004400C300000000420090007B
:1017EA000142007B00004100720041009B00420060
:1017FA00C800004200730000410067084100A900C8
:10180A004100CA0001610001620041007A00410002
:10181A0085014100930A4100AA004100A80A41003B
:10182A009A0041009C0042007000004100690002D9
:10183A00820000028000004100920041008E0041B7
:10184A0000660041008D00410079004200860000D8
:10185A0042009800004100C10041006A0042006B4A
:10186A0000004100680041008F00410094004100DF
:10187A00A5004C00B10000000000000000000000BC
:06188A000042006E0000A8
:1029AB008E098F0A8B0B8A0C890DAF051DEF6021E9
:1029BB00050AE50AAE097002050914F5828E83E457
:1029CB0093FF780BE475F001120CBBEF120A6B80CE
:0229DB00D922FF
:102AC6008F828E83E4F560F55FF55EF55DAF82AECD
:102AD60083E4FCFDAB60AA5FA95EA85DC3120C236C
:082AE600500543BD1080E622FB
:092BFB00E0FF7C2F122AEE7F643A
:102C0400E4FDFCC3ED9FEC9E50070DBD00010C805C
:012C1400F2CD
:012C1500229C
:102C1600758E5190FE917401F0A37410F075BD5F2E
:072C260090FEA07420F022D3
:102BA500E490FE80F0758901758DFA758BCB43A88D
:0E2BB50008438840758CCB758AEB438810224C
:102A0F0090FF10E054F04408F090FF02E054F044BF
:102A1F0002F0D28490FFA07420F0A37404F075CC60
:102A2F000675CEFF75CD98759E0275981043A81048
:012A3F002274
:102C2D0043B40343B4807F147E00122C0475B501A8
:072C3D0090FE9B744BF02296
:102BC30090FF08E054F04408F090FF00E0540F44F5
:0C2BD30030F090FF11E054F04403F022B9
:0B2CA4008F99E59830E1FB5398FD226A
:1026FF008FB543B440E5B430E5FB53B4DF7F647E60
:10270F0000122C04E4FBFAF943B440E5B430E5FBC6
:10271F0053B4DFE5B62BFBE5B73AFA7F147E001210
:10272F002C0409B910E275B501A9027F647E00126D
:04273F002C04AF01B6
:012743002273
:101378007B017A0079B17D0C7F007E2F1229AB901A
:1013880000B1E0FFE4FCFDFE900075120C729000C5
:1013980075120C5A7808120C47900075120C72904E
:1013A8000075120C669000B2E0FFE4FCFDFE120A24
:1013B800C7900075120C72900075120C5AE47BE805
:1013C8007A03F9F8120AE2900075120C72E47F3081
:1013D8007E75FDFC900075120C66C3120C23401438
:1013E8007F007E097D3D7C00900075120C66D3124B
:1013F8000C23400A900075120C7E00009C4090005F
:10140800B3E09000C7F0700280079000C7E0B4FE18
:101418000374FFF09000B4E0FF900096E4F0A3EFAF
:10142800F0E0F8E4F0E8900096F09000B5E0FF9066
:101438000096E48FF0120AB1900096E0FEA3E0FF58
:101448004E6009D3EF9408EE94074009900096E4A3
:10145800F0A37405F09000B6E0900093F090009C23
:10146800F09000B7E0900088F06006E0D394FF4069
:10147800069000887401F09000B8E0F454019000E0
:1014880085F09000B9E05401900092F09000BAE025
:10149800540190007AF09000BBE05401900079F07C
:1014A8007B017A00796E7D027F807E2F1229AB90B6
:1014B800006EE090009AF090006FE090008DF07F51
:1014C800807E2F122B3B7F107E27122C0490009ACF
:1014D800E004F0E0FF7D807C2F122AEE7F647E001E
:1014E800122C0490008DE0700302001E90008DE025
:1014F800FFB4010E7D817C2F122AEE7F647E0012DC
:031508002C04228E
:10002600E561600302068C43B440E5B430E5FB535A
:10003600B4DF85B70985B60A90007BE475F0011236
:100046000AB19000C3120C66AE09AF0AE4FCFD12B9
:100056000AC79000C3120C729000AFE0FEA3E0FF47
:10006600C3950AEE9509500DC3E50A9FF50AE50901
:100076009EF509800BC3EF950AF50AEE9509F50979
:10008600900081120C66AE09AF0AE4FCFD120AC7A5
:10009600900081120C7290007BE05401FEA3E04EAA
:1000A6007030D39000C9E094009000C8E0940040FE
:1000B600099000A87464F0FF8015900073E0700446
:1000C600A3E06401700C900093E0FF9000A8F0128A
:1000D60021B5C390007BE0942050030206D743BDB0
:1000E60010E4F0A3F09000A9E004F09000AB120C2D
:1000F6005A9000C3120C66120AC79000AB120C721B
:100106009000A9E0C394084037E4F09000AB120CCD
:100116005A7810120C349000AB120C729000AB128D
:100126000C5A9000AFEE8FF0120AB19000AFE0C308
:1001360013F0A3E013F09000AB120C7E0000000059
:10014600900067E0C394085005E004F080569000E4
:10015600C8E07002A3E0704C7F0A1226FF9000955B
:10016600EFF09000C2E0FE2402FDE433FCEFD39DE5
:10017600EC6480F8748098501E900095E02402FD8F
:10018600E433FCEED39DEC6480F8748098500890BC
:1001960000C2E0900095F0900095E09000C2F0E477
:1001A600900067F0E4FFFEFDFC90007D120C66C334
:1001B600120C237041900081120C5AEF2488FFEE36
:1001C6003413FEE43DFDE43CFC90007D120C72907D
:1001D6000090E07002A3E0701D7F407E427D0FFC20
:1001E60090007D120C66D3120C23400A90007D12FB
:1001F6000C7E000F424090006DE070169000811258
:100206000C5A90009D120C72900089120C7E000010
:100216000001900089120C5A900081120C66120A95
:10022600C790009D120C66C3120C2340030204BE45
:10023600900089120C5A90009D120C66120AC79003
:100246000081120C66C3120C2340030204BE900008
:100256006DE004F09000BD120C5A900081120C66FD
:10026600120AC79000BD120C7290006DE0FFFBE40D
:10027600FAF9F89000BD120C5A120B6D90009D12FF
:100286000C7290009D120C5A7803120C349000895F
:10029600120C72E47F207E4EFDFC900089120C66E3
:1002A600C3120C23500A900089120C7E00004E20C7
:1002B600E47F607EEAFDFC900089120C66D3120C86
:1002C60023400A900089120C7E0000EA6090009D8F
:1002D600120C5A90007D120C66D3120C23404C90DF
:1002E600009D120C6690007D120C5A120AD49000E2
:1002F600C3120C727F807E387D017C009000C31291
:100306000C66D3120C2340089000A67406F08021D8
:10031600E47F407E9CFDFC9000C3120C66D3120C59
:10032600239000A640087409F080069000A6740C7D
:10033600F09000A6E0FF90006DE0C39F407B900028
:100346007D120C5A90009D120C66C3120C23506944
:100356009000A7E0941050030204CD9000A6E0D3CD
:100366009409500890009D120C5A804490009D12EA
:100376000C5AEF24A0FFEE340FFEE43DFDE43CFCF6
:1003860090007D120C66D3120C23402A90007D1239
:100396000C5A90009D120C66120AC790007D120C32
:1003A6007290007D120C5AE47B02FAF9F8120B6D7A
:1003B60090007D120C720204BE9000A7E0FF900030
:1003C6006DE0C39F50030204CD90007D120C5AEFDE
:1003D60024A0FFEE340FFEE43DFDE43CFC90009DBE
:1003E600120C66D3120C2350030204AE90007D1249
:1003F6000C6690009D120C5A120AD49000C3120C7F
:10040600727F007E127D7A7C0090009D120C66C37E
:10041600120C2340030204AE7F807E1A7D067C0008
:100426009000C3120C66C3120C23507C9000A7E008
:100436009410400280487FE07E937D047C0090000B
:10044600C3120C66D3120C2340089000A77410F058
:10045600801F7FF07E497D027C009000C3120C66EF
:10046600D3120C239000A74005740CF08003740887
:10047600F09000A7E0FF90006DE0C39F402A900037
:100486007D120C5A90009D120C66120AC790007DD0
:10049600120C7290007D120C5AE47B02FAF9F812E3
:1004A6000B6D90007D120C729000A7E0FF90006D1E
:1004B600E0C39F4012E48004E490006DF09000BD1C
:1004C600120C7E0000000090009BE0D39400406672
:1004D600E014F09000A1120C5AEF2470FFEE3417CE
:1004E600FEE43DFDE43CFC90007D120C66D3120C4C
:1004F6002350030206469000A1120C5AEF2498FFDF
:10050600EE343AFEE43DFDE43CFC900081120C66BC
:10051600C3120C2340030206469000A1120C5AEFA8
:100526002470FFEE3417FEE43DFDE43CFC90007DB4
:10053600120C72020646D3900091E094009000904F
:10054600E09400407B74FFF5F0120AB1D39000915D
:10055600E09400900090E0940040657F007E127D5C
:100566007A7C0090007D120C66D3120C23400C900E
:100576000075120C7E000C35008045900075120C3B
:100586005A90007D120C66120AC79000C3120C72B4
:100596007F407E547D897C009000C3120C66D31286
:1005A6000C23401C90007D120C66C374409BFF74A4
:1005B600549AFE748999FDE498FC900075120C72A9
:1005C600900075120C5A90007D120C66120AC790A4
:1005D6000081120C66D3120C2340659000C7E0FF21
:1005E600900095E0D39F400FD3900091E094009047
:1005F6000090E0940040499000C8E07002A3E070CB
:100606000C90007D120C5A9000A1120C729000C83A
:10061600E4F0A304F090008EF0900086E475F001FB
:10062600120AB190008F7401F09000A77408F0E4EC
:10063600900073F0A3F07882F608F67880F608F654
:100646009000C3120C7E00000000900081120C7E08
:10065600000000009000C8E0FEA3E0FFD39400EE87
:100666009400406D900096E0FCA3E0FDD3EF9DEE74
:100676009C405EE49000C8F0A3F075610190008E86
:10068600F0900066F022900073E4F0A304F0E4F525
:1006960061900070F0A3F0900069F07FFAFE122AD4
:1006A600C69000AB120C7E00000000E49000A9F09A
:1006B6009000A77440F090009B7402F0900067745D
:1006C60006F0E490006DF09000BD120C7E00000074
:0106D6000023
:0106D7002200
:10230E00E4F50A9000C3120C7E00000000E4F5090B
:10231E0043B440E5B430E5FB53B4DF9000C3120C78
:10232E0066AFB6AEB7E4FCFD120AC79000C3120C3E
:10233E00720509E509B480D87F907E01122AC690F5
:10234E0000C3120C5A780B120C348F09E509D39482
:10235E000C400CE509948D5006E50A9414500A05BC
:09236E000AE50AD39450409B22B9
:012377002243
:102378009000C3120C7E00000000E4F509E4F50C9F
:10238800F50D43B440E5B430E5FB53B4DF85B70A37
:1023980085B60B9000C3120C66AE0AAF0BE4FCFDC9
:1023A800120AC79000C3120C72050DE50D700205E4
:1023B8000CB400CEE50CB420C943BD100509E509ED
:1023C800B408BA9000C3120C5A7810120C3490005A
:0623D800AFEEF0A3EFF0F0
:0123DE0022DC
:1021B500EF70069000C1048014BF640CE49000C168
:1021C500F090009404F0800B9000C17402F0E4904C
:1021D5000094F0BF0104E4FE80397E007C007DFFA1
:1021E500120A9FAC06AD07E4120875E4FBFA79C83C
:1021F50078421207D38F0E8E0D8D0C8C0BE4FFFEEB
:10220500FD7C3FAB0EAA0DA90CA80B1206DF120828
:10221500AEAE0790FF9C7410F075DEFF8EDF75DDA6
:03222500947F00A3
:012228002293
:100F8200120003122C16122BC3122BA5122A0F12B7
:100F92002C2D75BBAA90FEA774FFF053BBF7D2AFFE
:100FA2007FC87E00122AC67F0A1226FF900095EFA4
:100FB200F09000C2F0C2AF1213787F641221B5D252
:100FC200AF12230E900093E0FF9000A8F01221B51B
:100FD2007F2C7E01122AC61223789000C3120C7E47
:100FE2000000000090009AE0D394034005E4F01260
:100FF200001E90006AE0FF9000C1E0FD6F600D7F6F
:10100200761229769000C1E090006AF09000A5E087
:10101200FF900094E0FD6F600D7F771229769000BB
:1010220094E09000A5F0900068E0640170419000A7
:101032008FE0B4013AE4900068F090008FF09000E5
:1010420086E0FEA3E0FF900098E06E7003A3E06FDD
:10105200601DE48F2F8E2EF52DF52C7F7412203F0C
:10106200900086E0FFA3E0900098CFF0A3EFF0435A
:10107200BD10E561700B90007CE0541F70031211EB
:10108200C3900085E06401600302116DE562703D6A
:10109200F561756201900093E09000A8F09000ABBA
:1010A200120C7E00000000E49000A9F09000A774EA
:1010B20040F090009B7402F09000677406F0E49098
:1010C200006DF09000BD120C7E00000000120026A0
:1010D200D3900074E09400900073E0940040369046
:1010E2000069E0B4012FE4F090007375F001120A78
:1010F200B1900088E0FFC3900074E09F900073E01D
:1011020094004011E4F0A3F0900079E064016005DE
:10111200E4FF1221B5D39000C9E094009000C8E02A
:10112200940040127881E6640118467009F608F6C8
:1011320075F001120AB1900092E064016003020F9F
:10114200E690008EE0FF900066E06F7003020FE60B
:10115200EFF09000C8E4F0A304F0E4F508E508C35A
:1011620094084003020FE6050880F2E4F56290005D
:101172007AE07007FF1221B5020FE690009CE0FFB3
:101182001221B5E4F561900093E09000A8F0900080
:10119200AB120C7E00000000E49000A9F09000A7C2
:1011A2007440F090009B7402F09000677406F0E4C3
:1011B20090006DF09000BD120C7E00000000020F46
:0111C200E646
:03001B00021C7054
:101C7000C0E0C0F0C083C082C0D075D000C000C03A
:101C800001C002C003C004C005C006C007AF60AEFB
:101C90005FAD5EAC5DEF2401FFE43EFEE43DFDE49C
:101CA0003C8F608E5F8D5EF55D900070E475F00195
:101CB000120AB1900070E0FEA3E0FFE4FCFD7B603F
:101CC0007AEAF9F8D3120C0D500C900070E4F0A3EE
:101CD000F090006904F0788306E618700106C37876
:101CE00083E694E818E69403400C760008760078C2
:101CF00080760008760190006BE475F001120AB15D
:101D0000C390006CE094E890006BE094034009E419
:101D1000F0A3F090006804F0D007D006D005D004FE
:101D2000D003D002D001D000D0D0D082D083D0F068
:031D3000D0E032CE
:0300230002262C86
:10262C00C0E0C0F0C083C082C0D075D000C000C074
:0D263C0001C002C003C004C005C006C007F5
:0F264900E59830E00AAF991228C65398FED2AF39
:10265800D007D006D005D004D003D002D001D000D6
:0B266800D0D0D082D083D0F0D0E03280
:102B3B0053BBF7C280E5BB20E3F6D280C2AF75FD75
:102B4B00F075FC0F8EFA8FF975FDD275FC2D75FDA6
:052B5B00E175FC1E22E3
:102AEE0053BBF7C280E5BB20E3F6D280C2AF8FFBAB
:102AFE0075FDF075FC0F8CFA8DF975FDB475FC4BF8
:072B0E0075FDE175FC1E22BC
:101D33007F007E2F122B3B7F107E27122C04E47B27
:101D4300E87A03F9F8900075120C5A120B6D7808B3
:101D5300120C347D007C2F122AEE7F647E00122C3D
:101D630004E47BE87A03F9F8900075120C5A120B1D
:101D73006D7D017C2F122AEE7F647E00122C04906D
:101D830000C77D02122BFB9000967D03122BFBA351
:101D9300E0FF7D04122BFD900093E0FF7D05122BE5
:101DA300FD900088E0FF7D06122BFD900085E0F496
:101DB300FF7D07122BFD900092E0FF7D08122BFDA3
:101DC30090007AE0FF7D09122BFD900079E0FF7D02
:101DD3000A122BFD7F807E2F122B3B7F107E271252
:101DE3002C047D807C2FE4FF122AEE0D0F122AEEC5
:021DF300D2AF6D
:011DF50022CB
:04189000027E0000D4
:10229D00EFC39430400CEFD39439500674D02FFF18
:1022AD008022EFC39441400CEFD394465006EF24A7
:1022BD00C9FF8010EFC39461400AEFD394665004B8
:1022CD00EF24A9FFEF540FC454F0FFEDC394304039
:1022DD000CEDD39439500674D02DFD801EEDC394B2
:1022ED00414008EDD394465002800CEDC3946140FB
:1022FD000AEDD394665004ED24A9FDED540F420769
:01230D0022AD
:0624EC008B1A8A1B891CFB
:1024F200E4F520F51FF51EF51DE94A4B7005FFFEB8
:10250200FDFC22E4F520F51FF51EF51D781AE47591
:10251200F001120CBB120A25601AE5202401FFE427
:10252200351FFEE4351EFDE4351D8F208E1F8D1EE6
:0C253200F51D80D8AF20AE1FAD1EAC1D03
:01253E00227A
:06293E008B268A27892880
:102944008B2C8A2D892EE94A4B7004FBFAF922E577
:102954002B152BAE2A7002152A4E600F782CE475C5
:10296400F001120CBBED120A6B80E4AB26AA27A976
:01297400283A
:01297500223F
:061B9F008B218A2289233C
:101BA5008B298A2A892B85242C85252D85262EE9A6
:101BB5004A4B6008E5264525452470077B007A00D9
:101BC500790022D3852D83852E82E52B9582E52A02
:101BD50095834019E52E2528F9E52D3527FA8A83C1
:101BE5008982D3E52B9582E52A95834038E4F52F44
:101BF500F530C3E5309528E52F95275067AB2CAA1E
:101C05002DA92E853082852F83120A3EAB29AA2A5B
:101C1500A92B853082852F83120A7D0530E530702A
:101C2500D1052F80CD85272F852830D3E530940029
:101C3500E52F9400402EAB2CAA2DA92EE53024FFCC
:101C4500FFE52F34FFFE8F82F583120A3EAB29AAEA
:101C55002AA92B8F828E83120A7DE530153070CB31
:0A1C6500152F80C7AB21AA22A92386
:011C6F002252
:062744008B3C8A3D893E3A
:10274A008B428A438944AB3FAA40A941120A2560B9
:10275A001C783FE475F001120CBB120A25FF783C85
:10276A00E475F001120CBBEF120A6B80D9AB3CAADC
:0D277A003DA93EE4120A6BAB42AA43A944FC
:01278700222F
:1023DF008B638A648965AB63AA64A965120A25FFBA
:1023EF006026AB66AA67A968120A25601BB5071895
:1023FF0074012565F565E43564F56474012568F5A8
:10240F0068E43567F56780CEAB66AA67A968120ADC
:10241F0025FF3395E0FEAB63AA64A965120A25FD7B
:0C242F003395E0FCC3ED9FFFEC9EFE2205
:102788008F7D8E7C8D7B8C7A7818120C34EF120A30
:102798006BAF7DAE7CAD7BAC7A7810120C349000B8
:1027A80001EF120A7DAF7DAE7CAD7BAC7A78081262
:1027B8000C34900002EF120A7DE57DFF900003EFD4
:0327C800020A7D85
:101E8F00E4F530F52FF52EF52D120A25FFE48F30EE
:101E9F00F52FF52EF52DAE2FAD2EAC2D7808120C9B
:101EAF00478F308E2F8D2E8C2D900001120A3EFF02
:101EBF00E5304FFFE52FFEE52EFDE52D8F308E2F00
:101ECF008D2EF52DFC7808120C478F308E2F8D2E0E
:101EDF008C2D900002120A3EFFE5304FFFE52FFEDA
:101EEF00E52EFDE52D8F308E2F8D2EF52DFC7808EC
:101EFF00120C478F308E2F8D2E8C2D900003120ACF
:101F0F003EFFE5304FFFE52FFEE52EFDE52D8F302F
:071F1F008E2F8D2EF52DFC25
:011F26002298
:102C6D00E4FDFCFFFE122BE7AC06AD077F0302204F
:012C7D00C88E
:102C5B00E4FDFCFFFE0D122BE7AC06AD077F030274
:022C6B0020C87F
:082673008F698B6A8A6B896C88
:10267B00E4FCFFFEAD69122BE7AC06E4FD122BE781
:10268B00AC06E56DFD122BE7AC06AD6E122BE7AC7D
:10269B0006AD07AB6AAA6BA96C856D1F856E201200
:0D26AB002908AC06AD077F061220C87F018C
:0126B80022FF
:0427CB008D27AB07A4
:1027CF00E4FCFFFEAD03122BE7AC067D01122BE7F5
:1027DF00AC06E4FD122BE7AC067D01122BE7AC062D
:1027EF00AD07E5277003FD8006AF05AE047D01122E
:0D27FF002BE7AC06AD077F061220C87F0156
:01280C0022A9
:02203F00AB07ED
:10204100E4FCFFFEAD03122BE7AC067D02122BE789
:10205100AC06E4FD122BE7AC067D04122BE7C006AB
:10206100C007AF2FAE2EAD2DAC2C7818120C34ADAD
:1020710007D007D006122BE7C006C007AF2FAE2E40
:10208100AD2DAC2C7810120C34AD07D007D0061250
:102091002BE7C006C007AF2FAE2EAD2DAC2C7808B4
:1020A100120C34AD07D007D006122BE7AC06C007DF
:1020B100E52FFFE4AD07D007122BE7AC06AD077F94
:0620C100061220C87F0199
:0120C70022F6
:0826B9008F6F8B708A7189722A
:1026C100E4FCFFFEAD6F122BE7AC067D03122BE796
:1026D100AC06E573FD122BE7AC06AD74122BE7AC2B
:1026E10006AD07AB70AA71A97285731F857420129C
:0D26F1002908AC06AD077F061220C87F0146
:0126FE0022B9
:042976008D27AB07F7
:10297A00E4FCFFFEAD03122BE7AC067D04122BE745
:10298A00AC06E4FD122BE7AC067D01122BE7AC0680
:10299A00AD27122BE7AC06AD077F061220C87F01D0
:0129AA00220A
:0219C500AB076E
:1019C700900000AF82AE83AD03122BE78E838F8228
:1019D7007D05122BE78E838F82E4FD122BE78E8322
:1019E7008F8274FFFFE578FEE577FDE576FCE47B03
:1019F700FFFAF9F8C3120C237012AF82AE837D0190
:101A0700122BE78E838F82AD79021A9F74FFFFFE38
:101A1700E577FDE576FCE47BFF7AFFF9F8C3120C66
:101A270023AF82AE8370047D02803E7D04122BE7D4
:101A37008E838F82C006C007AF79AE78AD77AC765C
:101A47007818120C34AD07D007D006122BE78E8317
:101A57008F82C006C007AF79AE78AD77AC767810C5
:101A6700120C34AD07D007D006122BE78E838F8276
:101A7700C006C007AF79AE78AD77AC767808120CA0
:101A870034AD07D007D006122BE78E838F82C007AD
:101A9700E579FFE4AD07D007122BE78E838F82AD80
:0A1AA70082AC837F061220C87F0185
:011AB1002212
:082CB9008C278D28120A25FF6B
:012CC10022F0
:082CC2008C278D28120A25FF62
:012CCA0022E7
:072CDD008C2B8D2C121E8FC1
:012CE40022CD
:100003007550017551007552437553017554007550
:080013005543E4F54EF54F22C0
:1028C600C3E54F9421E54E94005030C3900064E573
:1028D600529582E5519583400D7A007943755001F2
:1028E6007551007552437850E475F001120CBBEF38
:0C28F600120A6B054FE54F7002054E22E0
:1011C300E4F509F50AF50BF50CF50DF50EF50F75BC
:1011D3001009C3E57F9421E57E94005027122C7EED
:1011E300D3EF9400EE9400401B122889057FE57F1E
:1011F300AC7E7002057E142401F58274003CF583F5
:10120300EFF080CEC3E57F9409E57E94005003029E
:101213001377C3E57F950AFDE57E9509FCC3ED943D
:1012230009EC9400500302131A7401250AF5827421
:10123300003509F583E06455600A050AE50A70D2B2
:10124300050980CE7402250AF58274003509F583F9
:10125300E064AA600A050AE50A70B7050980B37459
:1012630003250AF58274003509F583E0750D00F551
:101273000E6402450D60047402803C7407250AF570
:101283008274003509F583E0750C00F50B740825AD
:101293000AF58274003509F583E02409FFE433FE7F
:1012A300EF250CF50CEE350BF50BD3E50C942AE585
:1012B3000B940040097403250AF50AE48052C3ED38
:1012C300950CEC950B40507401250AF9740035090F
:1012D300FA7B01E50C24FFFDE50B34FFFC122A40E9
:1012E300E50A250CFDE509350BFC74002DF5827428
:1012F300003CF583E06F60097403250AF50AE48076
:101303000FAF0AAE0912150BE50C250AF50AE50B1A
:101313003509F509021215C3E57F950AF57FE57EC8
:101323009509F57ED3E57F9400E57E94004045E57D
:101333000A45097020E57F9421E57E940040160557
:101343000AE50A70020509E57F950AF57FE57E95B2
:1013530009F57E80007401250AF9740035097524A6
:1013630001F5258926857E27857F287B017A0079EB
:0413730001121B9FA9
:011377002253
:101894004100CF004400CB000000005C00D00101F7
:1018A400030265046602670168026902710172013C
:0A18B40073017402750176047704D5
:03001E00022C5B56
:032CF800022CA407
:101AB200900000E0FD7F011227CB90007AE0FD7FCD
:101AC200711227CB900093E0FFE48F2FF52EF52DB6
:101AD200F52C7F0312203F9000C7E0FFB4FF05E41E
:101AE200F519801EEFB4C8057519028015EFB428E8
:101AF20005751903800CEFB414057519048003757C
:101B02001905AD197F65122976900096E0FEA3E0D3
:101B1200FFE48F2F8E2EF52DF52C7F6612203F903D
:101B22000085E0FD7F671227CB900088E0FFE48FFD
:101B32002FF52EF52DF52C7F6812203FE47B107ACD
:101B420027F9F8900075120C5A120B6DC374329F6C
:101B5200FFE48F2FF52EF52DF52C7F6912203F9093
:101B62000092E0FD7F721227CB900079E0FD7F7337
:101B72001227CB900086E0FEA3E0FFE48F2F8E2E8B
:101B8200F52DF52C7F7412203F9000C1E0FD7F7689
:0D1B9200122976900094E0FD7F77022976FD
:102C4400122CB9900000EFF0FD7F011227CBBF01D9
:062C5400037F01227F0056
:012C5A002257
:10253F00122CDD8F2A8E298D288C27900093E0FF97
:10254F00E4FCFDFEAB2AAA29A928A827C3120C2355
:10255F006006E4FF0FBF08FCAF2A900093EFF090E6
:10256F00009CF0121D33900093E0FFE48F2FF52EA7
:10257F00F52DF52C7F0312203FBF01037F01227F32
:01258F00004B
:012590002228
:10213F00122CC29000CFE0B5070FBF05129000C759
:10214F00E0FE900095E06E8006E4FE0EBE08FCEF08
:10215F0014601014601514601A14601F1460242486
:10216F000570289000C774FFF080209000C774C8D6
:10217F00F080189000C77428F080109000C7741476
:10218F00F08008900095E09000C7F09000CFEFF03E
:10219F00121D339000CFE0FD7F65122976BF01033A
:0521AF007F01227F000A
:0121B4002208
:10249600122CDD8F2A8E298D288C27900096E0FE3F
:1024A600A3E0FFE4FCFDAB2AAA29A928A827C312AA
:1024B6000C236006E4FF0FBF08FC900096E529F0A8
:1024C600A3E52AF0121D33900096E0FEA3E0FFE498
:1024D6008F2F8E2EF52DF52C7F6612203FBF010320
:0524E6007F01227F00D0
:0124EB0022CE
:1029DD00122CB9900085E06F6006E4FE0EBE08FC77
:1029ED00EF9000857003F080037401F0121D339099
:1029FD000085E0FD7F671227CBBF01037F01227F9A
:012A0D0000C8
:012A0E0022A5
:1025DF00122CDD8F2A8E298D288C27900088E0FF02
:1025EF00E4FCFDFEAB2AAA29A928A827C3120C23B5
:1025FF006006E4FF0FBF08FC900088E52AF0121D6B
:10260F0033900088E0FFE48F2FF52EF52DF52C7F0A
:0C261F006812203FBF01037F01227F00F2
:01262B00228C
:10222900122CDD8F2A8E298D288C279000CB120C39
:102239005AAB2AAA29A928A827C3120C236006E4A5
:10224900FF0FBF08FCAF2AAE29AD28AC279000CB01
:10225900120C72C37432952AFFE49529FEE495287D
:10226900FDE49527FCE47B107A27F9F8120AE2903D
:102279000075120C72121D339000CB120C5A8F2F5D
:102289008E2E8D2D8C2C7F6912203FBF01037F017B
:03229900227F00A1
:01229C00221F
:10280D00122CB990007AE06F6006E4FE0EBE08FC53
:10281D00EF700690007AF08013900085E0B4010609
:10282D0090008E7401F090007A7401F090007AE0BF
:0E283D00FD7F711227CBBF01037F01227F00B8
:01284B00226A
:102A9A00122CB9AD07900092E06D6006E4FF0FBFFB
:102AAA0008FCED9000927003F080037401F07F72CD
:0B2ABA001227CBBF01037F01227F0029
:012AC50022EE
:102B6000122CB9900079E06F6006E4FE0EBE08FCFE
:102B7000900079EFF0FD7F731227CBBF01037F0137
:032B8000227F00B1
:012B8300222F
:102B1500122CB9EF601DE4900086F0A3F0900086BA
:102B2500E0FEA3E0FFE48F2F8E2EF52DF52C7F74AC
:052B350012203F7F01AA
:012B3A002278
:022CE5008F2638
:042CE7008C278D2881
:012CEB0022C6
:0618C3008B218A2289231B
:1018C900E4F526EF120CCB18F50119240319346538
:1018D900194366195267196168197069197F711975
:1018E9008E72199D7319AC75000019BDAB21AA221E
:1018F900A923AD25AC24122C448F26E5266401606A
:10190900030219C29000AAE004F0E0C39405500351
:101919000219C2E4F012001E0219C2AB21AA22A9BF
:1019290023AD25AC2412253F0219B9AB21AA22A95E
:1019390023AD25AC2412213F8076AB21AA22A9230D
:10194900AD25AC241224968067AB21AA22A923AD28
:1019590025AC241229DD8058AB21AA22A923AD2563
:10196900AC241225DF8049AB21AA22A923AD25ACDD
:1019790024122229803AAB21AA22A923AD25AC241D
:1019890012280D802BAB21AA22A923AD25AC241244
:101999002A9A801CAB21AA22A923AD25AC24122B9B
:1019A90060800DAB21AA22A923AD25AC24122B15E9
:0B19B9008F268000E49000AAF0AF260B
:0119C4002200
:032CFB007F0E2227
:102A6D007B2270223A2200726C3766777133320006
:102A7D00222C2276223A2200312E302E3000227D59
:0D2A8D00001F1C1F1E1F1E1F1F1E1F1E1FCF
:0418BE0041000000E5
:092CCB00900064EEF0A3EFF0228A
:092CD400900064E0FEA3E0FF2281
:082BDF00AB07E4FCFFFEAD03AF
:102BE700742A2FF974003EFA7B01ED120A6B0FBFAE
:032BF70000010ECC
:012BFA0022B8
:06290200AF197E007BFF0F
:0A2908008E1A8F1B8B1C8A1D891E7E
:10291200742A2FF974003EFA7B01851C24851D253B
:10292200851E26851F27852028121B9FE520251B33
:0B293200F51BE51F351AF51AFEAF1B60
:01293D002277
:10284C008B328A3389348C358D36E94A4B602DE5D1
:10285C003645356027E5361536AE35700215354EE2
:10286C00601AAB32AA33A934120A25FF122CF87461
:0D287C00012534F534E43533F53380D922DD
:0A2A40008B328A3389348C358D36D1
:102A4A00E4FFFDFCC3ED9536EC953550157832E47C
:102A5A0075F001120CBB120A252FFF0DBD00010CE7
:022A6A0080E208
:012A6C002247
:0620C8008C308D31AB07E6
:1020CE00E4FF122CD4AD07AC069000227455F0A399
:1020DE0074AAF0A37402F0AF04A3EFF0AF05EFA360
:1020EE00F0A3EBF0E530A3F0E531A3F00DBD000158
:1020FE000CAF05AE04122CCB74092531F531E43545
:10210E0030F5307B017A007922E53124FFFDE53090
:10211E0034FFFC122A4074212531F58274003530CB
:10212E00F583EFF07B017A007922AD31AC300228D5
:01213E004C54
:022B84008F20A0
:102B8600122CFBE4FEEEC39F501275F002EE90008D
:0E2B9600D0120CAFE0652060030E80E9AF06A0
:012BA400220E
:0E2C7E00E54F454E7003120003AE4EAF4F22DD
:10288900E4FFD3E54F9400E54E9400402F90006497
:10289900E5559582E5549583400D7A007943755342
:1028A900017554007555437853E475F001120CBB5A
:0C28B900120A25FFE54F154F7002154E66
:0128C50022F0
:080CF1008F298E288D278C2627
:100CF900782C7C007D007BFF7A2A798E7E007F0C20
:100D09001209FFE4F538F539F53AF53BFFFEFDFC2C
:100D1900AB29AA28A927A826C3120C236006E52B0C
:100D2900452A70077B007A00790022E47B3CFAF9B6
:100D3900F8AF29AE28AD27AC26120B6DAF03E52B12
:100D49002406F582E4352AF583EAF0A3EFF0AF290A
:100D5900AE28AD27AC26E47B3CFAF9F8120B6D8F6F
:100D6900298E288D278C26E47B3CFAF9F8120B6D25
:100D7900E52B2405F582E4352AF583EBF0AF29AE9E
:100D890028AD27AC26E47B3CFAF9F8120B6D8F29C4
:100D99008E288D278C26E47BF87A88F9F8120B6D5A
:100DA9008E388F39E5397802C333CE33CED8F9245A
:100DB900B2FFEE3407852B82852A83F0A3EFF0AFCB
:100DC90029AE28AD27AC26E47BF87A88F9F8120B0E
:100DD9006DAC00AD01AE02AF038F298E288D278C33
:100DE90026753A22753B38852B82852A83A3E054E0
:100DF90003700B7418253BF53BE4353AF53AAE3AE6
:100E0900AF3BE4FCFDAB29AA28A927A826C3120CED
:100E1900234031852B82852A83E475F001120AB1BA
:100E2900AE3AAF3BAB07AA06C3E5299BFFE5289A73
:100E3900FEE5279400FDE52694008F298E288D274D
:100E4900F526809DE47B18FAF9F8AF29AE28AD277D
:100E5900AC26120B6DE52B2404F582E4352AF583C3
:100E6900EBF0AF29AE28AD27AC26E47B18FAF9F8E8
:100E7900120B6D8F298E288D278C26EF2401FFE414
:100E89003EFEE43DFDE43C8F298E288D27F526851D
:100E99002B82852A83A3E05403705B7F3CFEFDFC13
:100EA900AB29AA28A927A826D3120C23401DE52976
:100EB90024FFFFE52834FFFEE52734FFFDE526344E
:100EC900FF8F298E288D27F526802BE47F3CFEFD98
:100ED900FCAB29AA28A927A826C3120C23701785B9
:100EE9002B82852A83A3A304F0852B82852A83A3D9
:100EF900A3A3741D807B852B82852A83A3A3E4F099
:100F0900852B82852A83A3A3E0242CF8E6FF339559
:100F1900E0FEFDFCAB29AA28A927A826D3120C2399
:100F29004039852B82852A83A3A3E0242CF8E6FB8C
:100F39003395E0FAF9F8C3E5299BFFE5289AFEE520
:100F49002799FDE526988F298E288D27F526852B4B
:100F590082852A83A3A3E004F080A5852B82852AB4
:100F690083A3A3E004F0852B82852A83A3A3A3E5A9
:080F790029F0AA2AA92B7B0133
:010F8100224D
:0C2C8C00122BDFAC06AD077F0B0220C846
:0C2C9800122BDFAC06AD077F0C0220C839
:081DF6008B458A4689478D48A0
:101DFE00E4FDFCF54C754D08E54D154DAE4C7002ED
:101E0E00154C4E601AAF05AE047845E475F001121C
:101E1E000CBB120A25FD122BE7AC06AD0780D9AF1D
:101E2E0005AE04AD48122BE7AC06AD07C006C007E1
:101E3E00E54AAE497818CEC313CE13D8F9FDD007B4
:101E4E00D006122BE7AC06AD07C006C007E54AAEBA
:101E5E00497810CEC313CE13D8F9FDD007D0061291
:101E6E002BE7AC06E549FD122BE7AC06AD4A122B6B
:101E7E00E7AC06AD4B122BE7AC06AD077F0D02208B
:011E8E00C88B
:082591008F568B578A588959B7
:10259900E4FCF55B755C08FFFEAD56801EE55C1535
:1025A9005CAE5B7002155B4E601AAF05AE047857DE
:1025B900E475F001120CBB120A25FD122BE7AC06DB
:1025C900AD0780D9AF05AE04AD5A122BE7AC06AD05
:0625D900077F0E0220C87E
:101FB300E4F5197BFF7A2A796D1224EC8E1F8F20AA
:101FC3007A2A796D1229028F197BFF7A2A79741282
:101FD30024EC8E1F8F207A2A79741229028F197BA1
:101FE300FF7A2A797D1224EC8E1F8F20AF197E0091
:101FF3007BFF7A2A797D1229088F197BFF7A2A7948
:10200300851224EC8E1F8F20AF197E007BFF7A2A66
:1020130079851229088F197BFF7A2A798B1224EC90
:102023008E1F8F20AF197E007BFF7A2A798B1229AE
:0C203300088F19EFFD7C007F010220C81F
:0A2CAF008F19E4FDFC7F020220C82B
:0100210022BC
:06243B008B198A1A891BAF
:10244100120A25F51C900001120A3EF51D900002AA
:10245100120A3E751F00F51E900003120A3E251F49
:10246100F51FE4351EF51EAF1C122B8475F002EF2B
:102471009000D1120CAFE0651D60037F0022AB1903
:10248100E51B2404F9E4351AFA851E24851F25AFBE
:042491001C1218C33E
:012495002224
:022CFE008F192C
:012D000022B0
:032D0100020000CD
:02167A008D19C8
:10167C00E4F51DF51CF51BF51AF521F520F51FF504
:10168C001EF5228B238A248925E519C3940850035F
:10169C000217A97B017A0079EC752A00752B08E4F6
:1016AC00FD12293E7B017A0079F4752A00752B080E
:1016BC00E4FD12293EE4F5227823E475F001120CC6
:1016CC00BB120A25FFE51D4FFFE51CFEE51BFDE5E2
:1016DC001A8F1D8E1C8D1BF51AFC7808120C478F67
:1016EC001D8E1C8D1B8C1A0522E522B403CA78238F
:1016FC00E475F001120CBB120A25FFE51D4FFFE546
:10170C001CFEE51BFDE51A8F1D8E1C8D1BF51AE4C6
:10171C00F5227823E475F001120CBB120A25FFE5C3
:10172C00214FFFE520FEE51FFDE51E8F218E208D4C
:10173C001FF51EFC7808120C478F218E208D1F8CF4
:10174C001E0522E522B403CA7823E475F001120CBD
:10175C00BB120A25FFE5214FFFE520FEE51FFDE545
:10176C001E8F218E208D1FF51EAF1DAE1CAD1BAC28
:10177C001A752A00752BF4120CF1AF21AE20AD1F97
:10178C00AC1E752A00752BEC120CF17C007DF47FDD
:0D179C0001122CE57C007DECE4FF122CE531
:0117A900221D
:062CEC00900000EFF02251
:062CF200900000E0FF224B
:04150B008E118F129C
:10150F00E4F513F51474062512F58274003511F500
:10151F0083E0FD74072512F58274003511F583E021
:10152F00751400F51374082512F58274003511F542
:10153F0083E02514F514E43513F51374042512F51F
:10154F008274003511F583E07F00FE74052512F5D6
:10155F008274003511F583E02FFFE43EFE122CCB91
:10156F00ED120CCB158F0115920215C00315C30494
:10157F001631051631061644081668240000167930
:03158F00021FB385
:1015920074092512F58274003511F583E0F515FF03
:1015A200122CECAF15122CAFE5157003021679E57B
:0E15B2001564016003021679121AB2021D338D
:0315C00002002105
:1015C300E4F515F517F518F515AF157E00C3EF957E
:1015D30014EE95134003021679E5122FFDEE351133
:1015E300FC740B2DF58274003CF583E0751800F54F
:1015F30017740C2DF58274003CF583E02518F5185B
:10160300EE3517F51774092512F974003511FA7BB5
:1016130001E92FF9EE3AFA12243B8F16E516B401CD
:0E16230003121D33E51824042515F515809BD0
:1016310074092512F58274003511F583E0F515FF63
:03164100022CFE7A
:1016440074092512F58274003511F583E0F51574DB
:101654000A2512F58274003511F583E0F516FDAF05
:0416640015022D013D
:1016680074092512F974003511FA7B01AD141216AC
:011678007AF7
:01167900224E
:1006D80002091AE86480F8E933E83360110460F02D
:1006E800ED33EC337009E8FCE9FDEAFEEBFF220488
:1006F80060DED3EB9FEA9EE99DE8C2E78CF0C2F783
:1007080095F0400CE8CCF8E9CDF9EACEFAEBCFFB4E
:100718001208E585D0F05804700320D5B3E80470BA
:10072800075002B2D502092492D5EC0460F7E4CC54
:10073800C0E0C398F8603B94186008400DD0E0FB17
:100748000208FCE4FBFAC9FC8028E830E406E4C9A6
:10075800FBE4CAFCE830E305E4C9CACBFCE854076B
:100768006010F8C3E913F9EA13FAEB13FBEC13FC76
:10077800D8F130F52FC3E49CFCEF9BFFEE9AFEED19
:1007880099FDD0E0FBEF4E4D4C701222DB030209BD
:1007980021EC2CFCEF33FFEE33FEED33FDED30E7BB
:1007A800EB0208FCEF2BFFEE3AFEED39FDD0E0FB43
:1007B80050130BBB0003020924ED13FDEE13FEEFEB
:0807C80013FFEC13FC0208FC16
:1007D000020924EC5D046005E85904700302091A5B
:1007E0001208E5580460F6EC4860F2EC7004FDFE77
:1007F000FF22C860DB2481C85009C39860025006FC
:100800000209219850CAF582E9294B4A7005AB824A
:1008100002091075F0007C1A7880C3EF9BEE9AED08
:1008200099400DC3EF9BFFEE9AFEED99FDE842F073
:10083000DC23ACF0D0E0FFD0E0FED0E0FDAB8220C6
:10084000E7101BEB60BAEC2CFCEF33FFEE33FEED50
:1008500033FD0208FCE803F830E705C0F075F0004E
:10086000EF2FFFEE33FEED33FD40B830E7C280AA34
:1008700075F020800E75F010800575F0087D007E03
:10088000007F003392D530D503120BFFEC334010BC
:10089000EF33FFEE33FEED33FDEC33FCD5F0ED220C
:0E08A000E5F0247EA2D513CC92E7CDCEFF2248
:1008AE00EDD2E7CD33EC3392D524814006E4FFFE42
:1008BE00FDFC22FCE4CFCECDCC24E0501174FF80A1
:1008CE00EDC3CC13CCCD13CDCE13CECF13CF04703E
:0708DE00F030D5DE020BFF34
:1008E500E9D2E7C933E833F892D5EDD2E7CD33EC59
:0708F50033FC5002B2D522D2
:1008FC00EC30E7100FBF000C0EBE00080DBD00045D
:10090C000BEB6014A2D5EB13FCED92E7FD2274FF08
:10091C00FCFDFEFF22E480F8A2D574FF13FC7D8061
:03092C00E480EF75
:101F3300020F82E493A3F8E493A34003F68001F233
:101F430008DFF48029E493A3F85407240CC8C333AF
:101F5300C4540F4420C8834004F456800146F6DF7E
:101F6300E4800B01020408102040809017AAE47E4D
:101F7300019360BCA3FF543F30E509541FFEE49373
:101F8300A360010ECF54C025E060A840B8E493A33A
:101F9300FAE493A3F8E493A3C8C582C8CAC583CA65
:101FA300F0A3C8C582C8CAC583CADFE9DEE780BE1D
:0118C2000025
:10092F00E709F608DFFA8046E709F208DFFA803EAA
:10093F0088828C83E709F0A3DFFA8032E309F60897
:10094F00DFFA8078E309F208DFFA807088828C83FF
:10095F00E309F0A3DFFA806489828A83E0A3F608B3
:10096F00DFFA805889828A83E0A3F208DFFA804C8D
:10097F0080D280FA80C680D4806980F28033801064
:10098F0080A680EA809A80A880DA80E280CA8033CD
:10099F0089828A83ECFAE493A3C8C582C8CCC58345
:1009AF00CCF0A3C8C582C8CCC583CCDFE9DEE78015
:1009BF000D89828A83E493A3F608DFF9ECFAA9F094
:1009CF00EDFB2289828A83ECFAE0A3C8C582C8CCEA
:1009DF00C583CCF0A3C8C582C8CCC583CCDFEADE03
:1009EF00E880DB89828A83E493A3F208DFF980CC65
:1009FF0088F0EF60010E4E60C388F0ED2402B4045E
:100A0F000050B9F582EB2402B4040050AF23234504
:060A1F00822390097F73A1
:100A2500BB010689828A83E0225002E722BBFE02CF
:090A3500E32289828A83E4932202
:100A3E00BB010CE58229F582E5833AF583E022506D
:100A4E0006E92582F8E622BBFE06E92582F8E222B7
:0D0A5E00E58229F582E5833AF583E49322D1
:100A6B00BB010689828A83F0225002F722BBFE016A
:020A7B00F32264
:100A7D00F8BB010DE58229F582E5833AF583E8F0AF
:100A8D00225006E92582C8F622BBFE05E92582C85B
:020A9D00F22243
:100A9F00EF8DF0A4A8F0CF8CF0A428CE8DF0A42E6B
:020AAF00FE2225
:100AB100C5F0F8A3E028F0C5F0F8E58215827002D0
:060AC1001583E038F0226D
:0D0AC700EF2BFFEE3AFEED39FDEC38FC227E
:0E0AD400C3EF9BFFEE9AFEED99FDEC98FC221D
:100AE200E88FF0A4CC8BF0A42CFCE98EF0A42CFCB3
:100AF2008AF0EDA42CFCEA8EF0A4CDA8F08BF0A431
:100B02002DCC3825F0FDE98FF0A42CCD35F0FCEB8F
:100B12008EF0A4FEA9F0EB8FF0A4CFC5F02ECD3954
:0F0B2200FEE43CFCEAA42DCE35F0FDE43CFC22C1
:100B310075F008758200EF2FFFEE33FECD33CDCC7B
:100B410033CCC58233C5829BED9AEC99E5829840FE
:100B51000CF582EE9BFEED9AFDEC99FC0FD5F0D6DB
:100B6100E4CEFBE4CDFAE4CCF9A88222B800C1B905
:100B71000059BA002DEC8BF084CFCECDFCE5F0CB43
:100B8100F97818EF2FFFEE33FEED33FDEC33FCEB7C
:100B910033FB10D703994004EB99FB0FD8E5E4F937
:100BA100FA227818EF2FFFEE33FEED33FDEC33FC24
:100BB100C933C910D7059BE99A4007EC9BFCE99A18
:100BC100F90FD8E0E4C9FAE4CCFB2275F010EF2F5D
:100BD100FFEE33FEED33FDCC33CCC833C810D7075D
:100BE1009BEC9AE899400AED9BFDEC9AFCE899F898
:0E0BF1000FD5F0DAE4CDFBE4CCFAE4C8F9222B
:0E0BFF00C3E49FFFE49EFEE49DFDE49CFC2207
:100C0D00EB9FF5F0EA9E42F0E99D42F0EC6480C85E
:060C1D0064809845F022FE
:100C2300EB9FF5F0EA9E42F0E99D42F0E89C45F027
:010C3300229E
:100C3400E8600FECC313FCED13FDEE13FEEF13FF9E
:030C4400D8F122C2
:100C4700E8600FEFC333FFEE33FEED33FDEC33FC0B
:030C5700D8F122AF
:0C0C5A00E0FCA3E0FDA3E0FEA3E0FF220D
:0C0C6600E0F8A3E0F9A3E0FAA3E0FB2211
:0C0C7200ECF0A3EDF0A3EEF0A3EFF022F5
:100C7E00A8828583F0D083D082120C95120C951227
:100C8E000C95120C95E473E493A3C583C5F0C5834C
:100C9E00C8C582C8F0A3C583C5F0C583C8C582C8C0
:010CAE002223
:0C0CAF00A42582F582E5F03583F5832250
:100CBB00FAE6FB0808E6F925F0F618E6CA3AF6223A
:100CCB00D083D082F8E4937012740193700DA3A3B8
:100CDB0093F8740193F5828883E4737402936860CC
:060CEB00EFA3A3A380DFCC
:00000001FF
