:03000000021FD705
:0C1FD700787FE4F6D8FD75818302201E9F
:1017C200045D00000000410007004100440C41009C
:1017D200454044003B0000000044001700000000A8
:1017E20044001B0000000044001F000000004400F1
:1017F2005B0000000044004900000000440061005A
:1018020000000042002E0001420015000041000CC1
:101812000041003900420066000042000D00004114
:1018220000010841004700410068000161000162B7
:101832000041001400410023014100310A410048E7
:10184200004100460A4100380041003A0042000AC5
:1018520000004100030002820000028000004100FB
:10186200300041002C004100000041002B004100EB
:1018720013004200240000420036000041005F00D5
:101882004100040042000500004100020041002D19
:101892000041003200410043004C004F00000000B4
:0D18A20000000000000000004200080000EF
:102A5B008E098F0A8B0B8A0C890DAF051DEF602138
:102A6B00050AE50AAE097002050914F5828E83E4A6
:102A7B0093FF780BE475F001120CC7EF120A778005
:022A8B00D9224E
:102B76008F828E83E4F560F55FF55EF55DAF82AE1C
:102B860083E4FCFDAB60AA5FA95EA85DC3120C2FAF
:082B9600500543BD1080E6224A
:092CAB00E0FF7C2F122B9E7F64D8
:102CB400E4FDFCC3ED9FEC9E50070DBD00010C80AC
:012CC400F21D
:012CC50022EC
:102CC600758E5190FE917401F0A37410F075BD5F7E
:072CD60090FEA07420F02223
:102C5500E490FE80F0758901758DFA758BCB43A8DC
:0E2C650008438840758CCB758AEB438810229B
:102ABF0090FF10E054F04408F090FF02E054F0440F
:102ACF0002F0D28490FFA07420F0A37404F075CCB0
:102ADF000675CEFF75CD98759E0275981043A81098
:012AEF0022C4
:102CDD0043B40343B4807F147E00122CB475B50148
:072CED0090FE9B744BF022E6
:102C730090FF08E054F04408F090FF00E0540F4444
:0C2C830030F090FF11E054F04403F02208
:0B2D54008F99E59830E1FB5398FD22B9
:1027AF008FB543B440E5B430E5FB53B4DF7F647EAF
:1027BF0000122CB4E4FBFAF943B440E5B430E5FB66
:1027CF0053B4DFE5B62BFBE5B73AFA7F147E001260
:1027DF002CB409B910E275B501A9027F647E00120D
:0427EF002CB4AF0156
:0127F30022C3
:101384007B017A00794F7D0C7F007E2F122A5B90BF
:10139400004FE0FFE4FCFDFE90000F120C7E900075
:1013A4000F120C667808120C5390000F120C7E90EA
:1013B400000F120C72900050E0FFE4FCFDFE120AD4
:1013C400D390000F120C7E90000F120C66E47BE8A1
:1013D4007A03F9F8120AEE90000F120C7EE47F30C3
:1013E4007E75FDFC90000F120C72C3120C2F40147A
:1013F4007F007E097D3D7C0090000F120C72D31299
:101404000C2F400A90000F120C8A00009C409000A0
:1014140051E0900065F070028007900065E0B4FE32
:101424000374FFF0900052E0FF900034E4F0A3EF67
:10143400F0E0F8E4F0E8900034F0900053E0FF901E
:101444000034E48FF0120ABD900034E0FEA3E0FF04
:101454004E6009D3EF9408EE94074009900034E4F9
:10146400F0A37405F0900054E0900031F090003A3D
:10147400F0900055E0900026F06006E0D394FF4021
:10148400069000267401F0900056E0F45401900098
:1014940023F0900057E05401900030F0900058E0A1
:1014A4005401900014F0900059E05401900013F09E
:1014B4007B017A0079087D027F807E2F122A5B905F
:1014C4000008E0900038F0900009E090002BF07FD5
:1014D400807E2F122BEB7F107E27122CB4900038C5
:1014E400E004F0E0FF7D807C2F122B9E7F647E0061
:1014F400122CB490002BE0700302001E90002BE02D
:10150400FFB4010E7D817C2F122B9E7F647E00121E
:031514002CB422D2
:10002600E561600302069843B440E5B430E5FB534E
:10003600B4DF85B70985B60A900015E475F001129C
:100046000ABD900061120C72AE09AF0AE4FCFD1203
:100056000AD3900061120C7E90004DE0FEA3E0FFF3
:10006600C3950AEE9509500DC3E50A9FF50AE50901
:100076009EF509800BC3EF950AF50AEE9509F50979
:1000860090001B120C72AE09AF0AE4FCFD120AD3F3
:1000960090001B120C7E900015E05401FEA3E04E6A
:1000A6007030D3900067E09400900066E0940040C2
:1000B600099000467464F0FF801590000DE070040E
:1000C600A3E06401700C900031E0FF900046F0124E
:1000D6002265C3900015E0942050030206E343BD59
:1000E60010E4F0A3F0900047E004F0900049120CF1
:1000F60066900061120C72120AD3900049120C7EAF
:10010600900047E0C394084037E4F0900049120C91
:10011600667810120C40900049120C7E900049122D
:100126000C6690004DEE8FF0120ABD90004DE0C3B4
:1001360013F0A3E013F0900049120C8A00000000AF
:10014600900001E0C394085005E004F0805690004A
:1001560066E07002A3E0704C7F0A1227AF9000336E
:10016600EFF0900060E0FE2402FDE433FCEFD39D47
:10017600EC6480F8748098501E900033E02402FDF1
:10018600E433FCEED39DEC6480F8748098500890BC
:100196000060E0900033F0900033E0900060F0E4FF
:1001A600900001F0E4FFFEFDFC900017120C72C3F4
:1001B600120C2F704190001B120C66EF2488FFEE84
:1001C6003413FEE43DFDE43CFC900017120C7E90D7
:1001D600002EE07002A3E0701D7F407E427D0FFC82
:1001E600900017120C72D3120C2F400A90001712AF
:1001F6000C8A000F4240900007E0701690001B1218
:100206000C6690003B120C7E900027120C8A0000B0
:100216000001900027120C6690001B120C72120A45
:10022600D390003B120C72C3120C2F40030204BE83
:10023600900027120C6690003B120C72120AD390A3
:10024600001B120C72C3120C2F40030204BE900056
:1002560007E004F090005B120C6690001B120C7213
:10026600120AD390005B120C7E900007E0FFFBE4BD
:10027600FAF9F890005B120C66120B7990003B12AB
:100286000C7E90003B120C667803120C40900027FF
:10029600120C7EE47F207E4EFDFC900027120C722D
:1002A600C3120C2F500A900027120C8A00004E2011
:1002B600E47F607EEAFDFC900027120C72D3120CDC
:1002C6002F400A900027120C8A0000EA6090003B3B
:1002D600120C66900017120C72D3120C2F404C9021
:1002E600003B120C72900017120C66120AE0900086
:1002F60061120C7E7F807E387D017C009000611249
:100306000C72D3120C2F40089000447406F0802122
:10031600E47F407E9CFDFC900061120C72D3120CAF
:100326002F90004440087409F08006900044740C35
:10033600F0900044E0FF900007E0C39F407B9000F0
:1003460017120C6690003B120C72C3120C2F5069E8
:10035600900045E0941050030204CD900044E0D391
:100366009409500890003B120C66804490003B12A2
:100376000C66EF24A0FFEE340FFEE43DFDE43CFCEA
:10038600900017120C72D3120C2F402A90001712ED
:100396000C6690003B120C72120AD3900017120CD6
:1003A6007E900017120C66E47B02FAF9F8120B79BC
:1003B600900017120C7E0204BE900045E0FF9000EC
:1003C60007E0C39F50030204CD900017120C66EF9E
:1003D60024A0FFEE340FFEE43DFDE43CFC90003B20
:1003E600120C72D3120C2F50030204AE9000171297
:1003F6000C7290003B120C66120AE0900061120C1F
:100406007E7F007E127D7A7C0090003B120C72C3C8
:10041600120C2F40030204AE7F807E1A7D067C00FC
:10042600900061120C72C3120C2F507C900045E0B4
:100436009410400280487FE07E937D047C0090000B
:1004460061120C72D3120C2F40089000457410F004
:10045600801F7FF07E497D027C00900061120C7245
:10046600D3120C2F9000454005740CF080037408DD
:10047600F0900045E0FF900007E0C39F402A9000FF
:1004860017120C6690003B120C72120AD3900017DA
:10049600120C7E900017120C66E47B02FAF9F81231
:1004A6000B79900017120C7E900045E0FF90000734
:1004B600E0C39F4012E48004E4900007F090005BE4
:1004C600120C8A00000000900039E0D394004066C8
:1004D600E014F090003F120C66EF2470FFEE341724
:1004E600FEE43DFDE43CFC900017120C72D3120CA6
:1004F6002F500302064690003F120C66EF2498FF29
:10050600EE343AFEE43DFDE43CFC90001B120C7216
:10051600C3120C2F400302064690003F120C66EFF2
:100526002470FFEE3417FEE43DFDE43CFC9000171A
:10053600120C7E020646D390002FE0940090002E07
:10054600E09400407B74FFF5F0120ABDD390002FB3
:10055600E0940090002EE0940040657F007E127DBE
:100566007A7C00900017120C72D3120C2F400C905C
:10057600000F120C8A000C3500804590000F120CFB
:1005860066900017120C72120AD3900061120C7E4C
:100596007F407E547D897C00900061120C72D312DC
:1005A6000C2F401C900017120C72C374409BFF74F2
:1005B600549AFE748999FDE498FC90000F120C7E03
:1005C60090000F120C66900017120C72120AD3904C
:1005D600001B120C72D3120C2F4065900065E0FFD1
:1005E600900033E0D39F400FD390002FE09400900B
:1005F600002EE094004049900066E07002A3E0708F
:100606000C900017120C6690003F120C7E9000664C
:10061600E4F0A304F090002CF0900024E475F001BF
:10062600120ABD90002D7401F09000457408F0E4A4
:1006360090000DF0A3F07882F608F67880F608F6BA
:1006460090001B120C6690001F120C7E9000611227
:100656000C8A0000000090001B120C8A00000000AB
:10066600900066E0FEA3E0FFD39400EE9400406D98
:10067600900034E0FCA3E0FDD3EF9DEE9C405EE4E9
:10068600900066F0A3F075610190002CF0900000D8
:10069600F02290000DE4F0A304F0E4F56190000A66
:1006A600F0A3F0900003F07FFAFE122B769000493B
:1006B600120C8A00000000E4900047F09000457498
:1006C60040F09000397402F09000017406F0E49056
:0D06D6000007F090005B120C8A000000008D
:0106E30022F4
:1023BE00E4F50A900061120C8A00000000E4F509B1
:1023CE0043B440E5B430E5FB53B4DF900061120C2A
:1023DE0072AFB6AEB7E4FCFD120AD3900061120CD8
:1023EE007E0509E509B480D87F907E01122B769088
:1023FE000061120C66780B120C408F09E509D3941C
:10240E000C400CE509948D5006E50A9414500A050B
:09241E000AE50AD39450409B2208
:012427002292
:10242800900061120C8A00000000E4F509E4F50C44
:10243800F50D43B440E5B430E5FB53B4DF85B70A86
:1024480085B60B900061120C72AE0AAF0BE4FCFD6E
:10245800120AD3900061120C7E050DE50D7002057D
:102468000CB400CEE50CB420C943BD100509E5093C
:10247800B408BA900061120C667810120C409000F3
:062488004DEEF0A3EFF0A1
:01248E00222B
:10226500EF700690005F048014BF640CE490005F7B
:10227500F090003204F0800B90005F7402F0E4905F
:102285000032F0BF0104E4FE80397E007C007DFF52
:10229500120AABAC06AD07E4120881E4FBFA79C873
:1022A50078421207DF8F0E8E0D8D0C8C0BE4FFFE2E
:1022B500FD7C3FAB0EAA0DA90CA80B1206EB12086C
:1022C500BAAE0790FF9C7410F075DEFF8EDF75DDEA
:0322D500947F00F3
:0122D80022E3
:100F8E00120003122CC6122C73122C55122ABF12E9
:100F9E002CDD75BBAA90FEA774FFF053BBF7D2AF42
:100FAE007FC87E00122B767F0A1227AF900033EF98
:100FBE00F0900060F0C2AF1213847F64122265D2EB
:100FCE00AF1223BE900031E0FF900046F012226572
:100FDE007F2C7E01122B76122428900061120C8A2F
:100FEE0000000000900038E0D394034005E4F012B6
:100FFE00001E900004E0FF90005FE0FD6F600D7F2B
:10100E0076122A2690005FE0900004F0900043E0F4
:10101E00FF900032E0FD6F600D7F77122A26900060
:10102E0032E0900043F0900002E0640170419000C5
:10103E002DE0B4013AE4900002F090002DF0900003
:10104E0024E0FEA3E0FF900036E06E7003A3E06F95
:10105E00601DE48F2F8E2EF52DF52C7F741220EF50
:10106E00900024E0FFA3E0900036CFF0A3EFF04312
:10107E00BD10E561700B900016E0541F7003121145
:10108E00CF900023E064016003021179E562703DA8
:10109E00F561756201900031E0900046F0900049D4
:1010AE00120C8A00000000E4900047F09000457496
:1010BE0040F09000397402F09000017406F0E49054
:1010CE000007F090005B120C8A0000000012002650
:1010DE00D390000EE0940090000DE0940040369006
:1010EE000003E0B4012FE4F090000D75F001120A38
:1010FE00BD900026E0FFC390000EE09F90000DE033
:10110E0094004011E4F0A3F0900013E06401600538
:10111E00E4FF122265D3900067E09400900066E031
:10112E00940040127881E6640118467009F608F6BC
:10113E0075F001120ABD900030E064016003020FE9
:10114E00F290002CE0FF900000E06F7003020FF2AF
:10115E00EFF0900066E4F0A304F0E4F508E508C3B0
:10116E0094084003020FF2050880F2E4F562900045
:10117E0014E07007FF122265020FF290003AE0FFB2
:10118E00122265E4F561900031E0900046F0900087
:10119E0049120C8A00000000E4900047F0900045D0
:1011AE007440F09000397402F09000017406F0E47F
:1011BE00900007F090005B120C8A00000000020FF6
:0111CE00F22E
:03001B00021C8F35
:101C8F00C0E0C0F0C083C082C0D075D000C000C01B
:101C9F0001C002C003C004C005C006C007AF60AEDC
:101CAF005FAD5EAC5DEF2401FFE43EFEE43DFDE47D
:101CBF003C8F608E5F8D5EF55D90000AE475F001DC
:101CCF00120ABD90000AE0FEA3E0FFE4FCFD7B607A
:101CDF007AEAF9F8D3120C19500C90000AE4F0A329
:101CEF00F090000304F0788306E618700106C378BD
:101CFF0083E694E818E69403400C760008760078A3
:101D0F00807600087601900005E475F001120ABD97
:101D1F00C3900006E094E8900005E094034009E4C6
:101D2F00F0A3F090000204F0D007D006D005D00445
:101D3F00D003D002D001D000D0D0D082D083D0F049
:031D4F00D0E032AF
:030023000226DCD6
:1026DC00C0E0C0F0C083C082C0D075D000C000C0C4
:0D26EC0001C002C003C004C005C006C00745
:0F26F900E59830E00AAF991229765398FED2AFD8
:10270800D007D006D005D004D003D002D001D00025
:0B271800D0D0D082D083D0F0D0E032CF
:102BEB0053BBF7C280E5BB20E3F6D280C2AF75FDC5
:102BFB00F075FC0F8EFA8FF975FDD275FC2D75FDF6
:052C0B00E175FC1E2232
:102B9E0053BBF7C280E5BB20E3F6D280C2AF8FFBFA
:102BAE0075FDF075FC0F8CFA8DF975FDB475FC4B47
:072BBE0075FDE175FC1E220C
:101D52007F007E2F122BEB7F107E27122CB4E47BA8
:101D6200E87A03F9F890000F120C66120B797808E2
:101D7200120C407D007C2F122B9E7F647E00122C61
:101D8200B4E47BE87A03F9F890000F120C66120BA8
:101D9200797D017C2F122B9E7F647E00122CB490E1
:101DA20000657D02122CAB9000347D03122CABA394
:101DB200E0FF7D04122CAD900031E0FF7D05122C76
:101DC200AD900026E0FF7D06122CAD900023E0F4DA
:101DD200FF7D07122CAD900030E0FF7D08122CAD84
:101DE200900014E0FF7D09122CAD900013E0FF7DFE
:101DF2000A122CAD7F807E2F122BEB7F107E2712D2
:101E02002CB47D807C2FE4FF122B9E0D0F122B9E93
:021E1200D2AF4D
:011E140022AB
:0418AF00027E0000B5
:10234D00EFC39430400CEFD39439500674D02FFF67
:10235D008022EFC39441400CEFD394465006EF24F6
:10236D00C9FF8010EFC39461400AEFD39466500407
:10237D00EF24A9FFEF540FC454F0FFEDC394304088
:10238D000CEDD39439500674D02DFD801EEDC39401
:10239D00414008EDD394465002800CEDC39461404A
:1023AD000AEDD394665004ED24A9FDED540F4207B8
:0123BD0022FD
:06259C008B1A8A1B891C4A
:1025A200E4F520F51FF51EF51DE94A4B7005FFFE07
:1025B200FDFC22E4F520F51FF51EF51D781AE475E1
:1025C200F001120CC7120A31601AE5202401FFE45F
:1025D200351FFEE4351EFDE4351D8F208E1F8D1E36
:0C25E200F51D80D8AF20AE1FAD1EAC1D53
:0125EE0022CA
:0629EE008B268A278928D0
:1029F4008B2C8A2D892EE94A4B7004FBFAF922E5C7
:102A04002B152BAE2A7002152A4E600F782CE47514
:102A1400F001120CC7ED120A7780E4AB26AA27A9AD
:012A24002889
:012A2500228E
:061BBE008B218A2289231D
:101BC4008B298A2A892B85242C85252D85262EE987
:101BD4004A4B6008E5264525452470077B007A00BA
:101BE400790022D3852D83852E82E52B9582E52AE3
:101BF40095834019E52E2528F9E52D3527FA8A83A2
:101C04008982D3E52B9582E52A95834038E4F52F24
:101C1400F530C3E5309528E52F95275067AB2CAAFE
:101C24002DA92E853082852F83120A4AAB29AA2A30
:101C3400A92B853082852F83120A890530E53070FF
:101C4400D1052F80CD85272F852830D3E53094000A
:101C5400E52F9400402EAB2CAA2DA92EE53024FFAD
:101C6400FFE52F34FFFE8F82F583120A4AAB29AABF
:101C74002AA92B8F828E83120A89E530153070CB06
:0A1C8400152F80C7AB21AA22A92367
:011C8E002233
:0627F4008B3C8A3D893E8A
:1027FA008B428A438944AB3FAA40A941120A3160FD
:10280A001C783FE475F001120CC7120A31FF783CBC
:10281A00E475F001120CC7EF120A7780D9AB3CAA13
:0D282A003DA93EE4120A77AB42AA43A9443F
:01283700227E
:10248F008B638A648965AB63AA64A965120A31FFFD
:10249F006026AB66AA67A968120A31601BB50718D8
:1024AF0074012565F565E43564F56474012568F5F7
:1024BF0068E43567F56780CEAB66AA67A968120A2C
:1024CF0031FF3395E0FEAB63AA64A965120A31FDB3
:0C24DF003395E0FCC3ED9FFFEC9EFE2255
:102838008F7D8E7C8D7B8C7A7818120C40EF120A73
:1028480077AF7DAE7CAD7BAC7A7810120C409000EF
:1028580001EF120A89AF7DAE7CAD7BAC7A780812A5
:102868000C40900002EF120A89E57DFF900003EF0B
:03287800020A89C8
:101EAE00E4F530F52FF52EF52D120A31FFE48F30C3
:101EBE00F52FF52EF52DAE2FAD2EAC2D7808120C7C
:101ECE00538F308E2F8D2E8C2D900001120A4AFFCB
:101EDE00E5304FFFE52FFEE52EFDE52D8F308E2FE1
:101EEE008D2EF52DFC7808120C538F308E2F8D2EE3
:101EFE008C2D900002120A4AFFE5304FFFE52FFEAF
:101F0E00E52EFDE52D8F308E2F8D2EF52DFC7808CC
:101F1E00120C538F308E2F8D2E8C2D900003120AA3
:101F2E004AFFE5304FFFE52FFEE52EFDE52D8F3004
:071F3E008E2F8D2EF52DFC06
:011F45002279
:102D1D00E4FDFCFFFE122C97AC06AD077F030221EC
:012D2D00782D
:102D0B00E4FDFCFFFE0D122C97AC06AD077F030212
:022D1B0021781D
:082723008F698B6A8A6B896CD7
:10272B00E4FCFFFEAD69122C97AC06E4FD122C976E
:10273B00AC06E56DFD122C97AC06AD6E122C97AC6A
:10274B0006AD07AB6AAA6BA96C856D1F856E20124F
:0D275B0029B8AC06AD077F061221787F017A
:01276800224E
:04287B008D27AB07F3
:10287F00E4FCFFFEAD03122C97AC067D01122C97E2
:10288F00AC06E4FD122C97AC067D01122C97AC061A
:10289F00AD07E5277003FD8006AF05AE047D01127D
:0D28AF002C97AC06AD077F061221787F0143
:0128BC0022F9
:0220EF00AB073D
:1020F100E4FCFFFEAD03122C97AC067D02122C9777
:10210100AC06E4FD122C97AC067D04122C97C00698
:10211100C007AF2FAE2EAD2DAC2C7818120C40ADF0
:1021210007D007D006122C97C006C007AF2FAE2EDE
:10213100AD2DAC2C7810120C40AD07D007D0061293
:102141002C97C006C007AF2FAE2EAD2DAC2C780852
:10215100120C40AD07D007D006122C97AC06C00771
:10216100E52FFFE4AD07D007122C97AC06AD077F32
:06217100061221787F0137
:012177002245
:082769008F6F8B708A71897279
:10277100E4FCFFFEAD6F122C97AC067D03122C9783
:10278100AC06E573FD122C97AC06AD74122C97AC18
:1027910006AD07AB70AA71A97285731F85742012EB
:0D27A10029B8AC06AD077F061221787F0134
:0127AE002208
:042A26008D27AB0746
:102A2A00E4FCFFFEAD03122C97AC067D04122C9732
:102A3A00AC06E4FD122C97AC067D01122C97AC066D
:102A4A00AD27122C97AC06AD077F061221787F01BD
:012A5A002259
:0219E400AB074F
:1019E600900000AF82AE83AD03122C978E838F8258
:1019F6007D05122C978E838F82E4FD122C978E83A1
:101A06008F8274FFFFE578FEE577FDE576FCE47BE3
:101A1600FFFAF9F8C3120C2F7012AF82AE837D0164
:101A2600122C978E838F82AD79021ABE74FFFFFE49
:101A3600E577FDE576FCE47BFF7AFFF9F8C3120C47
:101A46002FAF82AE8370047D02803E7D04122C97F8
:101A56008E838F82C006C007AF79AE78AD77AC763D
:101A66007818120C40AD07D007D006122C978E833B
:101A76008F82C006C007AF79AE78AD77AC767810A6
:101A8600120C40AD07D007D006122C978E838F829A
:101A9600C006C007AF79AE78AD77AC767808120C81
:101AA60040AD07D007D006122C978E838F82C007D1
:101AB600E579FFE4AD07D007122C978E838F82ADB0
:0A1AC60082AC837F061221787F01B5
:011AD00022F3
:082D69008C278D28120A31FFAE
:012D7100223F
:082D72008C278D28120A31FFA5
:012D7A002236
:072D8D008C2B8D2C121EAEF1
:012D9400221C
:100003007550017551007552AC75530175540075E7
:0800130055ACE4F54EF54F2257
:10297600C3E54F9421E54E94005030C39000CDE559
:10298600529582E5519583400D7A0079AC755001D8
:102996007551007552AC7850E475F001120CC7EF12
:0C29A600120A77054FE54F7002054E2223
:1011CF00E4F509F50AF50BF50CF50DF50EF50F75B0
:1011DF001009C3E57F9421E57E94005027122D2E30
:1011EF00D3EF9400EE9400401B122939057FE57F61
:1011FF00AC7E7002057E14246AF58274003CF58380
:10120F00EFF080CEC3E57F9409E57E940050030292
:10121F001383C3E57F950AFDE57E9509FCC3ED9425
:10122F0009EC94005003021326746A250AF58274A0
:10123F00003509F583E06455600A050AE50A70D2A6
:10124F00050980CE746B250AF58274003509F58384
:10125F00E064AA600A050AE50A70B7050980B3744D
:10126F006C250AF58274003509F583E0750D00F5DC
:10127F000E6402450D60047402803C7470250AF5FB
:10128F008274003509F583E0750C00F50B74712538
:10129F000AF58274003509F583E02409FFE433FE73
:1012AF00EF250CF50CEE350BF50BD3E50C942AE579
:1012BF000B940040097403250AF50AE48052C3ED2C
:1012CF00950CEC950B4050746A250AF9740035099A
:1012DF00FA7B01E50C24FFFDE50B34FFFC122AF02D
:1012EF00E50A250CFDE509350BFC74692DF58274B3
:1012FF00003CF583E06F60097403250AF50AE4806A
:10130F000FAF0AAE09121517E50C250AF50AE50B02
:10131F003509F509021221C3E57F950AF57FE57EB0
:10132F009509F57ED3E57F9400E57E94004045E571
:10133F000A45097020E57F9421E57E94004016054B
:10134F000AE50A70020509E57F950AF57FE57E95A6
:10135F0009F57E8000746A250AF974003509752431
:10136F0001F5258926857E27857F287B017A0079DF
:04137F006A121BBE15
:011383002247
:1018B3004100D3004400CF000000005C00D40101CC
:1018C300030265046602670168026902710172011D
:0A18D30073017402750176047704B6
:03001E00022D0BA5
:032DB000022D549D
:101AD100900000E0FD7F0112287B900014E0FD7F63
:101AE1007112287B900031E0FFE48F2FF52EF52D48
:101AF100F52C7F031220EF900065E0FFB4FF05E4B1
:101B0100F519801EEFB4C8057519028015EFB428C8
:101B110005751903800CEFB414057519048003755C
:101B21001905AD197F65122A26900034E0FEA3E065
:101B3100FFE48F2F8E2EF52DF52C7F661220EF906E
:101B41000023E0FD7F6712287B900026E0FFE48FF1
:101B51002FF52EF52DF52C7F681220EFE47B107AFE
:101B610027F9F890000F120C66120B79C374329F9B
:101B7100FFE48F2FF52EF52DF52C7F691220EF90C4
:101B81000030E0FD7F7212287B900013E0FD7F732F
:101B910012287B900024E0FEA3E0FFE48F2F8E2E1D
:101BA100F52DF52C7F741220EF90005FE0FD7F761C
:0D1BB100122A26900032E0FD7F77022A26DE
:102CF400122D69900000EFF0FD7F0112287BBF01C7
:062D0400037F01227F00A5
:012D0A0022A6
:1025EF00122D8D8F2A8E298D288C27900031E0FF98
:1025FF00E4FCFDFEAB2AAA29A928A827C3120C2F99
:10260F006006E4FF0FBF08FCAF2A900031EFF09097
:10261F00003AF0121D52900031E0FFE48F2FF52E9B
:10262F00F52DF52C7F031220EFBF01037F01227FD1
:01263F00009A
:012640002277
:1021EF00122D729000D3E0B5070FBF051290006556
:1021FF00E0FE900033E06E8006E4FE0EBE08FCEFBA
:10220F0014601014601514601A14601F14602424D5
:10221F0005702890006574FFF0802090006574C8E9
:10222F00F080189000657428F08010900065741489
:10223F00F08008900033E0900065F09000D3EFF04D
:10224F00121D529000D3E0FD7F65122A26BF0103B5
:05225F007F01227F0059
:012264002257
:10254600122D8D8F2A8E298D288C27900034E0FE3F
:10255600A3E0FFE4FCFDAB2AAA29A928A827C312F9
:102566000C2F6006E4FF0FBF08FC900034E529F04D
:10257600A3E52AF0121D52900034E0FEA3E0FFE42A
:102586008F2F8E2EF52DF52C7F661220EFBF0103BF
:052596007F01227F001F
:01259B00221D
:102A8D00122D69900023E06F6006E4FE0EBE08FC77
:102A9D00EF9000237003F080037401F0121D52902B
:102AAD000023E0FD7F6712287BBF01037F01227F9A
:012ABD000018
:012ABE0022F5
:10268F00122D8D8F2A8E298D288C27900026E0FF02
:10269F00E4FCFDFEAB2AAA29A928A827C3120C2FF8
:1026AF006006E4FF0FBF08FC900026E52AF0121D1C
:1026BF0052900026E0FFE48F2FF52EF52DF52C7F9D
:0C26CF00681220EFBF01037F01227F0092
:0126DB0022DC
:1022D900122D8D8F2A8E298D288C279000CF120CD4
:1022E90066AB2AAA29A928A827C3120C2F6006E4DD
:1022F900FF0FBF08FCAF2AAE29AD28AC279000CF4D
:10230900120C7EC37432952AFFE49529FEE49528C0
:10231900FDE49527FCE47B107A27F9F8120AEE9080
:10232900000F120C7E121D529000CF120C668F2FD7
:102339008E2E8D2D8C2C7F691220EFBF01037F011A
:03234900227F00F0
:01234C00226E
:1028BD00122D69900014E06F6006E4FE0EBE08FC58
:1028CD00EF7006900014F08013900023E0B4010621
:1028DD0090002C7401F09000147401F0900014E03D
:0E28ED00FD7F7112287BBF01037F01227F0057
:0128FB0022BA
:102B4A00122D69AD07900030E06D6006E4FF0FBFFB
:102B5A0008FCED9000307003F080037401F07F727E
:0B2B6A0012287BBF01037F01227F00C7
:012B7500223D
:102C1000122D69900013E06F6006E4FE0EBE08FC02
:102C2000900013EFF0FD7F7312287BBF01037F013B
:032C3000227F0000
:012C3300227E
:102BC500122D69EF601DE4900024F0A3F09000241D
:102BD500E0FEA3E0FFE48F2F8E2EF52DF52C7F74FC
:052BE5001220EF7F014A
:012BEA0022C8
:022D9D008F267F
:042D9F008C278D28C8
:012DA300220D
:0618E2008B218A228923FC
:1018E800E4F526EF120CD7191401194303195365AF
:1018F800196266197167198068198F69199E7119BB
:10190800AD7219BC7319CB75000019DCAB21AA2282
:10191800A923AD25AC24122CF48F26E5266401609A
:10192800030219E1900048E004F0E0C39405500375
:101938000219E1E4F012001E0219E1AB21AA22A962
:1019480023AD25AC241225EF0219D8AB21AA22A970
:1019580023AD25AC241221EF8076AB21AA22A9233E
:10196800AD25AC241225468067AB21AA22A923AD58
:1019780025AC24122A8D8058AB21AA22A923AD2593
:10198800AC2412268F8049AB21AA22A923AD25AC0D
:10199800241222D9803AAB21AA22A923AD25AC244E
:1019A8001228BD802BAB21AA22A923AD25AC241275
:1019B8002B4A801CAB21AA22A923AD25AC24122CCA
:1019C80010800DAB21AA22A923AD25AC24122BC56A
:0B19D8008F268000E4900048F0AF264E
:0119E30022E1
:032DB3007F0E226E
:102B1D007B2270223A2200726C3766777133320055
:102B2D00222C2276223A2200312E302E3000227DA8
:0D2B3D00001F1C1F1E1F1E1F1F1E1F1E1F1E
:0418DD00410069005D
:101F4600E4FFFE90004DE0C4F854F0C8A3E0C4548A
:101F56000F48FD122C977E00900033E0FD122C975F
:101F66007E00C006C007900017120C667810120C8F
:101F760040AD07D007D006122C977E00C006C007DA
:101F8600900017120C667808120C40AD07D007D0E7
:101F960006122C977E00C006C00790001F120C6622
:101FA6007810120C40AD07D007D006122C977E0091
:101FB600C006C00790001F120C667808120C40ADD0
:101FC60007D007D006122C97EFFD7C007FB00221C8
:011FD6007892
:082D9500E4FDFC7FB10221788E
:092D7B009000CDEEF0A3EFF02270
:092D84009000CDE0FEA3E0FF2267
:082C8F00AB07E4FCFFFEAD03FE
:102C970074932FF974003EFA7B01ED120A770FBF88
:032CA70000010E1B
:012CAA002207
:0629B200AF197E007BFF5F
:0A29B8008E1A8F1B8B1C8A1D891ECE
:1029C20074932FF974003EFA7B01851C24851D2522
:1029D200851E26851F27852028121BBEE520251B64
:0B29E200F51BE51F351AF51AFEAF1BB0
:0129ED0022C7
:1028FC008B328A3389348C358D36E94A4B602DE521
:10290C003645356027E5361536AE35700215354E31
:10291C00601AAB32AA33A934120A31FF122DB074EB
:0D292C00012534F534E43533F53380D9222C
:0A2AF0008B328A3389348C358D3621
:102AFA00E4FFFDFCC3ED9536EC953550157832E4CC
:102B0A0075F001120CC7120A312FFF0DBD00010C1E
:022B1A0080E257
:012B1C002296
:062178008C308D31AB0735
:10217E00E4FF122D84AD07AC0690008B7455F0A3CE
:10218E0074AAF0A37402F0AF04A3EFF0AF05EFA3AF
:10219E00F0A3EBF0E530A3F0E531A3F00DBD0001A7
:1021AE000CAF05AE04122D7B74092531F531E435E3
:1021BE0030F5307B017A00798BE53124FFFDE53077
:1021CE0034FFFC122AF0748A2531F5827400353002
:1021DE00F583EFF07B017A00798BAD31AC300228BC
:0121EE00FCF4
:022C34008F20EF
:102C3600122DB3E4FEEEC39F501275F002EE900023
:0E2C4600D4120CBBE0652060030E80E9AF06DF
:012C5400225D
:0E2D2E00E54F454E7003120003AE4EAF4F222C
:10293900E4FFD3E54F9400E54E9400402F9000CD7D
:10294900E5559582E5549583400D7A0079AC755328
:10295900017554007555AC7853E475F001120CC734
:0C296900120A31FFE54F154F7002154EA9
:01297500223F
:080CFD008F298E288D278C261B
:100D0500782C7C007D007BFF7A2B793E7E007F0C62
:100D1500120A0BE4F538F539F53AF53BFFFEFDFC13
:100D2500AB29AA28A927A826C3120C2F6006E52BF4
:100D3500452A70077B007A00790022E47B3CFAF9AA
:100D4500F8AF29AE28AD27AC26120B79AF03E52BFA
:100D55002406F582E4352AF583EAF0A3EFF0AF29FE
:100D6500AE28AD27AC26E47B3CFAF9F8120B798F57
:100D7500298E288D278C26E47B3CFAF9F8120B790D
:100D8500E52B2405F582E4352AF583EBF0AF29AE92
:100D950028AD27AC26E47B3CFAF9F8120B798F29AC
:100DA5008E288D278C26E47BF87A88F9F8120B7942
:100DB5008E388F39E5397802C333CE33CED8F9244E
:100DC500B2FFEE3407852B82852A83F0A3EFF0AFBF
:100DD50029AE28AD27AC26E47BF87A88F9F8120B02
:100DE50079AC00AD01AE02AF038F298E288D278C1B
:100DF50026753A22753B38852B82852A83A3E054D4
:100E050003700B7418253BF53BE4353AF53AAE3AD9
:100E1500AF3BE4FCFDAB29AA28A927A826C3120CE1
:100E25002F4031852B82852A83E475F001120ABD96
:100E3500AE3AAF3BAB07AA06C3E5299BFFE5289A67
:100E4500FEE5279400FDE52694008F298E288D2741
:100E5500F526809DE47B18FAF9F8AF29AE28AD2771
:100E6500AC26120B79E52B2404F582E4352AF583AB
:100E7500EBF0AF29AE28AD27AC26E47B18FAF9F8DC
:100E8500120B798F298E288D278C26EF2401FFE4FC
:100E95003EFEE43DFDE43C8F298E288D27F5268511
:100EA5002B82852A83A3E05403705B7F3CFEFDFC07
:100EB500AB29AA28A927A826D3120C2F401DE5295E
:100EC50024FFFFE52834FFFEE52734FFFDE5263442
:100ED500FF8F298E288D27F526802BE47F3CFEFD8C
:100EE500FCAB29AA28A927A826C3120C2F701785A1
:100EF5002B82852A83A3A304F0852B82852A83A3CD
:100F0500A3A3741D807B852B82852A83A3A3E4F08C
:100F1500852B82852A83A3A3E0242CF8E6FF33954D
:100F2500E0FEFDFCAB29AA28A927A826D3120C2F81
:100F35004039852B82852A83A3A3E0242CF8E6FB80
:100F45003395E0FAF9F8C3E5299BFFE5289AFEE514
:100F55002799FDE526988F298E288D27F526852B3F
:100F650082852A83A3A3E004F080A5852B82852AA8
:100F750083A3A3E004F0852B82852A83A3A3A3E59D
:080F850029F0AA2AA92B7B0127
:010F8D002241
:0C2D3C00122C8FAC06AD077F0B02217833
:0C2D4800122C8FAC06AD077F0C02217826
:081E15008B458A4689478D4880
:101E1D00E4FDFCF54C754D08E54D154DAE4C7002CD
:101E2D00154C4E601AAF05AE047845E475F00112FD
:101E3D000CC7120A31FD122C97AC06AD0780D9AF35
:101E4D0005AE04AD48122C97AC06AD07C006C00711
:101E5D00E54AAE497818CEC313CE13D8F9FDD00795
:101E6D00D006122C97AC06AD07C006C007E54AAEEA
:101E7D00497810CEC313CE13D8F9FDD007D0061272
:101E8D002C97AC06E549FD122C97AC06AD4A122CE9
:101E9D0097AC06AD4B122C97AC06AD077F0D02210A
:011EAD0078BC
:082641008F568B578A58895906
:10264900E4FCF55B755C08FFFEAD56801EE55C1584
:102659005CAE5B7002155B4E601AAF05AE0478572D
:10266900E475F001120CC7120A31FD122C97AC0661
:10267900AD0780D9AF05AE04AD5A122C97AC06ADA3
:06268900077F0E0221781C
:10206300E4F5197BFF7A2B791D12259C8E1F8F2097
:102073007A2B791D1229B28F197BFF7A2B792412BF
:10208300259C8E1F8F207A2B79241229B28F197BDE
:10209300FF7A2B792D12259C8E1F8F20AF197E007E
:1020A3007BFF7A2B792D1229B88F197BFF7A2B7935
:1020B3003512259C8E1F8F20AF197E007BFF7A2B54
:1020C30079351229B88F197BFF7A2B793B12259C1E
:1020D3008E1F8F20AF197E007BFF7A2B793B12294D
:0C20E300B88F19EFFD7C007F010221780E
:0A2D5F008F19E4FDFC7F02022178C9
:0100210022BC
:0624EB008B198A1A891BFF
:1024F100120A31F51C900001120A4AF51D900002E2
:10250100120A4A751F00F51E900003120A4A251F80
:10251100F51FE4351EF51EAF1C122C3475F002EFC9
:102521009000D5120CBBE0651D60037F0022AB1942
:10253100E51B2404F9E4351AFA851E24851F25AF0D
:042541001C1218E26E
:012545002273
:022DB6008F1973
:012DB80022F8
:032DB90002000015
:021692008D19B0
:10169400E4F51DF51CF51BF51AF521F520F51FF5EC
:1016A4001EF5228B238A248925E519C39408500347
:1016B4000217C17B017A0079F0752A00752B08E4C2
:1016C400FD1229EE7B017A0079F8752A00752B0842
:1016D400E4FD1229EEE4F5227823E475F001120CFE
:1016E400C7120A31FFE51D4FFFE51CFEE51BFDE5B2
:1016F4001A8F1D8E1C8D1BF51AFC7808120C538F43
:101704001D8E1C8D1B8C1A0522E522B403CA782376
:10171400E475F001120CC7120A31FFE51D4FFFE515
:101724001CFEE51BFDE51A8F1D8E1C8D1BF51AE4AE
:10173400F5227823E475F001120CC7120A31FFE593
:10174400214FFFE520FEE51FFDE51E8F218E208D34
:101754001FF51EFC7808120C538F218E208D1F8CD0
:101764001E0522E522B403CA7823E475F001120CA5
:10177400C7120A31FFE5214FFFE520FEE51FFDE515
:101784001E8F218E208D1FF51EAF1DAE1CAD1BAC10
:101794001A752A00752BF8120CFDAF21AE20AD1F6F
:1017A400AC1E752A00752BF0120CFD7C007DF87FB1
:0D17B40001122D9D7C007DF0E4FF122D9DA3
:0117C1002205
:062DA400900069EFF0222F
:062DAA00900069E0FF2229
:041517008E118F1290
:10151B00E4F513F514746F2512F58274003511F58B
:10152B0083E0FD74702512F58274003511F583E0AC
:10153B00751400F51374712512F58274003511F5CD
:10154B0083E02514F514E43513F513746D2512F5AA
:10155B008274003511F583E07F00FE746E2512F561
:10156B008274003511F583E02FFFE43EFE122D7BD4
:10157B00ED120CD715A70115AA0215D80315DB041C
:10158B00164905164906165C0816802415A1B015D8
:0F159B00A4B100001691021F46022D9502206395
:1015AA0074722512F58274003511F583E0F515FF82
:1015BA00122DA4AF15122D5FE5157003021691E5E1
:0E15CA001564016003021691121AD1021D521F
:0315D800020021ED
:1015DB00E4F515F517F518F515AF157E00C3EF9566
:1015EB0014EE95134003021691E5122FFDEE351103
:1015FB00FC74742DF58274003CF583E0751800F5CE
:10160B001774752DF58274003CF583E02518F518D9
:10161B00EE3517F51774722512F974003511FA7B34
:10162B0001E92FF9EE3AFA1224EB8F16E516B40105
:0E163B0003121D52E51824042515F515809B99
:1016490074722512F58274003511F583E0F515FFE2
:03165900022DB6A9
:10165C0074722512F58274003511F583E0F515745A
:10166C00732512F58274003511F583E0F516FDAF84
:04167C0015022DB96D
:1016800074722512F974003511FA7B01AD1412162B
:0116900092C7
:011691002236
:1006E400020926E86480F8E933E83360110460F015
:1006F400ED33EC337009E8FCE9FDEAFEEBFF22047C
:1007040060DED3EB9FEA9EE99DE8C2E78CF0C2F776
:1007140095F0400CE8CCF8E9CDF9EACEFAEBCFFB42
:100724001208F185D0F05804700320D5B3E80470A2
:10073400075002B2D502093092D5EC0460F7E4CC3C
:10074400C0E0C398F8603B94186008400DD0E0FB0B
:10075400020908E4FBFAC9FC8028E830E406E4C98D
:10076400FBE4CAFCE830E305E4C9CACBFCE854075F
:100774006010F8C3E913F9EA13FAEB13FBEC13FC6A
:10078400D8F130F52FC3E49CFCEF9BFFEE9AFEED0D
:1007940099FDD0E0FBEF4E4D4C701222DB030209B1
:1007A4002DEC2CFCEF33FFEE33FEED33FDED30E7A3
:1007B400EB020908EF2BFFEE3AFEED39FDD0E0FB2A
:1007C40050130BBB0003020930ED13FDEE13FEEFD3
:0807D40013FFEC13FC020908FD
:1007DC00020930EC5D046005E85904700302092637
:1007EC001208F1580460F6EC4860F2EC7004FDFE5F
:1007FC00FF22C860DB2481C85009C39860025006F0
:10080C0002092D9850CAF582E9294B4A7005AB8232
:10081C0002091C75F0007C1A7880C3EF9BEE9AEDF0
:10082C0099400DC3EF9BFFEE9AFEED99FDE842F067
:10083C00DC23ACF0D0E0FFD0E0FED0E0FDAB8220BA
:10084C00E7101BEB60BAEC2CFCEF33FFEE33FEED44
:10085C0033FD020908E803F830E705C0F075F00035
:10086C00EF2FFFEE33FEED33FD40B830E7C280AA28
:10087C0075F020800E75F010800575F0087D007EF7
:10088C00007F003392D530D503120C0BEC334010A3
:10089C00EF33FFEE33FEED33FDEC33FCD5F0ED2200
:0E08AC00E5F0247EA2D513CC92E7CDCEFF223C
:1008BA00EDD2E7CD33EC3392D524814006E4FFFE36
:1008CA00FDFC22FCE4CFCECDCC24E0501174FF8095
:1008DA00EDC3CC13CCCD13CDCE13CECF13CF047032
:0708EA00F030D5DE020C0B1B
:1008F100E9D2E7C933E833F892D5EDD2E7CD33EC4D
:0709010033FC5002B2D522C5
:10090800EC30E7100FBF000C0EBE00080DBD000450
:100918000BEB6014A2D5EB13FCED92E7FD2274FFFC
:10092800FCFDFEFF22E480F8A2D574FF13FC7D8055
:03093800E480EF69
:101FE300020F8EE493A3F8E493A34003F68001F277
:101FF30008DFF48029E493A3F85407240CC8C333FF
:10200300C4540F4420C8834004F456800146F6DFCD
:10201300E4800B01020408102040809017C2E47E84
:10202300019360BCA3FF543F30E509541FFEE493C2
:10203300A360010ECF54C025E060A840B8E493A389
:10204300FAE493A3F8E493A3C8C582C8CAC583CAB4
:10205300F0A3C8C582C8CAC583CADFE9DEE780BE6C
:0118E1000006
:10093B00E709F608DFFA8046E709F208DFFA803E9E
:10094B0088828C83E709F0A3DFFA8032E309F6088B
:10095B00DFFA8078E309F208DFFA807088828C83F3
:10096B00E309F0A3DFFA806489828A83E0A3F608A7
:10097B00DFFA805889828A83E0A3F208DFFA804C81
:10098B0080D280FA80C680D4806980F28033801058
:10099B0080A680EA809A80A880DA80E280CA8033C1
:1009AB0089828A83ECFAE493A3C8C582C8CCC58339
:1009BB00CCF0A3C8C582C8CCC583CCDFE9DEE78009
:1009CB000D89828A83E493A3F608DFF9ECFAA9F088
:1009DB00EDFB2289828A83ECFAE0A3C8C582C8CCDE
:1009EB00C583CCF0A3C8C582C8CCC583CCDFEADEF7
:1009FB00E880DB89828A83E493A3F208DFF980CC59
:100A0B0088F0EF60010E4E60C388F0ED2402B40451
:100A1B000050B9F582EB2402B4040050AF232345F8
:060A2B00822390098B7389
:100A3100BB010689828A83E0225002E722BBFE02C3
:090A4100E32289828A83E49322F6
:100A4A00BB010CE58229F582E5833AF583E0225061
:100A5A0006E92582F8E622BBFE06E92582F8E222AB
:0D0A6A00E58229F582E5833AF583E49322C5
:100A7700BB010689828A83F0225002F722BBFE015E
:020A8700F32258
:100A8900F8BB010DE58229F582E5833AF583E8F0A3
:100A9900225006E92582C8F622BBFE05E92582C84F
:020AA900F22237
:100AAB00EF8DF0A4A8F0CF8CF0A428CE8DF0A42E5F
:020ABB00FE2219
:100ABD00C5F0F8A3E028F0C5F0F8E58215827002C4
:060ACD001583E038F02261
:0D0AD300EF2BFFEE3AFEED39FDEC38FC2272
:0E0AE000C3EF9BFFEE9AFEED99FDEC98FC2211
:100AEE00E88FF0A4CC8BF0A42CFCE98EF0A42CFCA7
:100AFE008AF0EDA42CFCEA8EF0A4CDA8F08BF0A425
:100B0E002DCC3825F0FDE98FF0A42CCD35F0FCEB83
:100B1E008EF0A4FEA9F0EB8FF0A4CFC5F02ECD3948
:0F0B2E00FEE43CFCEAA42DCE35F0FDE43CFC22B5
:100B3D0075F008758200EF2FFFEE33FECD33CDCC6F
:100B4D0033CCC58233C5829BED9AEC99E5829840F2
:100B5D000CF582EE9BFEED9AFDEC99FC0FD5F0D6CF
:100B6D00E4CEFBE4CDFAE4CCF9A88222B800C1B9F9
:100B7D000059BA002DEC8BF084CFCECDFCE5F0CB37
:100B8D00F97818EF2FFFEE33FEED33FDEC33FCEB70
:100B9D0033FB10D703994004EB99FB0FD8E5E4F92B
:100BAD00FA227818EF2FFFEE33FEED33FDEC33FC18
:100BBD00C933C910D7059BE99A4007EC9BFCE99A0C
:100BCD00F90FD8E0E4C9FAE4CCFB2275F010EF2F51
:100BDD00FFEE33FEED33FDCC33CCC833C810D70751
:100BED009BEC9AE899400AED9BFDEC9AFCE899F88C
:0E0BFD000FD5F0DAE4CDFBE4CCFAE4C8F9221F
:0E0C0B00C3E49FFFE49EFEE49DFDE49CFC22FA
:100C1900EB9FF5F0EA9E42F0E99D42F0EC6480C852
:060C290064809845F022F2
:100C2F00EB9FF5F0EA9E42F0E99D42F0E89C45F01B
:010C3F002292
:100C4000E8600FECC313FCED13FDEE13FEEF13FF92
:030C5000D8F122B6
:100C5300E8600FEFC333FFEE33FEED33FDEC33FCFF
:030C6300D8F122A3
:0C0C6600E0FCA3E0FDA3E0FEA3E0FF2201
:0C0C7200E0F8A3E0F9A3E0FAA3E0FB2205
:0C0C7E00ECF0A3EDF0A3EEF0A3EFF022E9
:100C8A00A8828583F0D083D082120CA1120CA11203
:100C9A000CA1120CA1E473E493A3C583C5F0C58328
:100CAA00C8C582C8F0A3C583C5F0C583C8C582C8B4
:010CBA002217
:0C0CBB00A42582F582E5F03583F5832244
:100CC700FAE6FB0808E6F925F0F618E6CA3AF6222E
:100CD700D083D082F8E4937012740193700DA3A3AC
:100CE70093F8740193F5828883E4737402936860C0
:060CF700EFA3A3A380DFC0
:00000001FF
