:03000000022006D5
:0C200600787FE4F6D8FD75818302204D40
:1017C700045D00000000410007004100440C410097
:1017D700454044003B0000000044001700000000A3
:1017E70044001B0000000044001F000000004400EC
:1017F7005B00000000440049000000004400610055
:1018070000000042002E0001420015000041000CBC
:101817000041003900420066000042000D0000410F
:101827000001084100470001610001620041001406
:1018370000410023014100310A41004800410046B0
:101847000A4100380041003A0042000A0000410006
:1018570003000282000002800000410030004100C6
:101867002C004100000041002B0041001300420002
:10187700240000420036000041005F0041000400E0
:1018870042000500004100020041002D00410032E6
:1018970000410043004C004F000000000000000022
:0918A700000000004200080000EE
:102A8A008E098F0A8B0B8A0C890DAF051DEF602109
:102A9A00050AE50AAE097002050914F5828E83E477
:102AAA0093FF780BE475F001120CC7EF120A7780D6
:022ABA00D9221F
:102BA5008F828E83E4F560F55FF55EF55DAF82AEED
:102BB50083E4FCFDAB60AA5FA95EA85DC3120C2F80
:082BC500500543BD1080E6221B
:092CDA00E0FF7C2F122BCD7F647A
:102CE300E4FDFCC3ED9FEC9E50070DBD00010C807D
:012CF300F2EE
:012CF40022BD
:102CF500758E5190FE917401F0A37410F075BD5F4F
:072D050090FEA07420F022F3
:102C8400E490FE80F0758901758DFA758BCB43A8AD
:0E2C940008438840758CCB758AEB438810226C
:102AEE0090FF10E054F04408F090FF02E054F044E0
:102AFE0002F0D28490FFA07420F0A37404F075CC81
:102B0E000675CEFF75CD98759E0275981043A81068
:012B1E002294
:102D0C0043B40343B4807F147E00122CE375B501E9
:072D1C0090FE9B744BF022B6
:102CA20090FF08E054F04408F090FF00E0540F4415
:0C2CB20030F090FF11E054F04403F022D9
:0B2D96008F99E59830E1FB5398FD2277
:1027DE008FB543B440E5B430E5FB53B4DF7F647E80
:1027EE0000122CE3E4FBFAF943B440E5B430E5FB08
:1027FE0053B4DFE5B62BFBE5B73AFA7F147E001231
:10280E002CE309B910E275B501A9027F647E0012AE
:04281E002CE3AF01F7
:012822002293
:101389007B017A00794F7D0C7F007E2F122A8A908B
:10139900004FE0FFE4FCFDFE90000F120C7E900070
:1013A9000F120C667808120C5390000F120C7E90E5
:1013B900000F120C72900050E0FFE4FCFDFE120ACF
:1013C900D390000F120C7E90000F120C66E47BE89C
:1013D9007A03F9F8120AEE90000F120C7EE47F30BE
:1013E9007E75FDFC90000F120C72C3120C2F401475
:1013F9007F007E097D3D7C0090000F120C72D31294
:101409000C2F400A90000F120C8A00009C4090009B
:1014190051E0900065F070028007900065E0B4FE2D
:101429000374FFF0900052E0FF900034E4F0A3EF62
:10143900F0E0F8E4F0E8900034F0900053E0FF9019
:101449000034E48FF0120ABD900034E0FEA3E0FFFF
:101459004E6009D3EF9408EE94074009900034E4F4
:10146900F0A37405F0900054E0900031F090003A38
:10147900F0900055E0900026F06006E0D394FF401C
:10148900069000267401F0900056E0F45401900093
:1014990023F0900057E05401900030F0900058E09C
:1014A9005401900014F0900059E05401900013F099
:1014B9007B017A0079087D027F807E2F122A8A902B
:1014C9000008E0900038F0900009E090002BF07FD0
:1014D900807E2F122C1A7F107E27122CE390003861
:1014E900E004F0E0FF7D807C2F122BCD7F647E002D
:1014F900122CE390002BE0700302001E90002BE0F9
:10150900FFB4010E7D817C2F122BCD7F647E0012EA
:031519002CE3229E
:10002600E561600302069843B440E5B430E5FB534E
:10003600B4DF85B70985B60A900015E475F001129C
:100046000ABD900061120C72AE09AF0AE4FCFD1203
:100056000AD3900061120C7E90004DE0FEA3E0FFF3
:10006600C3950AEE9509500DC3E50A9FF50AE50901
:100076009EF509800BC3EF950AF50AEE9509F50979
:1000860090001B120C72AE09AF0AE4FCFD120AD3F3
:1000960090001B120C7E900015E05401FEA3E04E6A
:1000A6007030D3900067E09400900066E0940040C2
:1000B600099000467464F0FF801590000DE070040E
:1000C600A3E06401700C900031E0FF900046F0124E
:1000D6002294C3900015E0942050030206E343BD2A
:1000E60010E4F0A3F0900047E004F0900049120CF1
:1000F60066900061120C72120AD3900049120C7EAF
:10010600900047E0C394084037E4F0900049120C91
:10011600667810120C40900049120C7E900049122D
:100126000C6690004DEE8FF0120ABD90004DE0C3B4
:1001360013F0A3E013F0900049120C8A00000000AF
:10014600900001E0C394085005E004F0805690004A
:1001560066E07002A3E0704C7F0A1227DE9000333F
:10016600EFF0900060E0FE2402FDE433FCEFD39D47
:10017600EC6480F8748098501E900033E02402FDF1
:10018600E433FCEED39DEC6480F8748098500890BC
:100196000060E0900033F0900033E0900060F0E4FF
:1001A600900001F0E4FFFEFDFC900017120C72C3F4
:1001B600120C2F704190001B120C66EF2488FFEE84
:1001C6003413FEE43DFDE43CFC900017120C7E90D7
:1001D600002EE07002A3E0701D7F407E427D0FFC82
:1001E600900017120C72D3120C2F400A90001712AF
:1001F6000C8A000F4240900007E0701690001B1218
:100206000C6690003B120C7E900027120C8A0000B0
:100216000001900027120C6690001B120C72120A45
:10022600D390003B120C72C3120C2F40030204BE83
:10023600900027120C6690003B120C72120AD390A3
:10024600001B120C72C3120C2F40030204BE900056
:1002560007E004F090005B120C6690001B120C7213
:10026600120AD390005B120C7E900007E0FFFBE4BD
:10027600FAF9F890005B120C66120B7990003B12AB
:100286000C7E90003B120C667803120C40900027FF
:10029600120C7EE47F207E4EFDFC900027120C722D
:1002A600C3120C2F500A900027120C8A00004E2011
:1002B600E47F607EEAFDFC900027120C72D3120CDC
:1002C6002F400A900027120C8A0000EA6090003B3B
:1002D600120C66900017120C72D3120C2F404C9021
:1002E600003B120C72900017120C66120AE0900086
:1002F60061120C7E7F807E387D017C009000611249
:100306000C72D3120C2F40089000447406F0802122
:10031600E47F407E9CFDFC900061120C72D3120CAF
:100326002F90004440087409F08006900044740C35
:10033600F0900044E0FF900007E0C39F407B9000F0
:1003460017120C6690003B120C72C3120C2F5069E8
:10035600900045E0941050030204CD900044E0D391
:100366009409500890003B120C66804490003B12A2
:100376000C66EF24A0FFEE340FFEE43DFDE43CFCEA
:10038600900017120C72D3120C2F402A90001712ED
:100396000C6690003B120C72120AD3900017120CD6
:1003A6007E900017120C66E47B02FAF9F8120B79BC
:1003B600900017120C7E0204BE900045E0FF9000EC
:1003C60007E0C39F50030204CD900017120C66EF9E
:1003D60024A0FFEE340FFEE43DFDE43CFC90003B20
:1003E600120C72D3120C2F50030204AE9000171297
:1003F6000C7290003B120C66120AE0900061120C1F
:100406007E7F007E127D7A7C0090003B120C72C3C8
:10041600120C2F40030204AE7F807E1A7D067C00FC
:10042600900061120C72C3120C2F507C900045E0B4
:100436009410400280487FE07E937D047C0090000B
:1004460061120C72D3120C2F40089000457410F004
:10045600801F7FF07E497D027C00900061120C7245
:10046600D3120C2F9000454005740CF080037408DD
:10047600F0900045E0FF900007E0C39F402A9000FF
:1004860017120C6690003B120C72120AD3900017DA
:10049600120C7E900017120C66E47B02FAF9F81231
:1004A6000B79900017120C7E900045E0FF90000734
:1004B600E0C39F4012E48004E4900007F090005BE4
:1004C600120C8A00000000900039E0D394004066C8
:1004D600E014F090003F120C66EF2470FFEE341724
:1004E600FEE43DFDE43CFC900017120C72D3120CA6
:1004F6002F500302064690003F120C66EF2498FF29
:10050600EE343AFEE43DFDE43CFC90001B120C7216
:10051600C3120C2F400302064690003F120C66EFF2
:100526002470FFEE3417FEE43DFDE43CFC9000171A
:10053600120C7E020646D390002FE0940090002E07
:10054600E09400407B74FFF5F0120ABDD390002FB3
:10055600E0940090002EE0940040657F007E127DBE
:100566007A7C00900017120C72D3120C2F400C905C
:10057600000F120C8A000C3500804590000F120CFB
:1005860066900017120C72120AD3900061120C7E4C
:100596007F407E547D897C00900061120C72D312DC
:1005A6000C2F401C900017120C72C374409BFF74F2
:1005B600549AFE748999FDE498FC90000F120C7E03
:1005C60090000F120C66900017120C72120AD3904C
:1005D600001B120C72D3120C2F4065900065E0FFD1
:1005E600900033E0D39F400FD390002FE09400900B
:1005F600002EE094004049900066E07002A3E0708F
:100606000C900017120C6690003F120C7E9000664C
:10061600E4F0A304F090002CF0900024E475F001BF
:10062600120ABD90002D7401F09000457408F0E4A4
:1006360090000DF0A3F07882F608F67880F608F6BA
:1006460090001B120C6690001F120C7E9000611227
:100656000C8A0000000090001B120C8A00000000AB
:10066600900066E0FEA3E0FFD39400EE9400406D98
:10067600900034E0FCA3E0FDD3EF9DEE9C405EE4E9
:10068600900066F0A3F075610190002CF0900000D8
:10069600F02290000DE4F0A304F0E4F56190000A66
:1006A600F0A3F0900003F07FFAFE122BA59000490C
:1006B600120C8A00000000E4900047F09000457498
:1006C60040F09000397402F09000017406F0E49056
:0D06D6000007F090005B120C8A000000008D
:0106E30022F4
:1023ED00E4F50A900061120C8A00000000E4F50982
:1023FD0043B440E5B430E5FB53B4DF900061120CFB
:10240D0072AFB6AEB7E4FCFD120AD3900061120CA8
:10241D007E0509E509B480D87F907E01122BA59029
:10242D000061120C66780B120C408F09E509D394EC
:10243D000C400CE509948D5006E50A9414500A05DC
:09244D000AE50AD39450409B22D9
:012456002263
:10245700900061120C8A00000000E4F509E4F50C15
:10246700F50D43B440E5B430E5FB53B4DF85B70A57
:1024770085B60B900061120C72AE0AAF0BE4FCFD3F
:10248700120AD3900061120C7E050DE50D7002054E
:102497000CB400CEE50CB420C943BD100509E5090D
:1024A700B408BA900061120C667810120C409000C4
:0624B7004DEEF0A3EFF072
:0124BD0022FC
:10229400EF700690005F048014BF640CE490005F4C
:1022A400F090003204F0800B90005F7402F0E49030
:1022B4000032F0BF0104E4FE80397E007C007DFF23
:1022C400120AABAC06AD07E4120881E4FBFA79C844
:1022D40078421207DF8F0E8E0D8D0C8C0BE4FFFEFF
:1022E400FD7C3FAB0EAA0DA90CA80B1206EB12083D
:1022F400BAAE0790FF9C7410F075DEFF8EDF75DDBB
:03230400947F00C3
:0123070022B3
:100F8E00120003122CF5122CA2122C84122AEE122D
:100F9E002D0C75BBAA90FEA774FFF053BBF7D2AF12
:100FAE007FC87E00122BA57F0A1227DE900033EF3A
:100FBE00F0900060F0C2AF1213897F64122294D2B7
:100FCE00AF1223ED900031E0FF900046F012229414
:100FDE007F2C7E01122BA5122457900061120C8AD1
:100FEE0000000000900038E0D394034007E4F012B4
:100FFE00001E8003121E12900004E0FF90005FE0BE
:10100E00FD6F600D7F76122A5590005FE090000410
:10101E00F0900043E0FF900032E0FD6F600D7F77AF
:10102E00122A55900032E0900043F0900002E064E6
:10103E0001704190002DE0B4013AE4900002F0906E
:10104E00002DF0900024E0FEA3E0FF900036E06E4D
:10105E007003A3E06F601DE48F2F8E2EF52DF52CFF
:10106E007F7412211E900024E0FFA3E0900036CF83
:10107E00F0A3EFF043BD10E561700B900016E05445
:10108E001F70031211D4900023E06401600302115B
:10109E007EE562703DF561756201900031E0900071
:1010AE0046F0900049120C8A00000000E4900047C0
:1010BE00F09000457440F09000397402F0900001F9
:1010CE007406F0E4900007F090005B120C8A0000AA
:1010DE000000120026D390000EE0940090000DE068
:1010EE0094004036900003E0B4012FE4F090000D20
:1010FE0075F001120ABD900026E0FFC390000EE0CD
:10110E009F90000DE094004011E4F0A3F0900013C6
:10111E00E064016005E4FF122294D3900067E0942E
:10112E0000900066E0940040127881E66401184653
:10113E007009F608F675F001120ABD900030E064F1
:10114E0001600302100590002CE0FF900000E06F9C
:10115E007003021005EFF0900066E4F0A304F0E4D3
:10116E00F508E508C394084003021005050880F24F
:10117E00E4F562900014E07007FF1222940210054D
:10118E0090003AE0FF122294E4F561900031E09075
:10119E000046F0900049120C8A00000000E4900016
:1011AE0047F09000457440F09000397402F09000C2
:1011BE00017406F0E4900007F090005B120C8A00B8
:0611CE0000000002100504
:03001B00021D4F74
:101D4F00C0E0C0F0C083C082C0D075D000C000C05A
:101D5F0001C002C003C004C005C006C007AF60AE1B
:101D6F005FAD5EAC5DEF2401FFE43EFEE43DFDE4BC
:101D7F003C8F608E5F8D5EF55D90000AE475F0011B
:101D8F00120ABD90000AE0FEA3E0FFE4FCFD7B60B9
:101D9F007AEAF9F8D3120C19500C90000AE4F0A368
:101DAF00F090000304F0788306E618700106C378FC
:101DBF0083E694E818E69403400C760008760078E2
:101DCF00807600087601900005E475F001120ABDD7
:101DDF00C3900006E094E8900005E094034009E406
:101DEF00F0A3F090000204F0D007D006D005D00485
:101DFF00D003D002D001D000D0D0D082D083D0F089
:031E0F00D0E032EE
:0300230002270BA6
:10270B00C0E0C0F0C083C082C0D075D000C000C094
:0D271B0001C002C003C004C005C006C00715
:0F272800E59830E00AAF991229A55398FED2AF79
:10273700D007D006D005D004D003D002D001D000F6
:0B274700D0D0D082D083D0F0D0E032A0
:102C1A0053BBF7C280E5BB20E3F6D280C2AF75FD95
:102C2A00F075FC0F8EFA8FF975FDD275FC2D75FDC6
:052C3A00E175FC1E2203
:102BCD0053BBF7C280E5BB20E3F6D280C2AF8FFBCB
:102BDD0075FDF075FC0F8CFA8DF975FDB475FC4B18
:072BED0075FDE175FC1E22DD
:101E12007F007E2F122C1A7F107E27122CE3E47B88
:101E2200E87A03F9F890000F120C66120B79780821
:101E3200120C407D007C2F122BCD7F647E00122C71
:101E4200E3E47BE87A03F9F890000F120C66120BB8
:101E5200797D017C2F122BCD7F647E00122CE390C2
:101E620000657D02122CDA9000347D03122CDAA375
:101E7200E0FF7D04122CDC900031E0FF7D05122C86
:101E8200DC900026E0FF7D06122CDC900023E0F4BB
:101E9200FF7D07122CDC900030E0FF7D08122CDC65
:101EA200900014E0FF7D09122CDC900013E0FF7D0E
:101EB2000A122CDC7F807E2F122C1A7F107E2712B2
:101EC2002CE37D807C2FE4FF122BCD0D0F122BCD46
:021ED200D2AF8D
:011ED40022EB
:0418B000027E0000B4
:10237C00EFC39430400CEFD39439500674D02FFF38
:10238C008022EFC39441400CEFD394465006EF24C7
:10239C00C9FF8010EFC39461400AEFD394665004D8
:1023AC00EF24A9FFEF540FC454F0FFEDC394304059
:1023BC000CEDD39439500674D02DFD801EEDC394D2
:1023CC00414008EDD394465002800CEDC39461401B
:1023DC000AEDD394665004ED24A9FDED540F420789
:0123EC0022CE
:0625CB008B1A8A1B891C1B
:1025D100E4F520F51FF51EF51DE94A4B7005FFFED8
:1025E100FDFC22E4F520F51FF51EF51D781AE475B2
:1025F100F001120CC7120A31601AE5202401FFE430
:10260100351FFEE4351EFDE4351D8F208E1F8D1E06
:0C261100F51D80D8AF20AE1FAD1EAC1D23
:01261D00229A
:062A1D008B268A278928A0
:102A23008B2C8A2D892EE94A4B7004FBFAF922E597
:102A33002B152BAE2A7002152A4E600F782CE475E5
:102A4300F001120CC7ED120A7780E4AB26AA27A97E
:012A5300285A
:012A5400225F
:061BB9008B218A22892322
:101BBF008B298A2A892B85242C85252D85262EE98C
:101BCF004A4B6008E5264525452470077B007A00BF
:101BDF00790022D3852D83852E82E52B9582E52AE8
:101BEF0095834019E52E2528F9E52D3527FA8A83A7
:101BFF008982D3E52B9582E52A95834038E4F52F2A
:101C0F00F530C3E5309528E52F95275067AB2CAA03
:101C1F002DA92E853082852F83120A4AAB29AA2A35
:101C2F00A92B853082852F83120A890530E5307004
:101C3F00D1052F80CD85272F852830D3E53094000F
:101C4F00E52F9400402EAB2CAA2DA92EE53024FFB2
:101C5F00FFE52F34FFFE8F82F583120A4AAB29AAC4
:101C6F002AA92B8F828E83120A89E530153070CB0B
:0A1C7F00152F80C7AB21AA22A9236C
:011C89002238
:062823008B3C8A3D893E5A
:102829008B428A438944AB3FAA40A941120A3160CD
:102839001C783FE475F001120CC7120A31FF783C8D
:10284900E475F001120CC7EF120A7780D9AB3CAAE4
:0D2859003DA93EE4120A77AB42AA43A94410
:01286600224F
:1024BE008B638A648965AB63AA64A965120A31FFCE
:1024CE006026AB66AA67A968120A31601BB50718A9
:1024DE0074012565F565E43564F56474012568F5C8
:1024EE0068E43567F56780CEAB66AA67A968120AFD
:1024FE0031FF3395E0FEAB63AA64A965120A31FD84
:0C250E003395E0FCC3ED9FFFEC9EFE2225
:102867008F7D8E7C8D7B8C7A7818120C40EF120A44
:1028770077AF7DAE7CAD7BAC7A7810120C409000C0
:1028870001EF120A89AF7DAE7CAD7BAC7A78081276
:102897000C40900002EF120A89E57DFF900003EFDC
:0328A700020A8999
:101F6E00E4F530F52FF52EF52D120A31FFE48F3002
:101F7E00F52FF52EF52DAE2FAD2EAC2D7808120CBB
:101F8E00538F308E2F8D2E8C2D900001120A4AFF0A
:101F9E00E5304FFFE52FFEE52EFDE52D8F308E2F20
:101FAE008D2EF52DFC7808120C538F308E2F8D2E22
:101FBE008C2D900002120A4AFFE5304FFFE52FFEEE
:101FCE00E52EFDE52D8F308E2F8D2EF52DFC78080C
:101FDE00120C538F308E2F8D2E8C2D900003120AE3
:101FEE004AFFE5304FFFE52FFEE52EFDE52D8F3044
:071FFE008E2F8D2EF52DFC46
:0120050022B8
:102D5F00E4FDFCFFFE122CC6AC06AD077F0302217B
:012D6F00A7BC
:102D4D00E4FDFCFFFE0D122CC6AC06AD077F0302A1
:022D5D0021A7AC
:082752008F698B6A8A6B896CA8
:10275A00E4FCFFFEAD69122CC6AC06E4FD122CC6E1
:10276A00AC06E56DFD122CC6AC06AD6E122CC6ACDD
:10277A0006AD07AB6AAA6BA96C856D1F856E201220
:0D278A0029E7AC06AD077F061221A77F01ED
:01279700221F
:0428AA008D28AB07C3
:1028AE00E4FCFFFEAD03122CC6AC067D01122CC655
:1028BE00AC06E4FD122CC6AC067D01122CC6AC068D
:1028CE00AD07E5287003FD8006AF05AE047D01124D
:0D28DE002CC6AC06AD077F061221A77F01B6
:0128EB0022CA
:02211E00AB070D
:10212000E4FCFFFEAD03122CC6AC067D02122CC6E9
:10213000AC06E4FD122CC6AC067D04122CC6C0060B
:10214000C007AF2FAE2EAD2DAC2C7818120C40ADC1
:1021500007D007D006122CC6C006C007AF2FAE2E80
:10216000AD2DAC2C7810120C40AD07D007D0061264
:102170002CC6C006C007AF2FAE2EAD2DAC2C7808F4
:10218000120C40AD07D007D006122CC6AC06C00713
:10219000E52FFFE4AD07D007122CC6AC06AD077FD4
:0621A000061221A77F01D9
:0121A6002216
:082798008F6F8B708A7189724A
:1027A000E4FCFFFEAD6F122CC6AC067D03122CC6F6
:1027B000AC06E573FD122CC6AC06AD74122CC6AC8B
:1027C00006AD07AB70AA71A97285731F85742012BC
:0D27D00029E7AC06AD077F061221A77F01A7
:0127DD0022D9
:042A55008D27AB0717
:102A5900E4FCFFFEAD03122CC6AC067D04122CC6A5
:102A6900AC06E4FD122CC6AC067D01122CC6AC06E0
:102A7900AD27122CC6AC06AD077F061221A77F0130
:012A8900222A
:0219E200AB0751
:1019E400900000AF82AE83AD03122CC68E838F822B
:1019F4007D05122CC68E838F82E4FD122CC68E8345
:101A04008F8274FFFFE578FEE577FDE576FCE47BE5
:101A1400FFFAF9F8C3120C2F7012AF82AE837D0166
:101A2400122CC68E838F82AD79021ABC74FFFFFE1E
:101A3400E577FDE576FCE47BFF7AFFF9F8C3120C49
:101A44002FAF82AE8370047D02803E7D04122CC6CB
:101A54008E838F82C006C007AF79AE78AD77AC763F
:101A64007818120C40AD07D007D006122CC68E830E
:101A74008F82C006C007AF79AE78AD77AC767810A8
:101A8400120C40AD07D007D006122CC68E838F826D
:101A9400C006C007AF79AE78AD77AC767808120C83
:101AA40040AD07D007D006122CC68E838F82C007A4
:101AB400E579FFE4AD07D007122CC68E838F82AD83
:0A1AC40082AC837F061221A77F0188
:011ACE0022F5
:082DAB008C288D29120A31FF6A
:012DB30022FD
:082DB4008C278D28120A31FF63
:012DBC0022F4
:072DCF008C2B8D2C121F6EEE
:012DD60022DA
:100003007550017551007552AB75530175540075E8
:0800130055ABE4F54EF54F2258
:1029A500C3E54F9421E54E94005030C39000CCE52B
:1029B500529582E5519583400D7A0079AB755001AA
:1029C5007551007552AB7850E475F001120CC7EFE4
:0C29D500120A77054FE54F7002054E22F4
:1011D400E4F509F50AF50BF50CF50DF50EF50F75AB
:1011E4001009C3E57F9421E57E94005027122D70E9
:1011F400D3EF9400EE9400401B122968057FE57F2D
:10120400AC7E7002057E142469F58274003CF5837B
:10121400EFF080CEC3E57F9409E57E94005003028D
:101224001388C3E57F950AFDE57E9509FCC3ED941B
:1012340009EC9400500302132B7469250AF5827497
:10124400003509F583E06455600A050AE50A70D2A1
:10125400050980CE746A250AF58274003509F58380
:10126400E064AA600A050AE50A70B7050980B37448
:101274006B250AF58274003509F583E0750D00F5D8
:101284000E6402450D60047402803C746F250AF5F7
:101294008274003509F583E0750C00F50B74702534
:1012A4000AF58274003509F583E02409FFE433FE6E
:1012B400EF250CF50CEE350BF50BD3E50C942AE574
:1012C4000B940040097403250AF50AE48052C3ED27
:1012D400950CEC950B40507469250AF97400350996
:1012E400FA7B01E50C24FFFDE50B34FFFC122B1FF8
:1012F400E50A250CFDE509350BFC74682DF58274AF
:10130400003CF583E06F60097403250AF50AE48064
:101314000FAF0AAE0912151CE50C250AF50AE50BF8
:101324003509F509021226C3E57F950AF57FE57EA6
:101334009509F57ED3E57F9400E57E94004045E56C
:101344000A45097020E57F9421E57E940040160546
:101354000AE50A70020509E57F950AF57FE57E95A1
:1013640009F57E80007469250AF97400350975242D
:1013740001F5258926857E27857F287B017A0079DA
:0413840069121BB916
:011388002242
:1018B4004100D2004400CE000000005C00D30101CE
:1018C400030265046602670168026902710172011C
:0A18D40073017402750176047704B5
:03001E00022D4D63
:032DF400022D9617
:101ACF007D017F011228AA900014E0FD7F7112287A
:101ADF00AA900031E0FFE48F2FF52EF52DF52C7F26
:101AEF000312211E900065E0FFB4FF05E4F5198095
:101AFF001EEFB4C8057519028015EFB428057519C6
:101B0F0003800CEFB414057519048003751905AD26
:101B1F00197F65122A55900034E0FEA3E0FFE48F91
:101B2F002F8E2EF52DF52C7F6612211E900023E0AF
:101B3F00FD7F671228AA900026E0FFE48F2FF52E75
:101B4F00F52DF52C7F6812211EE47B107A27F9F80A
:101B5F0090000F120C66120B79C374329FFFE48F43
:101B6F002FF52EF52DF52C7F6912211E900030E0F8
:101B7F00FD7F721228AA900013E0FD7F731228AA2E
:101B8F00900024E0FEA3E0FFE48F2F8E2EF52DF5BD
:101B9F002C7F7412211E90005FE0FD7F76122A5574
:0A1BAF00900032E0FD7F77022A5516
:102D2300122DAB8F277D017F011228AABF01037FDC
:042D330001227F00FA
:012D37002279
:10261E00122DCF8F2A8E298D288C27900031E0FF26
:10262E00E4FCFDFEAB2AAA29A928A827C3120C2F69
:10263E006006E4FF0FBF08FCAF2A900031EFF09068
:10264E00003AF0121E12900031E0FFE48F2FF52EAB
:10265E00F52DF52C7F0312211EBF01037F01227F72
:01266E00006B
:01266F002248
:10221E00122DB49000D2E0B5070FBF0512900065E5
:10222E00E0FE900033E06E8006E4FE0EBE08FCEF8A
:10223E0014601014601514601A14601F14602424A6
:10224E0005702890006574FFF0802090006574C8BA
:10225E00F080189000657428F0801090006574145A
:10226E00F08008900033E0900065F09000D2EFF01F
:10227E00121E129000D2E0FD7F65122A55BF010397
:05228E007F01227F002A
:012293002228
:10257500122DCF8F2A8E298D288C27900034E0FECE
:10258500A3E0FFE4FCFDAB2AAA29A928A827C312CA
:102595000C2F6006E4FF0FBF08FC900034E529F01E
:1025A500A3E52AF0121E12900034E0FEA3E0FFE43A
:1025B5008F2F8E2EF52DF52C7F6612211EBF010360
:0525C5007F01227F00F0
:0125CA0022EE
:102ABC00122DAB900023E06F6006E4FE0EBE08FC06
:102ACC00EF9000237003F080037401F0121E12903B
:102ADC000023E0FD7F671228AABF01037F01227F3C
:012AEC0000E9
:012AED0022C6
:1026BE00122DCF8F2A8E298D288C27900026E0FF91
:1026CE00E4FCFDFEAB2AAA29A928A827C3120C2FC9
:1026DE006006E4FF0FBF08FC900026E52AF0121EEC
:1026EE0012900026E0FFE48F2FF52EF52DF52C7FAE
:0C26FE006812211EBF01037F01227F0033
:01270A0022AC
:10230800122DCF8F2A8E298D288C279000CE120C63
:1023180066AB2AAA29A928A827C3120C2F6006E4AD
:10232800FF0FBF08FCAF2AAE29AD28AC279000CE1E
:10233800120C7EC37432952AFFE49529FEE4952891
:10234800FDE49527FCE47B107A27F9F8120AEE9051
:10235800000F120C7E121E129000CE120C668F2FE8
:102368008E2E8D2D8C2C7F6912211EBF01037F01BB
:03237800227F00C1
:01237B00223F
:1028EC00122DAB900014E06F6006E4FE0EBE08FCE7
:1028FC00EF7006900014F08013900023E0B40106F2
:10290C0090002C7401F09000147401F0900014E00D
:0E291C00FD7F711228AABF01037F01227F00F8
:01292A00228A
:102B7900122DABAD07900030E06D6006E4FF0FBF8A
:102B890008FCED9000307003F080037401F07F724F
:0B2B99001228AABF01037F01227F0069
:012BA400220E
:102C3F00122DAB900013E06F6006E4FE0EBE08FC91
:102C4F00900013EFF0FD7F731228AABF01037F01DD
:032C5F00227F00D1
:012C6200224F
:102BF400122DABEF601DE4900024F0A3F0900024AC
:102C0400E0FEA3E0FFE48F2F8E2EF52DF52C7F74CC
:052C140012211E7F01EA
:012C19002298
:022DE7008F2635
:042DE9008C278D287E
:012DED0022C3
:0618E3008B218A228923FB
:1018E900E4F526EF120CD7191501194103195165B1
:1018F900196066196F67197E68198D69199C7119C4
:10190900AB7219BA7319C975000019DAAB21AA2289
:10191900A923AD25AC24122D238F26E52664016069
:10192900030219DF900048E004F0E0C39405500376
:101939000219DFE4F00219DFAB21AA22A923AD25A0
:10194900AC2412261E0219D6AB21AA22A923AD2541
:10195900AC2412221E8076AB21AA22A923AD25AC84
:10196900241225758067AB21AA22A923AD25AC24B1
:10197900122ABC8058AB21AA22A923AD25AC241276
:1019890026BE8049AB21AA22A923AD25AC24122366
:1019990008803AAB21AA22A923AD25AC241228EC50
:1019A900802BAB21AA22A923AD25AC24122B798047
:1019B9001CAB21AA22A923AD25AC24122C3F800DF2
:1019C900AB21AA22A923AD25AC24122BF48F2680A2
:0819D90000E4900048F0AF2685
:0119E10022E3
:032DF7007F0E222A
:102B4C007B2270223A2200726C3766777133320026
:102B5C00222C2276223A2200312E302E3000227D79
:0D2B6C00001F1C1F1E1F1E1F1F1E1F1E1FEF
:0418DE00410068005D
:082DD700E4FDFC7F200221A7AE
:101C8A00E4FFFE90004DE0C4F854F0C8A3E0C45449
:101C9A000F48FD122CC67E00900033E0FD122CC6C0
:101CAA007E00C006C007900017120C667810120C4E
:101CBA0040AD07D007D006122CC67E00C006C0076A
:101CCA00900017120C667808120C40AD07D007D0A6
:101CDA0006122CC67E00C006C00790001F120C66B2
:101CEA007810120C40AD07D007D006122CC67E0021
:101CFA00C006C00790001F120C667808120C40AD8F
:101D0A0007D007D006122CC67E00C006C007900076
:101D1A000F120C667810120C40AD07D007D00612CD
:101D2A002CC67E00C006C00790000F120C66780809
:101D3A00120C40AD07D007D006122CC6EFFD7C006E
:051D4A007FB00221A79B
:082DDF00E4FDFC7FB10221A715
:092DBD009000CCEEF0A3EFF0222F
:092DC6009000CCE0FEA3E0FF2226
:082CBE00AB07E4FCFFFEAD03CF
:102CC60074922FF974003EFA7B01ED120A770FBF5A
:032CD60000010EEC
:012CD90022D8
:0629E100AF197E007BFF30
:0A29E7008E1A8F1B8B1C8A1D891E9F
:1029F10074922FF974003EFA7B01851C24851D25F4
:102A0100851E26851F27852028121BB9E520251B39
:0B2A1100F51BE51F351AF51AFEAF1B80
:012A1C002297
:10292B008B328A3389348C358D36E94A4B602DE5F1
:10293B003645356027E5361536AE35700215354E02
:10294B00601AAB32AA33A934120A31FF122DF47478
:0D295B00012534F534E43533F53380D922FD
:0A2B1F008B328A3389348C358D36F1
:102B2900E4FFFDFCC3ED9536EC953550157832E49C
:102B390075F001120CC7120A312FFF0DBD00010CEF
:022B490080E228
:012B4B002267
:0621A7008C308D31AB0706
:1021AD00E4FF122DC6AD07AC0690008A7455F0A35E
:1021BD0074AAF0A37402F0AF04A3EFF0AF05EFA380
:1021CD00F0A3EBF0E530A3F0E531A3F00DBD000178
:1021DD000CAF05AE04122DBD74092531F531E43572
:1021ED0030F5307B017A00798AE53124FFFDE53049
:1021FD0034FFFC122B1F74892531F58274003530A4
:10220D00F583EFF07B017A00798AAD31AC3002298C
:01221D002B95
:022C63008F20C0
:102C6500122DF7E4FEEEC39F501275F002EE9000B0
:0E2C7500D3120CBBE0652060030E80E9AF06B1
:012C8300222E
:0E2D7000E54F454E7003120003AE4EAF4F22EA
:10296800E4FFD3E54F9400E54E9400402F9000CC4F
:10297800E5559582E5549583400D7A0079AB7553FA
:10298800017554007555AB7853E475F001120CC706
:0C299800120A31FFE54F154F7002154E7A
:0129A4002210
:080CFD008F298E288D278C261B
:100D0500782C7C007D007BFF7A2B796D7E007F0C33
:100D1500120A0BE4F538F539F53AF53BFFFEFDFC13
:100D2500AB29AA28A927A826C3120C2F6006E52BF4
:100D3500452A70077B007A00790022E47B3CFAF9AA
:100D4500F8AF29AE28AD27AC26120B79AF03E52BFA
:100D55002406F582E4352AF583EAF0A3EFF0AF29FE
:100D6500AE28AD27AC26E47B3CFAF9F8120B798F57
:100D7500298E288D278C26E47B3CFAF9F8120B790D
:100D8500E52B2405F582E4352AF583EBF0AF29AE92
:100D950028AD27AC26E47B3CFAF9F8120B798F29AC
:100DA5008E288D278C26E47BF87A88F9F8120B7942
:100DB5008E388F39E5397802C333CE33CED8F9244E
:100DC500B2FFEE3407852B82852A83F0A3EFF0AFBF
:100DD50029AE28AD27AC26E47BF87A88F9F8120B02
:100DE50079AC00AD01AE02AF038F298E288D278C1B
:100DF50026753A22753B38852B82852A83A3E054D4
:100E050003700B7418253BF53BE4353AF53AAE3AD9
:100E1500AF3BE4FCFDAB29AA28A927A826C3120CE1
:100E25002F4031852B82852A83E475F001120ABD96
:100E3500AE3AAF3BAB07AA06C3E5299BFFE5289A67
:100E4500FEE5279400FDE52694008F298E288D2741
:100E5500F526809DE47B18FAF9F8AF29AE28AD2771
:100E6500AC26120B79E52B2404F582E4352AF583AB
:100E7500EBF0AF29AE28AD27AC26E47B18FAF9F8DC
:100E8500120B798F298E288D278C26EF2401FFE4FC
:100E95003EFEE43DFDE43C8F298E288D27F5268511
:100EA5002B82852A83A3E05403705B7F3CFEFDFC07
:100EB500AB29AA28A927A826D3120C2F401DE5295E
:100EC50024FFFFE52834FFFEE52734FFFDE5263442
:100ED500FF8F298E288D27F526802BE47F3CFEFD8C
:100EE500FCAB29AA28A927A826C3120C2F701785A1
:100EF5002B82852A83A3A304F0852B82852A83A3CD
:100F0500A3A3741D807B852B82852A83A3A3E4F08C
:100F1500852B82852A83A3A3E0242CF8E6FF33954D
:100F2500E0FEFDFCAB29AA28A927A826D3120C2F81
:100F35004039852B82852A83A3A3E0242CF8E6FB80
:100F45003395E0FAF9F8C3E5299BFFE5289AFEE514
:100F55002799FDE526988F298E288D27F526852B3F
:100F650082852A83A3A3E004F080A5852B82852AA8
:100F750083A3A3E004F0852B82852A83A3A3A3E59D
:080F850029F0AA2AA92B7B0127
:010F8D002241
:0C2D7E00122CBEAC06AD077F0B0221A793
:0C2D8A00122CBEAC06AD077F0C0221A786
:081ED5008B458A4689478D48C0
:101EDD00E4FDFCF54C754D08E54D154DAE4C70020D
:101EED00154C4E601AAF05AE047845E475F001123D
:101EFD000CC7120A31FD122CC6AC06AD0780D9AF46
:101F0D0005AE04AD48122CC6AC06AD07C006C00721
:101F1D00E54AAE497818CEC313CE13D8F9FDD007D4
:101F2D00D006122CC6AC06AD07C006C007E54AAEFA
:101F3D00497810CEC313CE13D8F9FDD007D00612B1
:101F4D002CC6AC06E549FD122CC6AC06AD4A122CCA
:101F5D00C6AC06AD4B122CC6AC06AD077F0D0221EB
:011F6D00A7CC
:082670008F568B578A588959D7
:10267800E4FCF55B755C08FFFEAD56801EE55C1555
:102688005CAE5B7002155B4E601AAF05AE047857FE
:10269800E475F001120CC7120A31FD122CC6AC0603
:1026A800AD0780D9AF05AE04AD5A122CC6AC06AD45
:0626B800077F0E0221A7BE
:10209200E4F5197BFF7A2B794C1225CB8E1F8F200A
:1020A2007A2B794C1229E18F197BFF7A2B79531203
:1020B20025CB8E1F8F207A2B79531229E18F197B22
:1020C200FF7A2B795C1225CB8E1F8F20AF197E00F1
:1020D2007BFF7A2B795C1229E78F197BFF7A2B79A8
:1020E200641225CB8E1F8F20AF197E007BFF7A2BC7
:1020F20079641229E78F197BFF7A2B796A1225CB33
:102102008E1F8F20AF197E007BFF7A2B796A1229EE
:0C211200E78F19EFFD7C007F010221A780
:0A2DA1008F19E4FDFC7F020221A758
:0100210022BC
:06251A008B198A1A891BCF
:10252000120A31F51C900001120A4AF51D900002B2
:10253000120A4A751F00F51E900003120A4A251F51
:10254000F51FE4351EF51EAF1C122C6375F002EF6B
:102550009000D4120CBBE0651D60037F0022AB1914
:10256000E51B2404F9E4351AFA851E24851F25AFDE
:042570001C1218E33E
:012574002244
:022DFA008F192F
:012DFC0022B4
:032DFD00020000D1
:021697008D19AB
:10169900E4F51DF51CF51BF51AF521F520F51FF5E7
:1016A9001EF5228B238A248925E519C39408500342
:1016B9000217C67B017A0079EF752A00752B08E4B9
:1016C900FD122A1D7B017A0079F7752A00752B080E
:1016D900E4FD122A1DE4F5227823E475F001120CC9
:1016E900C7120A31FFE51D4FFFE51CFEE51BFDE5AD
:1016F9001A8F1D8E1C8D1BF51AFC7808120C538F3E
:101709001D8E1C8D1B8C1A0522E522B403CA782371
:10171900E475F001120CC7120A31FFE51D4FFFE510
:101729001CFEE51BFDE51A8F1D8E1C8D1BF51AE4A9
:10173900F5227823E475F001120CC7120A31FFE58E
:10174900214FFFE520FEE51FFDE51E8F218E208D2F
:101759001FF51EFC7808120C538F218E208D1F8CCB
:101769001E0522E522B403CA7823E475F001120CA0
:10177900C7120A31FFE5214FFFE520FEE51FFDE510
:101789001E8F218E208D1FF51EAF1DAE1CAD1BAC0B
:101799001A752A00752BF7120CFDAF21AE20AD1F6B
:1017A900AC1E752A00752BEF120CFD7C007DF77FAE
:0D17B90001122DE77C007DEFE4FF122DE70B
:0117C6002200
:102D3800900068EFF0600D900068E0B40106121A88
:052D4800CF121E122253
:062DEE00900068E0FF22E6
:04151C008E118F128B
:10152000E4F513F514746E2512F58274003511F587
:1015300083E0FD746F2512F58274003511F583E0A8
:10154000751400F51374702512F58274003511F5C9
:1015500083E02514F514E43513F513746C2512F5A6
:101560008274003511F583E07F00FE746D2512F55D
:101570008274003511F583E02FFFE43EFE122DBD8D
:10158000ED120CD715C20115C50215DD0315E004D7
:10159000164E05164E0616610815A9201685241547
:0915A000BCB015BFB100001696A5
:1015A90074712512F58274003511F583E0F515FF84
:0315B900022D38C8
:0915BC00021C8A022DDF022092BC
:1015C50074712512F58274003511F583E0F515FF68
:0815D500122D38AF15022DA103
:0315DD00020021E8
:1015E000E4F515F517F518F515AF157E00C3EF9561
:1015F00014EE95134003021696E5122FFDEE3511F9
:10160000FC74732DF58274003CF583E0751800F5C9
:101610001774742DF58274003CF583E02518F518D5
:10162000EE3517F51774712512F974003511FA7B30
:1016300001E92FF9EE3AFA12251A8F16E516B401D0
:0E16400003121E12E51824042515F515809BD3
:10164E0074712512F58274003511F583E0F515FFDE
:03165E00022DFA60
:1016610074712512F58274003511F583E0F5157456
:10167100722512F58274003511F583E0F516FDAF80
:0416810015022DFD24
:1016850074712512F974003511FA7B01AD14121627
:0116950097BD
:011696002231
:1006E400020926E86480F8E933E83360110460F015
:1006F400ED33EC337009E8FCE9FDEAFEEBFF22047C
:1007040060DED3EB9FEA9EE99DE8C2E78CF0C2F776
:1007140095F0400CE8CCF8E9CDF9EACEFAEBCFFB42
:100724001208F185D0F05804700320D5B3E80470A2
:10073400075002B2D502093092D5EC0460F7E4CC3C
:10074400C0E0C398F8603B94186008400DD0E0FB0B
:10075400020908E4FBFAC9FC8028E830E406E4C98D
:10076400FBE4CAFCE830E305E4C9CACBFCE854075F
:100774006010F8C3E913F9EA13FAEB13FBEC13FC6A
:10078400D8F130F52FC3E49CFCEF9BFFEE9AFEED0D
:1007940099FDD0E0FBEF4E4D4C701222DB030209B1
:1007A4002DEC2CFCEF33FFEE33FEED33FDED30E7A3
:1007B400EB020908EF2BFFEE3AFEED39FDD0E0FB2A
:1007C40050130BBB0003020930ED13FDEE13FEEFD3
:0807D40013FFEC13FC020908FD
:1007DC00020930EC5D046005E85904700302092637
:1007EC001208F1580460F6EC4860F2EC7004FDFE5F
:1007FC00FF22C860DB2481C85009C39860025006F0
:10080C0002092D9850CAF582E9294B4A7005AB8232
:10081C0002091C75F0007C1A7880C3EF9BEE9AEDF0
:10082C0099400DC3EF9BFFEE9AFEED99FDE842F067
:10083C00DC23ACF0D0E0FFD0E0FED0E0FDAB8220BA
:10084C00E7101BEB60BAEC2CFCEF33FFEE33FEED44
:10085C0033FD020908E803F830E705C0F075F00035
:10086C00EF2FFFEE33FEED33FD40B830E7C280AA28
:10087C0075F020800E75F010800575F0087D007EF7
:10088C00007F003392D530D503120C0BEC334010A3
:10089C00EF33FFEE33FEED33FDEC33FCD5F0ED2200
:0E08AC00E5F0247EA2D513CC92E7CDCEFF223C
:1008BA00EDD2E7CD33EC3392D524814006E4FFFE36
:1008CA00FDFC22FCE4CFCECDCC24E0501174FF8095
:1008DA00EDC3CC13CCCD13CDCE13CECF13CF047032
:0708EA00F030D5DE020C0B1B
:1008F100E9D2E7C933E833F892D5EDD2E7CD33EC4D
:0709010033FC5002B2D522C5
:10090800EC30E7100FBF000C0EBE00080DBD000450
:100918000BEB6014A2D5EB13FCED92E7FD2274FFFC
:10092800FCFDFEFF22E480F8A2D574FF13FC7D8055
:03093800E480EF69
:10201200020F8EE493A3F8E493A34003F68001F247
:1020220008DFF48029E493A3F85407240CC8C333CF
:10203200C4540F4420C8834004F456800146F6DF9E
:10204200E4800B01020408102040809017C7E47E50
:10205200019360BCA3FF543F30E509541FFEE49393
:10206200A360010ECF54C025E060A840B8E493A35A
:10207200FAE493A3F8E493A3C8C582C8CAC583CA85
:10208200F0A3C8C582C8CAC583CADFE9DEE780BE3D
:0118E2000005
:10093B00E709F608DFFA8046E709F208DFFA803E9E
:10094B0088828C83E709F0A3DFFA8032E309F6088B
:10095B00DFFA8078E309F208DFFA807088828C83F3
:10096B00E309F0A3DFFA806489828A83E0A3F608A7
:10097B00DFFA805889828A83E0A3F208DFFA804C81
:10098B0080D280FA80C680D4806980F28033801058
:10099B0080A680EA809A80A880DA80E280CA8033C1
:1009AB0089828A83ECFAE493A3C8C582C8CCC58339
:1009BB00CCF0A3C8C582C8CCC583CCDFE9DEE78009
:1009CB000D89828A83E493A3F608DFF9ECFAA9F088
:1009DB00EDFB2289828A83ECFAE0A3C8C582C8CCDE
:1009EB00C583CCF0A3C8C582C8CCC583CCDFEADEF7
:1009FB00E880DB89828A83E493A3F208DFF980CC59
:100A0B0088F0EF60010E4E60C388F0ED2402B40451
:100A1B000050B9F582EB2402B4040050AF232345F8
:060A2B00822390098B7389
:100A3100BB010689828A83E0225002E722BBFE02C3
:090A4100E32289828A83E49322F6
:100A4A00BB010CE58229F582E5833AF583E0225061
:100A5A0006E92582F8E622BBFE06E92582F8E222AB
:0D0A6A00E58229F582E5833AF583E49322C5
:100A7700BB010689828A83F0225002F722BBFE015E
:020A8700F32258
:100A8900F8BB010DE58229F582E5833AF583E8F0A3
:100A9900225006E92582C8F622BBFE05E92582C84F
:020AA900F22237
:100AAB00EF8DF0A4A8F0CF8CF0A428CE8DF0A42E5F
:020ABB00FE2219
:100ABD00C5F0F8A3E028F0C5F0F8E58215827002C4
:060ACD001583E038F02261
:0D0AD300EF2BFFEE3AFEED39FDEC38FC2272
:0E0AE000C3EF9BFFEE9AFEED99FDEC98FC2211
:100AEE00E88FF0A4CC8BF0A42CFCE98EF0A42CFCA7
:100AFE008AF0EDA42CFCEA8EF0A4CDA8F08BF0A425
:100B0E002DCC3825F0FDE98FF0A42CCD35F0FCEB83
:100B1E008EF0A4FEA9F0EB8FF0A4CFC5F02ECD3948
:0F0B2E00FEE43CFCEAA42DCE35F0FDE43CFC22B5
:100B3D0075F008758200EF2FFFEE33FECD33CDCC6F
:100B4D0033CCC58233C5829BED9AEC99E5829840F2
:100B5D000CF582EE9BFEED9AFDEC99FC0FD5F0D6CF
:100B6D00E4CEFBE4CDFAE4CCF9A88222B800C1B9F9
:100B7D000059BA002DEC8BF084CFCECDFCE5F0CB37
:100B8D00F97818EF2FFFEE33FEED33FDEC33FCEB70
:100B9D0033FB10D703994004EB99FB0FD8E5E4F92B
:100BAD00FA227818EF2FFFEE33FEED33FDEC33FC18
:100BBD00C933C910D7059BE99A4007EC9BFCE99A0C
:100BCD00F90FD8E0E4C9FAE4CCFB2275F010EF2F51
:100BDD00FFEE33FEED33FDCC33CCC833C810D70751
:100BED009BEC9AE899400AED9BFDEC9AFCE899F88C
:0E0BFD000FD5F0DAE4CDFBE4CCFAE4C8F9221F
:0E0C0B00C3E49FFFE49EFEE49DFDE49CFC22FA
:100C1900EB9FF5F0EA9E42F0E99D42F0EC6480C852
:060C290064809845F022F2
:100C2F00EB9FF5F0EA9E42F0E99D42F0E89C45F01B
:010C3F002292
:100C4000E8600FECC313FCED13FDEE13FEEF13FF92
:030C5000D8F122B6
:100C5300E8600FEFC333FFEE33FEED33FDEC33FCFF
:030C6300D8F122A3
:0C0C6600E0FCA3E0FDA3E0FEA3E0FF2201
:0C0C7200E0F8A3E0F9A3E0FAA3E0FB2205
:0C0C7E00ECF0A3EDF0A3EEF0A3EFF022E9
:100C8A00A8828583F0D083D082120CA1120CA11203
:100C9A000CA1120CA1E473E493A3C583C5F0C58328
:100CAA00C8C582C8F0A3C583C5F0C583C8C582C8B4
:010CBA002217
:0C0CBB00A42582F582E5F03583F5832244
:100CC700FAE6FB0808E6F925F0F618E6CA3AF6222E
:100CD700D083D082F8E4937012740193700DA3A3AC
:100CE70093F8740193F5828883E4737402936860C0
:060CF700EFA3A3A380DFC0
:00000001FF
