:03000000021D805E
:0C1D8000787FE4F6D8FD758183021DC752
:1014F300045500000000410007004100450C410075
:10150300464044003C000000004400180000000076
:1015130044001C00000000440020000000004400C0
:101523005C0000000044004A000000004400620028
:1015330000000042002F0001420016000041000D90
:101543000041003A00420067000042000E000041E3
:1015530000010841004800015900015A00410015EB
:1015630000410024014100320A4100490041004783
:101573000A4100390041003B0042000B00004100DA
:10158300030002820000028000004100310041009C
:101593002D004100000041000A0041002C004100E1
:1015A30014004200250000420037000041006000A3
:1015B3004100040042000500004100020041002EEA
:1015C300004100330041004400017D00017C000222
:1015D3007E00004C005000000000000000000000EE
:0715E30000004200080000B7
:10127300EF24A0FFEE340FFEE43DFDE43CFC120638
:1012830009D30205C6E4900048F09000467440F08C
:1012930090003A7402F09000017406F0E4900007A5
:1012A300F090005C229000181205FD90003C12069D
:1012B3000912046A9000181206159000180205FD21
:1012C30090003C120609C30205C6E4FCFD12046A41
:1012D3009000620206159000401205FDEF2470FF96
:1012E300EE3417FEE43DFDE43CFC90001822122A84
:1012F3007AE47BE87A03F9F89000100205FD900088
:1013030046E0FF900007E0C39F22D3900030E094B3
:101313000090002FE0940022E475F00102045412BF
:1013230005FD90001C12060902046A1203EDAC06C7
:10133300AD07E41201C3E4FBFA79C8784202012144
:101343007F647E00022A7A90001002061590003C0A
:101353000205FDE4FFFEFD7C3F12002D0201FCD3DC
:10136300900068E09400900067E0940022900032BF
:10137300E0900047F0227F0A122558900034EFF0E6
:1013830090006122F090004A0205FD90006202067F
:1013930009D39DEC6480F87480982290001C0205A8
:1013A300FDE47B02FAF9F802051090001802060921
:0A13B3007E2F12298C7F107E272266
:1027F9008E098F0A8B0B8A0C890DAF051DEF60219D
:10280900050AE50AAE097002050914F5828E83E40A
:1028190093FF780BE475F00112065EEF1203B9809D
:02282900D922B2
:102917008F828E83E4F558F557F556F555AF82AE9D
:1029270083E4FCFDAB58AA57A956A855C31205C6A0
:08293700500543BD1080E622AB
:092A7100E0FF7C2F12293F7F6475
:102A7A00E4FDFCC3ED9FEC9E50070DBD00010C80E8
:012A8A00F259
:012A8B002228
:10000300758E5190FE917401F0A37410F075BD5F6D
:0700130090FEA07420F02212
:102A3500E490FE80F0758901758DFA758BCB43A8FE
:0E2A450008438840758CCB758AEB43881022BD
:10285D0090FF10E054F04408F090FF02E054F04473
:10286D0002F0D28490FFA07420F0A37404F075CC14
:10287D000675CEFF75CD98759E0275981043A810FC
:01288D002228
:102AC00043B40343B4807F147E00122A7A75B501A3
:072AD00090FE9B744BF02205
:102A8C0090FF08E04488F090FF00E0540F4430F0D1
:0A2A9C0090FF11E054F04403F02213
:0B2B48008F99E59830E1FB5398FD22C7
:102558008FB543B440E5B430E5FB53B4DF12134301
:10256800E4FBFAF943B440E5B430E5FB53B4DFE5E6
:10257800B62BFBE5B73AFA7F147E00122A7A09B91E
:0C25880010E275B501A902121343AF0167
:012594002224
:1010FA007B017A0079507D0C7F007E2F1227F990B0
:10110A000050E0FFE4FCFDFE12134A1212FB7808BD
:10111A001205EA12134A900010120609900051E0D3
:10112A00FFE4FCFDFE12046A12134A1212FBE47B6E
:10113A00E87A03F9F812048512134AE47F307E75BF
:10114A00FDFC9000101212C640107F007E097D3D02
:10115A007C00900010121281400A900010120621A1
:10116A0000009C40900052E0900066F070028007F8
:10117A00900066E0B4FE0374FFF0900053E0FF9025
:10118A000035E4F0A3EFF0E0F8E4F0E8900035F081
:10119A00900054E0FF900035E48FF0120454900060
:1011AA0035E0FEA3E0FF4E6009D3EF9408EE940702
:1011BA004009900035E4F0A37405F0900055E090E2
:1011CA000032F090003BF0900056E0900027F0606B
:1011DA0006E0D394FF40069000277401F090005770
:1011EA00E0F45401900024F0900058E0540190007B
:1011FA0031F0900059E05401900015F090005AE047
:10120A005401900014F090005BE090000AF07B011A
:10121A007A0079087D027F807E2F1227F9900008D4
:10122A00E0900039F0900009E090002CF07F807E79
:10123A002F12298C7F107E27122A7A900039E00417
:10124A00F0E0FF7D807C2F12293F12134390002C7F
:10125A00E07003022B8990002CE0FFB4010A7D8123
:09126A007C2F12293F12134322CC
:10069400E5596003020B7143B440E5B430E5FB5304
:1006A400B4DF85B70985B60A90001612131B12131E
:1006B4008EAE09AF0A1212CD90004EE0FEA3E0FF09
:1006C400C3950AEE9509500DC3E50A9FF50AE5099D
:1006D4009EF509800BC3EF950AF50AEE9509F50915
:1006E40090001C120609AE09AF0AE4FCFD12046A6C
:1006F40090001C120615900016E05401FEA3E04E73
:1007040070521213624017900047E09464503DE029
:100714002402F0E0D3946440337464F0802E90009B
:100724000EE07004A3E06401702A900032E0FF90B0
:100734000047E0FED39F4014EE94024004E024FE00
:10074400F0900047E0C39F5003121370900047E0FD
:10075400FF1220D8C3900016E094205003020BA08F
:1007640043BD10E4F0A3F0900048E0041213879016
:10077400006212132890004A120615900048E0C344
:1007840094084030E412138778101205D790004A79
:1007940012061512138890004EEE8FF01204549036
:1007A400004EE0C313F0A3E013F090004A120621B8
:1007B40000000000900001E0C394085005E004F03C
:1007C4008040900067E07002A3E07036121379E075
:1007D400FE2402FDE433FCEF12139450189000340D
:1007E400E02402FDE433FCEE1213945008900061FF
:1007F400E0900034F0900034E0900061F0E4900068
:1008040001F0E4FFFEFDFC9000181212C6703312D2
:10081400139EEF2488FFEE34131212E6120615908D
:10082400002FE07002A3E070197F407E427D0FFC30
:10083400900018121281400A900018120621000F2D
:100844004240900007E0701312139E90003C120681
:1008540015900028120621000000019000281213B0
:10086400221212C34003020A139000281205FD90BD
:10087400003C12132890001C1212C64003020A13F3
:10088400900007E004F090005C12132290005C12C8
:100894000615900007E0FFFBE4FAF9F890005C12FB
:1008A40005FD12051090003C120615121350780332
:1008B4001205D7900028120615E47F207E4EFDFC19
:1008C4009000281212C6500A900028120621000037
:1008D4004E20E47F607EEAFDFC90002812128140E5
:1008E4000A9000281206210000EA601213509000BA
:1008F40018121281403E90003C1206091212BD12D9
:1009040004771212D37F807E387D017C00900062D0
:1009140012128140089000457406F0801DE47F4067
:100924007E9CFDFC90006212128190004540087488
:1009340009F08006900045740CF0900045121304F1
:10094400403B1212BD1212C35033900046E0941083
:100954005003020A22900045E0D394095005121373
:10096400508011121350900018121273400C12127E
:10097400A81213A4900018120615020A13121301E8
:100984005003020A221212BD90003C1212734077E7
:100994001213AD1213501204771212D37F007E1279
:1009A4007D7A7C001212C3505E7F807E1A7D067CA5
:1009B400009000621212C6504E900046E09410401F
:1009C4000280387FE07E937D047C009000621212E6
:1009D4008140089000467410F0801B7FF07E497DB2
:1009E400027C009000621212819000464005740C53
:1009F400F080037408F0121301400C1212A81213B1
:100A0400A49000181206151213014012E48004E4A5
:100A1400900007F090005C12062100000000900096
:100A24003AE0D394004036E014F01212D912128145
:100A34005003020B229000401205FDEF2498FFEEB4
:100A4400343AFEE43DFDE43CFC90001C1212C64026
:100A540003020B221212D9120615020B2212130DD5
:100A6400405774FFF5F012045412130D404B7F00ED
:100A74007E127D7A7C00900018121281400C900046
:100A840010120621000C3500802F1212FB1213AD38
:100A94001212D07F407E547D897C00900062121235
:100AA4008140161213ADC374409BFF74549AFE74B4
:100AB4008999FDE498FC12134A1212FB9000181253
:100AC400132890001C1212814054900066E0FF909D
:100AD4000034E0D39F400512130D4042900067E0BC
:100AE4007002A3E070091212BD9000401206159026
:100AF4000067E4F0A304F090002DF0900025121399
:100B04001B90002E7401F09000467408F0E49000ED
:100B14000EF0A3F07882F608F67880F608F6121341
:100B24009E9000201206159000621206210000001B
:100B34000090001C12062100000000900067E0FEF7
:100B4400A3E0FFD39400EE94004051900035E0FC04
:100B5400A3E0FDD3EF9DEE9C4042E4900067F0A338
:100B6400F075590190002DF0900000F02290000ED5
:100B7400E4F0A304F0E4F55990000BF0A3F0900026
:100B840003F07FFAFE12291790004A120621000092
:0C0B940000001212881206210000000070
:010BA0002232
:10213800E4F50A90006212062100000000E4F509A7
:1021480043B440E5B430E5FB53B4DF12138EAFB6A9
:10215800AEB71212CD0509E509B480E47F907E017F
:102168001229179000621205FD780B1205D78F0906
:10217800E509D3940C400CE509948D5006E50A94C2
:0D21880014500A050AE50AD3945040A7221E
:012195002227
:1021F30090006212062100000000E4F509E4F50CEA
:10220300F50D43B440E5B430E5FB53B4DF85B70ABD
:1022130085B60B12138EAE0AAF0B1212CD050DE568
:102223000D7002050CB400DAE50CB420D543BD10E3
:102233000509E509B408C69000621205FD7810127D
:0A22430005D790004EEEF0A3EFF077
:01224D00226E
:1022A900BF0105E4FCFD802E7E007C017DFF120349
:1022B900ED1C7D641203FFAC06AD07E41201C38F68
:1022C9002D8E2C8D2B8C2AAB2DAA2CA92BA82A124A
:1022D9001356AC06AD0790FF907411F075DA0175CD
:0E22E900E30175E2FF8CE58DE475E10F7F00E7
:0122F70022C4
:1026F400BF0104E4FE801E7E007C007DFF12132EC9
:102704008F2D8E2C8D2B8C2AAB2DAA2CA92BA82A8D
:10271400121356AE0790FF9C7410F075DEFF8EDF27
:0527240075DD947F004B
:01272900228D
:0220D8008F284F
:1020DA00787DE6B528037F0022787DA628E528705A
:1020EA0006900060048016E528B4640CE490006051
:1020FA00F090003304F0800B9000607402F0E490DA
:10210A000033F0E528FD7C0090000AE0FF7E001213
:10211A00132EE4FBFAF9783F12135C8F29C3E528E2
:0D212A009529FF1222A9AF291226F47F008B
:012137002285
:100BA100122B04120003122A8C122A3512285D120C
:100BB1002AC075BBAA90FEA774FFF053BBF7D2AF52
:100BC1007FC87E00122917121379F0C2AF1210FAF2
:100BD1007F641220D8D2AF122138900032E0FF900A
:100BE1000047F01220D87F2C7E011229171221F321
:100BF10090006212062100000000900039E0D394B9
:100C0100034007E4F0122B898003121C42787CE632
:100C110060227F64120DB2E4FF120DB2787F06E606
:100C210018700106D3742C787F96740118965004BD
:100C3100E4787CF6900004E0FF900060E0FD6F60D6
:100C41000D7F761228BD900060E0900004F09000C6
:100C510044E0FF900033E0FD6F600D7F771228BD07
:100C6100900033E0900044F0900002E06401704194
:100C710090002EE0B4013AE4900002F090002EF0D2
:100C8100900025E0FEA3E0FF900037E06E7003A323
:100C9100E06F601DE48F2F8E2EF52DF52C7F7412E1
:100CA1001FFE900025E0FFA3E0900037CFF0A3EFF7
:100CB100F043BD10E559700B900017E0541F70030D
:100CC100120F63900024E064016003020D7DE55A78
:100CD100701CF559755A0112137090004A120621C1
:100CE1000000000012128812062100000000120606
:100CF10094D390000FE0940090000EE094004033F4
:100D0100900003E0B4012CE4F090000E12131C904B
:100D11000027E0FFC390000FE09F90000EE09400D9
:100D21004011E4F0A3F0900014E064016005E4FFD9
:100D31001220D8121362400F7881E66401184670C0
:100D410006F608F612131C900031E06401600302FC
:100D51000C0E90002DE0FF900000E06F7003020C7C
:100D61000EEFF0900067E4F0A304F0E4F508E50865
:100D7100C394084003020C0E050880F2E4F55A9072
:100D81000015E07007FF1220D8020C0E90003BE026
:100D9100FF1220D8E4F55912137090004A1206216F
:100DA1000000000012128812062100000000020C4F
:010DB1000E33
:0B0DB2001220D87F647E001229172257
:03001B00021A21A5
:101A2100C0E0C0F0C083C082C0D075D000C000C08B
:101A310001C002C003C004C005C006C007AF58AE54
:101A410057AD56AC55EF2401FFE43EFEE43DFDE405
:101A51003C8F588E578D56F55590000B12131B90E5
:101A6100000BE0FEA3E0FFE4FCFD7B607AEAF9F8FD
:101A7100D31205B0500C90000BE4F0A3F0900003DA
:101A810004F0788306E618700106C37883E694E8CB
:101A910018E69403400C76000876007880760008FA
:101AA100760190000512131BC3900006E094E890A4
:101AB1000005E094034009E4F0A3F090000204F073
:101AC100D007D006D005D004D003D002D001D00079
:0B1AD100D0D0D082D083D0F0D0E03223
:0300230002234372
:10234300C0E0C0F0C083C082C0D075D000C000C060
:0D23530001C002C003C004C005C006C007E1
:0F236000E59830E00AAF991224DA5398FED2AF15
:10236F00D007D006D005D004D003D002D001D000C2
:0B237F00D0D0D082D083D0F0D0E0326C
:10298C0053BBF7C280E5BB20E3F6D280C2AF75FD26
:10299C00F075FC0F8EFA8FF975FDD275FC2D75FD57
:0529AC00E175FC1E2294
:10293F0053BBF7C280E5BB20E3F6D280C2AF8FFB5B
:10294F0075FDF075FC0F8CFA8DF975FDB475FC4BA8
:07295F0075FDE175FC1E226D
:101C42007F001213B31212F112051078081205D791
:101C52007D007C2F12293F7F647E001212F1120553
:101C6200107D017C2F12293F1213439000667D02E2
:101C7200122A719000357D03122A71A3E0FF7D04C0
:101C8200122A73900032E0FF7D05122A739000271A
:101C9200E0FF7D06122A73900024E0F4FF7D071214
:101CA2002A73900031E0FF7D08122A73900015E03C
:101CB200FF7D09122A73900014E0FF7D0A122A7335
:101CC20090000AE0FF7D0B122A737F801213B31279
:101CD2002A7A7D807C2FE4FF12293F0D0F12293FC3
:021CE200D2AF7F
:011CE40022DD
:0415EA00027A000081
:101B970012038CFFE5304FFFE52FFEE52EFDE52D07
:101BA7008F308E2F8D2EF52DFC78081205EA8F3099
:101BB7008E2F8D2E22AF2FAE2EAD2DAC2C1205D72A
:101BC700AD0722AF71AE70AD6FAC6E1205D7AD0722
:101BD70022E475F00102065EAB07E4FCFFFEAD03ED
:101BE70022AC06AD077F0622E57B950AF57BE57AF1
:101BF7009509F57A22AF75AE74AD73AC720205D74D
:101C0700FEE56FFDE56EFCE47BFF22E4F520F51FA2
:101C1700F51EF51D2212038CAB29AA2AA92B22AB8C
:101C27005BAA5CA95D020373AB5EAA5FA9600203AE
:0B1C370073746A250AF9740035092255
:101F8D00EFC39430400CEFD39439500674D02FFF2B
:101F9D008022EFC39441400CEFD394465006EF24BA
:101FAD00C9FF8010EFC39461400AEFD394665004CB
:101FBD00EF24A9FFEF540FC454F0FFEDC39430404C
:101FCD000CEDD39439500674D02DFD801EEDC394C5
:101FDD00414008EDD394465002800CEDC39461400E
:101FED000AEDD394665004ED24A9FDED540F42077C
:011FFD0022C1
:0623CE008B1A8A1B891C1A
:1023D400121C12E94A4B7005FFFEFDFC22121C126E
:1023E400781A121BD8120373601AE5202401FFE443
:1023F400351FFEE4351EFDE4351D8F208E1F8D1E16
:0C240400F51D80DCAF20AE1FAD1EAC1D2E
:0124100022A9
:06275F008B268A27892861
:102765008B2C8A2D892EE94A4B7004FBFAF922E558
:102775002B152BAE2A7002152A4E600B782C121BD6
:0D278500D8ED1203B980E8AB26AA27A928D9
:012792002224
:06189C008B218A22892342
:1018A2008B298A2A892B85242C85252D85262EE9AC
:1018B2004A4B6008E5264525452470077B007A00DF
:1018C200790022D3852D83852E82E52B9582E52A08
:1018D20095834019E52E2528F9E52D3527FA8A83C7
:1018E2008982D3E52B9582E52A95834032E4F52F50
:1018F200F530C3E5309528E52F9527505BAB2CAA30
:101902002DA92E853082852F83121C1C853082855D
:101912002F831203CB0530E53070D7052F80D38596
:10192200272F852830D3E5309400E52F94004028F6
:10193200AB2CAA2DA92EE53024FFFFE52F34FFFEA4
:101942008F82F583121C1C8F828E831203CBE530AB
:0E195200153070D1152F80CDAB21AA22A9230C
:011960002264
:06260F008B3C8A3D893E70
:102615008B428A438944AB3FAA40A94112037360A8
:1026250014783F121BD8120373FF783C121BD8EFA6
:102635001203B980E1AB3CAA3DA93EE41203B9AB54
:0526450042AA43A94474
:01264A00226D
:10238A008B5B8A5C895D121C26FF6020121C2F6001
:10239A001BB507187401255DF55DE4355CF55C74C1
:1023AA00012560F560E4355FF55F80DA121C2FFFC6
:1023BA003395E0FE121C26FD3395E0FCC3ED9FFF2A
:0423CA00EC9EFE2265
:102793008F758E748D738C7278181205D7EF1203B0
:1027A300B97810121BFC900001EF1203CB780812CA
:1027B3001BFC900002EF1203CBE575FF900003EFC3
:0327C3000203CB43
:1022F800E4F530F52FF52EF52D120373FFE48F303A
:10230800F52FF52EF52DAE2FAD2EAC2D121BB08C62
:102318002D900001121B978C2D900002121B978C98
:102328002D90000312038CFFE5304FFFE52FFEE5EB
:0A2338002EFDE52D121BB5F52DFC5E
:012342002278
:102B2A00E4FDFCFFFE122B3BAC06AD077F03021F40
:012B3A001684
:102B1800E4FDFCFFFE0D122B3BAC06AD077F030264
:022B28001F1676
:082411008F618B628A6389640C
:10241900E4FCFFFEAD61122B3BAC06E4FD122B3B45
:10242900AC06E565FD122B3BAC06AD66122B3BAC49
:1024390006AD07AB62AA63A96485651F856620128C
:0A244900288E121BE8121F167F01F7
:012453002266
:022685008D279F
:10268700121BDF1226B0E4FD1226B0AD07E5277056
:1026970003FD8006AF05AE047D01122B3BAC06ADF2
:0826A700077F06121F167F01D8
:0E26AF0022122B3BAC067D01122B3BAC062207
:101FFE00121BDF122B3BAC067D02122B3BAC06E410
:10200E00FD122B3BAC067D04122B3BC006C007789D
:10201E0018121BBCD007D006122B3BC006C0077887
:10202E0010121BBCD007D006122B3BC006C007AF48
:10203E002FAE2EAD2DAC2C78081205D7AD07D007DC
:10204E00D006122B3BAC06C007E52FFFE4AD07D040
:0C205E0007122B3B121BE8121F167F011B
:01206A002253
:082454008F678B688A69896AB1
:10245C00E4FCFFFEAD67122B3BAC067D03122B3B5D
:10246C00AC06E56BFD122B3BAC06AD6C122B3BACFA
:10247C0006AD07AB68AA69A96A856B1F856C20122B
:0A248C00288E121BE8121F167F01B4
:012496002223
:0228BD008D2765
:1028BF00121BDF122B3BAC067D04122B3BAC06E444
:1028CF00FD122B3BAC067D01122B3BAC06AD271244
:0A28DF002B3B121BE8121F167F01AD
:0128E90022CC
:0217D500AB0760
:1017D700900000AD031218787D05121884E4FD12FD
:1017E700188474FFFFE570121C07FAF9F8C3120595
:1017F700C6700A7D01121878AD7102186574FFFF73
:10180700121C077AFFF9F8C31205C6AF82AE8370C0
:10181700047D02802C7D0412188CC006C00778183E
:10182700121BCAD007D00612188CC006C007AF71AA
:10183700AE70AD6FAC6E78101205D7AD07D007D07C
:1018470006121894C006C0077808121BCAD007D022
:1018570006121894C007E571FFE4AD07D007122BF5
:101867003B8E838F82AD82AC837F06121F167F016A
:1018770022AF82AE83122B3B8E838F8222122B3BA9
:101887008E838F8222122B3B8E838F8222122B3BD9
:051897008E838F822208
:082B5D008C278D28120373FF81
:012B6500224D
:082B66008C278D28120373FF78
:012B6E002244
:072B81008C2B8D2C1222F8B1
:012B8800222A
:102B04007576007577AC7578007579ACE49000C57E
:042B1400F0A3F02218
:1024DA00C39000C6E094199000C5E09400502FC341
:1024EA009000C5E5779582E5769583400675760076
:1024FA007577AC0577E577AC767002057614F582C8
:0F250A008C83EFF09000C5E475F00112045422A9
:100F6300E4F509F50AF50BF50CF50DF50EF50F751E
:100F73001009C3E57B9421E57A94005027122AEEE9
:100F8300D3EF9400EE9400401B1225D2057BE57B42
:100F9300AC7A7002057A14246AF58274003CF583F6
:100FA300EFF080CEC3E57B9409E57A940050030209
:100FB30010F9C3E57B950AFDE57A9509FCC3ED9429
:100FC30009EC940050030210B4746A250AF5827484
:100FD300003509F583E06455600A050AE50A70D215
:100FE300050980CE746B250AF58274003509F583F3
:100FF300E064AA600A050AE50A70B7050980B374BC
:101003006C250AF58274003509F583E0750D00F54A
:101013000E6402450D60047402803C7470250AF569
:101023008274003509F583E0750C00F50B747125A6
:101033000AF58274003509F583E02409FFE433FEE1
:10104300EF250CF50CEE350BF50BD3E50C942AE5E7
:101053000B940040097403250AF50AE4804CC3EDA0
:10106300950CEC950B404A121C38FA7B01E50C24D5
:10107300FFFDE50B34FFFC122966E50A250CFDE5AF
:1010830009350BFC74692DF58274003CF583E06F20
:1010930060097403250AF50AE4800FAF0AAE09124A
:1010A30013BDE50C250AF50AE50B3509F509020F11
:1010B300B5C3121BEFD3E57B9400E57A9400403669
:1010C300E50A45097017E57B9421E57A9400400D04
:1010D300050AE50A70020509121BEF8000121C388D
:1010E300752401F5258926857A27857B287B017A56
:0610F30000796A12189C4E
:0110F90022D4
:1015EE004100CD004400C9000000005E00CE0101A4
:1015FE0003026504660267016802690271017201E5
:0C160E00730174027501760477049602E3
:1027C600AB21AA22A923AD25AC2422E0FFE48F2F5A
:1027D600F52EF52DF52C22900025E0FEA3E0FFE472
:1027E6008F2F8E2EF52DF52C22E0FFE4FCFDFEC387
:0327F6000205C613
:082B8900122B18787C76012262
:03001E00022B486A
:10170D00900000E0FD7F01122685900015E0FD7F21
:10171D00711226859000321227D17F03121FFE9081
:10172D000066E0FFB4FF05E4F519801EEFB4C805AF
:10173D007519028015EFB42805751903800CEFB4E7
:10174D0014057519048003751905AD197F651228E7
:10175D00BD9000351227E07F66121FFE900024E039
:10176D00FD7F671226859000271227D17F68121FF3
:10177D00FEE47B107A27F9F89000101205FD120592
:10178D0010C374329F1227D27F69121FFE90003151
:10179D00E0FD7F72122685900014E0FD7F73122606
:1017AD00851227DD7F74121FFE900060E0FD7F76AD
:1017BD001228BD900033E0FD7F771228BD90000AFE
:0817CD001227D17F96021FFED6
:102AD700122B5D900000EFF0FD7F01122685BF01EC
:062AE700037F01227F00C5
:012AED0022C6
:10264B00122B818F2A8E298D288C27900032AB2A52
:10265B00AA29A928A8271227EF7002FF22AF2A90D8
:10266B000032EFF0FE90003BF01227D37F03121FD6
:09267B00FEBF01037F01227F0074
:012684002233
:10219600122B669000CDE0B507037F0022EF146096
:1021A6001014601514601A14601F1460242405703E
:1021B6002890006674FFF0802090006674C8F08056
:1021C600189000667428F080109000667414F080F1
:1021D60008900034E0900066F09000CDEFF0FD7FAF
:0C21E600651228BDBF01037F01227F00AD
:0121F20022CA
:10249700122B818F2A8E298D288C27900035E0FEFC
:1024A700A3E0FFE4FCFDAB2AAA29A928A827C312A9
:1024B70005C67002FF22AE29AF2A900035EEF0A3C1
:1024C700EFF01227E57F66121FFEBF01037F01228F
:0224D7007F0084
:0124D90022E0
:1029B100122B5D900024E0B507037F0022900024D4
:1029C100EFF0FD7F67122685BF01037F01227F00A3
:0129D10022E3
:10272A00122B818F2A8E298D288C27900027AB2A7D
:10273A00AA29A928A8271227EF7002FF22AF2A90F8
:10274A000027EFF01227D37F68121FFEBF01037F15
:04275A0001227F00D9
:01275E002258
:10206B00122B818F2A8E298D288C279000C912055F
:10207B00FDAB2AAA29A928A827C31205C67002FFFF
:10208B0022AF2AAE29AD28AC279000C9120615C382
:10209B007432952AFFE49529FEE49528FDE49527F3
:1020AB00FCE47B107A27F9F81204859000101206D5
:1020BB00159000C91205FD8F2F8E2E8D2D8C2C7F28
:0C20CB0069121FFEBF01037F01227F008D
:0120D70022E6
:10282B00122B5DEF7006900015F08013900024E0E2
:10283B00B4010690002D7401F09000157401F09016
:10284B000015E0FD7F71122685BF01037F01227FFA
:01285B00007C
:01285C002259
:1029D200122B5D900031E0B507037F002290003199
:1029E200EFF0FD7F72122685BF01037F01227F0077
:0129F20022C2
:1029F300122B5D900014E0B507037F0022900014B2
:102A0300EFF0FD7F73122685BF01037F01227F0054
:012A130022A0
:102AA600122B5DEF7002FF22E4900025F0A3F012D6
:092AB60027DD7F74121FFE7F0171
:012ABF0022F4
:1026BD00122B818F2790000AE0B527037F0022900F
:1026CD00000AE527F0E4FF1220D890003BE0FF124E
:1026DD0020D8E485272F1227D67F96121FFEBF0123
:0626ED00037F01227F00C3
:0126F30022C4
:022BB1008F266D
:042BB3008C278D28B6
:012BB70022FB
:061ADC008B218A22892300
:101AE200E4F526EF12066E1B11011B33031B3C6546
:101AF2001B45661B4D671B55681B5D691B65711B8A
:101B02006D721B75731B7D751B859600001B8F12F2
:101B120027C6122AD78F26E52664017075900049E0
:101B2200E004F0E0C394054069E4F0122B89021B43
:101B3200941227C612264B021B8B1227C61221961D
:101B4200021B8B1227C6122497803E1227C6122927
:101B5200B180361227C612272A802E1227C61220DB
:101B62006B80261227C612282B801E1227C6122926
:101B7200D280161227C61229F3800E1227C6122A05
:101B8200A680061227C61226BD8F268000E490008A
:041B920049F0AF2641
:011B9600222C
:032BBE007F0F2264
:1028EA007B2270223A220030626E6635716F740064
:1028FA00222C2276223A2200312E302E3000227DDE
:0D290A00001F1C1F1E1F1E1F1F1E1F1E1F53
:04161A004100690022
:10161F00F07B3CAF29AE28AD27AC26E4FAF9F812DF
:10162F0005108F298E288D27227823E475F001125B
:10163F00065E0203737F3CFEFDFCAB29AA28A92797
:10164F00A8260205C6F526852B82852A83A322AB01
:10165F0007E4FCFFFEAD03122B3BAC06AD07227473
:10166F00722512F58274003511F583E0F51522FE0F
:10167F00FDFCAB29AA28A927A8260205C6FFE51D50
:10168F004FFFE51CFEE51BFDE51A8F1D8E1C8D1B04
:10169F0022FFE5214FFFE520FEE51FFDE51E8F210F
:1016AF008E208D1F221205FD78101205D7AD07224F
:1016BF001205FD78081205D7AD0722E4FAF9F8AF45
:1016CF0029AE28AD27AC262274722512F974003585
:1016DF0011FA7B0122F582E4352AF58322C3E5292D
:1016EF009BFFE5289AFEE5272274932FF974003E9D
:0E16FF00FA7B0122E47BF87A88F9F8020510E4
:082B9100E4FDFC7F20021F1689
:101CE500E4FFFE90004EE0C4F854F0C8A3E0C454ED
:101CF5000F48FD122B3B7E00900034E0FD122B3B7C
:101D05007E00C006C0079000181216B4D007D00692
:101D1500122B3B7E00C006C0079000181216BFD0DC
:101D250007D006122B3B7E00C006C007900020128C
:101D350016B4D007D006122B3B7E00C006C0079014
:101D450000201216BFD007D006122B3B7E00C0061E
:101D5500C0079000101216B4D007D006122B3B7E98
:101D650000C006C0079000101216BFD007D006129B
:0B1D75002B3BEFFD7C007FB0021F162F
:082B9900E4FDFC7FB1021F16F0
:092B6F009000C7EEF0A3EFF02284
:092B78009000C7E0FEA3E0FF227B
:0C2B3B001216F8ED1203B90FBF00010ED6
:012B4700226B
:0A288E008E1A8F1B8B1C8A1D891EF9
:102898001216F8851C24851D25851E26851F27856B
:1028A800202812189CE520251BF51BE51F351AF575
:0428B8001AFEAF1B3A
:0128BC0022F9
:102595008B328A3389348C358D36E94A4B602DE58B
:1025A5003645356027E5361536AE35700215354E9C
:1025B500601AAB32AA33A934120373FF12001E74DA
:0D25C500012534F534E43533F53380D92297
:0A2966008B328A3389348C358D36AC
:10297000E4FFFDFCC3ED9536EC9535500E78321230
:0B298000163A2FFF0DBD00010C80E98E
:01298B002229
:061F16008C308D31AB0799
:101F1C00E4FF122B78AD07AC0690008B7455F0A340
:101F2C0074AAF0A37402F0AF04A3EFF0AF05EFA313
:101F3C00F0A3EBF0E530A3F0E531A3F00DBD00010B
:101F4C000CAF05AE04122B6F74092531F531E43555
:101F5C0030F5307B017A00798BE53124FFFDE530DB
:101F6C0034FFFC122966748A2531F58274003530F1
:101F7C00F583EFF07B017A00798BAD31AC30022523
:011F8C0095BF
:022A14008F2011
:102A1600122BBEE4FEEEC39F501275F002EE90003C
:0E2A2600CE120652E0652060030E80E9AF0676
:012A3400227F
:102AEE009000C5E07002A3E07003122B049000C5A5
:062AFE00E0FEA3E0FF2250
:1025D200E4FFD39000C6E094009000C5E094004070
:1025E2002BE5799582E578958340067578007579B3
:1025F200AC0579E579AE787002057814F5828E83A0
:0C260200E0FF9000C574FFF5F0120454D6
:01260E0022A9
:050DBD001216318C2626
:100DC200782C7C007D007BFF7A29790B7E007F0CDA
:100DD20012034DE4F538F539F53AF53BFFC3121627
:100DE2007E6006E52B452A70077B007A0079002297
:100DF2007B3C1216CA120510AF03E52B240612160D
:100E0200E4EAF0A3EF12161F8C26E47B3CFAF9F811
:100E1200120510E52B24051216E4EB12161F8C2680
:100E22001217038E388F39E5397802C333CE33CEA9
:100E3200D8F924B2FFEE3407852B82852A83F0A3EA
:100E4200EFF01216CE121703AC00AD01AE02AF03E3
:100E52001216318C26753A22753B38121656E0541A
:100E620003700B7418253BF53BE4353AF53AAE3A7C
:100E7200AF3BE4FCFDAB29AA28A927A826C312058B
:100E8200C64026852B82852A83E475F0011204541C
:100E9200AE3AAF3BAB07AA061216EC9400FDE5266C
:100EA2009400121631F52680AC7B181216CA120570
:100EB20010E52B24041216E4EBF07B181216228C98
:100EC20026EF2401FFE43EFEE43DFDE43C12163130
:100ED200121654E054037036D3121644401AE52910
:100EE20024FFFFE52834FFFEE52734FFFDE5263425
:100EF200FF121631F5268016E4C3121644700F1243
:100F02001656A304F0121656A3A3741D804B121694
:100F120056A3E4F0121656A3E0242CF8E6FF33950C
:100F2200E0D312167E4024121656A3E0242CF8E6D3
:100F3200FB3395E0FAF9F81216EC99FDE5269812C2
:100F42001631121654A3E004F080C9121656A3E01B
:100F520004F0121656A3A3E529F0AA2AA92B7B01B5
:010F6200226C
:082BA10012165E7F0B021F16E5
:082BA90012165E7F0C021F16DC
:081E94008B458A4689478D4801
:101E9C00E4FDFCF54C754D08E54D154DAE4C70024E
:101EAC00154C4E600FAF05AE04784512163AFD1274
:101EBC00166680E4AF05AE04AD48121666C006C0C7
:101ECC0007E54AAE497818CEC313CE13D8F9FDD026
:101EDC0007D006121666C006C007E54AAE49781050
:101EEC00CEC313CE13D8F9FDD007D006122B3BACC2
:101EFC0006E549FD122B3BAC06AD4A122B3BAC065A
:0A1F0C00AD4B1216667F0D021F1682
:082519008F4E8B4F8A5089514F
:10252100E4FCF553755408FFFEAD4E8017E55415D4
:1025310054AE53700215534E600FAF05AE04784F81
:1025410012163AFD12166680E4AF05AE04AD5212C2
:0725510016667F0E021F1643
:101E0C00E4F5197A2879EA121E747A2879EA1228EC
:101E1C008E8F197A2879F1121E747A2879F112288A
:101E2C008E8F197A2879FA121E847A2879FA122858
:101E3C008E8F197A297902121E847A297902122836
:101E4C008E8F197BFF7A2979081223CE8E1F8F2053
:101E5C00AF197E007BFF7A29790812288E8F19EF33
:081E6C00FD7C007F01021F163E
:101E74007BFF1223CE8E1F8F20AF197E007BFF22A3
:101E84007BFF1223CE8E1F8F20AF197E007BFF2293
:0A2B53008F19E4FDFC7F02021F163B
:01001A0022C3
:06224E008B198A1A891B9E
:10225400120373F51C90000112038CF51D9000020B
:1022640012038C751F00F51E90000312038C251FAA
:10227400F51FE4351EF51EAF1C122A1475F002EF8B
:102284009000CF120652E0651D60037F0022AB1957
:10229400E51B2404F9E4351AFA851E24851F25AFAD
:0422A4001C121ADC12
:0122A8002213
:022BC1008F196A
:012BC30022EF
:032BC4000200000C
:021961008D19DE
:10196300E4F51DF51CF51BF51AF521F520F51FF51A
:101973001EF5228B238A248925E519C39408500375
:10198300021A127A0079EC121A137A0079F4121AF5
:1019930013E4F52212163812168CF51AFC78081285
:1019A30005EA1216998C1A0522E522B403E61216EB
:1019B3003812168CF51AE4F5221216381216A0F511
:1019C3001EFC78081205EA1216AD8C1E0522E522CC
:1019D300B403E61216381216A0F51EAF1DAE1CADE9
:1019E3001BAC1A752A00752BF4120DBDAF21AE2066
:1019F300AD1FAC1E752A00752BEC120DBD7C007D4E
:0F1A0300F47F01122BB17C007DECE4FF122BB1BC
:0F1A1200227B01752A00752B08E4FD12275F2245
:102A5300900069EFF07005787C760122900069E0C0
:0E2A6300B4010A12170D121C42E4787CF62210
:062BB800900069E0FF221D
:0413BD008E118F12EC
:1013C100E4F513F514746F2512F58274003511F5E7
:1013D10083E0FD74702512F58274003511F583E008
:1013E100751400F51374712512F58274003511F529
:1013F10083E02514F514E43513F513746D2512F506
:101401008274003511F583E07F00FE746E2512F5BC
:101411008274003511F583E02FFFE43EFE122B6F3D
:10142100ED12066E145701145A021466031469046E
:1014310014CB0514CB0614D208144A2014EA241440
:0914410051B01454B1000014F282
:07144A0012166EFF022A5387
:09145100021CE5022B99021E0C9D
:0C145A0012166EFF122A53AF15022B531E
:0314660002001A67
:10146900E4F515F517F518F515AF157E00C3EF95D9
:1014790014EE95135073E5122FFDEE3511FC7474BB
:101489002DF58274003CF583E0751800F517747525
:101499002DF58274003CF583E02518F518EE351713
:1014A900F5171216D7E92FF9EE3AFA12224E8F16CE
:1014B900E516B40103121C42E51824042515F51597
:0214C90080A7FA
:0714CB0012166EFF022BC197
:1014D20012166E74732512F58274003511F583E0CD
:0814E200F516FDAF15022BC445
:0814EA001216D7AD14121961AE
:0114F20022D7
:10002600020268E86480F8E933E83360110460F09E
:10003600ED33EC337009E8FCE9FDEAFEEBFF220440
:1000460060DED3EB9FEA9EE99DE8C2E78CF0C2F73B
:1000560095F0400CE8CCF8E9CDF9EACEFAEBCFFB07
:1000660012023385D0F05804700320D5B3E804702B
:10007600075002B2D502027292D5EC0460F7E4CCC6
:10008600C0E0C398F8603B94186008400DD0E0FBD0
:1000960002024AE4FBFAC9FC8028E830E406E4C917
:1000A600FBE4CAFCE830E305E4C9CACBFCE8540724
:1000B6006010F8C3E913F9EA13FAEB13FBEC13FC2F
:1000C600D8F130F52FC3E49CFCEF9BFFEE9AFEEDD2
:1000D60099FDD0E0FBEF4E4D4C701222DB0302027D
:1000E6006FEC2CFCEF33FFEE33FEED33FDED30E726
:1000F600EB02024AEF2BFFEE3AFEED39FDD0E0FBB4
:1001060050130BBB0003020272ED13FDEE13FEEF5C
:0801160013FFEC13FC02024A86
:10011E00020272EC5D046005E85904700302026885
:10012E00120233580460F6EC4860F2EC7004FDFEE7
:10013E00FF22C860DB2481C85009C39860025006B4
:10014E0002026F9850CAF582E9294B4A7005AB82BC
:10015E0002025E75F0007C1A7880C3EF9BEE9AED7A
:10016E0099400DC3EF9BFFEE9AFEED99FDE842F02C
:10017E00DC23ACF0D0E0FFD0E0FED0E0FDAB82207F
:10018E00E7101BEB60BAEC2CFCEF33FFEE33FEED09
:10019E0033FD02024AE803F830E705C0F075F000BF
:1001AE00EF2FFFEE33FEED33FD40B830E7C280AAED
:1001BE0075F020800E75F010800575F0087D007EBC
:1001CE00007F003392D530D5031205A2EC334010D8
:1001DE00EF33FFEE33FEED33FDEC33FCD5F0ED22C5
:0E01EE00E5F0247EA2D513CC92E7CDCEFF2201
:1001FC00EDD2E7CD33EC3392D524814006E4FFFEFB
:10020C00FDFC22FCE4CFCECDCC24E0501174FF8059
:10021C00EDC3CC13CCCD13CDCE13CECF13CF0470F6
:07022C00F030D5DE0205A24F
:10023300E9D2E7C933E833F892D5EDD2E7CD33EC11
:0702430033FC5002B2D5228A
:10024A00EC30E7100FBF000C0EBE00080DBD000415
:10025A000BEB6014A2D5EB13FCED92E7FD2274FFC1
:10026A00FCFDFEFF22E480F8A2D574FF13FC7D801A
:03027A00E480EF2E
:101D8C00020BA1E493A3F8E493A34003F68001F2C1
:101D9C0008DFF48029E493A3F85407240CC8C33358
:101DAC00C4540F4420C8834004F456800146F6DF27
:101DBC00E4800B01020408102040809014F3E47EB0
:101DCC00019360BCA3FF543F30E509541FFEE4931C
:101DDC00A360010ECF54C025E060A840B8E493A3E3
:101DEC00FAE493A3F8E493A3C8C582C8CAC583CA0E
:101DFC00F0A3C8C582C8CAC583CADFE9DEE780BEC6
:01161E0000CB
:10027D00E709F608DFFA8046E709F208DFFA803E63
:10028D0088828C83E709F0A3DFFA8032E309F60850
:10029D00DFFA8078E309F208DFFA807088828C83B8
:1002AD00E309F0A3DFFA806489828A83E0A3F6086C
:1002BD00DFFA805889828A83E0A3F208DFFA804C46
:1002CD0080D280FA80C680D4806980F2803380101D
:1002DD0080A680EA809A80A880DA80E280CA803386
:1002ED0089828A83ECFAE493A3C8C582C8CCC583FE
:1002FD00CCF0A3C8C582C8CCC583CCDFE9DEE780CE
:10030D000D89828A83E493A3F608DFF9ECFAA9F04C
:10031D00EDFB2289828A83ECFAE0A3C8C582C8CCA2
:10032D00C583CCF0A3C8C582C8CCC583CCDFEADEBB
:10033D00E880DB89828A83E493A3F208DFF980CC1D
:10034D0088F0EF60010E4E60C388F0ED2402B40416
:10035D000050B9F582EB2402B4040050AF232345BD
:06036D0082239002CD7313
:10037300BB010689828A83E0225002E722BBFE0288
:09038300E32289828A83E49322BB
:10038C00BB010CE58229F582E5833AF583E0225026
:10039C0006E92582F8E622BBFE06E92582F8E22270
:0D03AC00E58229F582E5833AF583E493228A
:1003B900BB010689828A83F0225002F722BBFE0123
:0203C900F3221D
:1003CB00F8BB010DE58229F582E5833AF583E8F068
:1003DB00225006E92582C8F622BBFE05E92582C814
:0203EB00F222FC
:1003ED00EF8DF0A4A8F0CF8CF0A428CE8DF0A42E24
:0203FD00FE22DE
:1003FF00BC000BBE0029EF8DF084FFADF022E4CCE2
:10040F00F875F008EF2FFFEE33FEEC33FCEE9DECAA
:10041F00984005FCEE9DFE0FD5F0E9E4CEFD22EDF0
:10042F00F8F5F0EE8420D21CFEADF075F008EF2F3A
:10043F00FFED33FD4007985006D5F0F222C398FD2B
:05044F000FD5F0EA22C8
:10045400C5F0F8A3E028F0C5F0F8E5821582700233
:060464001583E038F022D0
:0D046A00EF2BFFEE3AFEED39FDEC38FC22E1
:0E047700C3EF9BFFEE9AFEED99FDEC98FC2280
:10048500E88FF0A4CC8BF0A42CFCE98EF0A42CFC16
:100495008AF0EDA42CFCEA8EF0A4CDA8F08BF0A494
:1004A5002DCC3825F0FDE98FF0A42CCD35F0FCEBF3
:1004B5008EF0A4FEA9F0EB8FF0A4CFC5F02ECD39B8
:0F04C500FEE43CFCEAA42DCE35F0FDE43CFC2225
:1004D40075F008758200EF2FFFEE33FECD33CDCCDF
:1004E40033CCC58233C5829BED9AEC99E582984062
:1004F4000CF582EE9BFEED9AFDEC99FC0FD5F0D63F
:10050400E4CEFBE4CDFAE4CCF9A88222B800C1B968
:100514000059BA002DEC8BF084CFCECDFCE5F0CBA6
:10052400F97818EF2FFFEE33FEED33FDEC33FCEBDF
:1005340033FB10D703994004EB99FB0FD8E5E4F99A
:10054400FA227818EF2FFFEE33FEED33FDEC33FC87
:10055400C933C910D7059BE99A4007EC9BFCE99A7B
:10056400F90FD8E0E4C9FAE4CCFB2275F010EF2FC0
:10057400FFEE33FEED33FDCC33CCC833C810D707C0
:100584009BEC9AE899400AED9BFDEC9AFCE899F8FB
:0E0594000FD5F0DAE4CDFBE4CCFAE4C8F9228E
:0E05A200C3E49FFFE49EFEE49DFDE49CFC226A
:1005B000EB9FF5F0EA9E42F0E99D42F0EC6480C8C2
:0605C00064809845F02262
:1005C600EB9FF5F0EA9E42F0E99D42F0E89C45F08B
:0105D6002202
:1005D700E8600FECC313FCED13FDEE13FEEF13FF02
:0305E700D8F12226
:1005EA00E8600FEFC333FFEE33FEED33FDEC33FC6F
:0305FA00D8F12213
:0C05FD00E0FCA3E0FDA3E0FEA3E0FF2271
:0C060900E0F8A3E0F9A3E0FAA3E0FB2274
:0C061500ECF0A3EDF0A3EEF0A3EFF02258
:10062100A8828583F0D083D0821206381206381250
:100631000638120638E473E493A3C583C5F0C58375
:10064100C8C582C8F0A3C583C5F0C583C8C582C823
:010651002286
:0C065200A42582F582E5F03583F58322B3
:10065E00FAE6FB0808E6F925F0F618E6CA3AF6229D
:10066E00D083D082F8E4937012740193700DA3A31B
:10067E0093F8740193F5828883E47374029368602F
:06068E00EFA3A3A380DF2F
:00000001FF
