:03000000021DE9F5
:0C1DE900787FE4F6D8FD758170021E3092
:10151900046500000000410079004100B60C41005B
:10152900B7404400AD0000000044008900000000FD
:1015390044008D00000000440091000000004400B8
:10154900CD000000004400BB000000004400D300AF
:101559000000004200A00001420087000041007E17
:10156900004100AB004200D8000042007F0000416A
:101579000073084100B900016900016A0041008651
:1015890000410095014100A30A4100BA004100B899
:101599000A4100AA004100AC0042007C0000410061
:1015A9007500026F0000026D00004100A2004100B9
:1015B9009E004100720041009D00410085004200EB
:1015C9009600004200A800004100D10041007600C9
:1015D90042007700004100740041009F004100A4CF
:1015E900004100B5000164004C00C100000000008A
:0C15F9000000000000000042007A00002A
:1012B900EF24A0FFEE340FFEE43DFDE43CFC1206F2
:1012C90096D3020653E49000B9F09000B77440F049
:1012D9009000AB7402F09000737406F0E49000790A
:1012E900F09000CD2290008912068A9000AD120676
:1012F900961204F79000891206A290008902068AC4
:101309009000AD120696C30206537C2F12282F7F38
:10131900647E00022946E4FCFD1204F79000D30222
:1013290006A29000B112068AEF2470FFEE3417FE70
:10133900E43DFDE43CFC90008922E47BE87A03F972
:10134900F890008102068A9000B7E0FF900079E0EA
:10135900C39F22D39000A1E094009000A0E09400E4
:1013690022E475F00102043212068A90008D1206F9
:10137900960204F77E2F12287C7F107E27022946C9
:101389009000810206A29000AD02068AD39000D98E
:10139900E094009000D8E09400227F0A1224D990AA
:1013A90000A5EFF09000D2229000A3E09000B8F0E1
:1013B9009000BB22F09000BB02068A9000D302067F
:1013C900969000A3E0FF9000B8F022D39DEC6480D2
:1013D900F87480982290008D02068AE47B02FAF95B
:0A13E900F802059D900089020696A7
:10265D008E098F0A8B0B8A0C890DAF051DEF60213A
:10266D00050AE50AAE097002050914F5828E83E4A8
:10267D0093FF780BE475F0011206EBEF1203EC807B
:02268D00D92250
:102807008F828E83E4F568F567F566F565AF82AE6E
:1028170083E4FCFDAB68AA67A966A865C3120653E3
:08282700500543BD1080E622BC
:09293D00E0FF7C2F12282F7F64BB
:10294600E4FDFCC3ED9FEC9E50070DBD00010C801D
:01295600F28E
:01295700225D
:10000300758E5190FE917401F0A37410F075BD5F6D
:0700130090FEA07420F02212
:1028E500E490FE80F0758901758DFA758BCB43A850
:0E28F50008438840758CCB758AEB438810220F
:1026F30090FF10E054F04408F090FF02E054F044DF
:1027030002F0D28490FFA07420F0A37404F075CC7F
:102713000675CEFF75CD98759E0275981043A81067
:012723002293
:1029730043B40343B4807F147E0012294675B50126
:0729830090FE9B744BF02253
:1029210090FF08E054F04408F090FF00E0540F4499
:0C29310030F090FF11E054F04403F0225D
:0B2A41008F99E59830E1FB5398FD22CF
:1024D9008FB543B440E5B430E5FB53B4DF121318AC
:1024E900E4FBFAF943B440E5B430E5FB53B4DFE566
:1024F900B62BFBE5B73AFA7F147E0012294609B9D3
:0C25090010E275B501A902121318AF0111
:0125150022A3
:10114C007B017A0079C17D0C7F007E2F12265D9089
:10115C0000C1E0FFE4FCFDFE12138912134A78086B
:10116C001206771213899000811206969000C2E045
:10117C00FFE4FCFDFE1204F712138912134AE47B00
:10118C00E87A03F9F8120512121389E47F307E75A0
:10119C00FDFC90008112130C40107F007E097D3DF8
:1011AC007C009000811212C7400A9000811206AE9A
:1011BC0000009C409000C3E09000D7F070028007C4
:1011CC009000D7E0B4FE0374FFF09000C4E0FF90F1
:1011DC0000A6E4F0A3EFF0E0F8E4F0E89000A6F04D
:1011EC009000C5E0FF9000A6E48FF012043290004E
:1011FC00A6E0FEA3E0FF4E6009D3EF9408EE94073F
:10120C0040099000A6E4F0A37405F09000C6E090AD
:10121C0000A3F09000ACF09000C7E0900098F06054
:10122C0006E0D394FF40069000987401F09000C83B
:10123C00E0F45401900095F09000C9E05401900046
:10124C00A2F09000CAE05401900086F09000CBE030
:10125C005401900085F07B017A00797A7D027F80C1
:10126C007E2F12265D90007AE09000AAF090007B11
:10127C00E090009DF07F807E2F12287C12138290CC
:10128C0000AAE004F0E0FF7D807C2F12282F1213BF
:10129C001890009DE07003022A9390009DE0FFB42B
:0D12AC00010A7D817C2F12282F12131822B9
:10072100E5696003020BCC43B440E5B430E5FB530B
:10073100B4DF85B70985B60A90008712136A1213D0
:10074100C4AE09AF0A12131F9000BFE0FEA3E0FF81
:10075100C3950AEE9509500DC3E50A9FF50AE5090F
:100761009EF509800BC3EF950AF50AEE9509F50987
:1007710090008D120696AE09AF0AE4FCFD1204F753
:1007810090008D1206A2900087E05401FEA3E04E76
:10079100702012139540099000B87464F0FF800F27
:1007A10090007FE07004A3E0640170061213CA1286
:1007B1002062C3900087E094205003020BFB43BDED
:1007C10010E4F0A3F09000B9E0041213BD9000D33F
:1007D1001213779000BB1206A29000B9E0C39408EF
:1007E1004030E41213BD78101206649000BB12066B
:1007F100A21213BE9000BFEE8FF01204329000BF20
:10080100E0C313F0A3E013F09000BB1206AE0000AA
:100811000000900073E0C394085005E004F08040AC
:100821009000D8E07002A3E070361213A3E0FE241A
:1008310002FDE433FCEF1213D450189000A5E0241C
:1008410002FDE433FCEE1213D450089000D2E09084
:1008510000A5F09000A5E09000D2F0E4900073F0C4
:10086100E4FFFEFDFC90008912130C70331213DEBD
:10087100EF2488FFEE34131213381206A29000A061
:10088100E07002A3E070197F407E427D0FFC900072
:10089100891212C7400A9000891206AE000F424029
:1008A100900079E070131213DE9000AD1206A29051
:1008B10000991206AE000000019000991213711206
:1008C10013094003020A6E90009912068A9000AD46
:1008D10012137790008D12130C4003020A6E9000E0
:1008E10079E004F09000CD1213719000CD1206A2B0
:1008F100900079E0FFFBE4FAF9F89000CD12068A46
:1009010012059D9000AD1206A212138F78031206F4
:10091100649000991206A2E47F207E4EFDFC9000B7
:100921009912130C500A9000991206AE00004E2045
:10093100E47F607EEAFDFC9000991212C7400A90A4
:1009410000991206AE0000EA6012138F900089121E
:1009510012C7403E9000AD12069612130312050411
:100961001213257F807E387D017C009000D3121206
:10097100C740089000B67406F0801DE47F407E9C5D
:10098100FDFC9000D31212C79000B640087409F024
:1009910080069000B6740CF09000B6121353403BE1
:1009A10012130312130950339000B7E0941050034F
:1009B100020A7D9000B6E0D39409500512138F808E
:1009C1001112138F9000891212B9400C1212EE12FB
:1009D10013E49000891206A2020A6E12135050030A
:1009E100020A7D1213039000AD1212B9407712135F
:1009F100ED12138F1205041213257F007E127D7AEA
:100A01007C00121309505E7F807E1A7D067C009067
:100A110000D312130C504E9000B7E09410400280A6
:100A2100387FE07E937D047C009000D31212C74092
:100A3100089000B77410F0801B7FF07E497D027C26
:100A4100009000D31212C79000B74005740CF080DB
:100A5100037408F0121350400C1212EE1213E490BA
:100A610000891206A21213504012E48004E490009F
:100A710079F09000CD1206AE000000009000ABE0CE
:100A8100D394004036E014F012132B1212C7500316
:100A9100020B7D9000B112068AEF2498FFEE343AE2
:100AA100FEE43DFDE43CFC90008D12130C4003027A
:100AB1000B7D12132B1206A2020B7D12135C405701
:100AC10074FFF5F012043212135C404B7F007E126A
:100AD1007D7A7C009000891212C7400C900081122F
:100AE10006AE000C3500802F12134A1213ED1213BB
:100AF100227F407E547D897C009000D31212C74032
:100B0100161213EDC374409BFF74549AFE748999B5
:100B1100FDE498FC12138912134A9000891213778D
:100B210090008D1212C740549000D7E0FF9000A5AD
:100B3100E0D39F400512135C40429000D8E0700260
:100B4100A3E070091213039000B11206A29000D81D
:100B5100E4F0A304F090009EF090009612136A90C6
:100B6100009F7401F09000B77408F0E490007FF0EA
:100B7100A3F0786FF608F6786DF608F61213DE909A
:100B810000911206A29000D31206AE000000009060
:100B9100008D1206AE000000009000D8E0FEA3E038
:100BA100FFD39400EE940040519000A6E0FCA3E036
:100BB100FDD3EF9DEE9C4042E49000D8F0A3F07588
:100BC100690190009EF0900072F02290007FE4F0A5
:100BD100A304F0E4F56990007CF0A3F0900075F0B7
:100BE1007FFAFE1228079000BB1206AE000000003B
:0A0BF1001212CE1206AE0000000042
:010BFB0022D7
:1021B900E4F50A9000D31206AE00000000E4F50928
:1021C90043B440E5B430E5FB53B4DF1213C4AFB6F2
:1021D900AEB712131F0509E509B480E47F907E01AB
:1021E9001228079000D312068A780B1206648F0909
:1021F900E509D3940C400CE509948D5006E50A9441
:0D22090014500A050AE50AD3945040A7229C
:0122160022A5
:102217009000D31206AE00000000E4F509E4F50CC7
:10222700F50D43B440E5B430E5FB53B4DF85B70A99
:1022370085B60B1213C4AE0AAF0B12131F050DE5BB
:102247000D7002050CB400DAE50CB420D543BD10BF
:102257000509E509B408C69000D312068A7810125A
:0A22670006649000BFEEF0A3EFF054
:01227100224A
:10206200EF70069000D1048014BF640CE49000D19C
:10207200F09000A404F0800B9000D17402F0E49080
:1020820000A4F0BF0104E4FE80397E007C007DFFE5
:10209200120420AC06AD07E41201C3E4FBFA79C8CE
:1020A20078421201218F0E8E0D8D0C8C0BE4FFFEF7
:1020B200FD7C3FAB0EAA0DA90CA80B12002D12013C
:1020C200FCAE0790FF9C7410F075DEFF8EDF75DDAD
:0320D200947F00F8
:0120D50022E8
:100BFC001229EE1200031229211228E51226F312F3
:100C0C00297375BBAA90FEA774FFF053BBF7D2AF44
:100C1C007FC87E001228071213A3F0C2AF12114C2A
:100C2C007F64122062D2AF1221B91213CA12206251
:100C3C007F2C7E011228071222179000D31206AEC9
:100C4C0000000000E4F5649000AAE0D39403401681
:100C5C00122A939000AAE0D3940C4003121820E4BB
:100C6C009000AAF08003121D5A7B007A00794D7512
:100C7C003A00753B0FE4FD1225F5E5646003020DA7
:100C8C000A900076E0FF9000D1E0FD6F600D7F765A
:100C9C001227559000D1E0900076F09000B5E0FF5F
:100CAC009000A4E0FD6F600D7F771227559000A493
:100CBC00E09000B5F0900074E06401704190009FEA
:100CCC00E0B4013AE4900074F090009FF09000962C
:100CDC00E0FEA3E0FF9000A8E06E7003A3E06F605D
:100CEC001DE48F2B8E2AF529F5287F7412214A904A
:100CFC000096E0FFA3E09000A8CFF0A3EFF043BD77
:100D0C0010E569700B900088E0541F7003120FB649
:100D1C00900095E064016003020DD2E56A7019F54C
:100D2C0069756A011213B11206AE000000001212AE
:100D3C00CE1206AE00000000120721D3900080E016
:100D4C00940090007FE094004033900075E0B40173
:100D5C002CE4F090007F12136B900098E0FFC3908E
:100D6C000080E09F90007FE094004011E4F0A3F03D
:100D7C00900085E064016005E4FF12206212139577
:100D8C00400F786EE6640118467006F608F61213EA
:100D9C006B9000A2E064016003020C8690009EE060
:100DAC00FF900072E06F7003020C86EFF09000D899
:100DBC00E4F0A304F0E4F508E508C394084003024A
:100DCC000C86050880F2E4F56A900086E07007FF57
:100DDC00122062020C869000ACE0FF122062E4F557
:100DEC00691213B11206AE000000001212CE1206E8
:080DFC00AE00000000020C86AD
:03001B00021C04C0
:101C0400C0E0C0F0C083C082C0D075D000C000C0A6
:101C140001C002C003C004C005C006C007AF68AE5F
:101C240067AD66AC65EF2401FFE43EFEE43DFDE4F0
:101C34003C8F688E678D66F56590007C12136A9000
:101C4400007CE0FEA3E0FFE4FCFD7B607AEAF9F8A7
:101C5400D312063D500C90007CE4F0A3F090007584
:101C640004F0787006E618700106C37870E694E80C
:101C740018E69403400C7600087600786D76000828
:101C8400760190007712136AC3900078E094E8908C
:101C94000077E094034009E4F0A3F090007404F0AA
:101CA400D007D006D005D004D003D002D001D00094
:0B1CB400D0D0D082D083D0F0D0E0323E
:030023000225169D
:10251600C0E0C0F0C083C082C0D075D000C000C08B
:0725260001C002C003C00761
:0F252D00E59830E00AAF9912268F5398FED2AF8F
:10253C00D007D003D002D001D000D0D0D082D0832D
:05254C00D0F0D0E032E8
:10287C0053BBF7C280E5BB20E3F6D280C2AF75FD37
:10288C00F075FC0F8EFA8FF975FDD275FC2D75FD68
:05289C00E175FC1E22A5
:10282F0053BBF7C280E5BB20E3F6D280C2AF8FFB6C
:10283F0075FDF075FC0F8CFA8DF975FDB475FC4BB9
:07284F0075FDE175FC1E227E
:101D5A007F0012137D12134312059D780812066440
:101D6A007D0012131312134312059D7D01121313E2
:101D7A009000D77D0212293D9000A67D0312293DCD
:101D8A00A3E0FF7D0412293F9000A3E0FF7D051226
:101D9A00293F900098E0FF7D0612293F900095E0C8
:101DAA00F4FF7D0712293F9000A2E0FF7D08122967
:101DBA003F900086E0FF7D0912293F900085E0FFF1
:101DCA007D0A12293F7F8012137D7D807C2FE4FFDC
:0E1DDA001213157D817C2F7F01122941D2AF9B
:011DE80022D8
:04160500026B000074
:101EFD0012038CFFE52C4FFFE52BFEE52AFDE529AE
:101F0D008F2C8E2B8D2AF529FC78081206778F2CB5
:101F1D008E2B8D2A22AF2BAE2AAD29AC281206644A
:101F2D00AD0722AB07E4FCFFFEAD0322E56C950A7D
:101F3D00F56CE56B9509F56B22E475F0010206EB86
:101F4D00E4F520F51FF51EF51D2212038CAB29AA11
:101F5D002AA92B22755E01755F00756049227401F7
:081F6D00250AF9740035092270
:06239B008B1A8A1B891C4D
:1023A100121F4DE94A4B7005FFFEFDFC22121F4D25
:1023B100781A121F46120373601AE5202401FFE404
:1023C100351FFEE4351EFDE4351D8F208E1F8D1E49
:0C23D100F51D80DCAF20AE1FAD1EAC1D62
:0123DD0022DD
:0625F5008B368A3789389D
:1025FB008B3C8A3D893EE94A4B7004FBFAF922E594
:10260B003B153BAE3A7002153A4E600B783C121FED
:0D261B0046ED1203EC80E8AB36AA37A93873
:01262800228F
:061901008B218A228923DC
:101907008B298A2A892B85242C85252D85262EE946
:101917004A4B6008E5264525452470077B007A0079
:10192700790022D3852D83852E82E52B9582E52AA2
:1019370095834019E52E2528F9E52D3527FA8A8361
:101947008982D3E52B9582E52A95834032E4F52FEA
:10195700F530C3E5309528E52F9527505BAB2CAACA
:101967002DA92E853082852F83121F5785308285BA
:101977002F831203FE0530E53070D7052F80D385FE
:10198700272F852830D3E5309400E52F9400402891
:10199700AB2CAA2DA92EE53024FFFFE52F34FFFE3F
:1019A7008F82F583121F578F828E831203FEE530D5
:0E19B700153070D1152F80CDAB21AA22A923A7
:0119C50022FF
:1022C200E4F52CF52BF52AF529120373FFE48F2C84
:1022D200F52BF52AF529AE2BAD2AAC29121F168C47
:1022E20029900001121EFD8C29900002121EFD8C05
:1022F2002990000312038CFFE52C4FFFE52BFEE52E
:0A2302002AFDE529121F1BF529FC36
:01230C0022AE
:102A0000E4FDFCFFFE1229B5AC06AD077F03021FF3
:012A10007550
:1029DC00E4FDFCFFFE0D1229B5AC06AD077F03022A
:0229EC001F7555
:022551008D24D7
:10255300121F3012257CE4FD12257CAD07E52470A3
:1025630003FD8006AF05AE047D011229B5AC06ADAF
:08257300077F06121F757F01AE
:0E257B00221229B5AC067D011229B5AC06224C
:10214A00121F301229B5AC067D021229B5AC06E47D
:10215A00FD1229B5AC067D041229B5C006C0077860
:10216A0018121F22D007D0061229B5C006C0077858
:10217A0010121F22D007D0061229B5C006C007AF19
:10218A002BAE2AAD29AC287808120664AD07D00711
:10219A00D0061229B5AC06C007E52BFFAD07D0075C
:0E21AA001229B5AC06AD077F06121F757F0126
:0121B8002204
:022755008D24D1
:10275700121F301229B57D0412277DE4FD1229B519
:102767007D0112277DAD241229B5AC06AD077F0682
:05277700121F757F0137
:09277C0022AC061229B5AC0622BC
:082A56008C248D25120373FF8F
:012A5E002255
:082A5F008C248D25120373FF86
:012A6700224C
:072A83008C278D281222C2EE
:012A8A002229
:1029EE00121F61756101756200756349E4F55CF54E
:0229FE005D2258
:10268F00C3E55D9427E55C94005026C3900070E588
:10269F00609582E55F958340077A007949121F6143
:1026AF00785E121F46EF1203EC055DE55D700205C3
:0226BF005C229B
:100FB600E4F509F50AF50BF50CF50DF50EF50F75CB
:100FC6001009C3E56C9427E56B94005026122A336A
:100FD600EF9400EE9400401B1225BF056CE56CAC47
:100FE6006B7002056B142401F58274003CF583EFE7
:100FF600F080CFC3E56C9409E56B940050030211B1
:101006004BC3E56C950AFDE56B9509FCC3ED9409A8
:10101600EC940050030211067401250AF58274004F
:101026003509F583E06455600A050AE50A70D205BC
:101036000980CE7402250AF58274003509F583E02D
:1010460064AA600A050AE50A70B7050980B3740345
:10105600250AF58274003509F583E0750D00F50E55
:101066006402450D60047402803C7407250AF5820B
:1010760074003509F583E0750C00F50B7408250A34
:10108600F58274003509F583E02409FFE433FEEFA9
:10109600250CF50CEE350BF50BD3E50C9430E50B72
:1010A600940040097403250AF50AE4804CC3ED95C3
:1010B6000CEC950B404A121F6BFA7B01E50C24FFE2
:1010C600FDE50B34FFFC122856E50A250CFDE50963
:1010D600350BFC74002DF58274003CF583E06F60DF
:1010E600097403250AF50AE4800FAF0AAE09121344
:1010F600F3E50C250AF50AE50B3509F50902100793
:10110600C3121F39D3E56C9400E56B94004036E5B5
:101116000A45097017E56C9427E56B9400400D05A8
:101126000AE50A70020509121F398000121F6B7545
:101136002401F5258926856B27856C287B017A0095
:051146007901121901FE
:01114B002281
:101609004100DE004400DA00000000602000DF0134
:1016190001030265046602670168026902710172C9
:0F162900017301740275017604770496049A0424
:10258900AB1DAA1EA91FAD21AC20229000A6E0FE1A
:10259900A3E0FFE48F2B8E2AF529F528229000A3CA
:1025A900E0FFE48F2BF52AF529F52822E0FFE4FC6A
:0625B900FDFEC302065303
:062A93007564010229DC5C
:03001E00022A4172
:101A8A007D017F01122551900086E0FD7F711225AC
:101A9A00511225A67F0312214A9000D7E0FFB4FF16
:101AAA0005E4F519801EEFB4C8057519028015EF13
:101ABA00B42805751903800CEFB414057519048050
:101ACA0003751905AD197F651227551225947F668E
:101ADA0012214A900095E0FD7F67122551900098E7
:101AEA001225A97F6812214AE47B107A27F9F89017
:101AFA00008112068A12059DC374329F1225AA7F9D
:101B0A006912214A9000A2E0FD7F721225519000CD
:101B1A0085E0FD7F731225519000961225977F74F8
:101B2A0012214A9000D1E0FD7F761227559000A439
:0E1B3A00E0FD7F771227557D067F9602275526
:1029A000122A568F237D017F01122551BF01037F1B
:0429B00001227F0081
:0129B4002200
:1023DE00122A838F268E258D248C239000A3AB2664
:1023EE00AA25A924A8231225B56006E4FF0FBF086D
:1023FE00FCAF269000A3EFF09000ACF0121D5A1225
:0F240E0025A67F0312214ABF01037F01227F0011
:01241D00229C
:101FEC00122A5F9000DEE0B5070FBF05129000D7F4
:101FFC00E0FE9000A5E06E8006E4FE0EBE08FCEF4D
:10200C0014601014601514601A14601F14602424DA
:10201C000570289000D774FFF080209000D774C80A
:10202C00F080189000D77428F080109000D77414AA
:10203C00F080089000A5E09000D7F09000DEEFF063
:10204C00121D5A9000DEE0FD7F65122755BF01037B
:05205C007F01227F005E
:01206100225C
:10230D00122A838F268E258D248C239000A6E0FE25
:10231D00A3E0FFE4FCFDAB26AA25A924A823C31244
:10232D0006536006E4FF0FBF08FC9000A6E525F0FC
:10233D00A3E526F0121D5A1225947F6612214ABF7D
:07234D0001037F01227F0064
:012354002266
:1026C100122A56900095E06F6006E4FE0EBE08FCEB
:1026D100EF9000957003F080037401F0121D5A9081
:1026E1000095E0FD7F67122551BF01037F01227F25
:0126F10000E8
:0126F20022C5
:10245D00122A838F268E258D248C23900098AB26EF
:10246D00AA25A924A8231225B56006E4FF0FBF08ED
:10247D00FC900098E526F0121D5A9000981225A99F
:0D248D007F6812214ABF01037F01227F00FA
:01249A00221F
:1020D600122A838F268E258D248C239000DA1206F1
:1020E6008AAB26AA25A924A823C31206536006E4B0
:1020F600FF0FBF08FCAF26AE25AD24AC239000DA57
:102106001206A2C374329526FFE49525FEE49524B3
:10211600FDE49523FCE47B107A27F9F8120512906A
:1021260000811206A2121D5A9000DA12068A8F2B1F
:102136008E2A8D298C287F6912214ABF01037F01CF
:03214600227F00F5
:012149002273
:10241E00122A56900086E06F6006E4FE0EBE08FC9F
:10242E00EF7006900086F08013900095E0B40106E0
:10243E0090009E7401F09000867401F0900086E08A
:0E244E00FD7F71122551BF01037F01227F0027
:01245C00225D
:1027B200122A56AD079000A2E06D6006E4FF0FBF3B
:1027C20008FCED9000A27003F080037401F07F72A8
:0B27D200122551BF01037F01227F0090
:0127DD0022D9
:1028A100122A56900085E06F6006E4FE0EBE08FC19
:1028B100900085EFF0FD7F73122551BF01037F0169
:0328C100227F0073
:0128C40022F1
:10295800122A56EF6012E4900096F0A3F0900096C9
:0A2968001225977F7412214A7F01A7
:012972002242
:10235500122A5F8F23E52314601514601714601982
:1023650014601B14601D2405701C122A9C80171212
:1023750018208012122A9F800D122AA280081200AE
:102385001A8003120021AD237F96122755BF010342
:052395007F01227F0022
:01239A002220
:1029C900122A5FAD077F9A122755BF01037F0122A3
:0229D9007F007D
:0129DB0022D9
:022A68008F36A7
:062A6A008B378A38893920
:012A70002243
:0619C6008B1D8A1E891F23
:1019CC00E4F522EF1206FB19FE011A1D031A266517
:1019DC001A2F661A38671A40681A48691A50711A11
:1019EC0058721A60731A68751A70961A789A0000F1
:1019FC001A821225891229A08F22E5226401707B9C
:101A0C009000BAE004F0E0C39405406FE4F0021AD1
:101A1C00871225891223DE021A7E122589121FECE9
:101A2C00021A7E12258912230D021A7E12258912A2
:101A3C0026C1803E12258912245D8036122589121A
:101A4C0020D6802E12258912241E8026122589125A
:101A5C0027B2801E1225891228A180161225891200
:101A6C002958800E122589122355800612258912B9
:0D1A7C0029C98F228000E49000BAF0AF224B
:011A8900223A
:032A99007F102289
:032A9C00022A11FA
:10182000E4FB7F807E2E12287C7F107E27122946C3
:101830007D807F011218E9744D2BF8E6FFEB2481BF
:10184000FDE4342EFC12282F7F647E001229460B03
:10185000BB08E47D89AF551218E9E557AE567818F4
:10186000CEC313CE13D8F97D8A1218C1E557AE56F0
:101870007810CEC313CE13D8F97D8B1218C1E5565C
:101880007D8C1218DDAF577D8D1218F6E55BAE5AD0
:101890007818CEC313CE13D8F97D8E1218CFE55B1E
:1018A000AE5A7810CEC313CE13D8F97D8F1218CF4D
:1018B000E55A7D901218DDAF5B7D911218F6022A71
:0118C0002205
:1018C100FF7C2E12282F7F647E0012294622FF7C86
:1018D1002E12282F7F647E0012294622FF7C2E12B1
:1018E100282F7F64122946227C2E12282F7F647EA6
:1018F10000122946227C2E12282F7F6412294622AB
:032A9F000229DC2D
:032AA200022A0005
:01001A0022C3
:0100210022BC
:102A1100C2AF75FDF075FC0F75FD8775FC78D2AFFF
:012A21002292
:102A2200C2AF75FDF075FC0F75FD7875FC87D2AFEE
:012A32002281
:102785007B2270223A2200726C37667771333200F1
:10279500222C2276223A2200312E302E3100227D43
:0D27A500001F1C1F1E1F1E1F1F1E1F1E1FBA
:04163800410000006D
:101738007B3CAF39AE38AD37AC36E4FAF9F8120570
:101748009D8F398E388D37227F3CFEFDFCAB39AA40
:1017580038A937A83602065312059DAF03AB3AAA3B
:101768003BA93C227833E475F0011206EB020373BF
:1017780074092512F58274003511F583E0F515FF1B
:1017880022FEFDFCAB39AA38A937A836020653FF5A
:10179800E51D4FFFE51CFEE51BFDE51A8F1D8E1CA0
:1017A8008D1B22FFE5214FFFE520FEE51FFDE51E0D
:1017B8008F218E208D1F22AB1BAA1CA91D02038C12
:1017C80012068A7810120664AD072212068A780873
:1017D800120664AD0722E4FAF9F8AF39AE38AD372E
:1017E800AC362274092512F974003511FA7B0122EE
:1017F800C3E5399BFFE5389AFEE53722E47BF87AA2
:1018080088F9F802059D90000212038C243DF8E641
:08181800227B007A00792A22EC
:101CBF00E4FFFE9000BFE0C4F854F0C8A3E0C454A2
:101CCF000F48FD1229B57E009000A5E0FD1229B541
:101CDF007E00C006C0079000891217C8D007D00633
:101CEF001229B57E00C006C0079000891217D3D005
:101CFF0007D0061229B57E00C006C00790009112CA
:101D0F0017C8D007D0061229B57E00C006C00790AD
:101D1F0000911217D3D007D0061229B57E00C00646
:101D2F00C0079000811217C8D007D0061229B57EC0
:101D3F0000C006C0079000811217D3D007D006123B
:0B1D4F0029B5EFFD7C007FB0021F757E
:082A8B00E4FDFC7FB1021F75A0
:092A7100900070EEF0A3EFF022DA
:092A7A00900070E0FEA3E0FF22D1
:1029B50074302FF974003EFA7B01ED1203EC0FBF62
:0329C50000010E00
:0129C80022EC
:0A2724008B1C8A1D891EAD07AC0650
:10272E0074302DF974003CFA7B01851C24851D251F
:10273E00851E26851F27852028121901E5202DFDCF
:06274E00E51F3CFEAF0593
:012754002262
:102629008B2E8A2F8930E94A4B6028ED4C6024EDC6
:102639001DAE0470011C4E601AAB2EAA2FA93012D0
:102649000373FF12001E74012530F530E4352FF5B0
:042659002F80DC22D0
:0A2856008B2E8A2F89308C318D32D1
:10286000E4FFFDFCC3ED9532EC9531500E782E124D
:0B287000176E2FFF0DBD00010C80E96A
:01287B00223A
:061F75008C2C8D2DAB0742
:101F7B00E4FF122A7AAD07AC069000287455F0A343
:101F8B0074AAF0A37402F0AF04A3EFF0AF05EFA3B4
:101F9B00F0A3EBF0E52CA3F0E52DA3F00DBD0001B4
:101FAB000CAF05AE04122A717409252DF52DE435FD
:101FBB002CF52C7B017A007928E52D24FFFDE52CEF
:101FCB0034FFFC1228567427252DF5827400352C0E
:101FDB00F583EFF07B017A007928AD2DAC2C02262E
:011FEB0029CC
:0228C500AE075C
:1028C700122A99E4FDEDC39F501175F002ED9000B7
:0D28D700DF1206DFE06E60030D80EAAF0542
:0128E40022D1
:0E2A3300E55D455C70031229EEAE5CAF5D22DE
:1025BF00E4FFD3E55D9400E55C9400402890007043
:1025CF00E5639582E5629583400D7A0079497561DF
:1025DF0001756200756349786112176EFFE55D152D
:0525EF005D7002155CA7
:0125F40022C4
:0B0E04001217498C368B3A8A3B893C60
:100E0F00783D7C007D007BFF7A2779A67E007F0CE2
:100E1F0012034DE4F549F54AF54BF54CFFC3121794
:100E2F00896008E53C453B453A70077B007A0079BD
:100E3F0000227B3C1217DE12059DAE021217639043
:100E4F000006EE8FF01204CA1217388C36E47B3C82
:100E5F00FAF9F8121760900005EF1203FE12173817
:100E6F008C361218048E498F4AE54A7802C333CE66
:100E7F0033CED8F924B2FFEE34071217658FF01274
:100E8F0004AB1217E2121804AC00AD01AE02AF03AF
:100E9F001217498C36754B22754C38121765120490
:100EAF00485403700B7418254CF54CE4354BF54B37
:100EBF00AE4BAF4CE4FCFDAB39AA38A937A836C30B
:100ECF001206534023121765E475F001120473AE36
:100EDF004BAF4CAB07AA061217F89400FDE53694FA
:100EEF0000121749F53680AD7B181217DE12176006
:100EFF00900004EF1203FE7B1812173A8C36EF2482
:100F0F0001FFE43EFEE43DFDE43C121749F53612C5
:100F1F00176512044854037039D3121750401AE55D
:100F2F003924FFFFE53834FFFEE53734FFFDE536A2
:100F3F0034FF121749F5368019E4C3121750701297
:100F4F00121765900002041203FE900003741D0235
:100F5F000FB2121765900002E41203FE121765120A
:100F6F00180EFF3395E0D312178940271217651219
:100F7F00180EFB3395E0FAF9F81217F899FDE536DC
:100F8F0098121749F5361217659000027401120373
:100F9F00B980C912176590000274011203B990004D
:060FAF0003E5391203FE08
:010FB5002219
:101E7500E4F5197A277985121EDD7A2779851227E7
:101E8500248F197A27798C121EDD7A27798C1227EF
:101E9500248F197A277995121EED7A2779951227BD
:101EA500248F197A27799D121EED7A27799D12279D
:101EB500248F197BFF7A2779A312239B8E1F8F20EE
:101EC500AF197E007BFF7A2779A31227248F19EF9C
:081ED500FD7C007F01021F7576
:101EDD007BFF12239B8E1F8F20AF197E007BFF226D
:101EED007BFF12239B8E1F8F20AF197E007BFF225D
:0A2A4C008F19E4FDFC7F02021F75E4
:0100220022BB
:10227200120373FC90000112038CF51990000212F4
:10228200038C751B00F51A90000312038C251BF5B5
:102292001BE4351AF51AAF041228C575F002EF9047
:1022A20000E01206DFE0651960037F0022AF04E957
:0F22B2002404F9E43AFA851A20851B211219C673
:0122C10022FA
:022AA5008F1987
:012AA700220C
:10290300E4F519F51A12249BAD07AF1AAE19122973
:0E291300B58E198F1AAD1AAC197F0B021F7505
:10249B007BFF7A2779858B1B8A1C891DE4F51E121D
:1024AB000373FF12298AEFC4333354C0F51E900017
:1024BB00021217BFFF12298AEFC454F0421E90007C
:0D24CB00041217BFFF12298AEF421EAF1E38
:0124D80022E1
:10298A00EFC394305008EF943940037FFF22EF756C
:06299A00F03084AFF022D2
:021B48008D19F5
:101B4A00E4F51DF51CF51BF51AF521F520F51FF531
:101B5A001EF5328B338A348935E519C3940850034C
:101B6A00021C037B007A007922753A00753B08E46F
:101B7A00FD1225F5121819753A00753B081225F55C
:101B8A00E4F53212176C121797F51AFC7808120648
:101B9A00771217A48C1A0532E532B403E612176CD1
:101BAA00121797F51AE4F53212176C1217ABF51ED5
:101BBA00FC78081206771217B88C1E0532E532B483
:101BCA0003E612176C1217ABF51EAF1DAE1CAD1B48
:101BDA00AC1A121819120E04AF21AE20AD1FAC1E9A
:101BEA007B007A007922120E041218197F01122A38
:091BFA00687A0079221F122A68A2
:011C030022BE
:1027DE00900000EFF07003F56422900000E0B40169
:1027EE0009E4F564121A8A021D5A900000E0B4033F
:0927FE000475640122E4F5642273
:0413F3008E118F12B6
:1013F700E4F513F51474062512F58274003511F51A
:1014070083E0FD74072512F58274003511F583E03A
:10141700751400F51374082512F58274003511F55B
:1014270083E02514F514E43513F51374042512F538
:101437008274003511F583E07F00FE74052512F5EF
:101447008274003511F583E02FFFE43EFE122A7106
:10145700ED1206FB148F01149202149D0314A004CD
:1014670015020515020615080B150B0C148320151C
:0C14770010241489B0148CB1000015186A
:061483001217780227DEBB
:09148900021CBF022A8B021E7531
:0B1492001217781227DEAF15022A4C5B
:03149D0002002228
:1014A000E4F515F517F518F515AF157E00C3EF95A2
:1014B00014EE95135062E5122FFDEE3511FC740BFE
:1014C0002DF58274003CF583E0751800F517740C57
:1014D0002DF58274003CF583E02518F518EE3517DC
:1014E000F5171217EBE92FF9EE3AFA1222728F165E
:1014F000E516B40103121D5AE51824042515F51547
:0215000080A7C2
:06150200121778022AA571
:10150800022903AF1202163D1217EBAD14121B4845
:0115180022B0
:02163D008F1903
:10163F00E4FFF51AF51BF51CF51DFB7A00794DF546
:10164F003A753B0FFD1225F5E5192F2409F582E4B4
:10165F003400F583E0FE744D2FF8A6060FBF08E89F
:10166F0074112519F582E43400F583E0F5557413F0
:10167F002519F582E43400F583E07E007810C3333A
:10168F00CE33CED8F9FDAC0674122519F582E434A9
:10169F0000F583E07E007818C333CE33CED8F9FF40
:1016AF00EE4CFCEF4DFD74142519F582E43400F572
:1016BF0083E04CFEEDFF74152519F582E43400F537
:1016CF0083E0FDEEF556EF4DF55774172519F582AA
:1016DF00E43400F583E07E007810C333CE33CED8E8
:1016EF00F9FDAC0674162519F582E43400F583E094
:1016FF007E007818C333CE33CED8F9FFEE4CFCEF13
:10170F004DFD74182519F582E43400F583E04CFE85
:10171F00EDFF74192519F582E43400F583E0FDEE31
:09172F00F55AEF4DF55B0218209C
:10002600020268E86480F8E933E83360110460F09E
:10003600ED33EC337009E8FCE9FDEAFEEBFF220440
:1000460060DED3EB9FEA9EE99DE8C2E78CF0C2F73B
:1000560095F0400CE8CCF8E9CDF9EACEFAEBCFFB07
:1000660012023385D0F05804700320D5B3E804702B
:10007600075002B2D502027292D5EC0460F7E4CCC6
:10008600C0E0C398F8603B94186008400DD0E0FBD0
:1000960002024AE4FBFAC9FC8028E830E406E4C917
:1000A600FBE4CAFCE830E305E4C9CACBFCE8540724
:1000B6006010F8C3E913F9EA13FAEB13FBEC13FC2F
:1000C600D8F130F52FC3E49CFCEF9BFFEE9AFEEDD2
:1000D60099FDD0E0FBEF4E4D4C701222DB0302027D
:1000E6006FEC2CFCEF33FFEE33FEED33FDED30E726
:1000F600EB02024AEF2BFFEE3AFEED39FDD0E0FBB4
:1001060050130BBB0003020272ED13FDEE13FEEF5C
:0801160013FFEC13FC02024A86
:10011E00020272EC5D046005E85904700302026885
:10012E00120233580460F6EC4860F2EC7004FDFEE7
:10013E00FF22C860DB2481C85009C39860025006B4
:10014E0002026F9850CAF582E9294B4A7005AB82BC
:10015E0002025E75F0007C1A7880C3EF9BEE9AED7A
:10016E0099400DC3EF9BFFEE9AFEED99FDE842F02C
:10017E00DC23ACF0D0E0FFD0E0FED0E0FDAB82207F
:10018E00E7101BEB60BAEC2CFCEF33FFEE33FEED09
:10019E0033FD02024AE803F830E705C0F075F000BF
:1001AE00EF2FFFEE33FEED33FD40B830E7C280AAED
:1001BE0075F020800E75F010800575F0087D007EBC
:1001CE00007F003392D530D50312062FEC3340104A
:1001DE00EF33FFEE33FEED33FDEC33FCD5F0ED22C5
:0E01EE00E5F0247EA2D513CC92E7CDCEFF2201
:1001FC00EDD2E7CD33EC3392D524814006E4FFFEFB
:10020C00FDFC22FCE4CFCECDCC24E0501174FF8059
:10021C00EDC3CC13CCCD13CDCE13CECF13CF0470F6
:07022C00F030D5DE02062FC1
:10023300E9D2E7C933E833F892D5EDD2E7CD33EC11
:0702430033FC5002B2D5228A
:10024A00EC30E7100FBF000C0EBE00080DBD000415
:10025A000BEB6014A2D5EB13FCED92E7FD2274FFC1
:10026A00FCFDFEFF22E480F8A2D574FF13FC7D801A
:03027A00E480EF2E
:101DF500020BFCE493A3F8E493A34003F68001F2FD
:101E050008DFF48029E493A3F85407240CC8C333EE
:101E1500C4540F4420C8834004F456800146F6DFBD
:101E2500E4800B0102040810204080901519E47E1F
:101E3500019360BCA3FF543F30E509541FFEE493B2
:101E4500A360010ECF54C025E060A840B8E493A379
:101E5500FAE493A3F8E493A3C8C582C8CAC583CAA4
:101E6500F0A3C8C582C8CAC583CADFE9DEE780BE5C
:01163C0000AD
:10027D00E709F608DFFA8046E709F208DFFA803E63
:10028D0088828C83E709F0A3DFFA8032E309F60850
:10029D00DFFA8078E309F208DFFA807088828C83B8
:1002AD00E309F0A3DFFA806489828A83E0A3F6086C
:1002BD00DFFA805889828A83E0A3F208DFFA804C46
:1002CD0080D280FA80C680D4806980F2803380101D
:1002DD0080A680EA809A80A880DA80E280CA803386
:1002ED0089828A83ECFAE493A3C8C582C8CCC583FE
:1002FD00CCF0A3C8C582C8CCC583CCDFE9DEE780CE
:10030D000D89828A83E493A3F608DFF9ECFAA9F04C
:10031D00EDFB2289828A83ECFAE0A3C8C582C8CCA2
:10032D00C583CCF0A3C8C582C8CCC583CCDFEADEBB
:10033D00E880DB89828A83E493A3F208DFF980CC1D
:10034D0088F0EF60010E4E60C388F0ED2402B40416
:10035D000050B9F582EB2402B4040050AF232345BD
:06036D0082239002CD7313
:10037300BB010689828A83E0225002E722BBFE0288
:09038300E32289828A83E49322BB
:10038C00BB010CE58229F582E5833AF583E0225026
:10039C0006E92582F8E622BBFE06E92582F8E22270
:0D03AC00E58229F582E5833AF583E493228A
:1003B900BB010FF8E58229F582E5833AF583E02848
:1003C900F0225009C58229F8E58226F622BBFE09EA
:1003D900C58229F8E22582F222F8EA2583F583E924
:0303E90093282234
:1003EC00BB010689828A83F0225002F722BBFE01F0
:0203FC00F322EA
:1003FE00F8BB010DE58229F582E5833AF583E8F035
:10040E00225006E92582C8F622BBFE05E92582C8E0
:02041E00F222C8
:10042000EF8DF0A4A8F0CF8CF0A428CE8DF0A42EF0
:02043000FE22AA
:10043200C5F0F8A3E028F0C5F0F8E5821582700255
:060442001583E038F022F2
:10044800BB010A89828A83E0F5F0A3E0225006877F
:10045800F009E71922BBFE07E3F5F009E319228941
:0B046800828A83E493F5F07401932274
:10047300BB010789828A83020432500B09C5F02726
:10048300F7C5F01937F722BBFE0D09F8E325F0F3A2
:10049300C5F019E338F322F889828A83740193251E
:0804A300F0C5F0F8E4933822E3
:1004AB00BB010A89828A83F0E5F0A3F0225006F79C
:0F04BB0009A7F01922BBFE06F3E5F009F3192299
:1004CA00F8BB0111E58229F582E5833AF583E8F064
:1004DA00E5F0A3F0225009E92582C8F608A6F02221
:0D04EA00BBFE09E92582C8F2E5F008F22208
:0D04F700EF2BFFEE3AFEED39FDEC38FC2254
:0E050400C3EF9BFFEE9AFEED99FDEC98FC22F2
:10051200E88FF0A4CC8BF0A42CFCE98EF0A42CFC88
:100522008AF0EDA42CFCEA8EF0A4CDA8F08BF0A406
:100532002DCC3825F0FDE98FF0A42CCD35F0FCEB65
:100542008EF0A4FEA9F0EB8FF0A4CFC5F02ECD392A
:0F055200FEE43CFCEAA42DCE35F0FDE43CFC2297
:1005610075F008758200EF2FFFEE33FECD33CDCC51
:1005710033CCC58233C5829BED9AEC99E5829840D4
:100581000CF582EE9BFEED9AFDEC99FC0FD5F0D6B1
:10059100E4CEFBE4CDFAE4CCF9A88222B800C1B9DB
:1005A1000059BA002DEC8BF084CFCECDFCE5F0CB19
:1005B100F97818EF2FFFEE33FEED33FDEC33FCEB52
:1005C10033FB10D703994004EB99FB0FD8E5E4F90D
:1005D100FA227818EF2FFFEE33FEED33FDEC33FCFA
:1005E100C933C910D7059BE99A4007EC9BFCE99AEE
:1005F100F90FD8E0E4C9FAE4CCFB2275F010EF2F33
:10060100FFEE33FEED33FDCC33CCC833C810D70732
:100611009BEC9AE899400AED9BFDEC9AFCE899F86D
:0E0621000FD5F0DAE4CDFBE4CCFAE4C8F92200
:0E062F00C3E49FFFE49EFEE49DFDE49CFC22DC
:10063D00EB9FF5F0EA9E42F0E99D42F0EC6480C834
:06064D0064809845F022D4
:10065300EB9FF5F0EA9E42F0E99D42F0E89C45F0FD
:010663002274
:10066400E8600FECC313FCED13FDEE13FEEF13FF74
:03067400D8F12298
:10067700E8600FEFC333FFEE33FEED33FDEC33FCE1
:03068700D8F12285
:0C068A00E0FCA3E0FDA3E0FEA3E0FF22E3
:0C069600E0F8A3E0F9A3E0FAA3E0FB22E7
:0C06A200ECF0A3EDF0A3EEF0A3EFF022CB
:1006AE00A8828583F0D083D0821206C51206C512A9
:1006BE0006C51206C5E473E493A3C583C5F0C583CE
:1006CE00C8C582C8F0A3C583C5F0C583C8C582C896
:0106DE0022F9
:0C06DF00A42582F582E5F03583F5832226
:1006EB00FAE6FB0808E6F925F0F618E6CA3AF62210
:1006FB00D083D082F8E4937012740193700DA3A38E
:10070B0093F8740193F5828883E4737402936860A1
:06071B00EFA3A3A380DFA1
:00000001FF
