:03000000021E7C61
:0C1E7C00787FE4F6D8FD758150021EC38B
:1017A400044500000000410007004100440C4100D2
:1017B400454044003B0000000044001700000000C6
:1017C40044001B0000000044001F0000000044000F
:1017D4005B00000000440049000000004400610078
:1017E40000000042002E0001420015000041000CE0
:1017F4000041003900420066000042000D00004133
:1018040000010841004700014900014A0041001459
:1018140000410023014100310A41004800410046D3
:101824000A4100380041003A0042000A0000410029
:101834000300024F0000024D00004100300041004F
:101844002C004100000041002B0041001300420025
:10185400240000420036000041005F004100040003
:1018640042000500004100020041002D0041003209
:1018740000410043000144004C004F000000000000
:0C1884000000000000000042000800000E
:102718008E098F0A8B0B8A0C890DAF051DEF60217E
:10272800050AE50AAE097002050914F5828E83E4EC
:1027380093FF780BE475F001120CC7EF120A77804B
:02274800D92294
:102833008F828E83E4F548F547F546F545AF82AEC2
:1028430083E4FCFDAB48AA47A946A845C3120C2F55
:08285300500543BD1080E62290
:09296E00E0FF7C2F12285B7F645E
:10297700E4FDFCC3ED9FEC9E50070DBD00010C80EC
:01298700F25D
:01298800222C
:10298900758E5190FE917401F0A37410F075BD5FBE
:0729990090FEA07420F02263
:10293400E490FE80F0758901758DFA758BCB43A800
:0E29440008438840758CCB758AEB43881022BF
:10277C0090FF10E054F04408F090FF02E054F04455
:10278C0002F0D28490FFA07420F0A37404F075CCF6
:10279C000675CEFF75CD98759E0275981043A810DE
:0127AC00220A
:1029A00043B40343B4807F147E0012297775B501C8
:0729B00090FE9B744BF02226
:1029520090FF08E054F04408F090FF00E0540F4468
:0C29620030F090FF11E054F04403F0222C
:0B2A46008F99E59830E1FB5398FD22CA
:1024F3008FB543B440E5B430E5FB53B4DF7F647E6E
:1025030000122977E4FBFAF943B440E5B430E5FB64
:1025130053B4DFE5B62BFBE5B73AFA7F147E00121E
:10252300297709B910E275B501A9027F647E00120B
:042533002977AF0154
:012537002281
:101390007B017A00794F7D0C7F007E2F12271890F9
:1013A000004FE0FFE4FCFDFE90000F120C7E900069
:1013B0000F120C667808120C5390000F120C7E90DE
:1013C000000F120C72900050E0FFE4FCFDFE120AC8
:1013D000D390000F120C7E90000F120C66E47BE895
:1013E0007A03F9F8120AEE90000F120C7EE47F30B7
:1013F0007E75FDFC90000F120C72C3120C2F40146E
:101400007F007E097D3D7C0090000F120C72D3128C
:101410000C2F400A90000F120C8A00009C40900094
:1014200051E0900065F070028007900065E0B4FE26
:101430000374FFF0900052E0FF900034E4F0A3EF5B
:10144000F0E0F8E4F0E8900034F0900053E0FF9012
:101450000034E48FF0120ABD900034E0FEA3E0FFF8
:101460004E6009D3EF9408EE94074009900034E4ED
:10147000F0A37405F0900054E0900031F090003A31
:10148000F0900055E0900026F06006E0D394FF4015
:10149000069000267401F0900056E0F4540190008C
:1014A00023F0900057E05401900030F0900058E095
:1014B0005401900014F0900059E05401900013F092
:1014C0007B017A0079087D027F807E2F1227189099
:1014D0000008E0900038F0900009E090002BF07FC9
:1014E000807E2F1228A87F107E271229779000383F
:1014F000E004F0E0FF7D807C2F12285B7F647E009B
:1015000012297790002BE0700302001E90002BE060
:10151000FFB4010E7D817C2F12285B7F647E001258
:0315200029772206
:10002600E549600302069843B440E5B430E5FB5366
:10003600B4DF85B70985B60A900015E475F001129C
:100046000ABD900061120C72AE09AF0AE4FCFD1203
:100056000AD3900061120C7E90004DE0FEA3E0FFF3
:10006600C3950AEE9509500DC3E50A9FF50AE50901
:100076009EF509800BC3EF950AF50AEE9509F50979
:1000860090001B120C72AE09AF0AE4FCFD120AD3F3
:1000960090001B120C7E900015E05401FEA3E04E6A
:1000A6007030D3900067E09400900066E0940040C2
:1000B600099000467464F0FF801590000DE070040E
:1000C600A3E06401700C900031E0FF900046F0124E
:1000D600210AC3900015E0942050030206E343BDB5
:1000E60010E4F0A3F0900047E004F0900049120CF1
:1000F60066900061120C72120AD3900049120C7EAF
:10010600900047E0C394084037E4F0900049120C91
:10011600667810120C40900049120C7E900049122D
:100126000C6690004DEE8FF0120ABD90004DE0C3B4
:1001360013F0A3E013F0900049120C8A00000000AF
:10014600900001E0C394085005E004F0805690004A
:1001560066E07002A3E0704C7F0A1224F39000332D
:10016600EFF0900060E0FE2402FDE433FCEFD39D47
:10017600EC6480F8748098501E900033E02402FDF1
:10018600E433FCEED39DEC6480F8748098500890BC
:100196000060E0900033F0900033E0900060F0E4FF
:1001A600900001F0E4FFFEFDFC900017120C72C3F4
:1001B600120C2F704190001B120C66EF2488FFEE84
:1001C6003413FEE43DFDE43CFC900017120C7E90D7
:1001D600002EE07002A3E0701D7F407E427D0FFC82
:1001E600900017120C72D3120C2F400A90001712AF
:1001F6000C8A000F4240900007E0701690001B1218
:100206000C6690003B120C7E900027120C8A0000B0
:100216000001900027120C6690001B120C72120A45
:10022600D390003B120C72C3120C2F40030204BE83
:10023600900027120C6690003B120C72120AD390A3
:10024600001B120C72C3120C2F40030204BE900056
:1002560007E004F090005B120C6690001B120C7213
:10026600120AD390005B120C7E900007E0FFFBE4BD
:10027600FAF9F890005B120C66120B7990003B12AB
:100286000C7E90003B120C667803120C40900027FF
:10029600120C7EE47F207E4EFDFC900027120C722D
:1002A600C3120C2F500A900027120C8A00004E2011
:1002B600E47F607EEAFDFC900027120C72D3120CDC
:1002C6002F400A900027120C8A0000EA6090003B3B
:1002D600120C66900017120C72D3120C2F404C9021
:1002E600003B120C72900017120C66120AE0900086
:1002F60061120C7E7F807E387D017C009000611249
:100306000C72D3120C2F40089000447406F0802122
:10031600E47F407E9CFDFC900061120C72D3120CAF
:100326002F90004440087409F08006900044740C35
:10033600F0900044E0FF900007E0C39F407B9000F0
:1003460017120C6690003B120C72C3120C2F5069E8
:10035600900045E0941050030204CD900044E0D391
:100366009409500890003B120C66804490003B12A2
:100376000C66EF24A0FFEE340FFEE43DFDE43CFCEA
:10038600900017120C72D3120C2F402A90001712ED
:100396000C6690003B120C72120AD3900017120CD6
:1003A6007E900017120C66E47B02FAF9F8120B79BC
:1003B600900017120C7E0204BE900045E0FF9000EC
:1003C60007E0C39F50030204CD900017120C66EF9E
:1003D60024A0FFEE340FFEE43DFDE43CFC90003B20
:1003E600120C72D3120C2F50030204AE9000171297
:1003F6000C7290003B120C66120AE0900061120C1F
:100406007E7F007E127D7A7C0090003B120C72C3C8
:10041600120C2F40030204AE7F807E1A7D067C00FC
:10042600900061120C72C3120C2F507C900045E0B4
:100436009410400280487FE07E937D047C0090000B
:1004460061120C72D3120C2F40089000457410F004
:10045600801F7FF07E497D027C00900061120C7245
:10046600D3120C2F9000454005740CF080037408DD
:10047600F0900045E0FF900007E0C39F402A9000FF
:1004860017120C6690003B120C72120AD3900017DA
:10049600120C7E900017120C66E47B02FAF9F81231
:1004A6000B79900017120C7E900045E0FF90000734
:1004B600E0C39F4012E48004E4900007F090005BE4
:1004C600120C8A00000000900039E0D394004066C8
:1004D600E014F090003F120C66EF2470FFEE341724
:1004E600FEE43DFDE43CFC900017120C72D3120CA6
:1004F6002F500302064690003F120C66EF2498FF29
:10050600EE343AFEE43DFDE43CFC90001B120C7216
:10051600C3120C2F400302064690003F120C66EFF2
:100526002470FFEE3417FEE43DFDE43CFC9000171A
:10053600120C7E020646D390002FE0940090002E07
:10054600E09400407B74FFF5F0120ABDD390002FB3
:10055600E0940090002EE0940040657F007E127DBE
:100566007A7C00900017120C72D3120C2F400C905C
:10057600000F120C8A000C3500804590000F120CFB
:1005860066900017120C72120AD3900061120C7E4C
:100596007F407E547D897C00900061120C72D312DC
:1005A6000C2F401C900017120C72C374409BFF74F2
:1005B600549AFE748999FDE498FC90000F120C7E03
:1005C60090000F120C66900017120C72120AD3904C
:1005D600001B120C72D3120C2F4065900065E0FFD1
:1005E600900033E0D39F400FD390002FE09400900B
:1005F600002EE094004049900066E07002A3E0708F
:100606000C900017120C6690003F120C7E9000664C
:10061600E4F0A304F090002CF0900024E475F001BF
:10062600120ABD90002D7401F09000457408F0E4A4
:1006360090000DF0A3F0784FF608F6784DF608F620
:1006460090001B120C6690001F120C7E9000611227
:100656000C8A0000000090001B120C8A00000000AB
:10066600900066E0FEA3E0FFD39400EE9400406D98
:10067600900034E0FCA3E0FDD3EF9DEE9C405EE4E9
:10068600900066F0A3F075490190002CF0900000F0
:10069600F02290000DE4F0A304F0E4F54990000A7E
:1006A600F0A3F0900003F07FFAFE12283390004981
:1006B600120C8A00000000E4900047F09000457498
:1006C60040F09000397402F09000017406F0E49056
:0D06D6000007F090005B120C8A000000008D
:0106E30022F4
:1021F200E4F50A900061120C8A00000000E4F5097F
:1022020043B440E5B430E5FB53B4DF900061120CF7
:1022120072AFB6AEB7E4FCFD120AD3900061120CA5
:102222007E0509E509B480D87F907E01122833909B
:102232000061120C66780B120C408F09E509D394E9
:102242000C400CE509948D5006E50A9414500A05D9
:092252000AE50AD39450409B22D6
:01225B002260
:10225C00900061120C8A00000000E4F509E4F50C12
:10226C00F50D43B440E5B430E5FB53B4DF85B70A54
:10227C0085B60B900061120C72AE0AAF0BE4FCFD3C
:10228C00120AD3900061120C7E050DE50D7002054B
:10229C000CB400CEE50CB420C943BD100509E5090A
:1022AC00B408BA900061120C667810120C409000C1
:0622BC004DEEF0A3EFF06F
:0122C20022F9
:10210A00EF700690005F048014BF640CE490005FD7
:10211A00F090003204F0800B90005F7402F0E490BB
:10212A000032F0BF0104E4FE80397E007C007DFFAE
:10213A00120AABAC06AD07E4120881E4FBFA79C8CF
:10214A0078421207DF8F0E8E0D8D0C8C0BE4FFFE8A
:10215A00FD7C3FAB0EAA0DA90CA80B1206EB1208C8
:10216A00BAAE0790FF9C7410F075DEFF8EDF75DD46
:03217A00947F004F
:01217D00223F
:100F8E0012000312298912295212293412277C12B7
:100F9E0029A075BBAA90FEA774FFF053BBF7D2AF82
:100FAE007FC87E001228337F0A1224F3900033EF9D
:100FBE00F0900060F0C2AF1213907F6412210AD23B
:100FCE00AF1221F2900031E0FF900046F012210A9C
:100FDE007F2C7E0112283312225C900061120C8A43
:100FEE0000000000900038E0D394034007E4F012B4
:100FFE00001E8003121D21E544600302108990003B
:10100E0004E0FF90005FE0FD6F600D7F761226E337
:10101E0090005FE0900004F0900043E0FF900032FB
:10102E00E0FD6F600D7F771226E3900032E09000B6
:10103E0043F0900002E06401704190002DE0B40195
:10104E003AE4900002F090002DF0900024E0FEA310
:10105E00E0FF900036E06E7003A3E06F601DE48F3A
:10106E002F8E2EF52DF52C7F74121F94900024E0F8
:10107E00FFA3E0900036CFF0A3EFF043BD10E5499B
:10108E00700B900016E0541F70031211DB900023BA
:10109E00E064016003021185E54A703DF549754A29
:1010AE0001900031E0900046F0900049120C8A0049
:1010BE00000000E4900047F09000457440F090006E
:1010CE00397402F09000017406F0E4900007F0907D
:1010DE00005B120C8A00000000120026D390000E56
:1010EE00E0940090000DE094004036900003E0B4D0
:1010FE00012FE4F090000D75F001120ABD9000264C
:10110E00E0FFC390000EE09F90000DE094004011B0
:10111E00E4F0A3F0900013E064016005E4FF1221F7
:10112E000AD3900067E09400900066E094004012AD
:10113E00784EE6640118467009F608F675F001124D
:10114E000ABD900030E06401600302100590002C8F
:10115E00E0FF900000E06F7003021005EFF09000CA
:10116E0066E4F0A304F0E4F508E508C39408400330
:10117E00021005050880F2E4F54A900014E07007AD
:10118E00FF12210A02100590003AE0FF12210AE434
:10119E00F549900031E0900046F0900049120C8A1B
:1011AE0000000000E4900047F09000457440F0907D
:1011BE0000397402F09000017406F0E4900007F01C
:0D11CE0090005B120C8A000000000210056A
:03001B00021C5E66
:101C5E00C0E0C0F0C083C082C0D075D000C000C04C
:101C6E0001C002C003C004C005C006C007AF48AE25
:101C7E0047AD46AC45EF2401FFE43EFEE43DFDE4F6
:101C8E003C8F488E478D46F54590000AE475F0016D
:101C9E00120ABD90000AE0FEA3E0FFE4FCFD7B60AB
:101CAE007AEAF9F8D3120C19500C90000AE4F0A35A
:101CBE00F090000304F0785006E618700106C37821
:101CCE0050E694E818E69403400C76000876007807
:101CDE004D7600087601900005E475F001120ABDFC
:101CEE00C3900006E094E8900005E094034009E4F8
:101CFE00F0A3F090000204F0D007D006D005D00477
:101D0E00D003D002D001D000D0D0D082D083D0F07A
:031D1E00D0E032E0
:030023000224664E
:10246600C0E0C0F0C083C082C0D075D000C000C03C
:0D24760001C002C003C004C005C006C007BD
:0F248300E59830E00AAF991226335398FED2AF96
:10249200D007D006D005D004D003D002D001D0009E
:0B24A200D0D0D082D083D0F0D0E03248
:1028A80053BBF7C280E5BB20E3F6D280C2AF75FD0B
:1028B800F075FC0F8EFA8FF975FDD275FC2D75FD3C
:0528C800E175FC1E2279
:10285B0053BBF7C280E5BB20E3F6D280C2AF8FFB40
:10286B0075FDF075FC0F8CFA8DF975FDB475FC4B8D
:07287B0075FDE175FC1E2252
:101D21007F007E2F1228A87F107E27122977E47B5F
:101D3100E87A03F9F890000F120C66120B79780813
:101D4100120C407D007C2F12285B7F647E001229DB
:101D510077E47BE87A03F9F890000F120C66120B16
:101D6100797D017C2F12285B7F647E001229779098
:101D710000657D0212296E9000347D0312296EA345
:101D8100E0FF7D04122970900031E0FF7D051229EA
:101D910070900026E0FF7D06122970900023E0F488
:101DA100FF7D07122970900030E0FF7D0812297035
:101DB100900014E0FF7D09122970900013E0FF7D6F
:101DC1000A1229707F807E2F1228A87F107E271289
:101DD10029777D807C2FE4FF12285B0D0F12285B91
:021DE100D2AF7F
:011DE30022DD
:04189000024B000007
:062374008B1A8A1B891C74
:10237A00E4F520F51FF51EF51DE94A4B7005FFFE31
:10238A00FDFC22E4F520F51FF51EF51D781AE4750B
:10239A00F001120CC7120A31601AE5202401FFE489
:1023AA00351FFEE4351EFDE4351D8F208E1F8D1E60
:0C23BA00F51D80D8AF20AE1FAD1EAC1D7D
:0123C60022F4
:0626AB008B268A27892816
:1026B1008B2C8A2D892EE94A4B7004FBFAF922E50D
:1026C1002B152BAE2A7002152A4E600F782CE4755B
:1026D100F001120CC7ED120A7780E4AB26AA27A9F4
:0126E10028D0
:0126E20022D5
:061AC8008B218A22892314
:101ACE008B298A2A892B85242C85252D85262EE97E
:101ADE004A4B6008E5264525452470077B007A00B1
:101AEE00790022D3852D83852E82E52B9582E52ADA
:101AFE0095834019E52E2528F9E52D3527FA8A8399
:101B0E008982D3E52B9582E52A95834038E4F52F1B
:101B1E00F530C3E5309528E52F95275067AB2CAAF5
:101B2E002DA92E853082852F83120A4AAB29AA2A27
:101B3E00A92B853082852F83120A890530E53070F6
:101B4E00D1052F80CD85272F852830D3E530940001
:101B5E00E52F9400402EAB2CAA2DA92EE53024FFA4
:101B6E00FFE52F34FFFE8F82F583120A4AAB29AAB6
:101B7E002AA92B8F828E83120A89E530153070CBFD
:0A1B8E00152F80C7AB21AA22A9235E
:011B9800222A
:101DE400E4F530F52FF52EF52D120A31FFE48F308E
:101DF400F52FF52EF52DAE2FAD2EAC2D7808120C47
:101E0400538F308E2F8D2E8C2D900001120A4AFF95
:101E1400E5304FFFE52FFEE52EFDE52D8F308E2FAB
:101E24008D2EF52DFC7808120C538F308E2F8D2EAD
:101E34008C2D900002120A4AFFE5304FFFE52FFE79
:101E4400E52EFDE52D8F308E2F8D2EF52DFC780897
:101E5400120C538F308E2F8D2E8C2D900003120A6E
:101E64004AFFE5304FFFE52FFEE52EFDE52D8F30CF
:071E74008E2F8D2EF52DFCD1
:011E7B002244
:102A0500E4FDFCFFFE1229CCAC06AD077F030220D6
:012A15001DA3
:1029F300E4FDFCFFFE0D1229CCAC06AD077F0302FC
:022A0300201D94
:042538008D28AB0738
:10253C00E4FCFFFEAD031229CCAC067D011229CCC4
:10254C00AC06E4FD1229CCAC067D011229CCAC06FC
:10255C00AD07E5287003FD8006AF05AE047D0112C2
:0D256C0029CCAC06AD077F0612201D7F01B3
:01257900223F
:021F9400AB0799
:101F9600E4FCFFFEAD031229CCAC067D021229CC6F
:101FA600AC06E4FD1229CCAC067D041229CCC00691
:101FB600C007AF2FAE2EAD2DAC2C7818120C40AD4D
:101FC60007D007D0061229CCC006C007AF2FAE2E09
:101FD600AD2DAC2C7810120C40AD07D007D00612F0
:101FE60029CCC006C007AF2FAE2EAD2DAC2C78087D
:101FF600120C40AD07D007D0061229CCAC06C0079C
:10200600E52FFFE4AD07D0071229CCAC06AD077F5C
:062016000612201D7F01EF
:01201C0022A1
:0426E3008D28AB078C
:1026E700E4FCFFFEAD031229CCAC067D041229CC15
:1026F700AC06E4FD1229CCAC067D011229CCAC0650
:10270700AD281229CCAC06AD077F0612201D7F012C
:01271700229F
:082A5B008C288D29120A31FFBD
:012A63002250
:082A64008C288D29120A31FFB4
:012A6C002247
:072A7F008C2B8D2C121DE4CD
:012A8600222D
:10000300753E01753F007540AB7541017542007542
:0800130043ABE4F53CF53D228E
:10263300C3E53D9421E53C94005030C39000CCE5C4
:10264300409582E53F9583400D7A0079AB753E0155
:10265300753F007540AB783EE475F001120CC7EF8F
:0C266300120A77053DE53D7002053C229F
:1011DB00E4F509F50AF50BF50CF50DF50EF50F75A4
:1011EB001009C3E54C9421E54B94005027122A3883
:1011FB00D3EF9400EE9400401B1225F6054CE54C02
:10120B00AC4B7002054B142469F58274003CF583DA
:10121B00EFF080CEC3E54C9409E54B9400500302EC
:10122B00138FC3E54C950AFDE54B9509FCC3ED9473
:10123B0009EC940050030213327469250AF5827489
:10124B00003509F583E06455600A050AE50A70D29A
:10125B00050980CE746A250AF58274003509F58379
:10126B00E064AA600A050AE50A70B7050980B37441
:10127B006B250AF58274003509F583E0750D00F5D1
:10128B000E6402450D60047402803C746F250AF5F0
:10129B008274003509F583E0750C00F50B7470252D
:1012AB000AF58274003509F583E02409FFE433FE67
:1012BB00EF250CF50CEE350BF50BD3E50C942AE56D
:1012CB000B940040097403250AF50AE48052C3ED20
:1012DB00950CEC950B40507469250AF9740035098F
:1012EB00FA7B01E50C24FFFDE50B34FFFC1227AD67
:1012FB00E50A250CFDE509350BFC74682DF58274A8
:10130B00003CF583E06F60097403250AF50AE4805D
:10131B000FAF0AAE09121523E50C250AF50AE50BEA
:10132B003509F50902122DC3E54C950AF54CE54B31
:10133B009509F54BD3E54C9400E54B94004045E5FE
:10134B000A45097020E54C9421E54B9400401605A5
:10135B000AE50A70020509E54C950AF54CE54B9533
:10136B0009F54B80007469250AF974003509752459
:10137B0001F5258926854B27854C287B017A007939
:04138B0069121AC801
:01138F00223B
:101894004100D2004400CE000000005E00D30101EC
:1018A400030265046602670168026902710172013C
:0C18B40073017402750176047704960439
:03001E000229F3C1
:032A9600022A46CB
:1019D7007D017F01122538900014E0FD7F711225EB
:1019E70038900031E0FFE48F2FF52EF52DF52C7F91
:1019F70003121F94900065E0FFB4FF05E4F519801A
:101A07001EEFB4C8057519028015EFB428057519BE
:101A170003800CEFB414057519048003751905AD1F
:101A2700197F651226E3900034E0FEA3E0FFE48F00
:101A37002F8E2EF52DF52C7F66121F94900023E034
:101A4700FD7F67122538900026E0FFE48F2FF52EE3
:101A5700F52DF52C7F68121F94E47B107A27F9F88F
:101A670090000F120C66120B79C374329FFFE48F3C
:101A77002FF52EF52DF52C7F69121F94900030E07D
:101A8700FD7F72122538900013E0FD7F7312253811
:101A9700900024E0FEA3E0FFE48F2F8E2EF52DF5B6
:101AA7002C7F74121F9490005FE0FD7F761226E36F
:101AB700900032E0FD7F771226E37D067F960226AF
:011AC700E33B
:1029B700122A5B8F277D017F01122538BF01037F14
:0429C70001227F006A
:0129CB0022E9
:1023C700122A7F8F2A8E298D288C27900031E0FFD3
:1023D700E4FCFDFEAB2AAA29A928A827C3120C2FC3
:1023E7006006E4FF0FBF08FCAF2A900031EFF090C2
:1023F700003AF0121D21900031E0FFE48F2FF52EF7
:10240700F52DF52C7F03121F94BF01037F01227F57
:0124170000C4
:0124180022A1
:10209400122A649000D2E0B5070FBF0512900065C4
:1020A400E0FE900033E06E8006E4FE0EBE08FCEF16
:1020B40014601014601514601A14601F1460242432
:1020C40005702890006574FFF0802090006574C846
:1020D400F080189000657428F080109000657414E6
:1020E400F08008900033E0900065F09000D2EFF0AB
:1020F400121D219000D2E0FD7F651226E3BF01038B
:052104007F01227F00B5
:0121090022B3
:10231E00122A7F8F2A8E298D288C27900034E0FE7A
:10232E00A3E0FFE4FCFDAB2AAA29A928A827C31223
:10233E000C2F6006E4FF0FBF08FC900034E529F077
:10234E00A3E52AF0121D21900034E0FEA3E0FFE485
:10235E008F2F8E2EF52DF52C7F66121F94BF010345
:05236E007F01227F0049
:012373002247
:10274A00122A5B900023E06F6006E4FE0EBE08FCCE
:10275A00EF9000237003F080037401F0121D2190A2
:10276A000023E0FD7F67122538BF01037F01227F26
:01277A00005E
:01277B00223B
:10241900122A7F8F2A8E298D288C27900026E0FF8B
:10242900E4FCFDFEAB2AAA29A928A827C3120C2F70
:102439006006E4FF0FBF08FC900026E52AF0121D94
:1024490021900026E0FFE48F2FF52EF52DF52C7F46
:0C24590068121F94BF01037F01227F0066
:012465002254
:10217E00122A7F8F2A8E298D288C279000CE120C42
:10218E0066AB2AAA29A928A827C3120C2F6006E439
:10219E00FF0FBF08FCAF2AAE29AD28AC279000CEAA
:1021AE00120C7EC37432952AFFE49529FEE495281D
:1021BE00FDE49527FCE47B107A27F9F8120AEE90DD
:1021CE00000F120C7E121D219000CE120C668F2F66
:1021DE008E2E8D2D8C2C7F69121F94BF01037F01D3
:0321EE00227F004D
:0121F10022CB
:10257A00122A5B900014E06F6006E4FE0EBE08FCAF
:10258A00EF7006900014F08013900023E0B4010667
:10259A0090002C7401F09000147401F0900014E083
:0E25AA00FD7F71122538BF01037F01227F00E3
:0125B8002200
:10280700122A5BAD07900030E06D6006E4FF0FBF52
:1028170008FCED9000307003F080037401F07F72C4
:0B282700122538BF01037F01227F0053
:012832002283
:1028CD00122A5B900013E06F6006E4FE0EBE08FC5A
:1028DD00900013EFF0FD7F73122538BF01037F01C8
:0328ED00227F0047
:0128F00022C5
:10288200122A5BEF601DE4900024F0A3F090002474
:10289200E0FEA3E0FFE48F2F8E2EF52DF52C7F7442
:0528A200121F947F01EC
:0128A700220E
:1024AD00122A648F27E5271460151460171460191C
:1024BD0014601B14601D2405701C122A9C801712B9
:1024CD0029E08012122A9F800D122AA28008120084
:1024DD00218003120022AD277F961226E3BF010350
:0524ED007F01227F00C9
:0124F20022C7
:022A8F008F2690
:042A91008C278D28D9
:012A9500221E
:0618C5008B218A22892319
:1018CB00E4F526EF120CD718FA0119260319366521
:1018DB001946661955671964681973691982711964
:1018EB00917219A07319AF7519BE96000019CFAB81
:1018FB0021AA22A923AD25AC241229B78F26E526D0
:10190B00640160030219D4900048E004F0E0C39432
:10191B000550030219D4E4F00219D4AB21AA22A971
:10192B0023AD25AC241223C70219CBAB21AA22A9C4
:10193B0023AD25AC241220940219CBAB21AA22A9EA
:10194B0023AD25AC2412231E8076AB21AA22A9231A
:10195B00AD25AC2412274A8067AB21AA22A923AD5F
:10196B0025AC241224198058AB21AA22A923AD251A
:10197B00AC2412217E8049AB21AA22A923AD25AC30
:10198B002412257A803AAB21AA22A923AD25AC24B7
:10199B00122807802BAB21AA22A923AD25AC241238
:1019AB0028CD801CAB21AA22A923AD25AC2412285B
:1019BB0082800DAB21AA22A923AD25AC241224AD24
:0B19CB008F268000E4900048F0AF265B
:0119D60022EE
:032A99007F0F228A
:032A9C00022A16F5
:1029E0007F807E2E1228A87D807C2E7F0112285B9E
:0329F000022A2791
:032A9F000229F316
:032AA200022A0500
:0100210022BC
:0100220022BB
:102A1600C2AF75FDF075FC0F75FD8775FC78D2AFFA
:012A2600228D
:102A2700C2AF75FDF075FC0F75FD7875FC87D2AFE9
:012A3700227C
:1027DA007B2270223A2200726C376677713332009C
:1027EA00222C2276223A2200312E302E3100227DEE
:0D27FA00001F1C1F1E1F1E1F1F1E1F1E1F65
:0418C000410068007B
:101B9900E4FFFE90004DE0C4F854F0C8A3E0C4543B
:101BA9000F48FD1229CC7E00900033E0FD1229CCAC
:101BB9007E00C006C007900017120C667810120C40
:101BC90040AD07D007D0061229CC7E00C006C00759
:101BD900900017120C667808120C40AD07D007D098
:101BE900061229CC7E00C006C00790001F120C66A1
:101BF9007810120C40AD07D007D0061229CC7E0010
:101C0900C006C00790001F120C667808120C40AD80
:101C190007D007D0061229CC7E00C006C007900065
:101C29000F120C667810120C40AD07D007D00612BF
:101C390029CC7E00C006C00790000F120C667808F8
:101C4900120C40AD07D007D0061229CCEFFD7C005D
:051C59007FB002201D18
:082A8700E4FDFC7FB102201DFB
:092A6D009000CCEEF0A3EFF02282
:092A76009000CCE0FEA3E0FF2279
:1029CC0074922FF974003EFA7B01ED120A770FBF57
:0329DC0000010EE9
:0129DF0022D5
:06266F00AF197E007BFFA5
:0A2675008E1A8F1B8B1C8A1D891E14
:10267F0074922FF974003EFA7B01851C24851D2569
:10268F00851E26851F27852028121AC8E520251BA1
:0B269F00F51BE51F351AF51AFEAF1BF6
:0126AA00220D
:1025B9008B328A3389348C358D36E94A4B602DE567
:1025C9003645356027E5361536AE35700215354E78
:1025D900601AAB32AA33A934120A31FF122A96744F
:0D25E900012534F534E43533F53380D92273
:0A27AD008B328A3389348C358D3667
:1027B700E4FFFDFCC3ED9536EC953550157832E412
:1027C70075F001120CC7120A312FFF0DBD00010C65
:0227D70080E29E
:0127D90022DD
:06201D008C308D31AB0791
:10202300E4FF122A76AD07AC0690008A7455F0A33C
:1020330074AAF0A37402F0AF04A3EFF0AF05EFA30B
:10204300F0A3EBF0E530A3F0E531A3F00DBD000103
:102053000CAF05AE04122A6D74092531F531E43550
:1020630030F5307B017A00798AE53124FFFDE530D4
:1020730034FFFC1227AD74892531F58274003530A5
:10208300F583EFF07B017A00798AAD31AC3002251C
:01209300B993
:022913008F2013
:10291500122A99E4FEEEC39F501275F002EE900064
:0E292500D3120CBBE0652060030E80E9AF0604
:012933002281
:0E2A3800E53D453C7003120003AE3CAF3D226D
:1025F600E4FFD3E53D9400E53C9400402F9000CCE9
:10260600E5439582E5429583400D7A0079AB7541A5
:10261600017542007543AB7841E475F001120CC7B1
:0C262600120A31FFE53D153D7002153C25
:012632002285
:080CFD008F298E288D278C261B
:100D0500782C7C007D007BFF7A2779FB7E007F0CA9
:100D1500120A0BE4F538F539F53AF53BFFFEFDFC13
:100D2500AB29AA28A927A826C3120C2F6006E52BF4
:100D3500452A70077B007A00790022E47B3CFAF9AA
:100D4500F8AF29AE28AD27AC26120B79AF03E52BFA
:100D55002406F582E4352AF583EAF0A3EFF0AF29FE
:100D6500AE28AD27AC26E47B3CFAF9F8120B798F57
:100D7500298E288D278C26E47B3CFAF9F8120B790D
:100D8500E52B2405F582E4352AF583EBF0AF29AE92
:100D950028AD27AC26E47B3CFAF9F8120B798F29AC
:100DA5008E288D278C26E47BF87A88F9F8120B7942
:100DB5008E388F39E5397802C333CE33CED8F9244E
:100DC500B2FFEE3407852B82852A83F0A3EFF0AFBF
:100DD50029AE28AD27AC26E47BF87A88F9F8120B02
:100DE50079AC00AD01AE02AF038F298E288D278C1B
:100DF50026753A22753B38852B82852A83A3E054D4
:100E050003700B7418253BF53BE4353AF53AAE3AD9
:100E1500AF3BE4FCFDAB29AA28A927A826C3120CE1
:100E25002F4031852B82852A83E475F001120ABD96
:100E3500AE3AAF3BAB07AA06C3E5299BFFE5289A67
:100E4500FEE5279400FDE52694008F298E288D2741
:100E5500F526809DE47B18FAF9F8AF29AE28AD2771
:100E6500AC26120B79E52B2404F582E4352AF583AB
:100E7500EBF0AF29AE28AD27AC26E47B18FAF9F8DC
:100E8500120B798F298E288D278C26EF2401FFE4FC
:100E95003EFEE43DFDE43C8F298E288D27F5268511
:100EA5002B82852A83A3E05403705B7F3CFEFDFC07
:100EB500AB29AA28A927A826D3120C2F401DE5295E
:100EC50024FFFFE52834FFFEE52734FFFDE5263442
:100ED500FF8F298E288D27F526802BE47F3CFEFD8C
:100EE500FCAB29AA28A927A826C3120C2F701785A1
:100EF5002B82852A83A3A304F0852B82852A83A3CD
:100F0500A3A3741D807B852B82852A83A3A3E4F08C
:100F1500852B82852A83A3A3E0242CF8E6FF33954D
:100F2500E0FEFDFCAB29AA28A927A826D3120C2F81
:100F35004039852B82852A83A3A3E0242CF8E6FB80
:100F45003395E0FAF9F8C3E5299BFFE5289AFEE514
:100F55002799FDE526988F298E288D27F526852B3F
:100F650082852A83A3A3E004F080A5852B82852AA8
:100F750083A3A3E004F0852B82852A83A3A3A3E59D
:080F850029F0AA2AA92B7B0127
:010F8D002241
:101F0800E4F5197BFF7A2779DA1223748E1F8F2064
:101F18007A2779DA12266F8F197BFF7A2779E112EF
:101F280023748E1F8F207A2779E112266F8F197BF1
:101F3800FF7A2779EA1223748E1F8F20AF197E004B
:101F48007BFF7A2779EA1226758F197BFF7A277922
:101F5800F21223748E1F8F20AF197E007BFF7A2721
:101F680079F21226758F197BFF7A2779F812237474
:101F78008E1F8F20AF197E007BFF7A2779F81226F3
:0C1F8800758F19EFFD7C007F0102201D09
:0A2A51008F19E4FDFC7F0202201D36
:012AA800220B
:0622C3008B198A1A891B29
:1022C900120A31F51C900001120A4AF51D9000020C
:1022D900120A4A751F00F51E900003120A4A251FAB
:1022E900F51FE4351EF51EAF1C12291375F002EF18
:1022F9009000D4120CBBE0651D60037F0022AB196E
:10230900E51B2404F9E4351AFA851E24851F25AF37
:042319001C1218C5B5
:01231D00229D
:022AA5008F1987
:012AA700220C
:021674008D19CE
:10167600E4F51DF51CF51BF51AF521F520F51FF50A
:101686001EF5228B238A248925E519C39408500365
:101696000217A37B017A0079F1752A00752B08E4FD
:1016A600FD1226AB7B017A0079F9752A00752B08A5
:1016B600E4FD1226ABE4F5227823E475F001120C62
:1016C600C7120A31FFE51D4FFFE51CFEE51BFDE5D0
:1016D6001A8F1D8E1C8D1BF51AFC7808120C538F61
:1016E6001D8E1C8D1B8C1A0522E522B403CA782395
:1016F600E475F001120CC7120A31FFE51D4FFFE534
:101706001CFEE51BFDE51A8F1D8E1C8D1BF51AE4CC
:10171600F5227823E475F001120CC7120A31FFE5B1
:10172600214FFFE520FEE51FFDE51E8F218E208D52
:101736001FF51EFC7808120C538F218E208D1F8CEE
:101746001E0522E522B403CA7823E475F001120CC3
:10175600C7120A31FFE5214FFFE520FEE51FFDE533
:101766001E8F218E208D1FF51EAF1DAE1CAD1BAC2E
:101776001A752A00752BF9120CFDAF21AE20AD1F8C
:10178600AC1E752A00752BF1120CFD7C007DF97FCD
:0D17960001122A8F7C007DF1E4FF122A8FE2
:0117A3002223
:1028F100900068EFF0601A900068E0B40109E4F517
:10290100441219D7021D21900068E0B403037544F5
:022911000122A1
:041523008E118F1284
:10152700E4F513F514746E2512F58274003511F580
:1015370083E0FD746F2512F58274003511F583E0A1
:10154700751400F51374702512F58274003511F5C2
:1015570083E02514F514E43513F513746C2512F59F
:101567008274003511F583E07F00FE746D2512F556
:101577008274003511F583E02FFFE43EFE122A6DD9
:10158700ED120CD715C60115C90215E10315E404C0
:10159700164F05164F0615AD2016622415C0B01557
:0615A700C3B10000167341
:1015AD0074712512F58274003511F583E0F515FF80
:0315BD000228F110
:0915C000021B99022A87021F0890
:1015C90074712512F58274003511F583E0F515FF64
:0815D9001228F1AF15022A519E
:0315E100022AA833
:1015E400E4F515F517F518F515AF157E00C3EF955D
:1015F40014EE95135079E5122FFDEE3511FC74733A
:101604002DF58274003CF583E0751800F5177474A9
:101614002DF58274003CF583E02518F518EE351796
:10162400F51774712512F974003511FA7B01E92F4D
:10163400F9EE3AFA1222C38F16E516B40103121D0D
:0B16440021E51824042515F515809EF3
:10164F0074712512F58274003511F583E0F515FFDD
:03165F00022AA5B7
:1016620074712512F974003511FA7B01AD1412164A
:011672007403
:011673002254
:1006E400020926E86480F8E933E83360110460F015
:1006F400ED33EC337009E8FCE9FDEAFEEBFF22047C
:1007040060DED3EB9FEA9EE99DE8C2E78CF0C2F776
:1007140095F0400CE8CCF8E9CDF9EACEFAEBCFFB42
:100724001208F185D0F05804700320D5B3E80470A2
:10073400075002B2D502093092D5EC0460F7E4CC3C
:10074400C0E0C398F8603B94186008400DD0E0FB0B
:10075400020908E4FBFAC9FC8028E830E406E4C98D
:10076400FBE4CAFCE830E305E4C9CACBFCE854075F
:100774006010F8C3E913F9EA13FAEB13FBEC13FC6A
:10078400D8F130F52FC3E49CFCEF9BFFEE9AFEED0D
:1007940099FDD0E0FBEF4E4D4C701222DB030209B1
:1007A4002DEC2CFCEF33FFEE33FEED33FDED30E7A3
:1007B400EB020908EF2BFFEE3AFEED39FDD0E0FB2A
:1007C40050130BBB0003020930ED13FDEE13FEEFD3
:0807D40013FFEC13FC020908FD
:1007DC00020930EC5D046005E85904700302092637
:1007EC001208F1580460F6EC4860F2EC7004FDFE5F
:1007FC00FF22C860DB2481C85009C39860025006F0
:10080C0002092D9850CAF582E9294B4A7005AB8232
:10081C0002091C75F0007C1A7880C3EF9BEE9AEDF0
:10082C0099400DC3EF9BFFEE9AFEED99FDE842F067
:10083C00DC23ACF0D0E0FFD0E0FED0E0FDAB8220BA
:10084C00E7101BEB60BAEC2CFCEF33FFEE33FEED44
:10085C0033FD020908E803F830E705C0F075F00035
:10086C00EF2FFFEE33FEED33FD40B830E7C280AA28
:10087C0075F020800E75F010800575F0087D007EF7
:10088C00007F003392D530D503120C0BEC334010A3
:10089C00EF33FFEE33FEED33FDEC33FCD5F0ED2200
:0E08AC00E5F0247EA2D513CC92E7CDCEFF223C
:1008BA00EDD2E7CD33EC3392D524814006E4FFFE36
:1008CA00FDFC22FCE4CFCECDCC24E0501174FF8095
:1008DA00EDC3CC13CCCD13CDCE13CECF13CF047032
:0708EA00F030D5DE020C0B1B
:1008F100E9D2E7C933E833F892D5EDD2E7CD33EC4D
:0709010033FC5002B2D522C5
:10090800EC30E7100FBF000C0EBE00080DBD000450
:100918000BEB6014A2D5EB13FCED92E7FD2274FFFC
:10092800FCFDFEFF22E480F8A2D574FF13FC7D8055
:03093800E480EF69
:101E8800020F8EE493A3F8E493A34003F68001F2D3
:101E980008DFF48029E493A3F85407240CC8C3335B
:101EA800C4540F4420C8834004F456800146F6DF2A
:101EB800E4800B01020408102040809017A4E47EFF
:101EC800019360BCA3FF543F30E509541FFEE4931F
:101ED800A360010ECF54C025E060A840B8E493A3E6
:101EE800FAE493A3F8E493A3C8C582C8CAC583CA11
:101EF800F0A3C8C582C8CAC583CADFE9DEE780BEC9
:0118C4000023
:10093B00E709F608DFFA8046E709F208DFFA803E9E
:10094B0088828C83E709F0A3DFFA8032E309F6088B
:10095B00DFFA8078E309F208DFFA807088828C83F3
:10096B00E309F0A3DFFA806489828A83E0A3F608A7
:10097B00DFFA805889828A83E0A3F208DFFA804C81
:10098B0080D280FA80C680D4806980F28033801058
:10099B0080A680EA809A80A880DA80E280CA8033C1
:1009AB0089828A83ECFAE493A3C8C582C8CCC58339
:1009BB00CCF0A3C8C582C8CCC583CCDFE9DEE78009
:1009CB000D89828A83E493A3F608DFF9ECFAA9F088
:1009DB00EDFB2289828A83ECFAE0A3C8C582C8CCDE
:1009EB00C583CCF0A3C8C582C8CCC583CCDFEADEF7
:1009FB00E880DB89828A83E493A3F208DFF980CC59
:100A0B0088F0EF60010E4E60C388F0ED2402B40451
:100A1B000050B9F582EB2402B4040050AF232345F8
:060A2B00822390098B7389
:100A3100BB010689828A83E0225002E722BBFE02C3
:090A4100E32289828A83E49322F6
:100A4A00BB010CE58229F582E5833AF583E0225061
:100A5A0006E92582F8E622BBFE06E92582F8E222AB
:0D0A6A00E58229F582E5833AF583E49322C5
:100A7700BB010689828A83F0225002F722BBFE015E
:020A8700F32258
:100A8900F8BB010DE58229F582E5833AF583E8F0A3
:100A9900225006E92582C8F622BBFE05E92582C84F
:020AA900F22237
:100AAB00EF8DF0A4A8F0CF8CF0A428CE8DF0A42E5F
:020ABB00FE2219
:100ABD00C5F0F8A3E028F0C5F0F8E58215827002C4
:060ACD001583E038F02261
:0D0AD300EF2BFFEE3AFEED39FDEC38FC2272
:0E0AE000C3EF9BFFEE9AFEED99FDEC98FC2211
:100AEE00E88FF0A4CC8BF0A42CFCE98EF0A42CFCA7
:100AFE008AF0EDA42CFCEA8EF0A4CDA8F08BF0A425
:100B0E002DCC3825F0FDE98FF0A42CCD35F0FCEB83
:100B1E008EF0A4FEA9F0EB8FF0A4CFC5F02ECD3948
:0F0B2E00FEE43CFCEAA42DCE35F0FDE43CFC22B5
:100B3D0075F008758200EF2FFFEE33FECD33CDCC6F
:100B4D0033CCC58233C5829BED9AEC99E5829840F2
:100B5D000CF582EE9BFEED9AFDEC99FC0FD5F0D6CF
:100B6D00E4CEFBE4CDFAE4CCF9A88222B800C1B9F9
:100B7D000059BA002DEC8BF084CFCECDFCE5F0CB37
:100B8D00F97818EF2FFFEE33FEED33FDEC33FCEB70
:100B9D0033FB10D703994004EB99FB0FD8E5E4F92B
:100BAD00FA227818EF2FFFEE33FEED33FDEC33FC18
:100BBD00C933C910D7059BE99A4007EC9BFCE99A0C
:100BCD00F90FD8E0E4C9FAE4CCFB2275F010EF2F51
:100BDD00FFEE33FEED33FDCC33CCC833C810D70751
:100BED009BEC9AE899400AED9BFDEC9AFCE899F88C
:0E0BFD000FD5F0DAE4CDFBE4CCFAE4C8F9221F
:0E0C0B00C3E49FFFE49EFEE49DFDE49CFC22FA
:100C1900EB9FF5F0EA9E42F0E99D42F0EC6480C852
:060C290064809845F022F2
:100C2F00EB9FF5F0EA9E42F0E99D42F0E89C45F01B
:010C3F002292
:100C4000E8600FECC313FCED13FDEE13FEEF13FF92
:030C5000D8F122B6
:100C5300E8600FEFC333FFEE33FEED33FDEC33FCFF
:030C6300D8F122A3
:0C0C6600E0FCA3E0FDA3E0FEA3E0FF2201
:0C0C7200E0F8A3E0F9A3E0FAA3E0FB2205
:0C0C7E00ECF0A3EDF0A3EEF0A3EFF022E9
:100C8A00A8828583F0D083D082120CA1120CA11203
:100C9A000CA1120CA1E473E493A3C583C5F0C58328
:100CAA00C8C582C8F0A3C583C5F0C583C8C582C8B4
:010CBA002217
:0C0CBB00A42582F582E5F03583F5832244
:100CC700FAE6FB0808E6F925F0F618E6CA3AF6222E
:100CD700D083D082F8E4937012740193700DA3A3AC
:100CE70093F8740193F5828883E4737402936860C0
:060CF700EFA3A3A380DFC0
:00000001FF
