:0300000002207E5D
:0C207E00787FE4F6D8FD7581820220C551
:10199900045C000000004100690041009E0C410008
:1019A9009F404400960000000044007A00000000B7
:1019B90044007E000000004400B300000000440021
:1019C900A3000000004400B90000000042008A00A2
:1019D90001420078000041006F004100940042007C
:1019E900BE00004200700000410067084100A100EC
:1019F9004100C0000160000161004100B7004100E1
:101A090077004100820141008E0A4100A200410095
:101A1900A00A410093004100950042006D00004179
:101A290000680002810000027F000041006A004155
:101A390000760041008D00410089004100660041A7
:101A49000088004A00A90000000000000000000012
:051A590042006B0000DB
:102B02008E088F098B0A8A0B890CAF051DEF602690
:102B12000509E509AE087002050814F5828E83E402
:102B220093FFAB0A050CE50CAA0B7002050B14F916
:072B3200EF120D3180D422E7
:10002600E4FDFCC3ED9FEC9E50070DBD00010C8066
:01003600F2D7
:0100370022A6
:102C5C008F828E83E4F55FF55EF55DF55CAF82AE39
:102C6C0083E4FCFDAB5FAA5EA95DA85CC3120ECE2B
:082C7C00500543BD1080E62263
:092D6800E0FF7C2F122C847F6433
:102D7100E4FDFCC3ED9FEC9E50070DBD00010C80EE
:012D8100F25F
:012D8200222E
:102D8300758E5190FE917401F0A37410F075BD5FC0
:072D930090FEA07420F02265
:102CF600E490FE80F0758901758DFA758BCB43A83B
:0E2D060008438840758CCB758AEB43881022F9
:102BD20090FF10E054F04408F090FF02E054F044FB
:102BE20002F0D28490FFA07420F0A37404F075CC9C
:102BF2000675CEFF75CD98759E0275981043A81084
:012C020022AF
:102D9A0043B40343B4807F147E0012002675B50144
:072DAA0090FE9B744BF02228
:102D140090FF08E054F04408F090FF00E0540F44A2
:0C2D240030F090FF11E054F04403F02266
:102D300090007AE0FCA3E0FDA3E0FEA3E0FF120E0A
:012D4000DFB3
:0B2D41008F99E59830E1FB5398FD22CC
:1028C8008FB543B440E5B430E5FB53B4DF7F647E95
:1028D80000120026E4FBFAF943B440E5B430E5FB06
:1028E80053B4DFE5B62BFBE5B73AFA7F147E001246
:1028F800002609B910E275B501A9027F647E0012AD
:042908000026AF01F5
:01290C0022A8
:1016EA007B017A0079A97D0A7F007E2F122B029056
:1016FA0000A9E0FFE4FCFDFE900072120F059000C5
:10170A0072E0FCA3E0FDA3E0FEA3E0FF7808120E5E
:10171A00F2900072120F05900072E0F8A3E0F9A3AC
:10172A00E0FAA3E0FB9000AAE0FFE4FCFDFEEB2F49
:10173A00FFEE3AFEED39FDEC38FC900072120F050F
:10174A00900072E0FCA3E0FDA3E0FEA3E0FFE47BCF
:10175A00E87A03F9F8120D8D900072120F05E47FF2
:10176A00307E75FDFC900072E0F8A3E0F9A3E0FA80
:10177A00A3E0FBC3120ECE40177F007E097D3D7C9D
:10178A0000900072E0F8A3A3A3E0D3120ECE400AA1
:10179A00900072120F1100009C409000ABE0900084
:1017AA00BDF0700280079000BDE0B4FE0374FFF044
:1017BA009000ACE0FF900090E4F0A3EFF0E0F8E4D2
:1017CA00F0E8900090F09000ADE0FF900091E02FDB
:1017DA00F0900090E03400F0E0FEA3E0FF4E6009D4
:1017EA00D3EF9408EE94074009900090E4F0A374B4
:1017FA0005F09000AEE090008EF0900095F0900019
:10180A00AFE0900083F06006E0D394FF40069000BA
:10181A00837401F09000B0E0F45401900082F07BF0
:10182A00017A00796B7D027F807E2F122B02900055
:10183A006BE0900093F090006CE0900088F0121D2D
:0B184A00E3900088E07003122DC8221C
:10003E00E560600302095243B440E5B430E5FB537A
:10004E00B4DF85B70885B609900079E004F0700634
:10005E00900078E004F09000B9E0F8A3E0F9A3E096
:10006E00FAA3E0FBE4FCFDEB2509FFEA3508FEED03
:10007E0039FDEC38FC9000B9120F059000A7E0FE98
:10008E00A3E0FFC39509EE9508500DC3E5099FF552
:10009E0009E5089EF508800BC3EF9509F509EE9565
:1000AE0008F50890007EE0F8A3E0F9A3E0FAA3E0DB
:1000BE00FBE4FCFDEB2509FFEA3508FEED39FDEC0E
:1000CE0038FC90007E120F05900078E05401FEA3DC
:1000DE00E04E7061D39000BFE094009000BEE094BB
:1000EE000040179000A0E094645042E02402F0E03B
:1000FE00D3946440387464F08033900070E07004E0
:10010E00A3E06401702F90008EE0FF9000A0E0FE4F
:10011E00D39F4019EE94024004E024FEF09000A01C
:10012E00E0C39F500890008EE09000A0F09000A0D9
:10013E00E0FF12270DC3900078E0942050030209CF
:10014E009D43BD10E4F0A3F09000A1E004F09000F8
:10015E00A3E0FCA3E0FDA3E0FEA3E0FF9000B9E066
:10016E00F8A3E0F9A3E0FAA3E0FBEF2BFFEE3AFED3
:10017E00ED39FDEC38FC9000A3120F059000A1E0C4
:10018E00C394084043E4F09000A3E0FCA3E0FDA379
:10019E00E0FEA3E0FF7810120EDF9000A3120F0511
:1001AE009000A3A3A3E0FEA3E0FF9000A8E02FF031
:1001BE009000A7E03EF0E0C313F0A3E013F0900030
:1001CE00A3120F1100000000900067E0C3940850C6
:1001DE0005E004F080569000BEE07002A3E0704C83
:1001EE007F0A1228C890008FEFF09000B8E0FE242E
:1001FE0002FDE433FCEFD39DEC6480F874809850DC
:10020E001E90008FE02402FDE433FCEED39DEC64DF
:10021E0080F874809850089000B8E090008FF090AD
:10022E00008FE09000B8F0E4900067F0E4FFFEFD70
:10023E00FC90007AE0F8A3E0F9A3E0FAA3E0FBC398
:10024E00120ECE704F90007EE0FCA3E0FDA3E0FE08
:10025E00A3E02488FFEE3413FEE43DFDE43CFC9065
:10026E00007A120F0590008AE07002A3E070257FDD
:10027E00407E427D0FFC90007AE0F8A3E0F9A3E007
:10028E00FAA3E0FBD3120ECE400A90007A120F11A1
:10029E00000F4240900069E0701E90007EE0FCA3CB
:1002AE00E0FDA3E0FEA3E0FF900096120F05900084
:1002BE0084120F1100000001900084E0FCA3E0FD09
:1002CE00A3E0FEA3E0FF90007EE0F8A3E0F9A3E038
:1002DE00FAA3E02FFFEA3EFEE93DFDE83CFC90006C
:1002EE0096E0F8A3E0F9A3E0FAA3E0FBC3120ECE6A
:1002FE0040030206C4900084E0FCA3E0FDA3E0FEF0
:10030E00A3E0FF900096E0F8A3A3A3E02FFFEA3E40
:10031E00FEE93DFDE83CFC90007EE0F8A3E0F9A389
:10032E00E0FAA3E0FBC3120ECE40030206C4900017
:10033E0069E004F09000B3E0FCA3E0FDA3E0FEA3AF
:10034E00E0FF90007EE0F8EF2BFFEE3AFEED39FD78
:10035E00EC38FC9000B3120F05900069E0FBE4FA54
:10036E00F9F89000B3E0FCA3E0FDA3E0FEA3E0FFEC
:10037E00120E18900096120F05900096E0FCA3E066
:10038E00FDA3E0FEA3E0FF7803120EDF90008412BF
:10039E000F05E47F207E4EFDFC900084E0F8A3E084
:1003AE00F9A3E0FAA3E0FBC3120ECE500A9000842C
:1003BE00120F1100004E20E47F607EEAFDFC9000DB
:1003CE0084E0F8A3E0F9A3E0FAA3E0FBD3120ECE8B
:1003DE00400A900084120F110000EA60900096E02F
:1003EE00FCA3E0FDA3E0FEA3E0FF90007AE0F8A3FB
:1003FE00E0F9A3E0FAA3E0FBD3120ECE4073900017
:10040E0096E0F8A3E0F9A3E0FAA3E0FB90007AE00F
:10041E00FCA3E0FDA3E0FEA3E09BFFEE9AFEED99A8
:10042E00FDEC98FC9000B9120F057F807E387D019F
:10043E007C009000B9E0F8A3E0F9A3E0FAA3E0FB9A
:10044E00D3120ECE400890009E7406F08029E47FF1
:10045E00407E9CFDFC9000B9E0F8A3E0F9A3E0FA21
:10046E00A3E0FBD3120ECE90009E40087409F080DC
:10047E000690009E740CF090009EE0FF900069E0E4
:10048E00C39F500302055C90007AE0FCA3E0FDA33D
:10049E00E0FEA3E0FF900096E0F8A3E0F9A3E0FAF7
:1004AE00A3E0FB120ECE400302055C90009FE09489
:1004BE001050030206D390009EE0D3940950109082
:1004CE000096E0FCA3E0FDA3E0FEA3E0FF807690A3
:1004DE000096E0FCA3E0FDA3E0FEA3E024A0FFEE67
:1004EE00340FFEE43DFDE43CFC90007AE0F8A3E01E
:1004FE00F9A3E0FAA3E0FBD3120ECE50030206C41A
:10050E0090007AE0FCA3E0FDA3E0FEA3E0FF9000E4
:10051E0096E0F8A3E0F9A3E0FAA3E0FBEF2BFFEEE1
:10052E003AFEED39FDEC38FC90007A120F05900082
:10053E007AE0FCA3E0FDA3E0FEA3E0FFE47B02FA79
:10054E00F9F8120E1890007A120F050206C49000E8
:10055E009FE0FF900069E0C39F50030206D3900016
:10056E007AE0FCA3E0FDA3E0FEA3E024A0FFEE34BE
:10057E000FFEE43DFDE43CFC900096E0F8A3E0F9AC
:10058E00A3E0FAA3E0FBD3120ECE50030206B49002
:10059E00007AE0F8A3E0F9A3E0FAA3E0FB9000965E
:1005AE00E0FCA3E0FDA3E0FEA3E09BFFEE9AFEEDD0
:1005BE0099FDEC98FC9000B9120F057F007E127D1C
:1005CE007A7C00900096E0F8A3E0F9A3E0FAA3E0AD
:1005DE00FBC3120ECE40030206B47F807E1A7D0648
:1005EE007C009000B9E0F8A3E0F9A3E0FAA3E0FBE9
:1005FE00C3120ECE40030206B490009FE09410404A
:10060E000280587FE07E937D047C009000B9E0F874
:10061E00A3E0F9A3E0FAA3E0FBD3120ECE400890BC
:10062E00009F7410F080277FF07E497D027C009041
:10063E0000B9E0F8A3E0F9A3E0FAA3E0FBD3120EB1
:10064E00CE90009F4005740CF080037408F090006B
:10065E009FE0FF900069E0C39F404B90007AE0FC62
:10066E00A3E0FDA3E0FEA3E0FF900096E0F8A3E078
:10067E00F9A3E0FAA3E0FBEF2BFFEE3AFEED39FD16
:10068E00EC38FC90007A120F0590007AE0FCA3E0A3
:10069E00FDA3E0FEA3E0FFE47B02FAF9F8120E18C8
:1006AE0090007A120F0590009FE0FF900069E0C362
:1006BE009F4012E48004E4900069F09000B3120FA2
:1006CE001100000000900094E0D394005003020744
:1006DE0067E014F090009AE0FCA3E0FDA3E0FEA317
:1006EE00E02470FFEE3417FEE43DFDE43CFC900088
:1006FE007AE0F8A3E0F9A3E0FAA3E0FBD3120ECE62
:10070E0050030208BD90009AE0FCA3E0FDA3E0FEBA
:10071E00A3E02498FFEE343AFEE43DFDE43CFC9069
:10072E00007EE0F8A3E0F9A3E0FAA3E0FBC3120E0B
:10073E00CE40030208BD90009AE0FCA3E0FDA3E0CA
:10074E00FEA3E02470FFEE3417FEE43DFDE43CFC16
:10075E0090007A120F050208BDD390008BE0940032
:10076E0090008AE094005003020828A3E024FFF0D2
:10077E0090008AE034FFF0D3A3E0940090008AE06A
:10078E00940050030208287F007E127D7A7C009030
:10079E00007AE0F8A3E0F9A3E0FAA3E0FBD3120E8F
:1007AE00CE400C900072120F11000C3500806B9031
:1007BE000072E0FCA3E0FDA3E0FEA3E0FF90007A50
:1007CE00E0F8A3E0F9A3E0FAA3E02FFFEA3EFEE98A
:1007DE003DFDE83CFC9000B9120F057F407E547D34
:1007EE00897C009000B9E0F8A3E0F9A3E0FAA3E059
:1007FE00FBD3120ECE402390007AE0F8A3E0F9A3CB
:10080E00E0FAA3E0FB74409BFF74549AFE7489993E
:10081E00FDE498FC900072120F05900072E0FCA3AC
:10082E00E0FDA3E0FEA3E0FF90007AE0F8A3E0F97C
:10083E00A3E0FAA3E02FFFEA3EFEE93DFDE83CFC13
:10084E00A3E0F8A3E0F9A3E0FAA3E0FBD3120ECEE7
:10085E00405D9000BDE0FF90008FE0D39F400FD32E
:10086E0090008BE0940090008AE09400404190004C
:10087E00BEE07002A3E0701490007AE0FCA3E0FDED
:10088E00A3E0FEA3E0FF90009A120F059000BEE4D5
:10089E00F0A304F0900089F090009F7408F0E490AB
:1008AE000070F0A3F07881F608F6787FF608F690DF
:1008BE0000A7E0C4F854F0C8A3E0C4540F48FF12D8
:1008CE002D4190008FE0FF122D417810122D3078BF
:1008DE0008122D30A3E0FCA3E0FDA3E0FEA3E0FF91
:1008EE007810120EDF122D4190007EE0FCA3E0FD89
:1008FE00A3E0FEA3E0FF7808120EDF122D41900058
:10090E00B9120F110000000090007E120F110000AE
:10091E0000009000BEE0FEA3E0FFD39400EE940032
:10092E00406D900090E0FCA3E0FDD3EF9DEE9C4067
:10093E005EE49000BEF0A3F0756001900089F09027
:10094E000066F022900070E4F0A304F0E4F56090ED
:10095E00006DF0A3F0900068F07FFAFE122C5C9010
:10096E0000A3120F1100000000E49000A1F090000F
:10097E009F7440F09000947402F09000677406F03B
:0F098E00E4900069F09000B3120F110000000018
:01099D002237
:10221F00E4F5099000B9120F1100000000E4F50871
:10222F0043B440E5B430E5FB53B4DF9000B9E0F8B8
:10223F00A3E0F9A3E0FAA3E0FBAFB6AEB7E4FCFD71
:10224F00EB2FFFEA3EFEED39FDEC38FC9000B912A2
:10225F000F050508E508B480C77F907E01122C5C3E
:10226F009000B9E0FCA3E0FDA3E0FEA3E0FF780B34
:10227F00120EDF8F08E508D3940C400CE508948DFF
:10228F005006E5099414500A0509E509D394504006
:02229F00822299
:0122A100221A
:102325009000B9120F1100000000E4F508E4F50B68
:10233500F50C43B440E5B430E5FB53B4DF85B7098C
:1023450085B60A9000B9E0F8A3E0F9A3E0FAA3E0A6
:10235500FBE4FCFDEB250AFFEA3509FEED39FDEC52
:1023650038FC9000B9120F05050CE50C7002050B41
:10237500B400BFE50BB420BA43BD100508E508B4A9
:1023850008AB9000B9E0FCA3E0FDA3E0FEA3E0FFED
:0D2395007810120EDF9000A7EEF0A3EFF01D
:0123A2002218
:10270D00BF0104E4FE80397E007C007DFF120D6563
:10271D00AC06AD07E4120B3BE4FBFA79C878421224
:10272D000A998F0D8E0C8D0B8C0AE4FFFEFD7C3FFC
:10273D00AB0DAA0CA90BA80A1209A5120B74AE07B2
:10274D0090FF9C7410F075DEFF8EDF75DD947F00B9
:01275D002259
:1011ED00120003122D83122D147F6412270D122C61
:1011FD00F6122BD2122D9A75BBAA90FEA774FFF092
:10120D0053BBF7D2AF7FC87E00122C5C7F641227D0
:10121D000D9000B77401F07F0A1228C890008FEF6F
:10122D00F09000B8F0C2AF1216EA900093E004F00F
:10123D007F807E2F122CD17F107E27122D71900072
:10124D0093E0FF7D807C2F122C847F647E00122D15
:10125D0071D2AF12221F90008EE0FF9000A0F0120D
:10126D00270D7F2C7E01122C5C1223259000B912C4
:10127D000F1100000000900093E0C394034005E4BB
:10128D00F012001E43BD10E560700B900079E05424
:10129D001F70031213B9900082E064016003021302
:1012AD0063E561703DF56075610190008EE0900021
:1012BD00A0F09000A3120F1100000000E49000A117
:1012CD00F090009F7440F09000947402F0900067CD
:1012DD007406F0E4900069F09000B3120F11000055
:1012ED00000012003ED3900071E09400900070E079
:1012FD0094004032900068E0B4012BE4F09000714E
:10130D00E004F07006900070E004F0900083E0FFC0
:10131D00C3900071E09F900070E094004008E4F0ED
:10132D00A3F0FF12270DD39000BFE094009000BEF4
:10133D00E0940040187880E664011846700FF608B6
:10134D00F6A3E004F070069000BEE004F090008D6E
:10135D00E06401021283E4F561900077E07007FF0D
:10136D0012270D021283900095E0FF12270DE4F570
:10137D006090008EE09000A0F09000A3120F11007D
:10138D00000000E49000A1F090009F7440F09000E8
:10139D00947402F09000677406F0E4900069F09088
:0C13AD0000B3120F1100000000021283B8
:03001B00021E982A
:101E9800C0E0C0F0C083C082C0D075D000C000C010
:101EA80001C002C003C004C005C006C007AF5FAED2
:101EB8005EAD5DAC5CEF2401F55FE43EF55EE43DAC
:101EC800F55DE43CF55C90006EE004F0700690006F
:101ED8006DE004F090006DE0FEA3E0FFE4FCFD7B04
:101EE800607AEAF9F8D3120EB8500C90006DE4F05D
:101EF800A3F090006804F0788206E618700106C323
:101F08007882E694E818E69403401190006A740118
:101F1800F07600087600787F760008F6D007D006BD
:101F2800D005D004D003D002D001D000D0D0D082C8
:071F3800D083D0F0D0E032AD
:030023000227F5BC
:1027F500C0E0C0F0C083C082C0D075D000C000C0AA
:0D28050001C002C003C004C005C006C0072A
:0F281200E59830E00AAF99122A4C5398FED2AFE6
:10282100D007D006D005D004D003D002D001D0000B
:0B283100D0D0D082D083D0F0D0E032B5
:03003B000200219F
:0100210032AC
:102CD10053BBF7C280E5BB20E3F6D280C2AF75FDDE
:102CE100F075FC0F8EFA8FF975FDD275FC2D75FD0F
:052CF100E175FC1E224C
:102C840053BBF7C280E5BB20E3F6D280C2AF8FFB13
:102C940075FDF075FC0F8CFA8DF975FDB475FC4B60
:072CA40075FDE175FC1E2225
:101DE3007F007E2F122CD17F107E27122D71E47B72
:101DF300E87A03F9F8900072E0FCA3E0FDA3E0FEAB
:101E0300A3E0FF120E187808120EDF7D007C2F125C
:101E13002C847F647E00122D71E47BE87A03F9F849
:101E2300900072E0FCA3E0FDA3E0FEA3E0FF120E2E
:101E3300187D017C2F122C847F647E00122D7190FB
:101E430000BD7D02122D689000907D03122D68A3C2
:101E5300E0FF7D04122D6A90008EE0FF7D05122DB8
:101E63006A900083E0FF7D06122D6A900082E0F401
:101E7300FF7D07122D6A7F807E2F122CD17F107E6B
:101E830027122D717D807C2FE4FF122C840D0F12FD
:041E93002C84D2AF1A
:011E97002228
:041A5E00027D000005
:10249000EFC39430400CEFD39439500674D02FFF23
:1024A0008022EFC39441400CEFD394465006EF24B2
:1024B000C9FF8010EFC39461400AEFD394665004C3
:1024C000EF24A9FFEF540FC454F0FFEDC394304044
:1024D0000CEDD39439500674D02DFD801EEDC394BD
:1024E000414008EDD394465002800CEDC394614006
:1024F0000AEDD394665004ED24A9FDED540F420774
:0125000022B8
:062613008B198A1A891BD5
:10261900E4F51FF51EF51DF51CE94A4B7005FFFE93
:10262900FDFC22E4F51FF51EF51DF51CAB19051B74
:10263900E51BAA1A7002051A14F9120CEB6017E5CA
:102649001F2401F51FE4351EF51EE4351DF51DE4B3
:0E265900351CF51C80D6AF1FAE1EAD1DAC1C8F
:012667002250
:062A0F008B258A268927B1
:102A15008B2B8A2C892DE94A4B7004FBFAF922E5A8
:102A25002A152AAE29700215294E6014AB2B052DE7
:102A3500E52DAA2C7002052C14F9ED120D3180DF5D
:062A4500AB25AA26A9271B
:012A4B002268
:061C51008B208A2189228C
:101C57008B288A29892A85232B85242C85252DE9FC
:101C67004A4B6008E5254524452370077B007A0029
:101C7700790022D3852C83852D82E52A9582E52953
:101C870095834019E52D2527F9E52C3526FA8A8312
:101C97008982D3E52A9582E52995834038E4F52E94
:101CA700F52FC3E52F9527E52E95265067AB2BAA71
:101CB7002CA92D852F82852E83120D04AB28AA29E6
:101CC700A92A852F82852E83120D43052FE52F70B4
:101CD700D1052E80CD85262E85272FD3E52F94007D
:101CE700E52E9400402EAB2BAA2CA92DE52F24FF1F
:101CF700FFE52E34FFFE8F82F583120D04AB28AA71
:101D070029A92A8F828E83120D43E52F152F70CBB9
:0A1D1700152E80C7AB20AA21A922D7
:011D2100229F
:0627AB008B3B8A3C893DD6
:1027B1008B418A428943AB3EAA3FA940120CEB6090
:1027C100220540E5407002053F14F9120CEBFFAB06
:1027D1003B053DE53DAA3C7002053C14F9EF120DA5
:1027E1003180D3AB3BAA3CA93DE4120D31AB41AAE8
:0327F10042A943B7
:0127F40022C2
:102561008B628A638964AB62AA63A964120CEBFF74
:102571006026AB65AA66A967120CEB601BB507184C
:1025810074012564F564E43563F56374012567F529
:1025910067E43566F56680CEAB65AA66A967120C5D
:1025A100EBFF3395E0FEAB62AA63A964120CEBFD6D
:0C25B1003395E0FCC3ED9FFFEC9EFE2282
:10290D008F7C8E7B8D7A8C797818120EDFEF120DFD
:10291D0031AF7CAE7BAD7AAC797810120EDF9000C2
:10292D0001EF120D43AF7CAE7BAD7AAC7978081216
:10293D000EDF900002EF120D43E57CFF900003EFD8
:03294D00020D4335
:101F3F00E4F52FF52EF52DF52C120CEBFFE48F2F7A
:101F4F00F52EF52DF52CAE2EAD2DAC2C7808120EEE
:101F5F00F28F2F8E2E8D2D8C2C900001120D04FFE1
:101F6F00E52F4FF52FE52EF52EE52DF52DE52CF56B
:101F7F002CAF2FAE2EAD2DFC7808120EF28F2F8EB8
:101F8F002E8D2D8C2C900002120D04FFE52F4FF596
:101F9F002FE52EF52EE52DF52DE52CF52CAF2FAEDB
:101FAF002EAD2DFC7808120EF28F2F8E2E8D2D8CCC
:101FBF002C900003120D04FFE52F4FF52FE52EF5A2
:101FCF002EE52DF52DE52CF52CAF2FAE2EAD2DFCDE
:011FDF0022DF
:102DDA00E4FDFCFFFE122D54AC06AD077F0302236F
:012DEA00A345
:102DC800E4FDFCFFFE0D122D54AC06AD077F030297
:022DD80023A333
:08283C008F688B698A6A896BC1
:10284400E4FCFFFEAD68122D54AC06E4FD122D54D9
:10285400AC06E56CFD122D54AC06AD6D122D54ACD6
:1028640006AD07AB69AA6AA96B856C1E856D1F123C
:0D2874002ACCAC06AD077F061223A37F011E
:012881002234
:042950008D26AB071E
:10295400E4FCFFFEAD03122D54AC067D01122D5490
:10296400AC06E4FD122D54AC067D01122D54AC06C8
:10297400AD07E5267003FD8006AF05AE047D0112A8
:0D2984002D54AC06AD077F061223A37F0182
:012991002223
:02219600AB0795
:10219800E4FCFFFEAD03122D54AC067D02122D5453
:1021A800AC06E4FD122D54AC067D04122D54C00675
:1021B800C007AF2EAE2DAD2CAC2B7818120EDFADAC
:1021C80007D007D006122D54C006C007AF2EAE2D7B
:1021D800AD2CAC2B7810120EDFAD07D007D006124D
:1021E8002D54C006C007AF2EAE2DAD2CAC2B7808F1
:1021F800120EDFAD07D007D006122D54AC06C0076B
:10220800E52EFFE4AD07D007122D54AC06AD077FCD
:06221800061223A37F0162
:01221E00229D
:082882008F6E8B6F8A70897163
:10288A00E4FCFFFEAD6E122D54AC067D03122D54EE
:10289A00AC06E572FD122D54AC06AD73122D54AC84
:1028AA0006AD07AB6FAA70A97185721E85731F12D8
:0D28BA002ACCAC06AD077F061223A37F01D8
:0128C70022EE
:042B39008D26AB0733
:102B3D00E4FCFFFEAD03122D54AC067D04122D54A2
:102B4D00AC06E4FD122D54AC067D01122D54AC06DD
:102B5D00AD26122D54AC06AD077F061223A37F01BF
:012B6D002245
:021A8700AB07AB
:101A8900900000AF82AE83AD03122D548E838F82F6
:101A99007D05122D548E838F82E4FD122D548E8381
:101AA9008F8274FFFFE577FEE576FDE575FCE47B43
:101AB900FFFAF9F8C3120ECE7012AF82AE837D0120
:101AC900122D548E838F82AD78021B6174FFFFFE45
:101AD900E576FDE575FCE47BFF7AFFF9F8C3120EA4
:101AE900CEAF82AE8370047D02803E7D04122D54F8
:101AF9008E838F82C006C007AF78AE77AD76AC759E
:101B09007818120EDFAD07D007D006122D548E8338
:101B19008F82C006C007AF78AE77AD76AC75781006
:101B2900120EDFAD07D007D006122D548E838F8297
:101B3900C006C007AF78AE77AD76AC757808120EDF
:101B4900DFAD07D007D006122D548E838F82C007D0
:101B5900E578FFE4AD07D007122D548E838F82AD4F
:0A1B690082AC837F061223A37F01E4
:011B7300224F
:082E1B008C268D27120CEBFF41
:012E2300228C
:082E24008C268D27120CEBFF38
:012E2C002283
:072E3F008C2A8D2B121F3FAE
:012E46002269
:10000300754F017550007551437552017553007555
:080013005443E4F54DF54E22C3
:102A4C00C3E54E9421E54D94005031C3900064E5EC
:102A5C00519582E55095834009754F01755000756D
:102A6C005143AB4F0551E551AA507002055014F972
:0D2A7C00EF120D31054EE54E7002054D22A2
:1013B900E4F508F509F50AF50BF50CF50DF50E75CB
:1013C9000F09C3E57E9421E57D94005027122DEB8A
:1013D900D3EF9400EE9400401B1229D1057EE57EDF
:1013E900AC7D7002057D142401F58274003CF583FF
:1013F900EFF080CEC3E57E9409E57D9400500302A9
:10140900156DC3E57E9509FDE57D9508FCC3ED9451
:1014190009EC9400500302151074012509F5827432
:10142900003508F583E06455600A0509E50970D2BD
:10143900050880CE74022509F58274003508F58304
:10144900E064AA600A0509E50970B7050880B37464
:10145900032509F58274003508F583E0750C00F55C
:101469000D6402450C60047402803C74072509F57B
:101479008274003508F583E0750B00F50A740825B8
:1014890009F58274003508F583E02409FFE433FE89
:10149900EF250BF50BEE350AF50AD3E50B942AE592
:1014A9000A9400400974032509F509E48052C3ED43
:1014B900950BEC950A405074012509F9740035081B
:1014C900FA7B01E50B24FFFDE50A34FFFC122BA092
:1014D900E509250BFDE508350AFC74002DF5827434
:1014E900003CF583E06F600974032509F509E48080
:1014F9000FAF09AE0812156EE50B2509F509E50AC6
:101509003508F50802140BC3E57E9509F57EE57DDE
:101519009508F57DD3E57E9400E57D94004045E589
:101529000945087020E57E9421E57D940040160563
:1015390009E50970020508E57E9509F57EE57D95C1
:1015490008F57D800074012509F9740035087523B3
:1015590001F5248925857D26857E277B017A0079F9
:0415690001121C51FE
:01156D00225B
:101A62004100C5004400C1000000005200C601014F
:101A7200030265046602670168026902710172016C
:03001E00022DC8E8
:03003800022D4155
:101D2200900000E0FD7F01122950900077E0FD7FD6
:101D32007112295090008EE0FFE48F2EF52DF52CC4
:101D4200F52B7F031221969000BDE0FFB4FF05E45E
:101D5200F518801EEFB4C8057518028015EFB42877
:101D620005751803800CEFB414057518048003750B
:101D72001805AD187F65122B39900090E0FEA3E0A4
:101D8200FFE48F2E8E2DF52CF52B7F661221969077
:101D92000082E0FD7F67122950900083E0FFE48F0C
:101DA2002EF52DF52CF52B7F68122196E47B107A07
:101DB20027F9F8900072E0FCA3E0FDA3E0FEA3E0A7
:101DC200FF120E18C374329FFFE48F2EF52DF52CEF
:101DD200F52B7F6912219690008DE0FD7F7202291A
:011DE20050B0
:102DB100122E1B900000EFF0FD7F01122950BF0180
:062DC100037F01227F00E8
:012DC70022E9
:1026BB00122E3F8F298E288D278C2690008EE0FFBF
:1026CB00E4FCFDFEAB29AA28A927A826C3120ECE2F
:1026DB006006E4FF0FBF08FCAF2990008EEFF0906F
:1026EB000095F0121DE390008EE0FFE48F2EF52D88
:1026FB00F52CF52B7F03122196BF01037F01227F5F
:01270B0000CD
:01270C0022AA
:10241A00122E249000C5E0B5070FBF05129000BD2B
:10242A00E0FE90008FE06E8006E4FE0EBE08FCEF30
:10243A0014601014601514601A14601F14602424A8
:10244A000570289000BD74FFF080209000BD74C80C
:10245A00F080189000BD7428F080109000BD7414AC
:10246A00F0800890008FE09000BDF09000C5EFF07A
:10247A00121DE39000C5E0FD7F65122B39BF0103F1
:05248A007F01227F002C
:01248F00222A
:1025BD00122E3F8F298E288D278C26900090E0FEBD
:1025CD00A3E0FFE4FCFDAB29AA28A927A826C31286
:1025DD000ECE6006E4FF0FBF08FC900090E528F0DA
:1025ED00A3E529F0121DE3900090E0FEA3E0FFE4C7
:1025FD008F2E8E2DF52CF52B7F66122196BF0103A4
:05260D007F01227F00A7
:0126120022A5
:102B6E00122E1B900082E06F6006E4FE0EBE08FC83
:102B7E00EF9000827003F080037401F0121DE39059
:102B8E000082E0FD7F67122950BF01037F01227F83
:012B9E000036
:012B9F002213
:10275E00122E3F8F298E288D278C26900083E0FF26
:10276E00E4FCFDFEAB29AA28A927A826C3120ECE8B
:10277E006006E4FF0FBF08FC900083E529F0121DF0
:10278E00E3900083E0FFE48F2EF52DF52CF52B7FE3
:0C279E0068122196BF01037F01227F001A
:0127AA00220C
:1022A200122E3F8F298E288D278C269000C1E0FCAC
:1022B200A3E0FDA3E0FEA3E0FFAB29AA28A927A87B
:1022C20026C3120ECE6006E4FF0FBF08FCAF29AE94
:1022D20028AD27AC269000C1120F05C37432952990
:1022E200FFE49528FEE49527FDE49526FCE47B10A7
:1022F2007A27F9F8120D8D900072120F05121DE364
:102302009000C1E0FCA3E0FDA3E0FEA3E0F52E8E69
:102312002D8D2C8C2B7F69122196BF01037F012208
:022322007F003A
:012324002296
:10299200122E1B900077E06F6006E4FE0EBE08FC6C
:1029A200EF7006900077F08013900082E0B4010689
:1029B2009000897401F09000777401F0900077E044
:0E29C200FD7F71122950BF01037F01227F00AB
:0129D00022E4
:102C3000122E1BAD0790008DE06D6006E4FF0FBF04
:102C400008FCED90008D7003F080037401F07F723A
:0B2C5000122950BF01037F01227F000A
:012C5B002256
:022E47008F25D5
:042E49008C268D271F
:012E4D002262
:061B74008B208A2189226A
:101B7A00E4F525EF120F421BA0011BCF031BDE6504
:101B8A001BED661BFC671C0B681C1A691C29711C5F
:101B9A00387200001C49AB20AA21A922AD24AC232B
:101BAA00122DB18F25E52564016003021C4E9000B9
:101BBA00A2E004F0E0C394055003021C4EE4F012C4
:101BCA00001E021C4EAB20AA21A922AD24AC23126E
:101BDA0026BB8067AB20AA21A922AD24AC231224FC
:101BEA001A8058AB20AA21A922AD24AC231225BD04
:101BFA008049AB20AA21A922AD24AC23122B6E80E6
:101C0A003AAB20AA21A922AD24AC2312275E802B4D
:101C1A00AB20AA21A922AD24AC231222A2801CAB9C
:101C2A0020AA21A922AD24AC23122992800DAB202F
:101C3A00AA21A922AD24AC23122C308F258000E4DE
:061C4A009000A2F0AF259E
:011C50002271
:032E5A007F0922CB
:102C03007B2270223A2200726C376677713332006E
:102C1300222C2276223A2200312E302E3000227DC1
:0D2C2300001F1C1F1E1F1E1F1F1E1F1E1F37
:041A8200410000001F
:092E2D00900064EEF0A3EFF02226
:092E3600900064E0FEA3E0FF221D
:082D4C00AB07E4FCFFFEAD0340
:102D5400742A2FF974003EFA7B01ED120D310FBF76
:032D640000010E5D
:012D67002249
:062AC600AF187E007BFF4B
:0A2ACC008E198F1A8B1B8A1C891DBE
:102AD600742A2FF974003EFA7B01851B23851C247A
:102AE600851D25851E26851F27121C51E51F251AC3
:0B2AF600F51AE51E3519F519FEAF1AA0
:012B010022B1
:102A89008B318A3289338C348D35E94A4B602DE597
:102A99003545346027E5351535AE34700215344EA9
:102AA900601AAB31AA32A933120CEBFF1200387449
:0D2AB900012533F533E43532F53280D922A2
:0A2BA0008B318A3289338C348D3575
:102BAA00E4FFFDFCC3ED9535EC9534501AAB3105C5
:102BBA0033E533AA327002053214F9120CEB2FFFF7
:072BCA000DBD00010C80DDD0
:012BD10022E1
:0623A3008C2F8D30AB070A
:1023A900E4FF122E36AD07AC069000227455F0A357
:1023B90074AAF0A37402F0AF04A3EFF0AF05EFA382
:1023C900F0A3EBF0E52FA3F0E530A3F00DBD00017C
:1023D9000CAF05AE04122E2D74092530F530E43505
:1023E9002FF52F7B017A007922E53024FFFDE52FB7
:1023F90034FFFC122BA074212530F5827400352F8F
:10240900F583EFF07B017A007922AD30AC2F022AF7
:012419008939
:022CAB008F1F79
:102CAD00122E5AE4FEEEC39F501775F002EEA424C7
:102CBD00C6F582E5F03400F583E0651F60030E80F4
:032CCD00E4AF066B
:012CD00022E1
:0E2DEB00E54E454D7003120003AE4DAF4E2273
:1029D100E4FFD3E54E9400E54D940040309000644F
:1029E100E5549582E553958340097552017553006D
:1029F100755443AB520554E554AA53700205531460
:0D2A0100F9120CEBFFE54E154E7002154D5D
:012A0E0022A5
:080F68008F288E278D268C25B1
:100F7000782B7C007D007BFF7A2C79247E007F0C0F
:100F8000120CC5E4F537F538F539F53AFFFEFDFCEE
:100F9000AB28AA27A926A825C3120ECE6006E52AEB
:100FA000452970077B007A00790022E47B3CFAF93E
:100FB000F8AF28AE27AD26AC25120E18AF03E52AF0
:100FC0002406F582E43529F583EAF0A3EFF0AF2893
:100FD000AE27AD26AC25E47B3CFAF9F8120E188F4B
:100FE000288E278D268C25E47B3CFAF9F8120E1802
:100FF000E52A2405F582E43529F583EBF0AF28AE28
:1010000027AD26AC25E47B3CFAF9F8120E188F28A0
:101010008E278D268C25E47BF87A88F9F8120E1835
:101020008E378F38E5387802C333CE33CED8F924E3
:10103000B2FFEE3407852A82852983F0A3EFF0AF53
:1010400028AE27AD26AC25E47BF87A88F9F8120E95
:1010500018AC00AD01AE02AF038F288E278D268C11
:1010600025753922753A38852A82852983A3E0546B
:1010700003700B7418253AF53AE43539F539AE3971
:10108000AF3AE4FCFDAB28AA27A926A825C3120E77
:10109000CE402E852A82852983E475F001120D77D2
:1010A000AE39AF3AAB07AA06C3E5289BF528E5277A
:1010B0009AF527E5269400F526E5259400F5258088
:1010C000A0E47B18FAF9F8AF28AE27AD26AC2512BC
:1010D0000E18E52A2404F582E43529F583EBF0AFF8
:1010E00028AE27AD26AC25E47B18FAF9F8120E18C5
:1010F0008F288E278D268C25EF2401F528E43EF5D8
:1011000027E43DF526E43CF525852A82852983A33D
:10111000E0540370587F3CFEFDFCAB28AA27A926AB
:10112000A825D3120ECE401AE52824FFF528E5277E
:1011300034FFF527E52634FFF526E52534FFF525B0
:10114000802BE47F3CFEFDFCAB28AA27A926A8251E
:10115000C3120ECE7017852A82852983A3A304F0BB
:10116000852A82852983A3A3A3741D8078852A827A
:10117000852983A3A3E4F0852A82852983A3A3E09C
:10118000242BF8E6FF3395E0FEFDFCAB28AA27A947
:1011900026A825D3120ECE4036852A82852983A320
:1011A000A3E0242BF8E6FB3395E0FAF9F8C3E52831
:1011B0009BF528E5279AF527E52699F526E5259854
:1011C000F525852A82852983A3A3E004F080A885DC
:1011D0002A82852983A3A3E004F0852A82852983B6
:0C11E000A3A3A3E528F0AA29A92A7B01FB
:0111EC0022E0
:0C2DF900122D4CAC06AD077F0B0223A38B
:0C2E0500122D4CAC06AD077F0C0223A37D
:081FE0008B448A4589468D47B8
:101FE800E4FDFCF54B754C08E54C154CAE4B700206
:101FF800154B4E601FAF05AE04AB440546E546AA37
:10200800457002054514F9120CEBFD122D54AC066F
:10201800AD0780D4AF05AE04AD47122D54AC06AD64
:1020280007C006C007E549AE487818CEC313CE13DB
:10203800D8F9FDD007D006122D54AC06AD07C0065E
:10204800C007E549AE487810CEC313CE13D8F9FDC2
:10205800D007D006122D54AC06E548FD122D54AC1D
:1020680006AD49122D54AC06AD4A122D54AC06AD3E
:06207800077F0D0223A307
:082668008F558B568A578958E3
:10267000E4FCF55A755B08FFFEAD558023E55B155C
:102680005BAE5A7002155A4E601FAF05AE04AB56D2
:102690000558E558AA577002055714F9120CEBFDBE
:1026A000122D54AC06AD0780D4AF05AE04AD59125F
:0B26B0002D54AC06AD077F0E0223A3E3
:10210A00E4F5187BFF7A2C79031226138E1E8F1F93
:10211A007A2C7903122AC68F187BFF7A2C790A1235
:10212A0026138E1E8F1F7A2C790A122AC68F187BC5
:10213A00FF7A2C79131226138E1E8F1FAF187E007A
:10214A007BFF7A2C7913122ACC8F187BFF7A2C7991
:10215A001B1226138E1E8F1FAF187E007BFF7A2C50
:10216A00791B122ACC8F187BFF7A2C79211226131D
:10217A008E1E8F1FAF187E007BFF7A2C7921122AC0
:0C218A00CC8F18EFFD7C007F010223A326
:0A2E11008F18E4FDFC7F020223A3EA
:0100220022BB
:062501008B188A19891AEB
:10250700120CEBF51B900001120D04F51C90000254
:10251700120D04751E00F51D900003120D04251EF3
:10252700F51EE4351DF51DAF1B122CAB75F002EF40
:10253700A424C7F582E5F03400F583E0651C600349
:102547007F0022AB18E51A2404F9E43519FA851D32
:0925570023851E24AF1B121B7426
:012560002258
:022E5D008F18CC
:012E5F002250
:032E60000200006D
:021855008D18EC
:10185700E4F51CF51BF51AF519F520F51FF51EF52E
:101867001DF5218B228A238924E518C39408500388
:101877000219987B017A0079D8752900752A08E43E
:10188700FD122A0F7B017A0079E0752900752A0875
:10189700E4FD122A0FE4F521AB220524E524AA234F
:1018A7007002052314F9120CEBFFE51C4FF51CE53C
:1018B7001BF51BE51AF51AE519F519AF1CAE1BAD9B
:1018C7001AFC7808120EF28F1C8E1B8D1A8C1905C4
:1018D70021E521B403C2AB220524E524AA23700223
:1018E700052314F9120CEBFFE51C4FF51CE51BF55E
:1018F7001BE51AF51AE519F519E4F521AB220524BC
:10190700E524AA237002052314F9120CEBFFE52046
:101917004FF520E51FF51FE51EF51EE51DF51DAF6B
:1019270020AE1FAD1EFC7808120EF28F208E1F8D81
:101937001E8C1D0521E521B403C2AB220524E52435
:10194700AA237002052314F9120CEBFFE5204FF5CB
:1019570020E51FF51FE51EF51EE51DF51DAF1CAEA5
:101967001BAD1AAC19752900752AE0120F68AF2054
:10197700AE1FAD1EAC1D752900752AD8120F687CE5
:10198700007DE07F01122E477C007DD8E4FF122EF8
:011997004708
:01199800222C
:062E4E00900000EFF022ED
:062E5400900000E0FF22E7
:04156E008E108F113B
:10157200E4F512F51374062511F58274003510F5A1
:1015820083E0FD74072511F58274003510F583E0C0
:10159200751300F51274082511F58274003510F5E3
:1015A20083E02513F513E43512F51274042511F5C1
:1015B2008274003510F583E07F00FE74052511F575
:1015C2008274003510F583E02FFFE43EFE122E2DCB
:1015D200ED24DC70030216D82423B4080040030271
:1015E20016E99015F275F003A4C58325F0C583733F
:1015F20002160A02160D02163802163B0216A10244
:0B16020016A10216E90216B402210A2C
:10160D0074092511F58274003510F583E0F514FF8A
:10161D00122E4EAF14122E11E5147003122DC8E5C3
:0B162D0014640160030216E9021D2294
:031638000200228B
:10163B00E4F514F516F517F514AF147E00C3EF950A
:10164B0013EE951240030216E9E5112FFDEE35104E
:10165B00FC740B2DF58274003CF583E0751700F5D7
:10166B0016740C2DF58274003CF583E02517F517E5
:10167B00EE3516F51674092511F974003510FA7B41
:10168B0001E92FF9EE3AFA1225018F15E51724041B
:06169B002514F51480A3E4
:1016A10074092511F58274003510F583E0F514FFF6
:0316B100022E5DA9
:1016B40074092511F58274003510F583E0F514746E
:1016C4000A2511F58274003510F583E0F515FDAF98
:0416D40014022E606E
:1016D80074092511F974003510FA7B01AD1312183D
:0116E80055AC
:0116E90022DE
:10099E00020BE0E86480F8E933E83360110460F09C
:1009AE00ED33EC337009E8FCE9FDEAFEEBFF2204BF
:1009BE0060DED3EB9FEA9EE99DE8C2E78CF0C2F7BA
:1009CE0095F0400CE8CCF8E9CDF9EACEFAEBCFFB86
:1009DE00120BAB85D0F05804700320D5B3E8047029
:1009EE00075002B2D5020BEA92D5EC0460F7E4CCC4
:1009FE00C0E0C398F8603B94186008400DD0E0FB4F
:100A0E00020BC2E4FBFAC9FC8028E830E406E4C914
:100A1E00FBE4CAFCE830E305E4C9CACBFCE85407A2
:100A2E006010F8C3E913F9EA13FAEB13FBEC13FCAD
:100A3E00D8F130F52FC3E49CFCEF9BFFEE9AFEED50
:100A4E0099FDD0E0FBEF4E4D4C701222DB03020BF2
:100A5E00E7EC2CFCEF33FFEE33FEED33FDED30E72C
:100A6E00EB020BC2EF2BFFEE3AFEED39FDD0E0FBB1
:100A7E0050130BBB0003020BEAED13FDEE13FEEF5A
:080A8E0013FFEC13FC020BC284
:100A9600020BEAEC5D046005E859047003020BE002
:100AA600120BAB580460F6EC4860F2EC7004FDFEE5
:100AB600FF22C860DB2481C85009C3986002500633
:100AC600020BE79850CAF582E9294B4A7005AB82BA
:100AD600020BD675F0007C1A7880C3EF9BEE9AED78
:100AE60099400DC3EF9BFFEE9AFEED99FDE842F0AB
:100AF600DC23ACF0D0E0FFD0E0FED0E0FDAB8220FE
:100B0600E7101BEB60BAEC2CFCEF33FFEE33FEED87
:100B160033FD020BC2E803F830E705C0F075F000BC
:100B2600EF2FFFEE33FEED33FD40B830E7C280AA6B
:100B360075F020800E75F010800575F0087D007E3A
:100B4600007F003392D530D503120EAAEC33401045
:100B5600EF33FFEE33FEED33FDEC33FCD5F0ED2243
:0E0B6600E5F0247EA2D513CC92E7CDCEFF227F
:100B7400EDD2E7CD33EC3392D524814006E4FFFE79
:100B8400FDFC22FCE4CFCECDCC24E0501174FF80D8
:100B9400EDC3CC13CCCD13CDCE13CECF13CF047075
:070BA400F030D5DE020EAABD
:100BAB00E9D2E7C933E833F892D5EDD2E7CD33EC90
:070BBB0033FC5002B2D52209
:100BC200EC30E7100FBF000C0EBE00080DBD000494
:100BD2000BEB6014A2D5EB13FCED92E7FD2274FF40
:100BE200FCFDFEFF22E480F8A2D574FF13FC7D8099
:030BF200E480EFAD
:10208A000211EDE493A3F8E493A34003F68001F26E
:10209A0008DFF48029E493A3F85407240CC8C33357
:1020AA00C4540F4420C8834004F456800146F6DF26
:1020BA00E4800B0102040810204080901999E47E04
:1020CA00019360BCA3FF543F30E509541FFEE4931B
:1020DA00A360010ECF54C025E060A840B8E493A3E2
:1020EA00FAE493A3F8E493A3C8C582C8CAC583CA0D
:1020FA00F0A3C8C582C8CAC583CADFE9DEE780BEC5
:011A8600005F
:100BF500E709F608DFFA8046E709F208DFFA803EE2
:100C050088828C83E709F0A3DFFA8032E309F608CE
:100C1500DFFA8078E309F208DFFA807088828C8336
:100C2500E309F0A3DFFA806489828A83E0A3F608EA
:100C3500DFFA805889828A83E0A3F208DFFA804CC4
:100C450080D280FA80C680D4806980F2803380109B
:100C550080A680EA809A80A880DA80E280CA803304
:100C650089828A83ECFAE493A3C8C582C8CCC5837C
:100C7500CCF0A3C8C582C8CCC583CCDFE9DEE7804C
:100C85000D89828A83E493A3F608DFF9ECFAA9F0CB
:100C9500EDFB2289828A83ECFAE0A3C8C582C8CC21
:100CA500C583CCF0A3C8C582C8CCC583CCDFEADE3A
:100CB500E880DB89828A83E493A3F208DFF980CC9C
:100CC50088F0EF60010E4E60C388F0ED2402B40495
:100CD5000050B9F582EB2402B4040050AF2323453C
:060CE5008223900C457310
:100CEB00BB010689828A83E0225002E722BBFE0207
:090CFB00E32289828A83E493223A
:100D0400BB010CE58229F582E5833AF583E02250A4
:100D140006E92582F8E622BBFE06E92582F8E222EE
:0D0D2400E58229F582E5833AF583E4932208
:100D3100BB010689828A83F0225002F722BBFE01A1
:020D4100F3229B
:100D4300F8BB010DE58229F582E5833AF583E8F0E6
:100D5300225006E92582C8F622BBFE05E92582C892
:020D6300F2227A
:100D6500EF8DF0A4A8F0CF8CF0A428CE8DF0A42EA2
:020D7500FE225C
:100D7700C5F0F8A3E028F0C5F0F8E5821582700207
:060D87001583E038F022A4
:100D8D00E88FF0A4CC8BF0A42CFCE98EF0A42CFC05
:100D9D008AF0EDA42CFCEA8EF0A4CDA8F08BF0A483
:100DAD002DCC3825F0FDE98FF0A42CCD35F0FCEBE2
:100DBD008EF0A4FEA9F0EB8FF0A4CFC5F02ECD39A7
:0F0DCD00FEE43CFCEAA42DCE35F0FDE43CFC2214
:100DDC0075F008758200EF2FFFEE33FECD33CDCCCE
:100DEC0033CCC58233C5829BED9AEC99E582984051
:100DFC000CF582EE9BFEED9AFDEC99FC0FD5F0D62E
:100E0C00E4CEFBE4CDFAE4CCF9A88222B800C1B957
:100E1C000059BA002DEC8BF084CFCECDFCE5F0CB95
:100E2C00F97818EF2FFFEE33FEED33FDEC33FCEBCE
:100E3C0033FB10D703994004EB99FB0FD8E5E4F989
:100E4C00FA227818EF2FFFEE33FEED33FDEC33FC76
:100E5C00C933C910D7059BE99A4007EC9BFCE99A6A
:100E6C00F90FD8E0E4C9FAE4CCFB2275F010EF2FAF
:100E7C00FFEE33FEED33FDCC33CCC833C810D707AF
:100E8C009BEC9AE899400AED9BFDEC9AFCE899F8EA
:0E0E9C000FD5F0DAE4CDFBE4CCFAE4C8F9227D
:0E0EAA00C3E49FFFE49EFEE49DFDE49CFC2259
:100EB800EB9FF5F0EA9E42F0E99D42F0EC6480C8B1
:060EC80064809845F02251
:100ECE00EB9FF5F0EA9E42F0E99D42F0E89C45F07A
:010EDE0022F1
:100EDF00E8600FECC313FCED13FDEE13FEEF13FFF1
:030EEF00D8F12215
:100EF200E8600FEFC333FFEE33FEED33FDEC33FC5E
:030F0200D8F12201
:0C0F0500ECF0A3EDF0A3EEF0A3EFF0225F
:100F1100A8828583F0D083D082120F28120F281265
:100F21000F28120F28E473E493A3C583C5F0C5838A
:100F3100C8C582C8F0A3C583C5F0C583C8C582C82A
:010F4100228D
:100F4200D083D082F8E4937012740193700DA3A33E
:100F520093F8740193F5828883E473740293686052
:060F6200EFA3A3A380DF52
:00000001FF
