:03000000021CE4FB
:0C1CE400787FE4F6D8FD75817D021D2B91
:10150700046C00000000410007004100430C41004B
:10151700444044003A000000004400180000000066
:1015270044001C0000000044005C00000000440070
:101537004A000000004400640000000042002B0045
:1015470001420016000041000D0041003800420032
:1015570069000042000E00004100010841004600FA
:1015670041006B0041003600410037004100150083
:101577004100200141002E0A410049004100450A6F
:10158700410035004100390042000B0000410003D3
:10159700004200600000420047000041002D00416A
:1015A7000029004100000041000A004100280041D5
:1015B7000014004200210000420033000041006295
:1015C7000041000400420005000041000200410004
:1015D7002A0041002F0041004200017B00017A00F0
:1015E700027C00004C0050000000000000000000DA
:0815F7000000004200080000A2
:10128500EF24A0FFEE340FFEE43DFDE43CFC120626
:1012950009D30205C6E4900046F09000447440F07E
:1012A5009000387402F09000017406F0E490000795
:1012B500F090005C229000181205FD90003A12068D
:1012C5000912046A9000181206159000180205FD0F
:1012D50090003A120609C30205C6E4FCFD12046A31
:1012E50090006402061590003E1205FDEF2470FF84
:1012F500EE3417FEE43DFDE43CFC90001822122973
:10130500C0E47BE87A03F9F89000100205FDE47566
:10131500F001020454900044E0FF900007E0C39FF1
:1013250022D390002CE0940090002BE09400221230
:1013350005FD90001C12060902046A1203EDAC06B5
:10134500AD07E41201C3E4FBFA79C8784202012132
:101355007F647E000229C090001002061590003AB5
:101365000205FDE4FFFEFD7C3F12002D0201FCF0AD
:1013750090002EE0900045F022D390006AE09400A2
:10138500900069E09400227F0A1224BC900030EF9F
:10139500F090006322F090004A0205FD900064027F
:1013A5000609D39DEC6480F874809822E47B02FAE8
:1013B500F9F80205109000180206097E2F1228F090
:0513C5007F107E2722CD
:10275D008E098F0A8B0B8A0C890DAF051DEF602139
:10276D00050AE50AAE097002050914F5828E83E4A7
:10277D0093FF780BE475F00112065EEF1203B9803A
:02278D00D9224F
:10287B008F828E83E4F56FF56EF56DF56CAF82AEDE
:10288B0083E4FCFDAB6FAA6EA96DA86CC31205C6E1
:08289B00500543BD1080E62248
:0929B700E0FF7C2F1228A37F64CD
:1029C000E4FDFCC3ED9FEC9E50070DBD00010C80A3
:0129D000F214
:0129D10022E3
:10000300758E5190FE917401F0A37410F075BD5F6D
:0700130090FEA07420F02212
:10299900E490FE80F0758901758DFA758BCB43A89B
:0E29A90008438840758CCB758AEB438810225A
:1027C10090FF10E054F04408F090FF02E054F04410
:1027D10002F0D28490FFA07420F0A37404F075CCB1
:1027E1000675CEFF75CD98759E0275981043A81099
:0127F10022C5
:102A060043B40343B4807F147E001229C075B50118
:072A160090FE9B744BF022BF
:1029D20090FF08E04488F090FF00E0540F4430F08C
:0A29E20090FF11E054F04403F022CE
:0B2A8E008F99E59830E1FB5398FD2282
:1024BC008FB543B440E5B430E5FB53B4DF1213558C
:1024CC00E4FBFAF943B440E5B430E5FB53B4DFE583
:1024DC00B62BFBE5B73AFA7F147E001229C009B976
:0C24EC0010E275B501A902121355AF01F2
:0124F80022C1
:10110C007B017A0079507D0C7F007E2F12275D9039
:10111C000050E0FFE4FCFDFE12135C12130D780886
:10112C001205EA12135C900010120609900051E0AF
:10113C00FFE4FCFDFE12046A12135C12130DE47B37
:10114C00E87A03F9F812048512135CE47F307E759B
:10115C00FDFC9000101212D840107F007E097D3DDE
:10116C007C00900010121293400A9000101206217D
:10117C0000009C40900052E0900068F070028007E4
:10118C00900068E0B4FE0374FFF0900053E0FF9011
:10119C000031E4F0A3EFF0E0F8E4F0E8900031F077
:1011AC00900054E0FF900031E48FF0120454900052
:1011BC0031E0FEA3E0FF4E6009D3EF9408EE9407F4
:1011CC004009900031E4F0A37405F0900055E090D4
:1011DC00002EF0900039F0900056E0900023F06063
:1011EC0006E0D394FF40069000237401F090005762
:1011FC00E0F45401900020F0900058E0540190006D
:10120C002DF0900059E05401900015F090005AE038
:10121C005401900014F090005BE090000AF07B0108
:10122C007A0079087D027F807E2F12275D9000085E
:10123C00E0900035F0900009E0900028F07F807E6F
:10124C002F1228F07F107E271229C0900035E00461
:10125C00F0E0FF7D807C2F1228A3121355900028FC
:10126C00E07003022ACF900028E0FFB4010A7D81D0
:09127C007C2F1228A31213552245
:10069400900036E06003020B7543B440E5B430E5E6
:1006A400FB53B4DF85B70985B60A900016121313FD
:1006B4001213A1AE09AF0A1212DF90004EE0FEA39E
:1006C400E0FFC3950AEE9509500DC3E50A9FF50AAC
:1006D400E5099EF509800BC3EF950AF50AEE950925
:1006E400F50990001C120609AE09AF0AE4FCFD12DC
:1006F400046A90001C120615900016E05401FEA333
:10070400E04E705212137E4017900045E0946450FE
:100714003DE02402F0E0D3946440337464F0802E0E
:1007240090000EE07004A3E06401702A90002EE0B3
:10073400FF900045E0FED39F4014EE94024004E095
:1007440024FEF0900045E0C39F50031213759000FF
:1007540045E0FF12203CC3900016E09420500302B1
:100764000BA643BD10E4F0A3F0900046E00412137E
:100774009A90006412133A90004A120615900046AB
:10078400E0C394084030E412139A78101205D7900D
:10079400004A12061512139B90004EEE8FF01204BD
:1007A4005490004EE0C313F0A3E013F090004A12FB
:1007B400062100000000900001E0C394085005E009
:1007C40004F08040900069E07002A3E070361213D8
:1007D4008CE0FE2402FDE433FCEF1213A7501890C2
:1007E4000030E02402FDE433FCEE1213A75008901D
:1007F4000063E0900030F0900030E0900063F0E49B
:10080400900001F0E4FFFEFDFC9000181212D87075
:100814003690001C1205FDEF2488FFEE34131212EB
:10082400F812061590002BE07002A3E070197F40C7
:100834007E427D0FFC900018121293400A9000181B
:10084400120621000F4240900007E0701690001C31
:100854001205FD90003A120615900024120621009C
:100864000000019000241213341212D54003020A2E
:100874001B9000241205FD90003A12133A90001CBC
:100884001212D84003020A1B900007E004F0900003
:100894005C12133490005C120615900007E0FFFB15
:1008A400E4FAF9F890005C1205FD12051090003A84
:1008B40012061512136278031205D790002412064B
:1008C40015E47F207E4EFDFC9000241212D8500ABD
:1008D40090002412062100004E20E47F607EEAFD91
:1008E400FC900024121293400A9000241206210066
:1008F40000EA60121362900018121293403E9000B6
:100904003A1206091212CF1204771212E57F807E82
:10091400387D017C009000641212934008900043DB
:100924007406F0801DE47F407E9CFDFC9000641200
:10093400129390004340087409F0800690004374B9
:100944000CF090004312131D403B1212CF1212D52B
:100954005033900044E094105003020A2A9000435C
:10096400E0D39409500512136280111213629000AF
:1009740018121285400C1212BA1213B190001812F8
:100984000615020A1B12131A5003020A2A1212CF66
:1009940090003A12128540771213BA1213621204AD
:1009A400771212E57F007E127D7A7C001212D550F8
:1009B4005E7F807E1A7D067C009000641212D850FF
:1009C4004E900044E09410400280387FE07E937D96
:1009D400047C009000641212934008900044741048
:1009E400F0801B7FF07E497D027C0090006412122F
:1009F400939000444005740CF080037408F01213C3
:100A04001A400C1212BA1213B190001812061512E1
:100A1400131A4012E48004E4900007F090005C1282
:100A2400062100000000900038E0D394004036E036
:100A340014F01212EB1212935003020B2C90003E8E
:100A44001205FDEF2498FFEE343AFEE43DFDE43C4C
:100A5400FC90001C1212D84003020B2C1212EB1251
:100A64000615020B2C121326405774FFF5F01204DE
:100A740054121326404B7F007E127D7A7C00900036
:100A840018121293400C900010120621000C35002D
:100A9400802F12130D1213BA1212E27F407E547D7E
:100AA400897C0090006412129340161213BAC37426
:100AB400409BFF74549AFE748999FDE498FC1213C8
:100AC4005C12130D90001812133A90001C1212932A
:100AD4004056900068E0FF900030E0D39F4005123C
:100AE40013264044900069E07002A3E070091212DA
:100AF400CF90003E120615900069E4F0A304F09034
:100B04000029F090002112131390002A7401F09030
:100B140000447408F0E490000EF0A3F0900060F03C
:100B2400A3F0900047F0A3F09000641206210000A7
:100B3400000090001C12062100000000900069E0F3
:100B4400FEA3E0FFD39400EE94004056900031E001
:100B5400FCA3E0FDD3EF9DEE9C4047E4900069F0D8
:100B6400A3F090003604F0E4900029F0900000F027
:100B74002290000EE4F0A304F0E4900036F090001C
:100B84000BF0A3F0900003F07FFAFE12287B900094
:100B94004A1206210000000012129A1206210000D7
:020BA40000004F
:010BA600222C
:10209C00E4F50A90006412062100000000E4F50942
:1020AC0043B440E5B430E5FB53B4DF1213A1AFB633
:1020BC00AEB71212DF0509E509B480E47F907E010A
:1020CC0012287B9000641205FD780B1205D78F093E
:1020DC00E509D3940C400CE509948D5006E50A945F
:0D20EC0014500A050AE50AD3945040A722BB
:0120F90022C4
:1021570090006412062100000000E4F509E4F50C84
:10216700F50D43B440E5B430E5FB53B4DF85B70A5A
:1021770085B60B1213A1AE0AAF0B1212DF050DE5E0
:102187000D7002050CB400DAE50CB420D543BD1080
:102197000509E509B408C69000641205FD78101218
:0A21A70005D790004EEEF0A3EFF014
:0121B100220B
:10220D00BF0105E4FCFD802E7E007C017DFF1203E5
:10221D00ED1C7D641203FFAC06AD07E41201C38F04
:10222D002D8E2C8D2B8C2AAB2DAA2CA92BA82A12E6
:10223D001368AC06AD0790FF907411F075DA017557
:0E224D00E30175E2FF8CE58DE475E10F7F0083
:01225B002260
:10265800BF0104E4FE801E7E007C007DFF12134053
:102668008F2D8E2C8D2B8C2AAB2DAA2CA92BA82A2A
:10267800121368AE0790FF9C7410F075DEFF8EDFB2
:0526880075DD947F00E8
:01268D00222A
:02203C008F28EB
:10203E00787BE6B528037F0022787BA628E52870FA
:10204E0006900062048016E528B4640CE4900062E9
:10205E00F090002F04F0800B9000627402F0E49078
:10206E00002FF0E528FD7C0090000AE0FF7E0012B4
:10207E001340E4FBFAF9783F12136E8F29C3E5285B
:0D208E009529FF12220DAF291226587F0060
:01209B002222
:100BA700122A4A1200031229D21229991227C112B6
:100BB7002A0675BBAA90FEA774FFF053BBF7D2AF06
:100BC7007FC87E0012287B12138CF0C2AF12110C63
:100BD7007F6412203CD2AF12209C90002EE0FF9041
:100BE7000045F012203C7F2C7E0112287B122157F2
:100BF70090006412062100000000900035E0D394B5
:100C0700034005E4F0122ACF787AE660227F641267
:100C17000DC4E4FF120DC4787D06E618700106D3F3
:100C2700742C787D96740118965004E4787AF690BF
:100C37000004E0FF900062E0FD6F600D7F761228F0
:100C470021900062E0900004F0900042E0FF9000E5
:100C57002FE0FD6F600D7F7712282190002FE09025
:100C67000042F0900002E06401704190002AE0B475
:100C7700013AE4900002F090002AF0900021E0FE93
:100C8700A3E0FF900033E06E7003A3E06F601DE404
:100C97008F2F8E2EF52DF52C7F74121F6290002159
:100CA700E0FFA3E0900033CFF0A3EFF043BD109037
:100CB7000036E0700B900017E0541F7003120F7599
:100CC700900020E064016003020D8C900037E07013
:100CD7001D900036F0A30412137490004A120621E7
:100CE7000000000012129A120621000000001206EE
:100CF70094D390000FE0940090000EE094004033EE
:100D0700900003E0B4012CE4F090000E121314904D
:100D17000023E0FFC390000FE09F90000EE09400D7
:100D27004011E4F0A3F0900014E064016005E4FFD3
:100D370012203C12137E4018900047E07004A3E095
:100D47006401700C900047F0A3F09000691213142F
:100D570090002DE064016003020C01900029E0FF80
:100D6700900000E06F7003020C01EFF0900069E45F
:100D7700F0A304F0E4F508E508C394084003020C67
:100D870001050880F2E4900037F0900015E0700745
:100D9700FF12203C020C01900039E0FF12203CE4D6
:100DA70090003612137490004A12062100000000CA
:0D0DB70012129A12062100000000020C0129
:0B0DC40012203C7F647E0012287B227E
:03001B00021A20A6
:101A2000C0E0C0F0C083C082C0D075D000C000C08C
:101A300001C002C003C004C005C006C007AF6FAE3E
:101A40006EAD6DAC6CEF2401FFE43EFEE43DFDE4C1
:101A50003C8F6F8E6E8D6DF56C90000B1213139092
:101A6000000BE0FEA3E0FFE4FCFD7B607AEAF9F8FE
:101A7000D31205B0500C90000BE4F0A3F0900003DB
:101A800004F0900060121313C3900061E094E8909A
:101A90000060E09403400BE4F0A3F0900047F0A353
:101AA00004F0900005121313C3900006E094E89030
:101AB0000005E094034009E4F0A3F090000204F074
:101AC000D007D006D005D004D003D002D001D0007A
:0B1AD000D0D0D082D083D0F0D0E03224
:030023000222A70F
:1022A700C0E0C0F0C083C082C0D075D000C000C0FD
:0D22B70001C002C003C004C005C006C0077E
:0F22C400E59830E00AAF9912243E5398FED2AF4E
:1022D300D007D006D005D004D003D002D001D0005F
:0B22E300D0D0D082D083D0F0D0E03209
:1028F00053BBF7C280E5BB20E3F6D280C2AF75FDC3
:10290000F075FC0F8EFA8FF975FDD275FC2D75FDF3
:05291000E175FC1E2230
:1028A30053BBF7C280E5BB20E3F6D280C2AF8FFBF8
:1028B30075FDF075FC0F8CFA8DF975FDB475FC4B45
:0728C30075FDE175FC1E220A
:101C41007F001213C012130312051078081205D772
:101C51007D007C2F1228A37F647E001213031205DE
:101C6100107D017C2F1228A31213559000687D026C
:101C71001229B79000317D031229B7A3E0FF7D043B
:101C81001229B990002EE0FF7D051229B990002399
:101C9100E0FF7D061229B9900020E0F4FF7D0712D4
:101CA10029B990002DE0FF7D081229B9900015E0B7
:101CB100FF7D091229B9900014E0FF7D0A1229B9AC
:101CC10090000AE0FF7D0B1229B97F801213C01228
:101CD10029C07D807C2FE4FF1228A30D0F1228A3B9
:021CE100D2AF80
:011CE30022DE
:0415FF00027800006E
:101B960012038CFFE5304FFFE52FFEE52EFDE52D08
:101BA6008F308E2F8D2EF52DFC78081205EA8F309A
:101BB6008E2F8D2E22AF2FAE2EAD2DAC2C1205D72B
:101BC600AD0722AF6BAE6AAD69AC681205D7AD073B
:101BD60022E475F00102065EAB07E4FCFFFEAD03EE
:101BE60022AC06AD077F0622E579950AF579E578F8
:101BF6009509F57822AF73AE72AD71AC700205D758
:101C0600FEE569FDE568FCE47BFF22E4F520F51FAF
:101C1600F51EF51D2212038CAB29AA2AA92B22AB8D
:101C260055AA56A957020373AB58AA59A95A0203D3
:0B1C360073746D250AF9740035092253
:101EF100EFC39430400CEFD39439500674D02FFFC8
:101F01008022EFC39441400CEFD394465006EF2456
:101F1100C9FF8010EFC39461400AEFD39466500467
:101F2100EF24A9FFEF540FC454F0FFEDC3943040E8
:101F31000CEDD39439500674D02DFD801EEDC39461
:101F4100414008EDD394465002800CEDC3946140AA
:101F51000AEDD394665004ED24A9FDED540F420718
:011F6100225D
:062332008B1A8A1B891CB6
:10233800121C11E94A4B7005FFFEFDFC22121C110C
:10234800781A121BD7120373601AE5202401FFE4E0
:10235800351FFEE4351EFDE4351D8F208E1F8D1EB2
:0C236800F51D80DCAF20AE1FAD1EAC1DCB
:012374002246
:0626C3008B268A278928FE
:1026C9008B2C8A2D892EE94A4B7004FBFAF922E5F5
:1026D9002B152BAE2A7002152A4E600B782C121B73
:0D26E900D7ED1203B980E8AB26AA27A92877
:0126F60022C1
:06189B008B218A22892343
:1018A1008B298A2A892B85242C85252D85262EE9AD
:1018B1004A4B6008E5264525452470077B007A00E0
:1018C100790022D3852D83852E82E52B9582E52A09
:1018D10095834019E52E2528F9E52D3527FA8A83C8
:1018E1008982D3E52B9582E52A95834032E4F52F51
:1018F100F530C3E5309528E52F9527505BAB2CAA31
:101901002DA92E853082852F83121C1B853082855F
:101911002F831203CB0530E53070D7052F80D38597
:10192100272F852830D3E5309400E52F94004028F7
:10193100AB2CAA2DA92EE53024FFFFE52F34FFFEA5
:101941008F82F583121C1B8F828E831203CBE530AD
:0E195100153070D1152F80CDAB21AA22A9230D
:01195F002265
:062573008B3C8A3D893E0D
:102579008B428A438944AB3FAA40A9411203736045
:1025890014783F121BD7120373FF783C121BD7EF45
:102599001203B980E1AB3CAA3DA93EE41203B9ABF1
:0525A90042AA43A94411
:0125AE00220A
:1022EE008B558A568957121C25FF6020121C2E60B2
:1022FE001BB5071874012557F557E43556F5567476
:10230E0001255AF55AE43559F55980DA121C2EFF7B
:10231E003395E0FE121C25FD3395E0FCC3ED9FFFC7
:04232E00EC9EFE2201
:1026F7008F738E728D718C7078181205D7EF120355
:10270700B97810121BFB900001EF1203CB78081267
:102717001BFB900002EF1203CBE573FF900003EF62
:032727000203CBDF
:10225C00E4F530F52FF52EF52D120373FFE48F30D6
:10226C00F52FF52EF52DAE2FAD2EAC2D121BAF8C00
:10227C002D900001121B968C2D900002121B968C37
:10228C002D90000312038CFFE5304FFFE52FFEE588
:0A229C002EFDE52D121BB4F52DFCFC
:0122A6002215
:102A7000E4FDFCFFFE122A81AC06AD077F03021EB7
:012A80007ADB
:102A5E00E4FDFCFFFE0D122A81AC06AD077F0302DA
:022A6E001E7ACE
:082375008F5B8B5C8A5D895EC1
:10237D00E4FCFFFEAD5B122A81AC06E4FD122A815E
:10238D00AC06E55FFD122A81AC06AD60122A81AC68
:10239D0006AD07AB5CAA5DA95E855F1F8560201247
:0A23AD0027F2121BE7121E7A7F01CF
:0123B7002203
:0225E9008D273C
:1025EB00121BDE122614E4FD122614AD07E527702C
:1025FB0003FD8006AF05AE047D01122A81AC06AD4A
:08260B00077F06121E7A7F0111
:0E26130022122A81AC067D01122A81AC062219
:101F6200121BDE122A81AC067D02122A81AC06E423
:101F7200FD122A81AC067D04122A81C006C00778B0
:101F820018121BBBD007D006122A81C006C00778E0
:101F920010121BBBD007D006122A81C006C007AFA1
:101FA2002FAE2EAD2DAC2C78081205D7AD07D00779
:101FB200D006122A81AC06C007E52FFFE4AD07D098
:0C1FC20007122A81121BE7121E7A7F0111
:011FCE0022F0
:0823B8008F618B628A63896466
:1023C000E4FCFFFEAD61122A81AC067D03122A8176
:1023D000AC06E565FD122A81AC06AD66122A81AC19
:1023E00006AD07AB62AA63A96485651F85662012E6
:0A23F00027F2121BE7121E7A7F018C
:0123FA0022C0
:022821008D2701
:10282300121BDE122A81AC067D04122A81AC06E457
:10283300FD122A81AC067D01122A81AC06AD271256
:0A2843002A81121BE7121E7A7F01A2
:01284D002268
:0217D400AB0761
:1017D600900000AD031218777D05121883E4FD1200
:1017E600188374FFFFE56A121C06FAF9F8C312059E
:1017F600C6700A7D01121877AD6B02186474FFFF7C
:10180600121C067AFFF9F8C31205C6AF82AE8370C2
:10181600047D02802C7D0412188BC006C007781840
:10182600121BC9D007D00612188BC006C007AF6BB3
:10183600AE6AAD69AC6878101205D7AD07D007D08F
:1018460006121893C006C0077808121BC9D007D025
:1018560006121893C007E56BFFE4AD07D007122AFE
:10186600818E838F82AD82AC837F06121E7A7F01C2
:1018760022AF82AE83122A818E838F8222122A8120
:101886008E838F8222122A818E838F8222122A8150
:051896008E838F822209
:082AA3008C278D28120373FF3C
:012AAB002208
:082AAC008C278D28120373FF33
:012AB40022FF
:072AC7008C2B8D2C12225C08
:012ACE0022E5
:102A4A007574007575AF7576007577AFE49000C838
:042A5A00F0A3F022D3
:10243E00C39000C9E094199000C8E09400502FC3D7
:10244E009000C8E5759582E5749583400675740015
:10245E007575AF0575E575AC747002057414F5826B
:0F246E008C83EFF09000C8E475F0011204542243
:100F7500E4F509F50AF50BF50CF50DF50EF50F750C
:100F85001009C3E5799421E57894005027122A3495
:100F9500D3EF9400EE9400401B1225360579E579D0
:100FA500AC787002057814246DF58274003CF583E5
:100FB500EFF080CEC3E5799409E5789400500302FB
:100FC500110BC3E579950AFDE5789509FCC3ED9408
:100FD50009EC940050030210C6746D250AF582745D
:100FE500003509F583E06455600A050AE50A70D203
:100FF500050980CE746E250AF58274003509F583DE
:10100500E064AA600A050AE50A70B7050980B374A9
:101015006F250AF58274003509F583E0750D00F535
:101025000E6402450D60047402803C7473250AF554
:101035008274003509F583E0750C00F50B74742591
:101045000AF58274003509F583E02409FFE433FECF
:10105500EF250CF50CEE350BF50BD3E50C942AE5D5
:101065000B940040097403250AF50AE4804CC3ED8E
:10107500950CEC950B404A121C37FA7B01E50C24C4
:10108500FFFDE50B34FFFC1228CAE50A250CFDE53A
:1010950009350BFC746C2DF58274003CF583E06F0B
:1010A50060097403250AF50AE4800FAF0AAE091238
:1010B50013CAE50C250AF50AE50B3509F509020FF2
:1010C500C7C3121BEED3E5799400E578940040364A
:1010D500E50A45097017E5799421E5789400400DF6
:1010E500050AE50A70020509121BEE8000121C377D
:1010F500752401F52589268578278579287B017A48
:0611050000796D12189B39
:01110B0022C1
:101603004100D0004400CC000000005E00D1010185
:1016130003026504660267016802690271017201CF
:0C162300730174027501760477049602CE
:10272A00AB21AA22A923AD25AC2422E0FFE48F2FF6
:10273A00F52EF52DF52C22900021E0FEA3E0FFE412
:10274A008F2F8E2EF52DF52C22E0FFE4FCFDFEC323
:03275A000205C6AF
:082ACF00122A5E787A760122DA
:03001E00022A8E25
:10170C00900000E0FD7F011225E9900015E0FD7FBF
:10171C00711225E990002E1227357F03121F62905B
:10172C000068E0FFB4FF05E4F519801EEFB4C805AE
:10173C007519028015EFB42805751903800CEFB4E8
:10174C0014057519048003751905AD197F651228E8
:10175C00219000311227447F66121F62900020E016
:10176C00FD7F671225E99000231227357F68121F31
:10177C0062E47B107A27F9F89000101205FD12052F
:10178C0010C374329F1227367F69121F6290002D8E
:10179C00E0FD7F721225E9900014E0FD7F731225A5
:1017AC00E91227417F74121F62900062E0FD7F7680
:1017BC0012282190002FE0FD7F7712282190000A3B
:0817CC001227357F96021F620F
:102A1D00122AA3900000EFF0FD7F011225E9BF01FE
:062A2D00037F01227F007F
:012A33002280
:1025AF00122AC78F2A8E298D288C2790002EAB2AAE
:1025BF00AA29A928A8271227537002FF22AF2A9011
:1025CF00002EEFF0FE900039F01227377F03121F15
:0925DF0062BF01037F01227F00AD
:0125E80022D0
:1020FA00122AAC9000D0E0B507037F0022EF1460EB
:10210A001014601514601A14601F146024240570DA
:10211A002890006874FFF0802090006874C8F080EE
:10212A00189000687428F080109000687414F08089
:10213A0008900030E0900068F09000D0EFF0FD7F4A
:0C214A0065122821BF01037F01227F00E5
:012156002266
:1023FB00122AC78F2A8E298D288C27900031E0FE58
:10240B00A3E0FFE4FCFDAB2AAA29A928A827C31245
:10241B0005C67002FF22AE29AF2A900031EEF0A361
:10242B00EFF01227497F66121F62BF01037F012263
:02243B007F0020
:01243D00227C
:10291500122AA3900020E0B507037F002290002033
:10292500EFF0FD7F671225E9BF01037F01227F00DC
:01293500227F
:10268E00122AC78F2A8E298D288C27900023AB2AD9
:10269E00AA29A928A8271227537002FF22AF2A9031
:1026AE000023EFF01227377F68121F62BF01037FEE
:0426BE0001227F0076
:0126C20022F5
:101FCF00122AC78F2A8E298D288C279000CC1205B4
:101FDF00FDAB2AAA29A928A827C31205C67002FF9C
:101FEF0022AF2AAE29AD28AC279000CC120615C31C
:101FFF007432952AFFE49529FEE49528FDE4952790
:10200F00FCE47B107A27F9F8120485900010120671
:10201F00159000CC1205FD8F2F8E2E8D2D8C2C7FC1
:0C202F0069121F62BF01037F01227F00C5
:01203B002282
:10278F00122AA3EF7006900015F08013900020E03E
:10279F00B401069000297401F09000157401F090B7
:1027AF000015E0FD7F711225E9BF01037F01227F34
:0127BF000019
:0127C00022F6
:10293600122AA390002DE0B507037F002290002DF8
:10294600EFF0FD7F721225E9BF01037F01227F00B0
:01295600225E
:10295700122AA3900014E0B507037F002290001409
:10296700EFF0FD7F731225E9BF01037F01227F008E
:01297700223D
:1029EC00122AA3EF7002FF22E4900021F0A3F01250
:0929FC0027417F74121F627F0164
:012A050022AE
:10262100122AC78F2790000AE0B527037F00229066
:10263100000AE527F0E4FF12203C900039E0FF1288
:10264100203CE485272F12273A7F96121F62BF0193
:06265100037F01227F005F
:012657002260
:022AE7008F2638
:042AE9008C278D2881
:012AED0022C6
:061ADB008B218A22892301
:101AE100E4F526EF12066E1B10011B32031B3B654A
:101AF1001B44661B4C671B54681B5C691B64711B90
:101B01006C721B74731B7C751B849600001B8E12F8
:101B1100272A122A1D8F26E5266401707590004937
:101B2100E004F0E0C394054069E4F0122ACF021BFF
:101B31009312272A1225AF021B8A12272A1220FA92
:101B4100021B8A12272A1223FB803E12272A1229FE
:101B510015803612272A12268E802E12272A121F4E
:101B6100CF802612272A12278F801E12272A122998
:101B710036801612272A122957800E12272A122977
:101B8100EC800612272A1226218F268000E490007D
:041B910049F0AF2642
:011B9500222D
:032AFA007F0F2229
:10284E007B2270223A220030626E6635716F740000
:10285E00222C2276223A2200312E302E3000227D7A
:0D286E00001F1C1F1E1F1E1F1F1E1F1E1FF0
:04162F0041006C000A
:10163400F07B3CAF29AE28AD27AC26E4FAF9F812CA
:1016440005108F298E288D27227823E475F0011246
:10165400065E0203737F3CFEFDFCAB29AA28A92782
:10166400A8260205C6F526852B82852A83A322ABEC
:1016740007E4FCFFFEAD03122A81AC06AD07227419
:10168400752512F58274003511F583E0F51522FEF7
:10169400FDFCAB29AA28A927A8260205C6FFE51D3B
:1016A4004FFFE51CFEE51BFDE51A8F1D8E1C8D1BEF
:1016B40022FFE5214FFFE520FEE51FFDE51E8F21FA
:1016C4008E208D1F22E4FAF9F8AF29AE28AD27AC9D
:1016D400262274752512F974003511FA7B0122F55E
:1016E40082E4352AF58322C3E5299BFFE5289AFE87
:1016F400E5272274962FF974003EFA7B0122E47BDD
:08170400F87A88F9F8020510DB
:092AB5009000CAEEF0A3EFF0223C
:092ABE009000CAE0FEA3E0FF2233
:0C2A81001216F7ED1203B90FBF00010E92
:012A8D002226
:0A27F2008E1A8F1B8B1C8A1D891E96
:1027FC001216F7851C24851D25851E26851F278509
:10280C00202812189BE520251BF51BE51F351AF512
:04281C001AFEAF1BD6
:012820002295
:1024F9008B328A3389348C358D36E94A4B602DE528
:102509003645356027E5361536AE35700215354E38
:10251900601AAB32AA33A934120373FF12001E7476
:0D252900012534F534E43533F53380D92233
:0A28CA008B328A3389348C358D3649
:1028D400E4FFFDFCC3ED9536EC9535500E783212CD
:0B28E400164F2FFF0DBD00010C80E916
:0128EF0022C6
:061E7A008C308D31AB0736
:101E8000E4FF122ABEAD07AC0690008E7455F0A395
:101E900074AAF0A37402F0AF04A3EFF0AF05EFA3B0
:101EA000F0A3EBF0E530A3F0E531A3F00DBD0001A8
:101EB0000CAF05AE04122AB574092531F531E435AD
:101EC00030F5307B017A00798EE53124FFFDE53075
:101ED00034FFFC1228CA748D2531F5827400353028
:101EE000F583EFF07B017A00798EAD31AC300224BE
:011EF000F9F8
:022978008F20AE
:10297A00122AFAE4FEEEC39F501275F002EE90009E
:0E298A00D1120652E0652060030E80E9AF0610
:01299800221C
:102A34009000C8E07002A3E07003122A4A9000C814
:062A4400E0FEA3E0FF220A
:10253600E4FFD39000C9E094009000C8E094004006
:102546002BE5779582E57695834006757600757757
:10255600AF0577E577AE767002057614F5828E8341
:0C256600E0FF9000C874FFF5F012045470
:012572002246
:050DCF001216468C26FF
:100DD400782C7C007D007BFF7A28796F7E007F0C65
:100DE40012034DE4F538F539F53AF53BFFC3121615
:100DF400936006E52B452A70077B007A0079002270
:100E04007B3C1216C9120510AF03E52B24061216FB
:100E1400E3EAF0A3EF1216348C26E47B3CFAF9F8EB
:100E2400120510E52B24051216E3EB1216348C265A
:100E34001217028E388F39E5397802C333CE33CE98
:100E4400D8F924B2FFEE3407852B82852A83F0A3D8
:100E5400EFF01216CD121702AC00AD01AE02AF03D3
:100E64001216468C26753A22753B3812166BE054DE
:100E740003700B7418253BF53BE4353AF53AAE3A6A
:100E8400AF3BE4FCFDAB29AA28A927A826C3120579
:100E9400C64026852B82852A83E475F0011204540A
:100EA400AE3AAF3BAB07AA061216EB9400FDE5265B
:100EB4009400121646F52680AC7B181216C912054A
:100EC40010E52B24041216E3EBF07B181216378C72
:100ED40026EF2401FFE43EFEE43DFDE43C12164609
:100EE400121669E054037036D3121659401AE529D4
:100EF40024FFFFE52834FFFEE52734FFFDE5263413
:100F0400FF121646F5268016E4C3121659700F1206
:100F1400166BA304F012166BA3A3741D804B121658
:100F24006BA3E4F012166BA3E0242CF8E6FF3395D0
:100F3400E0D3121693402412166BA3E0242CF8E697
:100F4400FB3395E0FAF9F81216EB99FDE5269812B1
:100F54001646121669A3E004F080C912166BA3E0CA
:100F640004F012166BA3A3E529F0AA2AA92B7B018E
:010F7400225A
:082AD7001216737F0B021E7A38
:082ADF001216737F0C021E7A2F
:081DF8008B458A4689478D489E
:101E0000E4FDFCF54C754D08E54D154DAE4C7002EA
:101E1000154C4E600FAF05AE04784512164FFD12FB
:101E2000167B80E4AF05AE04AD4812167BC006C039
:101E300007E54AAE497818CEC313CE13D8F9FDD0C2
:101E400007D00612167BC006C007E54AAE497810D7
:101E5000CEC313CE13D8F9FDD007D006122A81AC19
:101E600006E549FD122A81AC06AD4A122A81AC066C
:0A1E7000AD4B12167B7F0D021E7AA7
:08247D008F4E8B4F8A508951EC
:10248500E4FCF553755408FFFEAD4E8017E5541571
:1024950054AE53700215534E600FAF05AE04784F1E
:1024A50012164FFD12167B80E4AF05AE04AD521235
:0724B500167B7F0E021E7A68
:101D7000E4F5197A28794E121DD87A28794E12275F
:101D8000F28F197A287955121DD87A287955122799
:101D9000F28F197A28795E121DE87A28795E122767
:101DA000F28F197A287966121DE87A287966122747
:101DB000F28F197BFF7A28796C1223328E1F8F20C5
:101DC000AF197E007BFF7A28796C1227F28F19EF0A
:081DD000FD7C007F01021E7A78
:101DD8007BFF1223328E1F8F20AF197E007BFF22DC
:101DE8007BFF1223328E1F8F20AF197E007BFF22CC
:0A2A99008F19E4FDFC7F02021E7A93
:01001A0022C3
:0621B2008B198A1A891B3B
:1021B800120373F51C90000112038CF51D900002A8
:1021C80012038C751F00F51E90000312038C251F47
:1021D800F51FE4351EF51EAF1C12297875F002EFC5
:1021E8009000D2120652E0651D60037F0022AB19F1
:1021F800E51B2404F9E4351AFA851E24851F25AF4A
:042208001C121ADBAF
:01220C0022AF
:022AFD008F192F
:012AFF0022B4
:032B0000020000D0
:021960008D19DF
:10196200E4F51DF51CF51BF51AF521F520F51FF51B
:101972001EF5228B238A248925E519C39408500376
:10198200021A117A0079EF121A127A0079F7121AF2
:1019920012E4F52212164D1216A1F51AFC7808125D
:1019A20005EA1216AE8C1A0522E522B403E61216D7
:1019B2004D1216A1F51AE4F52212164D1216B5F5BE
:1019C2001EFC78081205EA1216C28C1E0522E522B8
:1019D200B403E612164D1216B5F51EAF1DAE1CADC0
:1019E2001BAC1A752A00752BF7120DCFAF21AE2052
:1019F200AD1FAC1E752A00752BEF120DCF7C007D3A
:0F1A0200F77F01122AE77C007DEFE4FF122AE74D
:0F1A1100227B01752A00752B08E4FD1226C322E3
:062AEE0090006CEFF022E5
:062AF40090006CE0FF22DF
:0413CA008E118F12DF
:1013CE00E4F513F51474722512F58274003511F5D7
:1013DE0083E0FD74732512F58274003511F583E0F8
:1013EE00751400F51374742512F58274003511F519
:1013FE0083E02514F514E43513F51374702512F5F6
:10140E008274003511F583E07F00FE74712512F5AC
:10141E008274003511F583E02FFFE43EFE122AB5EB
:10142E00ED12066E144E01145102147A03147D044B
:10143E0014DF0514DF0614E60814FE24000015065A
:03144E00021D700C
:10145100121683FF122AEEAF15122A99E5157005AF
:10146100787A760122E515640160030215061217E8
:081471000C121C41E4787AF62C
:041479002202001A31
:10147D00E4F515F517F518F515AF157E00C3EF95C5
:10148D0014EE95135073E5122FFDEE3511FC7477A4
:10149D002DF58274003CF583E0751800F51774780E
:1014AD002DF58274003CF583E02518F518EE3517FF
:1014BD00F5171216D6E92FF9EE3AFA1221B28F1658
:1014CD00E516B40103121C41E51824042515F51584
:0214DD0080A7E6
:0714DF00121683FF022AFD33
:1014E60012168374762512F58274003511F583E0A1
:0814F600F516FDAF15022B00F5
:0814FE001216D6AD141219609C
:0115060022C2
:10002600020268E86480F8E933E83360110460F09E
:10003600ED33EC337009E8FCE9FDEAFEEBFF220440
:1000460060DED3EB9FEA9EE99DE8C2E78CF0C2F73B
:1000560095F0400CE8CCF8E9CDF9EACEFAEBCFFB07
:1000660012023385D0F05804700320D5B3E804702B
:10007600075002B2D502027292D5EC0460F7E4CCC6
:10008600C0E0C398F8603B94186008400DD0E0FBD0
:1000960002024AE4FBFAC9FC8028E830E406E4C917
:1000A600FBE4CAFCE830E305E4C9CACBFCE8540724
:1000B6006010F8C3E913F9EA13FAEB13FBEC13FC2F
:1000C600D8F130F52FC3E49CFCEF9BFFEE9AFEEDD2
:1000D60099FDD0E0FBEF4E4D4C701222DB0302027D
:1000E6006FEC2CFCEF33FFEE33FEED33FDED30E726
:1000F600EB02024AEF2BFFEE3AFEED39FDD0E0FBB4
:1001060050130BBB0003020272ED13FDEE13FEEF5C
:0801160013FFEC13FC02024A86
:10011E00020272EC5D046005E85904700302026885
:10012E00120233580460F6EC4860F2EC7004FDFEE7
:10013E00FF22C860DB2481C85009C39860025006B4
:10014E0002026F9850CAF582E9294B4A7005AB82BC
:10015E0002025E75F0007C1A7880C3EF9BEE9AED7A
:10016E0099400DC3EF9BFFEE9AFEED99FDE842F02C
:10017E00DC23ACF0D0E0FFD0E0FED0E0FDAB82207F
:10018E00E7101BEB60BAEC2CFCEF33FFEE33FEED09
:10019E0033FD02024AE803F830E705C0F075F000BF
:1001AE00EF2FFFEE33FEED33FD40B830E7C280AAED
:1001BE0075F020800E75F010800575F0087D007EBC
:1001CE00007F003392D530D5031205A2EC334010D8
:1001DE00EF33FFEE33FEED33FDEC33FCD5F0ED22C5
:0E01EE00E5F0247EA2D513CC92E7CDCEFF2201
:1001FC00EDD2E7CD33EC3392D524814006E4FFFEFB
:10020C00FDFC22FCE4CFCECDCC24E0501174FF8059
:10021C00EDC3CC13CCCD13CDCE13CECF13CF0470F6
:07022C00F030D5DE0205A24F
:10023300E9D2E7C933E833F892D5EDD2E7CD33EC11
:0702430033FC5002B2D5228A
:10024A00EC30E7100FBF000C0EBE00080DBD000415
:10025A000BEB6014A2D5EB13FCED92E7FD2274FFC1
:10026A00FCFDFEFF22E480F8A2D574FF13FC7D801A
:03027A00E480EF2E
:101CF000020BA7E493A3F8E493A34003F68001F258
:101D000008DFF48029E493A3F85407240CC8C333F4
:101D1000C4540F4420C8834004F456800146F6DFC3
:101D2000E4800B0102040810204080901507E47E37
:101D3000019360BCA3FF543F30E509541FFEE493B8
:101D4000A360010ECF54C025E060A840B8E493A37F
:101D5000FAE493A3F8E493A3C8C582C8CAC583CAAA
:101D6000F0A3C8C582C8CAC583CADFE9DEE780BE62
:0116330000B6
:10027D00E709F608DFFA8046E709F208DFFA803E63
:10028D0088828C83E709F0A3DFFA8032E309F60850
:10029D00DFFA8078E309F208DFFA807088828C83B8
:1002AD00E309F0A3DFFA806489828A83E0A3F6086C
:1002BD00DFFA805889828A83E0A3F208DFFA804C46
:1002CD0080D280FA80C680D4806980F2803380101D
:1002DD0080A680EA809A80A880DA80E280CA803386
:1002ED0089828A83ECFAE493A3C8C582C8CCC583FE
:1002FD00CCF0A3C8C582C8CCC583CCDFE9DEE780CE
:10030D000D89828A83E493A3F608DFF9ECFAA9F04C
:10031D00EDFB2289828A83ECFAE0A3C8C582C8CCA2
:10032D00C583CCF0A3C8C582C8CCC583CCDFEADEBB
:10033D00E880DB89828A83E493A3F208DFF980CC1D
:10034D0088F0EF60010E4E60C388F0ED2402B40416
:10035D000050B9F582EB2402B4040050AF232345BD
:06036D0082239002CD7313
:10037300BB010689828A83E0225002E722BBFE0288
:09038300E32289828A83E49322BB
:10038C00BB010CE58229F582E5833AF583E0225026
:10039C0006E92582F8E622BBFE06E92582F8E22270
:0D03AC00E58229F582E5833AF583E493228A
:1003B900BB010689828A83F0225002F722BBFE0123
:0203C900F3221D
:1003CB00F8BB010DE58229F582E5833AF583E8F068
:1003DB00225006E92582C8F622BBFE05E92582C814
:0203EB00F222FC
:1003ED00EF8DF0A4A8F0CF8CF0A428CE8DF0A42E24
:0203FD00FE22DE
:1003FF00BC000BBE0029EF8DF084FFADF022E4CCE2
:10040F00F875F008EF2FFFEE33FEEC33FCEE9DECAA
:10041F00984005FCEE9DFE0FD5F0E9E4CEFD22EDF0
:10042F00F8F5F0EE8420D21CFEADF075F008EF2F3A
:10043F00FFED33FD4007985006D5F0F222C398FD2B
:05044F000FD5F0EA22C8
:10045400C5F0F8A3E028F0C5F0F8E5821582700233
:060464001583E038F022D0
:0D046A00EF2BFFEE3AFEED39FDEC38FC22E1
:0E047700C3EF9BFFEE9AFEED99FDEC98FC2280
:10048500E88FF0A4CC8BF0A42CFCE98EF0A42CFC16
:100495008AF0EDA42CFCEA8EF0A4CDA8F08BF0A494
:1004A5002DCC3825F0FDE98FF0A42CCD35F0FCEBF3
:1004B5008EF0A4FEA9F0EB8FF0A4CFC5F02ECD39B8
:0F04C500FEE43CFCEAA42DCE35F0FDE43CFC2225
:1004D40075F008758200EF2FFFEE33FECD33CDCCDF
:1004E40033CCC58233C5829BED9AEC99E582984062
:1004F4000CF582EE9BFEED9AFDEC99FC0FD5F0D63F
:10050400E4CEFBE4CDFAE4CCF9A88222B800C1B968
:100514000059BA002DEC8BF084CFCECDFCE5F0CBA6
:10052400F97818EF2FFFEE33FEED33FDEC33FCEBDF
:1005340033FB10D703994004EB99FB0FD8E5E4F99A
:10054400FA227818EF2FFFEE33FEED33FDEC33FC87
:10055400C933C910D7059BE99A4007EC9BFCE99A7B
:10056400F90FD8E0E4C9FAE4CCFB2275F010EF2FC0
:10057400FFEE33FEED33FDCC33CCC833C810D707C0
:100584009BEC9AE899400AED9BFDEC9AFCE899F8FB
:0E0594000FD5F0DAE4CDFBE4CCFAE4C8F9228E
:0E05A200C3E49FFFE49EFEE49DFDE49CFC226A
:1005B000EB9FF5F0EA9E42F0E99D42F0EC6480C8C2
:0605C00064809845F02262
:1005C600EB9FF5F0EA9E42F0E99D42F0E89C45F08B
:0105D6002202
:1005D700E8600FECC313FCED13FDEE13FEEF13FF02
:0305E700D8F12226
:1005EA00E8600FEFC333FFEE33FEED33FDEC33FC6F
:0305FA00D8F12213
:0C05FD00E0FCA3E0FDA3E0FEA3E0FF2271
:0C060900E0F8A3E0F9A3E0FAA3E0FB2274
:0C061500ECF0A3EDF0A3EEF0A3EFF02258
:10062100A8828583F0D083D0821206381206381250
:100631000638120638E473E493A3C583C5F0C58375
:10064100C8C582C8F0A3C583C5F0C583C8C582C823
:010651002286
:0C065200A42582F582E5F03583F58322B3
:10065E00FAE6FB0808E6F925F0F618E6CA3AF6229D
:10066E00D083D082F8E4937012740193700DA3A31B
:10067E0093F8740193F5828883E47374029368602F
:06068E00EFA3A3A380DF2F
:00000001FF
